:100000000C9426040C9443040C9443040C94430471
:100010000C94BD320C9443040C9443040C9443049C
:100020000C9443040C9443040C94AA160C94EC1501
:100030000C94A3240C9443040C9443040C944304A4
:100040000C9443040C9443040C9443040C94430414
:100050000C9443040C942C180C9443040C94430407
:100060000C9443040C9443040C9443040C944304F4
:100070000C9443040C9443040C9443040C944304E4
:100080000C9443040C9443040C9443040C944304D4
:100090000C9443040C9443040C9443040C944304C4
:1000A0000C9443040C9443040C944304F109F409A4
:1000B000270A400A460A510A540A540A540A840B71
:1000C000840BD00AD20AD70AFD0A200B230B260B79
:1000D0004A0B6A0B750BCB0D3F0ED30D9D0DA10D79
:1000E000D70DA40DDA0DE50DAF0D350EB30DE90DED
:1000F000B70DED0D170EBB0DF10D210EC10DF70D56
:10010000010EA80DDE0DAB0DE10DC60DFC0D0D0EA3
:100110002D0E2F0E990DCF0D480ED60EDC0EC70EEC
:10012000CD0EE20EE80EEE0ED00FD00F031003102E
:1001300077109510961196119A100E111F111F111C
:10014000CC11F511FA11FF11041209120E1213123B
:1001500018121D12221229122C122F1232123512CD
:1001600038123B123E124112461204142B14D415BD
:100170002B14D41577149A14D4158F159F151E0FB0
:100180000500047F3F1F643214643214783C1E1E45
:10019000140A0505010902A10185020901A1000552
:1001A0000919012908150025019508750181020525
:1001B00001093009311581257F95027508810609ED
:1001C000381581257F950175088106050C0A3802CE
:1001D0001581257F950175088106C0C0050109803C
:1001E000A101850319012AB700150126B700950161
:1001F00075108100C0050C0901A101850419012AAF
:10020000A002150126A002950175108100C005010C
:100210000906A1018506050719E029E71500250152
:100220009508750181020507190029EF15002501C0
:1002300095F07501810205081901290595057501DB
:100240009102950175039101C00660FF0961A1014A
:100250000962150026FF00952075088102096315C3
:100260000026FF00952075089102C005010906A12E
:1002700001050719E029E715002501950875018199
:10028000029501750881010507190029FF1500264F
:10029000FF0095067508810005081901290515005C
:1002A0002501950575019102950175039101C0091C
:1002B000025B00030100A0FA090400000103010130
:1002C00000092111010001224400070581030800F3
:1002D00001090401000203000000092111010001CD
:1002E00022220007058203200001070503032000E6
:1002F00001090402000103000000092111010001AD
:1003000022B600070584032000011201000200004C
:10031000000801BB12000001010200011C0345009E
:10032000720067006F0074006F006E006900630068
:10033000200046003200340000001603680061000F
:100340006E0061006300680069002D0061007000AC
:100350000000040309042223252628292A2C2D2FF6
:100360003032333536383A3B3D3E404243454749CB
:100370004A4C4E5051535557595A5C5E6062646600
:1003800068696B6D6F71737577797B7D7F8183850C
:1003900087898A8C8E90929496989A9C9E9FA1A30E
:1003A000A5A7A8AAACAEAFB1B3B4B6B8B9BBBCBE32
:1003B000BFC1C2C3C5C6C7C9CACBCCCDCED0D1D2AE
:1003C000D2D3D4D5D6D7D7D8D9D9DADADBDBDBDCB0
:1003D000DCDCDCDCDDDDDDDDDCDCDCDCDCDBDBDB5C
:1003E000DADAD9D9D8D7D7D6D5D4D3D2D2D1D0CEBC
:1003F000CDCCCBCAC9C7C6C5C3C2C1BFBEBCBBB9C1
:10040000B8B6B4B3B1AFAEACAAA8A7A5A3A19F9E3E
:100410009C9A98969492908E8C8A89878583817F06
:100420007D7B79777573716F6D6B696866646260E7
:100430005E5C5A5957555351504E4C4A49474543B3
:1004400042403E3D3B3A3836353332302F2D2C2A50
:10045000292826252322290014001A000800150047
:100460001700000000002B00040016000700090020
:100470000A0000000000E1001D001B00060019003A
:1004800005004C000000160A00000000E2002C41AC
:100490009800E000000000001C0018000C00120092
:1004A00013002E00000000000B000D000E000F00D6
:1004B00033002D000000E30011001000360037006B
:1004C0003800310000002A22284221522352000025
:1004D00000002800000035001E021F022002210239
:1004E00022020000000001001E001F002000210069
:1004F00022000000000001002F0230022F00300017
:1005000035020100000001000000000001000100B0
:10051000010001000000000023022402250226023F
:1005200027022E02000000002300240025002600E0
:1005300027002D020000010034003402360037008D
:10054000380031020000010001000100010000003C
:1005500000000100000001003A003B003C003D00AB
:100560003E000000000039003F0040004100420012
:1005700043000000000001004400450068006900DD
:100580006A000100000001000000000001000100FD
:100590006C006900000000004B00500252004F0246
:1005A000160A0000000000004E00500051004F00ED
:1005B00000000000000001004A004D0000000000A3
:1005C0000000000000000100010001000100000027
:1005D0000000010000000000207827782878137CB4
:1005E000147C000000000000217825782678117C1A
:1005F000107C00000000000022782378247800009E
:10060000127C0000000020780000000001000100C2
:1006100001000100000000000000000000000000D8
:1006200000000000000000000000000000000000CA
:1006300000000000000000000000000000000000BA
:1006400000000000000001000100010001000000A6
:10065000000001000000DC00DB00070006000900CC
:1006600008000B000A00A900AA0007000600090004
:1006700008000B000A00D900DA0007000600090094
:1006800008000B000A0027782878070006000900F8
:1006900008000B000A00FFAA7F554000010101017C
:1006A000010101010102020202020202020203032D
:1006B00003030303030304040404040404050505FD
:1006C00005050606060606070707070708080808BF
:1006D000090909090A0A0A0B0B0B0C0C0C0D0D0D6C
:1006E0000E0E0E0F0F0F1010111111121213131402
:1006F00014151516161717181819191A1A1B1B1C7A
:100700001D1D1E1E1F2020212222232424252626D3
:10071000272829292A2B2C2D2D2E2F303132323308
:100720003435363738393A3B3C3D3E3F4041424311
:100730004445464748494A4C4D4E4F5051535455F5
:100740005658595A5B5D5E5F616264656668696BA5
:100750006C6D6F7072737577787A7B7D7E80828323
:100760008587888A8C8E8F91939596989A9C9EA067
:10077000A2A3A5A7A9ABADAFB1B3B5B7BABCBEC074
:10078000C2C4C6C9CBCDCFD1D4D6D8DBDDDFE2E43D
:10079000E7E9EBEEF0F3F5F8FAFDFF0000000000EA
:1007A0000000000000000000000000000000000049
:1007B0000000000000000000000000000000007EBB
:1007C0000F00D4FFFFFFC70000007800000000000A
:1007D0000000002A2B28000000000000000000009C
:1007E00000000000000029000000002C1E34202121
:1007F0002224342627252E362D3738271E1F202168
:1008000022232425263333362E37381F04050607C6
:1008100008090A0B0C0D0E0F1011121314151617E0
:1008200018191A1B1C1D2F3130232D3504050607FE
:1008300008090A0B0C0D0E0F1011121314151617C0
:1008400018191A1B1C1D2F3130354C0011241FBEE6
:10085000CFEFDAE0DEBFCDBF11E0A0E0B1E0ECEC1D
:10086000FBE602C005900D92A63FB107D9F724E040
:10087000A6EFB1E001C01D92A833B207E1F70E94D4
:1008800045040C94E4350C940000A6E2B0E0EBE4DF
:10089000F4E00C94DE3385B7806885BF85B7806847
:1008A00085BF84B7877F84BF0FB6F894A8958091E1
:1008B0006000886180936000109260000FBE90E03D
:1008C00080E80FB6F89480936100909361000FBEAA
:1008D00083E59EE19093F7018093F6010E94301624
:1008E0000E944F168091E20084608093E200789429
:1008F000809150028823A1F01091E9001F7090911F
:10090000EC00892F817090FD80E8182B1092E9008F
:100910008091E80083FD0E9421131F701093E9006D
:1009200082E084BD93E095BD9AEF97BD80936E0001
:100930001092F8011092F9011092FA011092FB0145
:100940000E94BE25811102C00E94A5278091D80077
:1009500080618093D8002AE12A95F1F700C0809148
:10096000D900182F117080FD04C00E94301610921B
:1009700050021093210410932204109304011123B8
:1009800041F010924A0189E080934B010E94783235
:1009900005C089E080934A0180934B0188E0E3EE33
:1009A000F3E0DF011D928A95E9F780910401882325
:1009B00011F080E001C082E0809322028091040166
:1009C00082E08093270280910401809104018111CB
:1009D0000CC086E380934F0185E38093510184EF3F
:1009E0008093500185EF8093520160E080E00E9487
:1009F000E82861E080E00E94E82860E081E00E9451
:100A0000E82861E081E00E94E828EFE8F1E0319712
:100A1000F1F700C0000010E080912702181790F451
:100A200060E0812F0E94CC28082F61E0812F0E9476
:100A3000CC28E12FF0E0ED5DFD4F880F082B0083FF
:100A40001F5FEACF8091040180910401882311F097
:100A500090E001C094E09093050284E0891B8093AC
:100A6000040204E611E0D8018D918D018F3F11F051
:100A70000E94FF1FB1E008361B07A9F708E611E046
:100A800090E7E92E91E0F92EF80181918F018F3FD7
:100A900011F00E94FF1FE016F106B1F788E0EAE2CC
:100AA000F2E0DF01282F1D922A95E9F7ECEFF1E043
:100AB000DF011D928A95E9F780E090E00E947F3483
:100AC000853E9E4F21F40E94BE25811163C065EED4
:100AD0007EEF80E090E00E94B33460E082E090E03E
:100AE0000E94953481E08093060261E083E090E00B
:100AF0000E94953460E074E184E090E00E94B33499
:100B000060E086E090E00E94953460E087E090E04D
:100B10000E94953440E050E0BA0188E090E00E94E5
:100B2000A73460E083E290E00E94953460E08CE0BE
:100B300090E00E94953460E08DE090E00E94953452
:100B400019821A821B821C821D821E821F821886B5
:100B500048E050E067E170E0CE0101960E948534E4
:100B600040E050E0BA018FE190E00E94A73480E0BD
:100B70000E949F250E94A52740E050E0BA018FE027
:100B800090E00E94A73440E050E0BA0183E190E099
:100B90000E94A73482E090E00E94713480930B029F
:100BA00084E090E00E947F3490932A04809329048B
:100BB0000E949B21EFEFF6E721E0E150F04020405A
:100BC000E1F700C000000E949B2180912A0280FF73
:100BD00008C06FEF7FEF80E090E00E94B3340E9486
:100BE0001B1883E090E00E9471340E94A01D809148
:100BF0000802811184C088E090E00E9479344B01A2
:100C00005C0183E290E00E947134282F30E040E0E4
:100C100050E060E070E080E090E000E20E948A3501
:100C2000282939294A295B292093DB033093DC03E7
:100C30004093DD035093DE036093DF037093E00382
:100C40008093E1039093E203309134043360309356
:100C500034042C7F09F041C025E02093DB0310927F
:100C6000DC033FEF3093DD033093DE031092DF03AC
:100C700030E04FEF5FEF60E00E94613088E090E08D
:100C80000E9479346B017C0183E290E00E94713410
:100C9000282F30E040E050E060E070E080E090E03D
:100CA0000E948A35B22FA32FF42FE52F5B01970105
:100CB0008601BC29A12BF22BE32BB093DB03A0937D
:100CC000DC03F093DD03E093DE036093DF03B09277
:100CD000E0038093E1039093E2030E944D300E9471
:100CE000E2290E9498238091DB0380FF05C060E029
:100CF000869586950E94133181E080930802809149
:100D00002104811102C00E947B3285E091E0909322
:100D100026048093250418E1412E512C02E3602E15
:100D200002E0702E84E0C82ED12C809150028530D4
:100D300009F05CC0FF24F39400E112E180915002BD
:100D4000853009F046C080915002843009F431C0EA
:100D50000E94E22980910A02811109C0F0920A02E0
:100D60008091DB038170809309020E94A72D10926D
:100D70002B0440E40FB6F894A895409260000FBE93
:100D80004093600083B7817F846083BF83B78160B5
:100D900083BF7894889583B78E7F83BF0FB6F8940E
:100DA000A895809160008861809360001092600037
:100DB0000FBE80914F02882309F4C0CF0E949B216F
:100DC000EAE2F2E081918111A8C46E167F06D1F7A4
:100DD000B5CF0E94A31D0E94892510920A0280911E
:100DE000090281110E94B62D0E94E9290E949B21CF
:100DF0000CE012E0BAE2EB2EB2E0FB2E24E132E08E
:100E0000D701F80191918D9189272E173F0719F08D
:100E10008823C1F305C0811103C00E94311A36C076
:100E200020902104B12CD7013D907D01F8018080F4
:100E3000832421F1A12C99249394882D8921B9F040
:100E40002220A9F0A9A2BAA20E946D189CA38BA38C
:100E5000F1E0FDA391E0832D892109F490E09EA3A8
:100E600049A15AA16BA17CA18DA10E94132EA3942C
:100E7000990C28E0A212E1CFD8013C92B3940F5F05
:100E80001F4FB8E0BB12CFCF0E94162080912104E3
:100E90008823E9F08091550182FF19C00E946D18E6
:100EA00020910D0430910E04AC01421B530B209194
:100EB0005301309154014217530748F044E152E086
:100EC000BC0180910F04909110040E941D28809114
:100ED0003304882309F4D0C080913204E091DB030D
:100EE000E695E695E81BE0932E04823059F4F0E095
:100EF000E157FE4FE4910E2F10E0ABEBEA2EACE28F
:100F0000FA2E6BC0863059F4F0E0E457FE4FE491BE
:100F10000E2F10E0FBEAEF2EFCE2FF2E5EC08930C0
:100F200061F4E695F0E0E757FE4FE4910E2F10E0F4
:100F3000E4E0EE2EECE2FE2E50C08F3061F4E69538
:100F4000F0E0EA57FE4FE4910E2F10E075E7E72E30
:100F50007BE2F72E42C0853159F4F0E0ED57FE4FA9
:100F6000E4910E2F10E06FEEE62E6AE2F62E35C009
:100F70008831F9F0833249F4E1E8F1E00591149108
:100F800059E5E52E5CE2F52E28C08432C9F08532A1
:100F9000F1F48E2F63E00E942C35E92FF0E0E25847
:100FA000FE4FE4910E2F10E044ECE42E43E2F42EC9
:100FB00014C008E210E03AE6E32E3AE2F32E0DC048
:100FC00004EF11E02BE2E22E2AE2F22E06C000ED41
:100FD00017E09DEAE92E99E2F92E80912F048823EB
:100FE00061F010922F040E94852090932D0480932D
:100FF0002C0410923104109230040E948520E0915C
:101000002C04F0912D049C012E1B3F0B2F3F3F47DA
:1010100098F520911D022223B1F010921D0220911B
:101020001B0230911C02821B930B8F3F9F4758F489
:10103000205D3A4830931C0220931B0280913404B7
:10104000886080933404A0903004B09031040E0F77
:101050001F1F10932D0400932C048CE294E0F701E1
:1010600009958091300490913104892B29F4AB28A3
:1010700019F081E080931D0280912104882321F0E2
:101080000E942E29E82E01C0E12C8091280288239D
:1010900051F0109228028091E5038093E60380913D
:1010A000E3038093E403F12C80912702F81608F003
:1010B00041C061E08F2D0E94CC28182F60E08F2D59
:1010C0000E94CC28E12FEE0F8E2B0F2D10E0D801BF
:1010D000AD5DBD4FEC912E2F237030E0482F50E0D6
:1010E0002417350729F1EE0FEE0FE82BEC938091D2
:1010F00022028F0DEF70F0E0E059FE4F025E1D4FAF
:10110000B080D8019C91B90EBC92B3E0BB1514F429
:1011100060E004C0EDEFBE161CF461E00E940929F6
:101120008B2DBB0C990BB6010E945A35D8018C93BC
:10113000F394BACF80912104882319F00E942E29BC
:10114000E82AE1100E94162086E0E8E1F4E08E0132
:101150000F5F1F4FD80101900D928A95E1F7909093
:101160001904F0901A04E0901B04B0901C04A090A5
:101170001D0410921A0410921B0410921C04109269
:101180001D04F11003C0EE2009F447C0809116043D
:10119000909117040E9452189C0190911104992378
:1011A00009F4DAC225313105C0F19F3F19F09F5F84
:1011B00090931104FF2061F00E9481261F1414F403
:1011C00091E001C09FEF899F802D112480931A0424
:1011D000EE2061F00E9481261E1414F09FEF01C0E2
:1011E00091E0899F802D112480931B0480911A0423
:1011F000882399F080901B04882079F00E94A12612
:10120000811101C081E080931A04882D0E94A126DB
:10121000811101C081E080931B04B11003C0AA209A
:1012200009F447C080911404909115040E9452184B
:101230009C0190911204992309F493C22135310540
:10124000C0F19F3F19F09F5F90931204BB2061F0A3
:101250000E945F261B1414F491E001C09FEF899F48
:10126000802D112480931C04AA2061F00E945F2627
:101270001A1414F09FEF01C091E0899F802D112472
:1012800080931D0480911C04882399F080901D0494
:10129000882079F00E94A126811101C081E080930D
:1012A0001C04882D0E94A126811101C081E0809339
:1012B0001D048091190498121AC080911A04882381
:1012C00011F08F1114C080911B04882311F08E112E
:1012D0000EC080911D04882311F08A1108C09091DE
:1012E0001C04992331F081E09B1104C002C081E00D
:1012F00001C080E080FD15C080911A0481110FC0EB
:1013000080911B0481110BC080911C04811107C0C6
:1013100081E090911D04911103C080E001C081E043
:1013200080FD0E9440269A82FB82EC82BD82AE82C2
:1013300086E0F801A8E1B4E001900D928A95E1F70A
:101340000E94892590912902891721F08093290212
:101350000E94611880915002843009F0E6CC83E04D
:101360008093E9008091E80082FFDFCC8091E80063
:1013700085FF21C00E94811781111BC080E2E82EE9
:10138000F12C580109C08091F100F50181935F01B2
:10139000F1E0EF1AF10869F08091E80085FDF3CFE4
:1013A0008091E8008B778093E8000E948117882362
:1013B00099F391E001C090E08091E8008B778093F1
:1013C000E800992309F4B1CC2981822F90E0FC0137
:1013D0003197E531F10508F097C1EA5AFF4F0C94B7
:1013E0006E351A828CE0E1C08A81823009F4ABC18B
:1013F00050F4813009F088C10E9461189B838C836E
:101400007D836E8383C1833041F0843009F07CC1D9
:101410001B821C821D821E8279C14B81DE011496C3
:1014200080E090E0242F30E0B901680F791F683028
:10143000710508F06BC1E42FE80FF0E0E65DFD4FA9
:1014400050815D9301968C31910571F75FC18A815E
:10145000823019F0853051F057C16B817C818D81CC
:101460009E810E9474350E949A2550C18091DB03B1
:1014700080FF03C00E94A72D49C10E94B62D46C11E
:101480004C816B818A810E94B5272DC12D813E81BF
:101490003227232732274C816B818A810E942A2799
:1014A00035C10E94512732C18A81823009F02CC196
:1014B0002830B9F1293009F460C08B818230F9F00D
:1014C00098F4813009F022C18C812FEF829FC001F6
:1014D00011246FEF70E00E944635462F20E06091A6
:1014E000DD038091DC031AC08330A1F0843009F061
:1014F0000DC120E04091DE036D818C810FC08C8195
:10150000882309F4B7CF0E94B62D60E08C810E9439
:101510001331FCC08C818093DF03F8C00E94CF2C74
:10152000F5C08B818230E1F078F4813009F0EEC0B3
:101530008091DE034FEF849FC00111246FEF70E0B4
:101540000E9446356C83E2C0833099F0843009F004
:10155000DDC08091DC038C838091DD038D83D6C058
:101560008091DB0380FF03C08695869504C080E0F0
:1015700002C08091DF038C83C9C02091DB033091CE
:10158000DC034091DD035091DE036091DF03709135
:10159000E0038091E1039091E2030E946130B6C0C4
:1015A00080E152C081E08A8388E98B83AFC0EA8002
:1015B000FB80FE24EF24FE248C80912C5801C7016F
:1015C00088599D4F9501201B310B2815390508F0CE
:1015D0009DC0A8E9EA16A1E0FA0628F40E94713439
:1015E000F501848303C0D50114961C92BFEFEB1A5A
:1015F000FB0AEFEFAE1ABE0AE2CFEA80FB80FE24C0
:10160000EF24FE248C80912C5801C70188599D4FEE
:101610009501201B310B2815390508F077C0F8E932
:10162000EF16F1E0FF0628F4D50114966C910E94A4
:101630009534BFEFEB1AFB0AEFEFAE1ABE0AE5CF07
:101640000E94AF2663C084E08A8360C0EA80FB808A
:10165000FE24EF24FE248C80912C5801C70188962B
:101660009501201B310B2815390508F04FC0E114F6
:10167000F2E0FF0630F40E947134D50114968C9389
:1016800002C0F5011482FFEFEF1AFF0A2FEFA21A32
:10169000B20AE4CFEA80FB80FE24EF24FE248C8093
:1016A000912C5801C70188969501201B310B2815F4
:1016B000390560F5E11442E0F40628F4D5011496EA
:1016C0006C910E949534BFEFEB1AFB0AEFEFAE1A54
:1016D000BE0AE8CF41E08C81811101C040E06B81FE
:1016E0008A810E94F1269D8335C02D813E8132275B
:1016F0002327322741E08C81811101C040E06B81BA
:101700008A810E94BF2602C08FEF898340E250E0A9
:10171000B80182E00E94B41708CB09BD19BD09B415
:1017200000FEFDCF8091D8008F7D8093D8008091FE
:10173000E00082608093E0008091E00081FDFCCFBA
:101740000E94A31DFBCA87E290E00E9471341B82B5
:101750001C821D828E83DACF2B30310508F027CD15
:101760005CCD2B30310508F06ECDA3CDAAE0B0E002
:10177000ECEBFBE00C94DE33FC018481882309F45C
:10178000A7C67F0121E040815181628173819581EB
:101790000E94EE2D8C01F7018581882309F481C018
:1017A000C80197578038910508F0A9C0003108F0AA
:1017B00094C08FEF93E00E94713481118EC078E65F
:1017C000C72E72E0D72E002379F0C114F4E0DF06B3
:1017D00009F483C0C6010E947134811101C0015017
:1017E0002FEFC21AD20AEFCFCE0101964C0188E04A
:1017F000F40111928A95E9F786010F5F1F4FC60128
:101800000E94713489831A82882309F466C081306A
:1018100009F042C05601F2E0AF0EB11CC8010E94AF
:1018200071348A83882309F458C09FEF980F93304E
:1018300058F40E5F1F4FC5010E9471348B838823BB
:1018400009F44BC01C8228C0843029F53E0123E0F6
:10185000620E711C62E0C62ED12C85010F5F1F4FF6
:10186000C5010E947134F30181933F018823A9F1DE
:101870008C3741F4E2E0F0E0EC0FFD1FEC0DFD1DB4
:1018800010820AC0FFEFCF1ADF0A580127E0C21604
:10189000D10419F722C08501C4010E947431680186
:1018A000ABCF0839110579F580913302882309F40B
:1018B000A6C2F701828193812091340230913502D2
:1018C000821B930B8D32914008F099C28CE20E94EA
:1018D000451E10923202109233028091B602877038
:1018E00009F4F6C5F7018581882309F4F1C58091D3
:1018F0002A0482FFEDC582E00E94661DE9C5083911
:10190000110509F471C280913302882331F089E610
:101910000E94451E81E080933202109233020E94A1
:101920006D189A878987F7018581882309F4ABC0F0
:101930008091550182FF08C044E152E069857A85B3
:1019400080E090E00E941D280231FCE71F07C9F1EA
:1019500078F400318CE7180751F101319CE7190741
:1019600009F087C08091530190915401059624C0DD
:101970000431ECE71E0799F060F005312CE71207FF
:1019800009F077C080915501982F909590FB80F9D0
:1019900009C0809155018160809355016AC0809192
:1019A00055018E7F809355010E94FA2762C0809175
:1019B00053019091540105979093540180935301E2
:1019C00058C0409053015090540180910F01909164
:1019D00010014816590639F480913C02803219F4FE
:1019E00026E332E03DC05092100140920F0180E2A8
:1019F00080933C02612C712C10923B024BE3242E0D
:101A000042E0342EC12CD12C5AE0852E912CA12CF1
:101A1000B12CC301B201A50194010E94FB34605DA9
:101A2000603319F4C114D10439F041145104610434
:101A3000710419F460E201C060E3F10162931F01D7
:101A4000C301B201A50194010E94FB3429013A01AE
:101A5000FFEFCF1ADF0A25E0C216D104D1F6C0CFBE
:101A6000C9012F5F3F4FFC0140814032C9F30E9402
:101A70007431C801905281159043D0F41092100433
:101A800010920F042DC0013E110521F480915501E3
:101A90008F7E06C0053E110531F4809155018F7D82
:101AA0008093550105C0C801905281159043C0F044
:101AB0008091550180FF14C0F7012581C80104976A
:101AC0004A9708F4FBC0222359F010921004109298
:101AD0000F04F801E851FC47E730F10568F453C101
:101AE000F801E851FC47E730F10508F44CC1F70173
:101AF0008581882309F4A2C110922004C80190575F
:101B0000839708F089C184E090E00E947F3490932D
:101B10002A0480932904F801E150F047E232F105EC
:101B200020F4E559FF4F0C946E35809129048160B3
:101B3000ACC080912A048860B4C08091290482607E
:101B4000A4C08091290420C08091290488609DC090
:101B500080912A041EC080912A048260A2C08091D4
:101B60002904806192C08091290480628EC0809196
:101B7000290480648AC00E94A31D80912904806882
:101B800084C080912904886084607FC080912A0489
:101B90008260816086C0809129048E7F76C08091AA
:101BA0002A04877F7EC0809129048D7F6EC080913A
:101BB000290420C080912904877F67C080912A046E
:101BC0001EC080912A048D7F6CC0809129048F7E75
:101BD0005CC0809129048F7D58C0809129048F7B3F
:101BE00054C00E94A31D809129048F774EC080911C
:101BF0002904877F8B7F49C080912A048D7F8E7F47
:101C000050C08091290482FB222720F991E092277D
:101C100090FB82F990FB83F938C080912A04982FB9
:101C2000909591708E7F892B90FB81F93AC08091BD
:101C3000290486FB222720F991E0922790FB86F960
:101C400024C00E94A31D8091290487FB222720F92C
:101C500091E0922790FB87F918C061E001C060E035
:101C60008EE090E00E9495341EC08091290484FB90
:101C7000222720F991E0922790FB84F906C08091F9
:101C80002904982F909590FB80F9809329040BC02C
:101C900080912A0483FB222720F991E0922790FB70
:101CA00083F980932A046091290470912A0484E0C6
:101CB00090E00E94B3340E94A31D0FCE222309F4AA
:101CC0005BC08091DF029091EB03982B292F2D7F31
:101CD00049F11092100410920F04F80124E0F695D7
:101CE000E7952A95E1F7EE0FFF1FE351FC4F9801AE
:101CF0002F70332781E090E002C0880F991F2A954A
:101D0000E2F78095909520813181822393239183FE
:101D10008083C8010E94D32E8091DF028D7F0E94B4
:101D2000551A26C027E0F701A4E1B2E001900D9218
:101D30002A95E1F71092170210921602969591706B
:101D40002091550190FB21F9209355018D7F0E9430
:101D5000551A1093100400930F0489859A85909367
:101D60000E0480930D048091550184608093550189
:101D700082E00E94661DB1CDA70169857A85C80100
:101D80000E941D28AACDE357FF4F0C946E3506E242
:101D900021EE41EE6AE17CE705C007E225EE45EE63
:101DA0006BE17CE7C7010E94D72597CD06E221EEC3
:101DB00040EE68E17CE7F6CF07E225EE44EE69E10C
:101DC0007CE7F0CF06E221EE42EE6CE17CE7EACF61
:101DD00007E225EE46EE6DE17CE7E4CF08E221E084
:101DE00045EE6EE17CE7DECFF7018281938190932F
:101DF00035028093340281E0809333026ECD80916E
:101E00003202882309F467CD8AE60E94451E8BE6DC
:101E10000E94451E8CE65BCD0631FCE71F07F9F4F6
:101E20008091EB038A7A91E009F490E090933D026F
:101E3000811113C089E20E94FA240CC006319CE78C
:101E4000190709F09BC280913D0281112FC389E2DD
:101E50000E94CC240E94661A40CD85E3ECCF073760
:101E60002CE7120709F424C308378CE7180709F494
:101E700023C3F70185818823E9F10330FCE71F07BD
:101E800029F148F401158CE7180791F001309CE71F
:101E9000190711F12FC00B35ECE71E0741F10C3586
:101EA000FCE71F07E1F00A351C4721F581E020C05F
:101EB0000E94A31D8FEF94E3ECE081509040E0403E
:101EC000E1F700C000000E941B1807CD6FEF7FEF05
:101ED00080E090E00E94B3340E94A32EFECC80915B
:101EE0002A0482FB882780F991E0892701C080E0DD
:101EF0000E947D1DF701858100811181882349F0B1
:101F0000C8010E941B1BD82E682FC8010E941A1DF1
:101F100004C0C8010E94011DD82EB8018D2D0E9459
:101F20007B210E941419D82E192FA82EF7010581A4
:101F3000C680C2949FE0C9228091B602877001F1E9
:101F40000023F1F0812F807F803469F080E28D0DD5
:101F50008830B0F0812F807E803229F4F1E0FD15C9
:101F600078F4CC2069F080912A0482FF09C082E0D5
:101F70000E94661D8091B6028770BB24B3948111C4
:101F8000B12C912E92948FE09822892D90E08C3084
:101F9000910508F0CBC1FC01EC56FF4F0C946E3557
:101FA000812F807F1F70882311F01295107F0023EE
:101FB000B9F0112309F4A8C180E28D0D883010F02A
:101FC000A11006C09091EB03192B1093EB0305C0F1
:101FD0009091EC03192B1093EC030E94661A94C1A4
:101FE0008D2D0E94FA1D112309F4A0C180E28D0DF0
:101FF000883088F1AA2079F110959091EC0319238B
:102000001093EC032BC0812F807F1F70803211F062
:102010001295107F8D2DAA2029F021E0A21609F437
:102020004CC057C080912A0482FD1BC0002369F078
:10203000112339F09091EB03192B1093EB030E94BD
:10204000661A80E00E94D92F71C180E00E94FA1DBB
:10205000112309F46BC1812F0E945F1A0E94661A36
:1020600065C1002381F0CC20C1F181E0C8125EC1BE
:102070009091DF02812F8923181709F457C1192B7A
:102080001093DF0253C1C11051C1812F0E94E91D7D
:102090008091DF02912F982329F0912F9095892329
:1020A0008093DF0220913E02812F822309F43EC1FA
:1020B0001095212320933E0239C1002329F095E099
:1020C0009C1508F433C109C0E4E0EC1508F42EC1F6
:1020D0000AC0002331F0C11017C1812F0E94F01DEA
:1020E00025C1C11015C1812F0E94E91D1FC1812F7B
:1020F00086958695837019F0813061F017C10023B1
:1021000021F08D2D912F937002C080E090E00E940D
:10211000562512C1002321F08D2D912F937002C0FE
:1021200080E090E00E94312507C1602F8D2D0E9434
:10213000ED2E02C1812F8370A9F50111FBC04D2D39
:10214000429546954770440F440F8D2D8F7090E057
:102150009C01042E01C0220F0A94EAF7D4FE08C0A5
:102160008FE090E001C0880F4A95EAF7809501C0A2
:1021700080E0169516951370123069F088F49091EE
:102180000602113019F0822B892302C0922B892B71
:102190000E94A01DCFC0822B909106028927F8CF04
:1021A000822BF6CF002319F0812F817001C0869514
:1021B000882309F4BFC04D2D429546954770440FC2
:1021C000440F8D2D8F7090E09C01042E01C0220FD2
:1021D0000A94EAF7D4FE08C08FE090E001C0880FAF
:1021E0004A95EAF7809501C080E016951695137020
:1021F000123059F078F490910702113019F0822BC7
:10220000892309C0922B892B06C0822B909107024B
:10221000892701C0822B0E94341D8CC01F700023AF
:1022200039F0812F0E94941D8D2D0E94F01D82C0D7
:102230008D2D0E94E91D812F0E94591D7BC08D2D7F
:1022400092EFA91681F19A1538F0E0EFAE1659F029
:10225000F1EFAF1619F154C023EFA21659F194EF24
:10226000A916C1F04DC0002381F0E4E0EC1508F49C
:102270005DC01F7181E090E0012E01C0880F0A94BB
:10228000EAF790910702892720C0F5E0FC1508F4D1
:102290004DC0EFCF80912A0482FD1AC0002329F09F
:1022A000812F8F7120C00023D9F3812F8F710E945D
:1022B000591D3CC0002341F01F7181E0012E01C077
:1022C000880F0A94EAF701C080E00E94341D2EC0F6
:1022D000002361F0812F8F7198E0899F9001112474
:1022E00023602093B6020E94941D20C081E00E94CA
:1022F000661DE1E0EC15D0F482E00E94661D16C078
:10230000002321F0CC2061F28D2D9CCECC2069F2EF
:10231000893349F4FFEF27EE83E0F15020408040FD
:10232000E1F700C000008D2D0E94FA1D88EF890D95
:10233000843010F40E948925BB20A9F08091B60258
:1023400080FD11C0F70115828695869586950E94BD
:10235000941DC7010E94B60B8091B60286958695A2
:1023600086950E94591D20E0F701408151816281CC
:102370007381848195810E94EE2DAAC08091EB0328
:102380008272F801E052F847E531F10508F083C0A8
:10239000E056FF4F0C946E358091DB0380FF1EC02A
:1023A000282F2E7F2093DB033091DC034091DD0347
:1023B0005091DE036091DF037091E0038091E103AF
:1023C0009091E2030E9461300E94E22980913404DE
:1023D0008160809334040E94052A7FCA81608093C3
:1023E000DB0361E0869586954EC04DE551E368E6D6
:1023F00071E32CC048E651E36DE571E327C043E982
:102400005DE26DE97DE222C04DE95DE263E97DE2D6
:102410001DC049E75DE266E87DE218C046E85DE27E
:1024200069E77DE213C04FE55DE26CE67DE20EC038
:102430004CE65DE26FE57DE209C04EEA59E268ECE8
:1024400079E204C048EC59E26EEA79E20E94A629DA
:1024500044CA61E081E017C065E082E019C068E02D
:1024600086E016C06EE089E013C064E18FE010C022
:1024700067E185E10DC061E088E105C062E289E1C4
:1024800007C061E083E20E94133127CA6AE285E255
:102490000E94912922CA0737FCE71F0759F0083725
:1024A0002CE7120709F0E5CC82E00AC085E3D0CC26
:1024B00081E003C081E004C082E00E94941D02C05C
:1024C0000E94591D43E062E081E00E94371D05CA69
:1024D0002A96E2E10C94FA338091520287FF11C0F0
:1024E0008091E80082FD05C0809150028111F8CFF3
:1024F00011C08091E8008B770BC080915002882337
:1025000049F08091E80080FFF8CF8091E8008E7755
:102510008093E8000895982F973068F59093E9002C
:10252000981739F07091EC002091ED005091F00077
:1025300003C0242F762F50E021FD02C09F5FECCF17
:102540003091EB003E7F3093EB003091ED003D7F0A
:102550003093ED003091EB0031603093EB007093DD
:10256000EC002093ED005093F0002091EE0027FD49
:10257000E5CF80E008958F708093E90081E00895B1
:1025800020915802309159022617370748F06115FB
:10259000710539F42091E8002E772093E80001C0FE
:1025A000B901FC0120E06115710579F180915002BB
:1025B0008823F1F18530F1F18091E80083FD3CC082
:1025C0008091E80082FD2EC08091E80080FFEBCF73
:1025D0002091F3008091F20090E0922B611571053B
:1025E00051F08830910538F421912093F100615029
:1025F00071090196F3CF21E0089709F020E080915E
:10260000E8008E778093E800CECF2111CFCF0AC0AB
:1026100080915002882361F0853061F08091E8005C
:1026200083FD0AC08091E80082FFF2CF80E0089528
:1026300082E0089583E0089581E008958091450245
:102640000895AAE2B0E0E7E2F3E10C94ED33E2E5AD
:10265000F2E08AE592E02091F10021938E179F0726
:10266000D1F780915302833009F463C030F4813094
:1026700071F0823009F49DC0B4C08A3009F489C079
:102680008B3009F46EC0893009F0ABC020C0809156
:102690005202813A09F0A5C08091E800877F8093BB
:1026A000E8008091560290915702892B21F468E04E
:1026B00086E492E003C060E080E090E070E00E9479
:1026C000C0128091E8008B778093E8008AC08091E7
:1026D0005202813209F085C08091560290915702D2
:1026E000009719F0029709F07CC08091E800877F7D
:1026F0008093E8008091E80082FD05C0809150023F
:102700008111F8CF6EC02091F3008091F20090E02B
:10271000922B029731F48091F100813011F08630D4
:1027200021F48091F100809345028091E8008B773D
:1027300054C080915202813A09F053C080915602F0
:1027400090915702892B09F04CC08091E800877F57
:102750008093E8008091E80080FFFCCF8091110118
:1027600037C0809152028132E1F5809156029091FA
:102770005702892BB1F58091E800877F8093E800AC
:102780000E946C1280915402809311010E94A31D3B
:1027900028C080915202813221F58091E800877F24
:1027A0008093E8000E946C1280915502809344024D
:1027B00018C080915202813AA1F48091E800877F8D
:1027C0008093E8008091E80080FFFCCF8091440274
:1027D0008093F1008091E8008E778093E8000E945A
:1027E0006C128091E80083FFDFC1809152029091CA
:1027F0005302492F50E04A30510508F0D5C1FA0183
:10280000EB54FF4F0C946E35803821F0823809F07C
:10281000CBC108C080914E0290914F02992389F05C
:1028200082600FC0809156028F70873008F0BCC163
:102830008093E9008091EB0085FB882780F9109256
:10284000E9009091E800977F9093E8008093F10071
:102850001092F10070C1282F2D7F09F0A5C18823A7
:1028600019F0823061F0A0C180915402813009F0EA
:102870009BC1933009F080E080934F022EC080917D
:10288000540281112AC0809156028F702FEF280FB9
:10289000263008F089C18093E9002091EB0020FFE9
:1028A0001CC0933021F48091EB00806214C09091A1
:1028B000EB0090619093EB0021E030E0A90102C0B1
:1028C000440F551F8A95E2F74093EA001092EA0000
:1028D0008091EB0088608093EB001092E90080917A
:1028E000E800877F8093E8000E946C125DC181112F
:1028F0005BC1109154021F778091E3008078812B97
:102900008093E3008091E800877F8093E8000E9435
:102910006C128091E80080FFFCCF8091E30080681A
:102920008093E300111102C082E001C083E0809334
:1029300050023AC18058823008F036C120915402CA
:10294000309155022C3D53E0350779F583E08A83B9
:102950008AE289834FB7F894DE01139620E03EE0C7
:1029600051E2E32FF0E050935700E49120FF03C0C1
:10297000E295EF703F5FEF708E2F90E0EA3010F03D
:10298000C79601C0C0968D939D932F5F243149F760
:102990004FBF8091E800877F8093E8006AE270E093
:1029A000CE0101960E94C012B4C08091560290914F
:1029B0005702432F552743305105A9F068F44130A1
:1029C000510509F400C14230510509F0EDC08BE515
:1029D00090E0EFEAF2E04BC04132510529F142327A
:1029E000510589F1E1C0C901992781309105A1F014
:1029F00058F0029709F0D8C0ECE1F3E0E4918E2F93
:102A000090E0ECE1F3E030C0E2E5F3E0E4918E2FFA
:102A100090E0E2E5F3E028C0EAE3F3E0E4918E2FF2
:102A200090E0EAE3F3E020C08330910508F0BCC0F9
:102A3000880F991FFC01E757FE4F0190F081E02DB0
:102A400089E090E014C08330910508F0ADC0FC012E
:102A5000EE0FFF1FED57FE4F0190F081E02DDC01DE
:102A6000A058BE4F8C9190E0009709F49DC0209132
:102A7000E800277F2093E800209158023091590206
:102A80002817390708F4C90140E0009789F120911F
:102A90005002222309F43DC02530D9F12091E800ED
:102AA00023FD37C02091E80022FD2FC02091E800CF
:102AB00020FFEBCF4091F3002091F20030E0342B67
:102AC000009759F02830310540F444914093F100CB
:102AD000319601972F5F3F4FF3CF41E0283031050A
:102AE00009F040E02091E8002E772093E800CDCF58
:102AF0004111CDCF0AC080915002882351F085301A
:102B000041F08091E80083FD04C08091E80082FFDD
:102B1000F2CF8091E8008B778093E80045C0803841
:102B200009F042C08091E800877F8093E80080919F
:102B300051028093F1008091E8008E77D3CE81110D
:102B400033C080915402909155029927029764F501
:102B50008091E800877F8093E800109154021093E1
:102B600051020E946C12111106C08091E30087FD92
:102B700002C081E001C084E08093500242E061EC39
:102B800081E00E948B1242E261EC84E00E948B1291
:102B900042E261EC82E00E948B1242E260EC83E050
:102BA0000E948B12809150028091E80083FF10C038
:102BB0008091E800877F8093E8008091EB0080623D
:102BC0008093EB0005C082E190E0EAE0F3E04FCFB4
:102BD000AA96E3E00C9409341F920F920FB60F925D
:102BE00011242F933F934F935F936F937F938F9312
:102BF0009F93AF93BF93CF93DF93EF93FF93C091D6
:102C0000E900CF708091EC00D82FD17080FDD0E822
:102C10001092E9008091F000877F8093F000789413
:102C20000E9421131092E9008091F0008860809347
:102C3000F000CD2BCF70C093E900FF91EF91DF91B1
:102C4000CF91BF91AF919F918F917F916F915F9144
:102C50004F913F912F910F900FBE0F901F9018959D
:102C6000E8EDF0E080818E7F80831092E200109288
:102C7000DA001092E100A0EEB0E08C9181608C93BC
:102C800080818F77808319BCA7EDB0E08C918E7F17
:102C90008C9380818F7E8083109243020895A0E000
:102CA000B0E0E5E5F6E10C94E833C8EDD0E08881CA
:102CB0008F7E8883E7EDF0E080818160808384E00F
:102CC00082BF81E08093430288818E7F888302EEF9
:102CD00010E0F80110821092DA0081EEC82ED12C9B
:102CE000F601108288818F77888388818068888345
:102CF00088818F7D888319BC1092500210925102F6
:102D000010924F0210924E0290EEE92EF12CF70134
:102D100080818B7F808388818160888342E060E04E
:102D200080E00E948B12F60180818E7F8083F80103
:102D3000808181608083808188608083F7018081C9
:102D40008E7F8083888180618883CDB7DEB7E8E09D
:102D50000C9404341F920F920FB60F9211242F93EC
:102D60003F934F935F936F937F938F939F93AF9313
:102D7000BF93EF93FF938091E10082FF09C08091A0
:102D8000E20082FF05C08091E1008B7F8093E1002B
:102D90008091DA0080FF2AC08091D80080FF26C091
:102DA0008091DA008E7F8093DA008091D90080FFD5
:102DB00018C080E189BD82E189BD09B400FEFDCF64
:102DC00081E0809350028091430281110FC00E94E4
:102DD00030160E944F168091E20084608093E200DA
:102DE00005C019BC10925002109243028091E1007C
:102DF00080FF17C08091E20080FF13C08091E20045
:102E00008E7F8093E2008091E20080618093E200F7
:102E10008091D80080628093D80019BC85E08093AF
:102E200050028091E10084FF30C08091E20084FF75
:102E30002CC080E189BD82E189BD09B400FEFDCFCF
:102E40008091D8008F7D8093D8008091E1008F7EA3
:102E50008093E1008091E2008F7E8093E200809178
:102E6000E20081608093E20080915102882311F09A
:102E700084E007C08091E30087FD02C081E001C0CB
:102E800083E080935002809150028091E10083FFA3
:102E900027C08091E20083FF23C08091E100877FFB
:102EA0008093E10082E08093500210925102809161
:102EB000E1008E7F8093E1008091E2008E7F80931D
:102EC000E2008091E20080618093E20042E060E0F5
:102ED00080E00E948B128091F00088608093F00067
:102EE000FF91EF91BF91AF919F918F917F916F91E2
:102EF0005F914F913F912F910F900FBE0F901F90B8
:102F000018952091E4003091E50095E64091EC00A1
:102F1000842F817040FF23C08091E80080FD1DC098
:102F200080915002882399F0853099F08091EB00D0
:102F300085FD11C04091E4005091E500241735074C
:102F400029F3915011F09A01E1CF84E0089582E0D5
:102F5000089583E0089581E0089580E00895409108
:102F6000E80042FFDDCF08950F931F93CF93DF93C7
:102F70008B01EA0190915002943079F58F70809323
:102F8000E9008FEF9091E800815095FD06C095ED26
:102F90009A95F1F700008111F5CF8091E80085FF47
:102FA0001CC00E948117882361F08091E8008E7711
:102FB0008093E80012C0F80181918F018093F100A5
:102FC0002197209791F38091E80085FDF4CF8091BF
:102FD000E8008E778093E800E4CFDF91CF911F91D6
:102FE0000F91089543E050E0BC0184E00E94B417C3
:102FF000089546E050E0BC0184E00E94B4170895B3
:1030000040E250E0BC0184E00E94B4170895CF93E1
:10301000DF93EC0148E050E0BC0181E00E94B4176E
:1030200088E0FE01A6E4B2E001900D928A95E1F7F6
:10303000DF91CF91089587E797E7909301088093F8
:1030400000089AE088E10FB6F894A8958093600094
:103050000FBE90936000FFCF78941F920F920FB62F
:103060000F9211248F939F93AF93BF9380913F0250
:1030700090914002A0914102B09142020196A11D9F
:10308000B11D80933F0290934002A0934102B09300
:103090004202BF91AF919F918F910F900FBE0F9001
:1030A0001F9018959C014FB7F89480913F02909122
:1030B0004002A0914102B09142024FBF821B930B8C
:1030C00008952FB7F89460913F027091400280916B
:1030D0004102909142022FBF08952FB7F89480913A
:1030E0003F0290914002A0914102B09142022FBF55
:1030F00008959091EB038091EC03892B9091DF026E
:103100009923E1F0892B90911101992341F090913D
:10311000290497FF04C09EE12DE233E003C096E04E
:1031200025E233E0F90120E0915028F0319133237A
:10313000D9F32F5FF9CF21111092DF02089520916A
:10314000B50290917C0257E02917A9F030E0529F18
:10315000F001539FF00D1124E358FD4F7181761358
:1031600006C07081781303C07581741306C02F5F89
:103170003F4F2770E9CF80E0089581E008959B01DB
:10318000782F777043E0969587954A95E1F7FC0193
:10319000EE0FFF1F8E0F9F1FF901E80FF91F40E090
:1031A00050E080E0219130E0072E02C0369527954F
:1031B0000A94E2F721703327042E01C0220F0A94EB
:1031C000EAF7822B4F5F5F4F4330510559F708955F
:1031D000962F9770A1E001C0AA0F9A95EAF793E0A5
:1031E000769567959A95E1F7FB01EE0FFF1F6E0F3D
:1031F0007F1FFA01E60FF71F40E050E0682F70E0F4
:1032000090819B01042E02C0369527950A94E2F71F
:103210002170219529272A23292721934F5F5F4F6A
:103220004330510569F708951F93CF93DF930E94B0
:10323000DF20EC01C11580E5D807E8F5C11590E461
:10324000D90708F0A8C0C03ED10530F5CD3CD10566
:1032500008F094C0C83AD10578F4C53AD10508F011
:1032600083C0C130D10509F47CC008F4F2C0C43079
:10327000D10508F0F1C0EDC0C33CD10508F0E9C0AC
:10328000C85AD0E0CC0FDD1FCE56DE4F0990D88152
:10329000C02DCE019464E1C0C11580E2D80708F0CA
:1032A000CBC0C11591E0D90708F06BC0C83ED1056D
:1032B00008F4D2C0CEC0C03682E5D80728F5C034A5
:1032C00092E5D90708F079C0C03282E5D80708F046
:1032D0006CC0C11592E5D90708F481C04C2F469502
:1032E000469580E2489FA0011124C37021E030E0A0
:1032F000C90102C0880F991FCA95E2F7EA01C82BDD
:10330000D92BCE019D68A9C0C03A82E5D807B8F490
:103310008C2F8F71C03892E5D90708F07BC0869555
:10332000869590E2899F90011124C37081E090E01E
:1033300002C0880F991FCA95E2F79A6868C0C03C1E
:1033400082E5D80708F46DC0C03E92E5D90708F0C1
:1033500080C0CF71DD27DC2FCC27CE01806F906A33
:103360007CC081E090E079C0C55AD0E0C157DE4F03
:103370008881C82FD0E0CE0190646FC0CE019065E7
:103380006CC08D2F0E949020182FCE0199270E948B
:10339000DF201F715CC0CE0199270E94DF20CC275F
:1033A000DF70D06A8C2B9D2B58C0CF71D0E0DC2F02
:1033B000CC27CE01816F906A50C08C2F8F7186957B
:1033C000869590E2899F90011124C37081E090E07E
:1033D00002C0880F991FCA95E2F79C6818C08C2F0D
:1033E0008F710E94902095E0D695C7959A95E1F748
:1033F000CF70D0E0DC2FCC27282F30E084FF05C031
:1034000084E0220F331F8A95E1F7D069CE01822B29
:10341000932B23C090E0D82FCC27CE01846F906AE5
:103420001CC08C2F8F710E9490208F7190E0D82F3C
:10343000CC27CE01906211C08D2F8F710E949020F9
:10344000182FCE0199270E94DF201F719062912BC7
:1034500004C080E090E001C0CE01DF91CF911F91C8
:103460000895A6E0B0E0E7E3FAE10C94EC330E94A3
:103470006D188C018091E0029091E1020817190704
:1034800081F019821A820E946D18682F49815A8131
:10349000792F80E090E00E94132E1093E1020093B8
:1034A000E0022696E4E00C94083490912A0492FFFE
:1034B00005C09091DF0298138093DF0208958095F4
:1034C0009091EB0389238093EB0308958091110180
:1034D000882351F18091290487FF26C00E94791822
:1034E00080932C0340E250E067EB72E08BE293E0C4
:1034F0000E94CE35892BD9F180E2EBE2F3E0A7EB15
:10350000B2E001900D928A95E1F7E0912504F091E7
:103510002604309761F186E080932B030480F581C7
:10352000E02D8BE293E022C00E9479188093230360
:1035300048E050E067ED72E083E293E00E94CE3510
:10354000892BA9F088E0E3E2F3E0A7EDB2E0019077
:103550000D928A95E1F7E0912504F09126043097C9
:1035600031F00280F381E02D83E293E00995089524
:103570008091B50290917C02891719F08F5F877056
:10358000FBCF0895CF93DF9380917B0282958F705C
:1035900009F04EC080917A02882309F449C08091D5
:1035A000B50240917C025091760260917502C09103
:1035B0007702D091780277E08417D1F190E0789F7C
:1035C000F001799FF00D1124DF01A358BD4F14962F
:1035D0002C911497222349F111962C9111972513C0
:1035E00024C02C91261321C015962C9115972111DA
:1035F0001CC012962D913C9113972C1B3D0B283C1F
:10360000310598F480917B028F70806180937B02FA
:10361000ED57FD4F80818F708061808385E792E058
:103620000E94B60B0E94B81A03C001968770C4CFDF
:10363000DF91CF910895CF92DF92FF920F931F9366
:10364000CF93DF936C010091070280910602082B53
:10365000C3E0D0E010E0C8010C2E02C0959587951C
:103660000A94E2F780FD04C02197A8F7F12C09C065
:10367000FC2EB6018C2F0E947B210E941419019709
:1036800099F38F2DDF91CF911F910F91FF90DF90D4
:10369000CF900895CF93DF93EC010E941B1BBE01D6
:1036A0000E947B210E941419DF91CF910895FC01A3
:1036B00024812223D9F0808191810E944A1B929516
:1036C0009F70963079F010F4925001C09A50923069
:1036D00068F4803F69F018F4883E40F409C0843FE4
:1036E00029F406C0883E20F0813F11F080E0089563
:1036F00081E00895A4E1B0E0E0E8FBE10C94E4335C
:103700008C0186E0F801DE011F9601900D928A95EA
:10371000E1F7F8018481E58095E7892E92E0992E02
:1037200090917902911120C0882309F463C1EE20A1
:1037300009F442C0C8010E94571BF82E8823E1F10A
:1037400087E0F801D40101900D928A95E1F780910C
:103750007902813031F480917502909176020E9455
:103760004A1B0E94C21A48C1F801D080C180A280C1
:10377000B380F0907A022091770230917802FF2096
:1037800009F4E7C0A501421B530B483C510508F062
:103790009DC0882309F430C180917B02282F207FAF
:1037A00090917602222361F09C1509F460C0C80153
:1037B0000E94571B811163C0C8010E94B60B1AC139
:1037C0009C1113C0909175029D110FC0E1100DC0A6
:1037D0008F70806180937B0285E792E00E94B60B38
:1037E00080917B02F801868303C1E1103AC040E07A
:1037F0006C2D8D2D0E949F1840E06C2D8D2D0E9408
:103800009F18E82E8111F4C0DF86C88A8F859889B9
:103810000E944A1B292F22952F70243020F49F707C
:10382000223028F009C02A50223080F014C0992399
:1038300049F0811107C013C0992321F0F801968146
:10384000907F69F0805E883030F409C0803F38F0A6
:10385000815F833020F0C8010E94B60BEF2CFE2C54
:10386000CBC080917B02816080937B02C1C090912C
:1038700075029D119CCFE1109ACFF80198C0EE20FF
:1038800009F49ACF20917B02822F82958F7090E06D
:1038900002978CF0809175029091760299878887C3
:1038A000BB86AA86809179028C871D862E87CE01E1
:1038B00008960E94B60B87E0F801A5E7B2E00190F8
:1038C0000D928A95E1F70E94C21A94C090917B02F2
:1038D000292F207F51F485E792E00E94B60B87E004
:1038E000F40111928A95E9F783C0882309F484C012
:1038F000809176028C110CC0809175028D1108C0E8
:10390000E11006C0F8019683C8010E94B60B6AC098
:10391000C8010E94571B882309F44ECFEE2009F4FA
:103920004BCF20917B02822F82958F7090E002977F
:1039300014F280917502909176029A838983BC82F9
:10394000AB82809179028D831E822F83CE010196F6
:10395000B0CFA21AB30AF8ECAF16B10408F042C017
:10396000882309F447C0FE2CEE2009F425CF80916E
:1039700076028C1129C0809175028D1125C090911D
:103980007B0290FD18C0892F82958F70282F30E020
:103990002115310581F0F80196832F30310541F072
:1039A0008F5F982F9295907F86818F70892B868369
:1039B000C8010E94B60B87E0F801A5E7B2E00190CC
:1039C0000D928A95E1F718C0C8010E94571B81111A
:1039D00072CF80917B02816080937B02C8010E943C
:1039E000B60B0AC087E0F40111928A95E9F704C08A
:1039F000F12C02C0FF24F3948F2D6496ECE00C941C
:103A00000034292F983058F4883048F490E06DE560
:103A100072E038E0239F800D911D112406C02C5FB9
:103A2000223030F46AE572E090E00E94BF180895F9
:103A300080E00895282F862F983060F4283050F4C5
:103A4000622F70E028E0929F600D711D11244DE5FA
:103A500052E007C09C5F923030F4622F70E04AE57C
:103A600052E00E94E818089580930702089590910B
:103A7000070221E030E0F90101C0EE0F8A95EAF774
:103A8000D90102C0AA0FBB1F6A95E2F7BD016E2BD8
:103A900001C0220F4A95EAF7892F8623681303C0D5
:103AA000892F822B03C02095822F89230E94341DE9
:103AB000089521E030E001C0220F8A95EAF72095B1
:103AC0008091070282230E94341D08959091B602CE
:103AD000809589238093B602282F277069F4981760
:103AE00059F090912A0492FF07C086958695869595
:103AF0000E94591D1092B602089590912A0492FBDB
:103B0000222720F9281779F080FB92F990932A0454
:103B10006091290470912A0484E090E00E94B334FB
:103B200082E00E94661D089521E030E001C0220F6E
:103B30008A95EAF780910702822B0E94341D08952E
:103B40008093060208951092EB038091110188235F
:103B500041F08091290487FF04C08EE1EDE2F3E09B
:103B600003C086E0E5E2F3E0DF011D928A95E9F704
:103B700080E090E00E94562580E090E00E94312590
:103B80001092EC030E94661AE8E1F4E086E0DF019F
:103B90001D928A95E9F71092110410921204109266
:103BA00013040E9440260895882341F08095909147
:103BB000EC0389238093EC030E94661A08958823FE
:103BC00039F09091EC03892B8093EC030E94661AE4
:103BD0000895882321F00E945F1A0E94661A0895B2
:103BE000882339F09091EB03892B8093EB030E949B
:103BF000661A0895882381F19CEF980F913A18F482
:103C00000E94CC240DC090E2980F983060F4877029
:103C100091E001C0990F8A95EAF7892F0E945F1AF7
:103C20000E94661A08959BE5980F933028F480E06F
:103C300090E00E945625089598E5980F9B3128F44E
:103C400080E090E00E943125089593E3980F93312E
:103C500018F460E00E94ED2E08951F93CF93DF9338
:103C6000182FEB010E94D92F209741F08FE99FE098
:103C70000197F1F700C000002197F6CF812F0E9435
:103C8000FA1DDF91CF911F910895893319F060E0FB
:103C900070E002C060E570E00E942D1E089581E092
:103CA00080932802089580E00895A0E0B0E0EBE55D
:103CB000FEE10C94E6337C015B016A0180912203F2
:103CC0008A3018F001E010E002C00AE010E0C1E024
:103CD000D0E0B501C701F6010995811115C0219603
:103CE0000C171D0794F0CC9F9001CD9F300D300D27
:103CF000112480E090E045E34A95F1F70000019639
:103D000082179307C1F7E5CF81E0CDB7DEB7EAE0D0
:103D10000C940234ABE0B0E0E0E9FEE10C94EE3349
:103D200088E0EBEDF3E0DE01119601900D928A95AB
:103D3000E1F78091320490913304A0913404898793
:103D40009A87AB872B8540911E0350911F0360918A
:103D50002003709121033FB7F89480913F02909126
:103D60004002A0914102B09142023FBF841B950BDB
:103D7000A60BB70B84369105A105B10510F42223DB
:103D800019F180914301909144018F5F9C4F4091C4
:103D9000420150E04C30510510F04BE050E0BE01C4
:103DA0006F5F7F4F0E94DB3586E090E00E946333B7
:103DB000882369F00E94611860931E0370931F03AB
:103DC00080932003909321031092340481E02B967A
:103DD000E2E00C940A34A1E0B0E0E1EFFEE10C94E3
:103DE000E233C62E4A015901682E880F7708C301B5
:103DF0000E946333882309F473C0C30123E0880F52
:103E0000991F2A95E1F7FC01EE5EFE4F438150E0D9
:103E10004115510511F041E050E0FC01EE5EFE4F0E
:103E2000648175816F5F7C4FCE0101960E94DB3506
:103E3000F40140815181628173812FB7F8948091A0
:103E40003F0290914002A0914102B09142022FBFE7
:103E5000841B950BA60BB70B84369105A105B10504
:103E600038F4B701C8010E94E32799818917D1F17D
:103E70000C2C000CDD08C6010E946333782E8823C9
:103E8000E1F0E114F104C9F0960183E0220F331F41
:103E90008A95E1F7F901EE5EFE4F438150E0E416AA
:103EA000F50608F4A701F901EE5EFE4F6481758105
:103EB0006F5F7C4FC5010E94DB35B701C8010E94CE
:103EC000E32791E02981281390E0D92ED72089F0AB
:103ED0000E946118F401608371838283938309C017
:103EE000D12C02C0DD24D394A701B801C5010E94E2
:103EF000DB358D2D2196EEE00C94FE33A8E0B0E08A
:103F0000E4E8FFE10C94EA3388E0E82EF12C07E0C6
:103F100013E09E012F5F3F4F49EF52E063E082E0E4
:103F20000E94EB1E182F882389F19091060380913F
:103F3000F802981759F120E090910A038091090343
:103F40008917C9F0E92FF0E0EB5FFC4F868187FB12
:103F5000662760F99F5F937090930A03909108031E
:103F60009F5F909308038F770E94092921E08111B8
:103F7000E3CF10E002C0222329F084E090E00E9409
:103F800063331823809106038093F802812F2896CB
:103F9000E6E00C940634A4E0B0E0E1EDFFE10C941F
:103FA000E8336B0184E0E82EF12C02E013E09E017F
:103FB0002F5F3F4F44EF52E061E080E00E94EB1E34
:103FC000882361F049815A816B817C814093F002A2
:103FD0005093F1026093F2027093F3024091F00269
:103FE0005091F1026091F2027091F302F601408368
:103FF0005183628373832496E8E00C940434F8942C
:10400000E82FE295EF70F0E031A1282F2F7081E0CA
:1040100090E001C0880F2A95EAF7982F9095932396
:1040200091A392A1892B82A3789408950F931F9353
:1040300080912104882319F00E9461180EC00E940B
:1040400061180091F8011091F9012091FA01309165
:10405000FB01600F711F821F931F1F910F91089525
:10406000A4E0B0E0E6E3F0E20C94EE334091FD0210
:104070005091FE026091FF02709100032FB7F894F7
:1040800080913F0290914002A0914102B091420282
:104090002FBF841B950BA60BB70B84369105A1058A
:1040A000B10570F10E941620DC01CB010296A11D22
:1040B000B11D89839A83AB83BC8380913B0190912E
:1040C0003C018F5F9C4F40913A0150E045305105D3
:1040D00010F044E050E0BE016F5F7F4F0E94DB357F
:1040E00085E090E00E946333882359F00E946118B4
:1040F0006093FD027093FE028093FF029093000391
:1041000081E02496E2E00C940A3480912104882313
:1041100019F00E946D1808950E941620CB01089591
:104120009091290492FF10C041E0282F247124307F
:1041300009F040E031E0282F2871283009F030E004
:10414000431711F02CE0822793FF10C041E0282F85
:104150002471243109F040E031E0282F2871283102
:1041600009F030E0431711F02CE0822730912A0447
:1041700030FF10C051E0282F2171213009F050E0AC
:1041800041E0282F2871283009F040E0541711F041
:1041900029E0822731FF10C041E0282F2171213111
:1041A00009F040E031E0282F2871283109F030E093
:1041B000431711F029E0822794FD877E0895823805
:1041C000910569F1B0F48133910509F475C048F4A3
:1041D0008932910509F467C08A32910509F471C0EA
:1041E00008958533910509F459C089339105B9F0D3
:1041F0000895833E910589F138F4803E9105D1F010
:10420000823E910529F10895863E9105C9F1873EC8
:104210009105D9F1843E910509F06CC027C0209129
:10422000290420FD57C021FD55C020912A0423FDFB
:104230005BC008958091290480FD48C080912A04C4
:1042400080FF48C08091290484FD46C083EE51C0A0
:104250008091290482FF3CC0F5CF8091290482FD22
:1042600037C080912A0480FD35C0ECCF80912A04AC
:1042700081FF36C08091290484FD2EC087EE39C0AD
:104280008091290483FF2AC0F5CF8091290483FD02
:1042900025C080912A0481FD23C0ECCF80912904A0
:1042A00085FD22C01FC08091290485FD1BC080911F
:1042B0002A0483FF19C00AC08091290486FD16C014
:1042C00017C08091290486FD13C010C089E311C076
:1042D00082EE0FC080EE0DC080E00BC086EE09C0FC
:1042E00084EE07C085E305C089E203C08AE201C00D
:1042F00081E390E00895783048F46830C8F4843061
:10430000B8F4462F672F0E94B52708957D3F31F4FA
:10431000643070F4843060F441E007C07C3F41F4C5
:10432000643030F4843020F440E00E94F126089597
:1043300080E090E00895A2E1B0E0E1EAF1E20C94BF
:10434000E133AE014F5F5F4F7A0188E0DA011D92E1
:104350008A95E9F704E611E06A0188E6682E81E0B3
:10436000782EAA24A394B12C20E7822E21E0922E4D
:10437000F80180818F3F09F440C0F894E82FE2955E
:10438000EF70F0E021A18F70A50102C0440F551F0E
:104390008A95E2F7CA01922F982B91A392A180955A
:1043A000892382A3789400C0E8E6F1E0512C31E043
:1043B00021912F3F89F0A22FA295AF70B0E0909687
:1043C0008C9190E02F7002C0959587952A95E2F721
:1043D00080FD02C0832F01C080E0582A330F8E1663
:1043E0009F0631F7D8018C918F3F11F00E94FF1F7B
:1043F000B0EABA95F1F7F60150820F5F1F4FFFEF59
:10440000CF1ADF0A6016710609F0B2CF48E050E01B
:10441000B7018CEF91E00E94CE35892B99F088E0AE
:10442000F701ACEFB1E001900D928A95E1F781E0E0
:104430008093E4020E946D189093E3028093E2025D
:10444000F12C27C08091E4028823D1F3009105026A
:104450008091E2029091E3020E945218059780F346
:1044600010E0065D1D4F44E050E06CEF71E0C801C4
:104470000E94CE35892B09F459C184E0ECEFF1E0BC
:10448000D80101900D928A95E1F7FF24F3941092E0
:10449000E40280912104E0910502882309F4B8C068
:1044A0001F86188A198A1A8A0E2F10E0065D1D4F82
:1044B000809122038A3058F44BEC5FE1BE01615FCA
:1044C0007F4FC8010E94551E8823F1F10AC08091D8
:1044D000E5029091E6020E945218843F914060F7F5
:1044E00044C04EE75FE1BE01615F7F4FC8010E949B
:1044F000551E882349F140E350E2BE01615F7F4FC2
:10450000C8010E94551E8823F9F04AE85EE1BE0109
:10451000615F7F4FC8010E94551E8823A9F0109249
:1045200022038091040290E044E050E0BE01615F0C
:104530007F4F865D9D4F0E94CE3521E02093EF0294
:10454000892B01F510E02CC0809122038F3F19F0D8
:104550008F5F80932203809122038A3010F30E94A0
:104560006D189093E6028093E5028091EF02882314
:1045700049F3FE013F9684E0DF011D928A95E9F739
:104580001092EF02E0910402F0E0E65DFD4F8F85AE
:104590009889A989BA8980839183A283B38311E022
:1045A0008091E9029091EA020E945218893E93405C
:1045B00078F08091E7029091E80201969093E802EA
:1045C0008093E7020E946D189093EA028093E902BB
:1045D0008091E7029091E802853691050CF4A0C025
:1045E0006E01E9E0CE0ED11C86E0D6011D928A95BF
:1045F000E9F781E08B87C6010E947B258FEF8B87CF
:10460000C6010E947B251092E8021092E70288C042
:10461000F0E0E65DFD4F84E0A2E0B3E001900D9292
:104620008A95E1F764E070E082E093E00E94E3277E
:104630008093010388E0E3EEF3E0A7E0B3E00190AC
:104640000D928A95E1F768E070E087E093E00E94C0
:10465000E3278093060380900F0390901003A090AF
:104660001103B09012038091EB029091EC02A091A3
:10467000ED02B091EE0288169906AA06BB06B1F0CB
:104680008092EB029092EC02A092ED02B092EE02C8
:104690000E946118861A970AA80AB90A8092F8013E
:1046A0009092F901A092FA01B092FB01809113035C
:1046B000982F917086958695E0901403D0901503FD
:1046C000C090160300911C0310911D0310921D034E
:1046D000112329F110FF0DC0992349F09091DB03BC
:1046E00091609093DB0360E00E94133102C00E944E
:1046F000A72D11FF06C020E04C2D6D2D8E2D0E94A0
:10470000CF2C12FF07C0002319F00E94E92902C034
:104710000E94E22913FF03C081E080932F0410E080
:10472000812F8F296296EFE00C94FD33F12CAFCEF0
:10473000529A08952BB12B7F3BB134604FB7F89458
:10474000FC01CB01880F991F680F791F6E0F7F1F27
:10475000E617F70789F0819198E03BB9000000C0A7
:1047600087FF2BB9880F000000C000C000C02BB924
:1047700000C09A9591F7ECCF4FBF8FE594E0019779
:10478000F1F700C0000008952F923F925F926F9260
:104790007F928F929F92AF92BF92CF92DF92EF92D1
:1047A000FF920F931F93CF93DF93FC01628054809D
:1047B00081E08483E6E5F3E07490E5EDF3E0E491D5
:1047C000C091DE03C695C158D0E0CC0FDD1F2D2E61
:1047D0003324812C75E0972EAA24AA94B12CE719D2
:1047E000EE2EF12C80914E01881608F098C0C82C4E
:1047F000D12C22E0261568F09C9CF0019D9CF00DC8
:104800001124EF57FC4F8091DC0380838091DD03FE
:10481000818351100AC09C9CF0019D9CF00D1124D5
:10482000EF57FC4F1382128260C09C9C80019D9CBC
:10483000100D1124E801CF57DC4F8B818823F9F04C
:1048400081508B832FEF829FC00111246C8170E017
:104850000E944635FB01FF27EA5AFC4F8491E82F5E
:10486000E7192FEFE29FC0011124B7010E944635DE
:104870008091DE03689FB00111247A8336C00E94C4
:104880006134B5010E945A358215930574F582E0B2
:10489000861588F40E946134B5010E945A358883D8
:1048A0000E9461342091DD032695622F70E00E9402
:1048B0005A35280F29839C9CF0019D9CF00D1124F2
:1048C000EF57FC4F12828091DE03843120F0893C47
:1048D00018F088EC01C084E19C9CF0019D9CF00DD7
:1048E0001124EF57FC4F8483838380914C01960100
:1048F000280F311DC901880F991F280F391F255B0B
:104900003C4F9C9CF0019D9CF00D1124EF57FC4FF7
:104910004281618180810E948730839463CF0E94AD
:10492000052ADF91CF911F910F91FF90EF90DF90BB
:10493000CF90BF90AF909F908F907F906F905F903F
:104940003F902F9008951F920F920FB60F9211244F
:104950008F939F93AF93BF9380912B04811113C0CA
:1049600080913F0290914002A0914102B091420299
:104970004196A11DB11D80933F0290934002A093E8
:104980004102B0934202BF91AF919F918F910F90DE
:104990000FBE0F901F90189590911101992321F04F
:1049A0009091290497FD03C0E3E2F3E01DC0E82FD6
:1049B000E695E695E695EE31E0F4F0E0E55DFC4F36
:1049C000877021E030E0A90102C0440F551F8A958D
:1049D000E2F7CA01809592818923828308953196F6
:1049E00053E0E932F50729F092818913F8CF12825A
:1049F000F6CF0895909111019923D1F09091290457
:104A000097FF16C0E82FE695E695E695EE3140F55E
:104A1000F0E0E55DFC4F877021E030E0A90102C0C5
:104A2000440F551F8A95E2F7CA019281892B16C05F
:104A3000A5E2B3E0EFEF90E02D91821789F0EF3F10
:104A400019F4211101C0E92F9F5F9630A9F7EF3FBC
:104A500039F00E2E000CFF0BED5DFC4F82830895A4
:104A60000895A3E0B0E0E7E3F5E20C94EE33209183
:104A700027043091280428173907A1F090932804BF
:104A800080932704E0912504F0912604309751F09B
:104A900024E029839B838A830084F185E02DCE0165
:104AA000019609952396E2E00C940A34A3E0B0E065
:104AB000ECE5F5E20C94EE332091230430912404CC
:104AC00028173907A1F09093240480932304E091E0
:104AD0002504F0912604309751F023E029839B832D
:104AE0008A830084F185E02DCE01019609952396F5
:104AF000E2E00C940A34E0912504F091260430970A
:104B000039F022E0DC012C930680F781E02D099535
:104B1000089580912104882359F0E0912504F091B3
:104B20002604309729F00190F081E02D0995089531
:104B300080E0089587E290E00E9495340895CF9335
:104B4000C82F811102C06FEF01C064E284E290E0DF
:104B50000E949534C11102C06FEF01C068E085E288
:104B600090E00E949534C11102C06FEF01C060E176
:104B700086E290E00E949534CF91089584E290E01F
:104B80000E947134843281F485E290E00E94713495
:104B9000883051F486E290E00E94713491E08031D7
:104BA00009F090E0892F01C080E0817008950F9393
:104BB0001F93CF93DF93C42FD22FFC0185818823CD
:104BC000B1F0409320040E946D1890931F048093CD
:104BD0001E0480E28C0F883008F04DC0C77081E061
:104BE00001C0880FCA95EAF70E94F01D44C0809169
:104BF0002004481330C080911E0490911F040E942D
:104C00005218883C910538F510E21D0FCD17B9F008
:104C100080E28C0F883040F4C77081E001C0880FBB
:104C2000CA95EAF70E94E91D183010F581E09D2F22
:104C3000977001C0880F9A95EAF70E94F01D802FA7
:104C40000E94451E1830B8F4D77081E001C0880F6B
:104C5000DA95EAF70AC080E28C0F883060F4C770FA
:104C600081E001C0880FCA95EAF70E94E91D03C0E0
:104C7000802F0E94451EDF91CF911F910F910895C3
:104C80000E946D1820911A04211104C020911B0468
:104C9000222321F0909317048093160420911C0482
:104CA000211104C020911D04222321F090931504AA
:104CB0008093140488E194E00E947B2508958091FC
:104CC000130480FD16C081FD16C082FD18C08091BE
:104CD0001204882391F0883290F428E0829FC0016A
:104CE000112468E270E00E945A35862F672B29F064
:104CF00007C082E0089584E0089581E0089588E087
:104D000008958091130480FD14C081FD14C082FDBC
:104D100016C080911104882381F08E3180F420E543
:104D2000829FC00111246EE170E00E945A35862FE7
:104D3000089584E1089588E2089588E0089580E563
:104D40000895282F35EB2303C001112497FF03C0DA
:104D50008058910902C080589F4F892F0895CF93A2
:104D6000DF93C8E6D2E060E0CE010E949534219640
:104D7000C11584E0D807B9F7DF91CF9108950F935B
:104D80001F93CF93DF93843038F5643028F594E097
:104D9000699FE001112490E1899FC00DD11D11246C
:104DA000C85DDD4F411103C082E090E002C080E0A9
:104DB00090E0632F022F142F8C0F9D1F0E949534BB
:104DC000111103C083E090E002C081E090E0602F09
:104DD0008C0F9D1F0E949534DF91CF911F910F91F1
:104DE0000895FF920F931F93CF93DF93843058F56C
:104DF000643048F524E0629F8001112430E1839FF4
:104E0000000D111D1124085D1D4F411103C082E0EA
:104E100090E002C080E090E0F42E800F911F0E948D
:104E2000713490E0D82FCC27F11003C083E090E0DC
:104E300002C081E090E0800F911F0E9471349E01BA
:104E4000282BC90102C080E090E0CDB7DEB7E5E0D5
:104E50000C9407341F93CF93DF93962F8430E8F49C
:104E60006830D8F44830C8F4632F122FC42FD0E034
:104E7000CC0FDD1F20E1929FC00DD11D112490E8C1
:104E8000899FC00DD11D1124CE0188960E949534B2
:104E9000612FCE0189960E949534DF91CF911F91A9
:104EA0000895A0E0B0E0E7E5F7E20C94E43396E57E
:104EB000C92E96E0D92EE12CF12C912C812C00E00A
:104EC00010E0C0E0D0E05701A00EB11EF501EC0FDC
:104ED000FD1FEE0FFF1FEA5AFB4F259134914C2F17
:104EE000682D892D0E942A272196C830D10571F797
:104EF000085F1F4F839488E08812E3CF8601C0E0EB
:104F0000F8012591349141E06C2F892D0E94BF2634
:104F1000F80132962591349140E06C2F892D0E9442
:104F2000BF260C5F1F4FCF5FC43051F780E1C80E22
:104F3000D11C939480E4E80EF11C84E09812BECF5B
:104F4000CDB7DEB7ECE00C94003480E00E949F25E2
:104F500060E070E0CB010E949A250E9451270E94D8
:104F6000AF2681E00E949F2508950F931F93CF9352
:104F7000DF93843008F56830F8F44830E8F4C42F43
:104F8000D0E0CC0FDD1F20E1629FC00DD11D1124A8
:104F900030E8839FC00DD11D1124CE0188960E9458
:104FA000713490E0182F0027CE0189960E94713449
:104FB0009801282BC90102C080E090E0DF91CF91D9
:104FC0001F910F910895FC01680F791F8FEF91E3F6
:104FD000E617F70771F02191822728E030E087FF7C
:104FE00003C0880F892701C0880F21503109B9F704
:104FF000EFCF089580915501877F8093550190915F
:10500000EC039D7F9093EC0384FF08C08F7E809318
:1050100055018091EB0382608093EB0380915501F1
:1050200085FF08C08F7D809355018091EB038062DE
:105030008093EB030E94661A0895A0E0B0E0E3E2DB
:10504000F8E20C94E9338C01EB018091550182FF69
:1050500086C0E0900F04F0901004E016F10621F0F5
:105060000115110509F07BC0809155018B7F80935C
:10507000550181FD11C080910D0490910E04AE0187
:10508000481B590B81E02091530130915401421784
:10509000530718F480E001C081E08170D82E809120
:1050A0005501D0FA81F98093550187011127F80144
:1050B00084E0F695E7958A95E1F797012F703327FD
:1050C000EE0FFF1FE351FC4F81E090E002C0880F1C
:1050D000991F2A95E2F7DD2029F020813181822B6A
:1050E000932B06C080959095208131818223932354
:1050F000918380838091EB0381FF08C080915501EB
:1051000080618093550182E00E945F1A8091EB03D9
:1051100085FF08C08091550180628093550180E22F
:105120000E945F1ADD2029F08091EC038260809359
:10513000EC03C70190528115904308F47801C70130
:105140000E94D32E80910F04909110049C01305244
:105150002115304308F499270E94B92E12C0C801C6
:1051600090528115904318F4C801992701C0C801D5
:105170000E94B92E80910F0490911004081719070E
:1051800011F40E94FA27D0930E04C0930D04CDB7FA
:10519000DEB7E7E00C94053490E0FC01662319F0DB
:1051A000EF5AFE4F02C0E15BFE4F20812F3F71F0AE
:1051B000E22FE295EF70F0E080A190E02F7002C046
:1051C000959587952A95E2F78170089580E0089576
:1051D00090E0FC01662319F0EF5AFE4F02C0E15B3C
:1051E000FE4F80818F3FA1F0E82FE295EF70F0E055
:1051F00031A1282F2F7081E090E001C0880F2A95FF
:10520000EAF7982F9095932391A392A1892B82A3DB
:1052100008959091E503E92FF0E04091E60350E016
:105220009F012F5F3F4F2370332742175307A1F091
:10523000E951FC4F8F7720812078822B60FB87F922
:1052400080839F5F93709093E5038091E3038F5F6A
:105250008093E30381E0089580E00895ACE0B0E03E
:10526000E4E3F9E20C94E73380E00CEF93E0F92EED
:10527000EE24E3942DEFD22E32E0C32E9091E6037C
:105280002091E503291709F448C0E92FF0E0E9511E
:10529000FC4F108117FBBB24B0F81F779F5F937002
:1052A0009093E6038091E4038F5F8093E403BB2037
:1052B00041F00E946D181F83D8869A878987CB8614
:1052C00007C00E946D181F8308879A878987FB860D
:1052D000EC864F81588569857A858B859C850E94EF
:1052E000132EBB2041F00E946D181983DA829C8333
:1052F0008B83CD8207C00E946D1819830A839C831B
:105300008B83FD821E8249815A816B817C818D81D4
:105310009E810E94132E81E0B1CF2C96E9E00C947F
:1053200003349091DB0390FF05C0969596959817EE
:1053300048F003C0811106C090E0961718F40E944F
:105340006831089561E00E9413310895882311F0B7
:10535000FA0101C0FB010995089508958091DF03CA
:10536000882319F081508093DF032091DB03309173
:10537000DC034091DD035091DE036091DF03709107
:10538000E0038091E1039091E2030E94613008956F
:105390008091DF03833018F48F5F8093DF032091C7
:1053A000DB033091DC034091DD035091DE0360911B
:1053B000DF037091E0038091E1039091E2030E948A
:1053C00061300895E2E3F4E0118282818460828397
:1053D00008956091DB036695669570E04BE050E0C0
:1053E00086E591E00E94C135892B19F481E0809314
:1053F00033040E94852090932D0480932C04809187
:105400003404846080933404089560914B0180914A
:10541000DB0380FF0CC080914A0170E023E0829F93
:10542000C0011124855B9C4F0E949A2308958091AE
:105430004C0190914D01891770F7E82FF0E09F0122
:10544000220F331FE20FF31FE55BFC4F1182108226
:1054500012828F5FF0CF0F931F93CF93DF93EC01F6
:1054600000E010E080914E01282F30E00217130772
:1054700024F590914C019801290F311DA901440F89
:10548000551F240F351F255B3C4F869590E04C81BE
:10549000081719071CF4442331F002C0411103C05E
:1054A0004091DE0301C040E06091DD038091DC03A8
:1054B0000E9487300F5F1F4FD5CF0E94052A8C8135
:1054C00090E00196817099278C83DF91CF911F9195
:1054D0000F910895A0E0B0E0E0E7FAE20C94E43325
:1054E0008C01FC014481C42FD0E09E01DE010E94AA
:1054F0001D359B01AC010E94E8346B017C01E0E2A8
:10550000F0E0EC1BFD0BA5E5B0E09B01AC010E94B7
:10551000E8344B015C019F01DF010E947B359B0158
:10552000AC010E94F3349B01AC012C0D3D1D4E1DBE
:105530005F1DC501B4010E94FB34C22FD22F2A3255
:1055400028F4F3E02F9F900111240DC025E530E0F1
:105550002C1B3109C901880F991F280F391F37FFEC
:1055600002C02F5F3F4F35952795C22FC095F12C74
:1055700085E5E82EED1A80914E01F816C8F4F1FC8D
:1055800002C08E2D01C08D2F90914C012F2D30E047
:10559000290F311DA901440F551F240F351F255B0D
:1055A0003C4F4C2F6091DD030E948730F394E3CF92
:1055B0000E94052AF8018481811102C091E003C094
:1055C000803219F49FEF9093630190916301890FEA
:1055D000F8018483CDB7DEB7ECE00C9400341F9360
:1055E000CF93DF93EC018C81811109C081E08C8322
:1055F0001092360492E09093620180936101809151
:105600004C0190914D01891770F4E82FF0E09F0153
:10561000220F331FE20FF31FE55BFC4F1182108254
:1056200012828F5FF0CF10E060914E011617C0F527
:10563000E12FF0E070E0CF010E945A3520914C013B
:10564000820F20913604022E000C330B90E0E217FB
:10565000F307CCF020916201022E000C330B2E17C1
:105660003F078CF09C01220F331F820F931F9C0178
:10567000255B3C4F4091DE036091DD038091DC03AC
:105680000E9487300BC0FC01EE0FFF1F8E0F9F1F83
:10569000FC01E55BFC4F1182108212821F5FC4CFB8
:1056A0000E94052A8091610120913604280F2093E1
:1056B000360490916201980F9093620119165CF480
:1056C000022E000C330B40914E0150E04150510925
:1056D0002417350734F0819580936101813009F4F6
:1056E0001C82DF91CF911F910895A0E0B0E0EBE71D
:1056F000FBE20C94E433EC018A8180FF03C0BB24FD
:10570000BA9402C0BB24B3948C8181110DC081E096
:10571000B81206C080914E0181508093350402C0BA
:105720001092350481E08C83A12C42E1942E80916B
:105730004E01A81608F044C080914C01CA2CD12C0F
:105740008601080F111DC801880F991F080F191F26
:10575000055B1C4FF80111821082128234E0E32EA7
:10576000F12C812C80913504880D83312CF0692D2A
:105770000E943835892F05C087FF03C090914E01E4
:10578000890F082E000C990BC816D90691F4809148
:10579000DE038E9DA0018F9D500D112455954795D8
:1057A0005595479598016091DD038091DC030E9437
:1057B00087308B0CF1E0EF1AF108A1F6A394B7CF74
:1057C0000E94052A8091350491E0B9120EC0811122
:1057D00007C080914E018150809335041C820FC018
:1057E000815080933504BC820AC090E0019660919C
:1057F0004E0170E00E945A35809335048C83CDB7FA
:10580000DEB7ECE00C940034FF920F931F93CF931C
:10581000DF93EC01F12C0FEF10E060914E01F616D2
:10582000F0F480914C012F2D30E0280F311DC9017B
:10583000880F991F280F391F255B3C4F70E0C80166
:105840000E945A35962F8C814091DE036091DD03D2
:10585000F99E800D11240E948730F394DECF0E94C0
:10586000052A9A818C8190FF02C08F5F01C0815010
:105870008C83CDB7DEB7E5E00C9407349091DB0361
:1058800090FF16C090914C0120914D01921770F439
:10589000E92FF0E0DF01AA0FBB1FEA0FFB1FE55B5A
:1058A000FC4F8183608342839F5FF0CF0E94052A73
:1058B0000895A3E0B0E0EFE5FCE20C94EC338C013A
:1058C0008091370481110AC09E012F5F3F4F4FEF37
:1058D0006FEF0E9487308A8180933704F8018481BA
:1058E000813051F028F0823061F4409137040AC0D1
:1058F0008091370440E007C06091370440E080E0C9
:1059000003C040E080E060E00E943E2CF80184810A
:1059100090E0019663E070E00E945A3584832396FC
:10592000E4E00C940834A3E0B0E0E9E9FCE20C9474
:10593000EE339091DB0390FF0AC09E012F5F3F4F33
:105940000E9487304B8169818A810E943E2C239678
:10595000E2E00C940A34CF93DF93EC01EBEDF3E03B
:10596000438162818C810E94932C8C818F5F8C8318
:10597000DF91CF910895CF93DF93EC01EC81F0E0BC
:10598000EA5AFC4F4491EBEDF3E0628181810E9481
:10599000932C8C818F5F8C83DF91CF910895A3E04E
:1059A000B0E0E5EDFCE20C94E733082FE62EF42E90
:1059B000D22E9091DB0390FF7EC02091DC03281350
:1059C00008C08091DD03861304C08091DE03841734
:1059D00029F080913404826080933404E92FE695A5
:1059E000E695AE2FB0E0A653BE4F8C918093320463
:1059F0009C7F943071F49E012F5F3F4F4F2D6E2D91
:105A0000802F0E9487304B8169818A810E943E2CC1
:105A10003CC0823019F4F090DE0337C08630A1F12B
:105A2000893091F1893189F5E9518E2F8170C82E25
:105A3000E695F0E0EA56F94F1491B12C60914E01D1
:105A4000B616F8F4B19EC001112470E00E944635EC
:105A5000802FC11002C0860F01C0861B90914C019F
:105A60002B2D30E0290F311DA901440F551F240FA4
:105A7000351F255B3C4F4F2D6E2D0E948730B39410
:105A8000DDCF0E94052A01C0022F0093DC03E092C3
:105A9000DD03F092DE03DD2071F02091DB036091E5
:105AA000DF037091E003302FA7018091E103909113
:105AB000E2030E9461302396E9E00C940334EBED9D
:105AC000F3E0438121E1421B08F440E021E06281E0
:105AD00081810E94CF2C0895EBEDF3E0438121E119
