:100000000C9426040C9443040C9443040C94430471
:100010000C94AB2F0C9443040C9443040C944304B1
:100020000C9443040C9443040C94C2150C940415D2
:100030000C949A190C9443040C9443040C944304B8
:100040000C9443040C9443040C9443040C94430414
:100050000C9443040C9444170C9443040C944304F0
:100060000C9443040C9443040C9443040C944304F4
:100070000C9443040C9443040C9443040C944304E4
:100080000C9443040C9443040C9443040C944304D4
:100090000C9443040C9443040C9443040C944304C4
:1000A0000C9443040C9443040C944304D009D309E6
:1000B000060A1F0A250A300A330A330A330A630B79
:1000C000630BAF0AB10AB60ADC0AFF0A020B050B82
:1000D000290B490B540B5F0DD30D670D310D350DF9
:1000E0006B0D380D6E0D790D430DC90D470D7D0D4E
:1000F0004B0D810DAB0D4F0D850DB50D550D8B0DB8
:10010000950D3C0D720D3F0D750D5A0D900DA10D05
:10011000C10DC30D2D0D630DDC0DFC0D020EEF0C9A
:10012000F60D080E0E0E140E4B0E740E790E7E0E8A
:10013000830E880E8D0E920E970E9C0EA10EA80EA9
:10014000AB0EAE0EB10EB40EB70EBA0EBD0EC00E93
:10015000C50E4D0F4D0F800F800FFF0F1D101E118C
:100160001E1122109610A710A7101C134313EC1495
:100170004313EC148F13B213EC14A714B7141E0F0F
:100180000500047F3F1F643214643214783C1E1E45
:10019000140A05000000000000000000000000003C
:1001A000000000000000000000000000000000004F
:1001B000000000000000007E0F00D4FFFFFFC7001A
:1001C00000007800000000000000002A2B2800003A
:1001D00000000000000000000000000000002900F6
:1001E0000000002C1E3420212224342627252E3600
:1001F0002D3738271E1F202122232425263333366E
:100200002E37381F0405060708090A0B0C0D0E0FC0
:10021000101112131415161718191A1B1C1D2F3143
:1002200030232D350405060708090A0B0C0D0E0FA7
:10023000101112131415161718191A1B1C1D2F3123
:1002400030354C05010902A10185020901A1000513
:100250000919012908150025019508750181020574
:1002600001093009311581257F950275088106093C
:10027000381581257F950175088106050C0A38021D
:100280001581257F950175088106C0C0050109808B
:10029000A101850319012AB700150126B7009501B0
:1002A00075108100C0050C0901A101850419012AFE
:1002B000A002150126A002950175108100C005015C
:1002C0000906A1018506050719E029E715002501A2
:1002D0009508750181020507190029EF1500250110
:1002E00095F075018102050819012905950575012B
:1002F0009102950175039101C00660FF0961A1019A
:100300000962150026FF0095207508810209631512
:100310000026FF00952075089102C005010906A17D
:1003200001050719E029E7150025019508750181E8
:10033000029501750881010507190029FF1500269E
:10034000FF009506750881000508190129051500AB
:100350002501950575019102950175039101C0096B
:10036000025B00030100A0FA09040000010301017F
:100370000009211101000122440007058103080042
:10038000010904010002030000000921110100011C
:100390002222000705820320000107050303200035
:1003A00001090402000103000000092111010001FC
:1003B00022B600070584032000011201000200009C
:1003C000000801BB12000001010200011C034500EE
:1003D000720067006F0074006F006E0069006300B8
:1003E000200046003200340000001603680061005F
:1003F0006E0061006300680069002D0061007000FC
:100400000000040309042223252628292A2C2D2F45
:100410003032333536383A3B3D3E4042434547491A
:100420004A4C4E5051535557595A5C5E606264664F
:1004300068696B6D6F71737577797B7D7F8183855B
:1004400087898A8C8E90929496989A9C9E9FA1A35D
:10045000A5A7A8AAACAEAFB1B3B4B6B8B9BBBCBE81
:10046000BFC1C2C3C5C6C7C9CACBCCCDCED0D1D2FD
:10047000D2D3D4D5D6D7D7D8D9D9DADADBDBDBDCFF
:10048000DCDCDCDCDDDDDDDDDCDCDCDCDCDBDBDBAB
:10049000DADAD9D9D8D7D7D6D5D4D3D2D2D1D0CE0B
:1004A000CDCCCBCAC9C7C6C5C3C2C1BFBEBCBBB910
:1004B000B8B6B4B3B1AFAEACAAA8A7A5A3A19F9E8E
:1004C0009C9A98969492908E8C8A89878583817F56
:1004D0007D7B79777573716F6D6B69686664626037
:1004E0005E5C5A5957555351504E4C4A4947454303
:1004F00042403E3D3B3A3836353332302F2D2C2AA0
:10050000292826252322290014001A000800150096
:100510001700000000002B0004001600070009006F
:100520000A0000000000E1001D001B000600190089
:1005300005004C000000160A00000000E2002C41FB
:100540002C00E000000000001C0018000C0012004D
:1005500013002E00000000000B000D000E000F0025
:1005600033002D000000E3001100100036003700BA
:100570003800310000002A22284221522352000074
:1005800000002800000035001E021F022002210288
:1005900022020000000001001E001F0020002100B8
:1005A00022000000000001002F0230022F00300066
:1005B0003502010000000100000000000100010000
:1005C000010001000000000023022402250226028F
:1005D00027022E0200000000230024002500260030
:1005E00027002D02000001002602270236003700F6
:1005F000380031020000010001000100010000008C
:1006000000000100000001003A003B003C003D00FA
:100610003E000000000001003F0040004100420099
:10062000430000000000010044004500680069002C
:100630006A0001000000010000000000010001004C
:1006400001000100000000004B000000520000000B
:1006500000000000000000004E00500051004F005C
:1006600000000000000001004A004D0000000000F2
:100670000000000000000100010001000100000076
:100680000000010000000000207827782878137C03
:10069000147C000000000000217825782678117C69
:1006A000107C0000000000002278237824780000ED
:1006B000127C000000002078000000000100010012
:1006C0000100010000000000000000000000000028
:1006D000000000000000000000000000000000001A
:1006E000000000000000000000000000000000000A
:1006F00000000000000001000100010001000000F6
:10070000000001000000DC00DB000700060009001B
:1007100008000B000A00A900AA0007000600090053
:1007200008000B000A00D900DA00070006000900E3
:1007300008000B000A002778287807000600090047
:1007400008000B000A000001010101010101010183
:100750000202020202020202020303030303030372
:10076000030404040404040405050505050606063F
:100770000606070707070708080808090909090AFC
:100780000A0A0B0B0B0C0C0C0D0D0D0E0E0E0F0FA1
:100790000F1010111111121213131414151516162F
:1007A0001717181819191A1A1B1B1C1D1D1E1E1F9E
:1007B0002020212222232424252626272829292AED
:1007C0002B2C2D2D2E2F3031323233343536373815
:1007D000393A3B3C3D3E3F40414243444546474811
:1007E000494A4C4D4E4F50515354555658595A5BE7
:1007F0005D5E5F616264656668696B6C6D6F707287
:10080000737577787A7B7D7E8082838587888A8CF2
:100810008E8F91939596989A9C9EA0A2A3A5A7A926
:10082000ABADAFB1B3B5B7BABCBEC0C2C4C6C9CB1D
:10083000CDCFD1D4D6D8DBDDDFE2E4E7E9EBEEF0D3
:10084000F3F5F8FAFDFFFFAA7F55400011241FBE03
:10085000CFEFDAE0DEBFCDBF11E0A0E0B1E0E8EA23
:10086000F5E602C005900D92A03FB107D9F723E04D
:10087000A0EFB1E001C01D92A83FB207E1F70E94CE
:1008800045040C94D2320C940000A6E2B0E0EBE4F4
:10089000F4E00C94CC3085B7806885BF85B780685C
:1008A00085BF84B7877F84BF0FB6F894A8958091E1
:1008B0006000886180936000109260000FBE90E03D
:1008C00080E80FB6F89480936100909361000FBEAA
:1008D0008EEE9DE19093F1018093F0010E94481506
:1008E0000E9467158091E20084608093E200789412
:1008F000809138028823A1F01091E9001F70909137
:10090000EC00892F817090FD80E8182B1092E9008F
:100910008091E80083FD0E9439121F701093E90056
:1009200082E084BD93E095BD9AEF97BD80936E0001
:100930001092F2011092F3011092F4011092F5015D
:100940000E94A71A811102C00E94B41C8091D80095
:1009500080618093D8002AE12A95F1F700C0809148
:10096000D900182F117080FD04C00E944815109204
:10097000380210931B0310931C03109304011123DE
:1009800041F01092110189E0809312010E94662FBC
:1009900005C089E0809311018093120188E0E3E0B3
:1009A000F3E0DF011D928A95E9F780910401882325
:1009B00011F080E001C082E0809315028091040173
:1009C00082E080931A0280910401809104018111D8
:1009D0000CC086E38093160185E38093180184EFB1
:1009E0008093170185EF8093190160E080E00E94F9
:1009F000251D61E080E00E94251D60E081E00E94ED
:100A0000251D61E081E00E94251DEFE8F1E03197AE
:100A1000F1F700C0000010E080911A02181790F45E
:100A200060E0812F0E94091D082F61E0812F0E9444
:100A3000091DE12FF0E0EA5EFD4F880F082B0083CF
:100A40001F5FEACF8091040180910401882311F097
:100A500090E001C094E09093FF0184E0891B8093B3
:100A6000FE010FE511E0D8018D918D018F3F11F04E
:100A70000E949A1FB1E003361B07A9F703E611E0B5
:100A80009BE6E92E91E0F92EF80181918F018F3FCD
:100A900011F00E949A1FE016F106B1F788E0EDE12F
:100AA000F2E0DF01282F1D922A95E9F7E6EFF1E049
:100AB000DF011D928A95E9F780E090E00E946D3198
:100AC000853E9E4F21F40E94A71A811163C065EEF6
:100AD0007EEF80E090E00E94A13160E082E090E053
:100AE0000E94833181E08093000261E083E090E026
:100AF0000E94833160E074E184E090E00E94A131C3
:100B000060E086E090E00E94833160E087E090E062
:100B10000E94833140E050E0BA0188E090E00E94FA
:100B2000953160E083E290E00E94833160E08CE0E8
:100B300090E00E94833160E08DE090E00E9483317C
:100B400019821A821B821C821D821E821F821886B5
:100B500048E050E067E170E0CE0101960E947331F9
:100B600040E050E0BA018FE190E00E94953180E0D2
:100B70000E94881A0E94B41C40E050E0BA018FE045
:100B800090E00E94953140E050E0BA0183E190E0AE
:100B90000E94953182E090E00E945F3180930502CF
:100BA00084E090E00E946D319093240380932303AE
:100BB0000E943621EFEFF6E721E0E150F0402040BF
:100BC000E1F700C000000E94362180911D0280FFE5
:100BD00008C06FEF7FEF80E090E00E94A1310E949B
:100BE000331783E090E00E945F310E9418288091C3
:100BF0000202811184C088E090E00E9467314B01BD
:100C00005C0183E290E00E945F31282F30E040E0F9
:100C100050E060E070E080E090E000E20E94783216
:100C2000282939294A295B292093FB023093FC02A9
:100C30004093FD025093FE026093FF027093000305
:100C400080930103909302033091F5033360309356
:100C5000F5032C7F09F041C025E02093FB021092A0
:100C6000FC023FEF3093FD023093FE021092FF0230
:100C700030E04FEF5FEF60E00E94FD2888E090E0F9
:100C80000E9467316B017C0183E290E00E945F313A
:100C9000282F30E040E050E060E070E080E090E03D
:100CA0000E947832B22FA32FF42FE52F5B0197011A
:100CB0008601BC29A12BF22BE32BB093FB02A0935E
:100CC000FC02F093FD02E093FE026093FF02B092FB
:100CD000000380930103909302030E94E9280E947D
:100CE00076280E9491178091FB0280FF05C060E08A
:100CF000869586950E94462C81E080930202809121
:100D00001B03811102C00E94692F85E091E090933E
:100D1000200380931F0318E1412E512C05E2602E21
:100D200002E0702E84E0C82ED12C809138028530EC
:100D300009F05CC0FF24F39400E112E180913802D5
:100D4000853009F046C080913802843009F431C002
:100D50000E94762880910402811109C0F092040259
:100D60008091FB028170809303020E94DA28109226
:100D7000250340E40FB6F894A895409260000FBE9A
:100D80004093600083B7817F846083BF83B78160B5
:100D900083BF7894889583B78E7F83BF0FB6F8940E
:100DA000A895809160008861809360001092600037
:100DB0000FBE80913702882309F4C0CF0E943621EC
:100DC000EDE1F2E08191811187C46E167F06D1F7C3
:100DD000B5CF0E941B280E94721A109204028091C3
:100DE000030281110E94902C0E947D280E943621CE
:100DF00006E012E0BDE1EB2EB2E0FB2E2EE032E089
:100E0000D701F80191918D9189272E173F0719F08D
:100E10008823C1F305C0811103C00E94B32436C0EA
:100E200020901B03B12CD7013D907D01F8018080FB
:100E3000832421F1A12C99249394882D8921B9F040
:100E40002220A9F0A9A2BAA20E9485179CA38BA375
:100E5000F1E0FDA391E0832D892109F490E09EA3A8
:100E600049A15AA16BA17CA18DA10E946A2EA394D5
:100E7000990C28E0A212E1CFD8013C92B3940F5F05
:100E80001F4FB8E0BB12CFCF0E94B11F8091F40377
:100E9000882309F4D0C08091F303E091FB02E6952A
:100EA000E695E81BE093EF03823059F4F0E0E15758
:100EB000FE4FE4910E2F10E0ABE0EA2EAAE2FA2EEC
:100EC0006BC0863059F4F0E0E457FE4FE4910E2FEA
:100ED00010E0FBEFEF2EF9E2FF2E5EC0893061F4E7
:100EE000E695F0E0E757FE4FE4910E2F10E0E4E3C3
:100EF000EE2EEBE2FE2E50C08F3061F4E695F0E06E
:100F0000EA57FE4FE4910E2F10E075EAE72E7AE2E1
:100F1000F72E42C0853159F4F0E0ED57FE4FE491D1
:100F20000E2F10E06FE1E62E6AE2F62E35C0883112
:100F3000F9F0833249F4E1E8F1E00591149150E6CB
:100F4000E52E59E1F52E28C08432C9F08532F1F43E
:100F50008E2F63E00E941A32E92FF0E0E258FE4F34
:100F6000E4910E2F10E04DEBE42E47E1F42E14C077
:100F700008E210E03BEDE32E38E1F32E0DC004EF64
:100F800011E02CE9E22E28E1F22E06C000ED17E078
:100F900095E7E92E98E2F92E8091F003882361F01D
:100FA0001092F0030E9420209093EE038093ED03B3
:100FB0001092F2031092F1030E942020E091ED03C1
:100FC000F091EE039C012E1B3F0B2F3F3F4798F5FE
:100FD000209110022223B1F01092100220910E02F3
:100FE00030910F02821B930B8F3F9F4758F4205D77
:100FF0003A4830930F0220930E028091F5038860E7
:101000008093F503A090F103B090F2030E0F1F1F21
:101010001093EE030093ED038DEE93E0F701099535
:101020008091F1039091F203892B29F4AB2819F0F8
:1010300081E08093100280911B03882321F00E949D
:101040006B1DE82E01C0E12C80911B02882351F01A
:1010500010921B0280910503809306038091030385
:1010600080930403F12C80911A02F81608F041C015
:1010700061E08F2D0E94091D182F60E08F2D0E94C6
:10108000091DE12FEE0F8E2B0F2D10E0D801AA5E67
:10109000BD4FEC912E2F237030E0482F50E02417E5
:1010A000350729F1EE0FEE0FE82BEC938091150236
:1010B0008F0DEF70F0E0E559FE4F0F5E1D4FB080D1
:1010C000D8019C91B90EBC92B3E0BB1514F460E05A
:1010D00004C0EDEFBE161CF461E00E94461D8B2D8E
:1010E000BB0C990BB6010E944832D8018C93F39443
:1010F000BACF80911B03882319F00E946B1DE82A48
:10110000E1100E94B11F86E0E2E1F3E08E010F5F83
:101110001F4FD80101900D928A95E1F7909013032B
:10112000E0901403B0901503A0901603F0901703FD
:1011300010921403109215031092160310921703C5
:10114000E11003C0BB2009F447C0809110039091C7
:1011500011030E946A179C0190910B03992309F4D3
:10116000DAC225313105C0F19F3F19F09F5F90939E
:101170000B03EE2061F00E94901B1E1414F491E00A
:1011800001C09FEF899F802D112480931403BB2001
:1011900061F00E94901B1B1414F09FEF01C091E0BE
:1011A000899F802D11248093150380911403882337
:1011B00099F080901503882079F00E94B01B81116E
:1011C00001C081E080931403882D0E94B01B81111F
:1011D00001C081E080931503A11003C0FF2009F432
:1011E00047C080910E0390910F030E946A179C01E3
:1011F00090910C03992309F493C221353105C0F174
:101200009F3F19F09F5F90930C03AA2061F00E940A
:101210006E1B1A1414F491E001C09FEF899F802D7A
:10122000112480931603FF2061F00E946E1B1F148F
:1012300014F09FEF01C091E0899F802D11248093CD
:10124000170380911603882399F080901703882054
:1012500079F00E94B01B811101C081E080931603D8
:10126000882D0E94B01B811101C081E0809317037B
:101270008091130398121AC080911403882311F0EF
:101280008E1114C080911503882311F08B110EC0AC
:1012900080911703882311F0F81208C0909116036B
:1012A000992331F081E09A1104C002C081E001C0AD
:1012B00080E080FD15C08091140381110FC08091E2
:1012C000150381110BC080911603811107C081E0C5
:1012D00090911703911103C080E001C081E080FD6F
:1012E0000E94441B9A82EB82BC82AD82FE8286E021
:1012F000F801A2E1B3E001900D928A95E1F70E9416
:10130000721A90911C02891721F080931C020E948E
:10131000791780913802843009F007CD83E08093FB
:10132000E9008091E80082FF00CD8091E80085FF10
:1013300021C00E94991681111BC080E2E82EF12C79
:10134000580109C08091F100F50181935F01F1E03E
:10135000EF1AF10869F08091E80085FDF3CF8091E4
:10136000E8008B778093E8000E949916882399F310
:1013700091E001C090E08091E8008B778093E800D5
:10138000992309F4D2CC2981822F90E0FC01319776
:10139000E531F10508F097C1EA5AFF4F0C945C3231
:1013A0001A828CE0E1C08A81823009F4ABC150F42A
:1013B000813009F088C10E9479179B838C837D83DB
:1013C0006E8383C1833041F0843009F07CC11B827D
:1013D0001C821D821E8279C14B81DE01149680E041
:1013E00090E0242F30E0B901680F791F6830710553
:1013F00008F06BC1E42FE80FF0E0E35EFD4F508191
:101400005D9301968C31910571F75FC18A818230BD
:1014100019F0853051F057C16B817C818D819E819F
:101420000E9462320E94831A50C18091FB0280FFA9
:1014300003C00E94DA2849C10E94902C46C14C8109
:101440006B818A810E94C41C2DC12D813E8132276F
:10145000232732274C816B818A810E94391C35C138
:101460000E94601C32C18A81823009F02CC1283070
:10147000B9F1293009F460C08B818230F9F098F419
:10148000813009F022C18C812FEF829FC00111248D
:101490006FEF70E00E943432462F20E06091FD0231
:1014A0008091FC021AC08330A1F0843009F00DC194
:1014B00020E04091FE026D818C810FC08C818823D9
:1014C00009F4B7CF0E94902C60E08C810E94462CDA
:1014D000FCC08C818093FF02F8C00E946E2BF5C087
:1014E0008B818230E1F078F4813009F0EEC0809198
:1014F000FE024FEF849FC00111246FEF70E00E9445
:1015000034326C83E2C0833099F0843009F0DDC05E
:101510008091FC028C838091FD028D83D6C08091E6
:10152000FB0280FF03C08695869504C080E002C060
:101530008091FF028C83C9C02091FB023091FC0294
:101540004091FD025091FE026091FF0270910003F4
:1015500080910103909102030E94FD28B6C080E1B2
:1015600052C081E08A8388E98B83AFC0EA80FB8028
:10157000FE24EF24FE248C80912C5801C701885949
:101580009D4F9501201B310B2815390508F09DC092
:10159000A8E9EA16A1E0FA0628F40E945F31F501F5
:1015A000848303C0D50114961C92BFEFEB1AFB0A8B
:1015B000EFEFAE1ABE0AE2CFEA80FB80FE24EF24F2
:1015C000FE248C80912C5801C70188599D4F9501AC
:1015D000201B310B2815390508F077C0F8E9EF1604
:1015E000F1E0FF0628F4D50114966C910E94833136
:1015F000BFEFEB1AFB0AEFEFAE1ABE0AE5CF0E946F
:10160000BE1B63C084E08A8360C0EA80FB80FE2446
:10161000EF24FE248C80912C5801C70188969501F7
:10162000201B310B2815390508F04FC0E114F2E0FA
:10163000FF0630F40E945F31D50114968C9302C0EE
:10164000F5011482FFEFEF1AFF0A2FEFA21AB20A78
:10165000E4CFEA80FB80FE24EF24FE248C80912CD2
:101660005801C70188969501201B310B28153905B3
:1016700060F5E11442E0F40628F4D50114966C916B
:101680000E948331BFEFEB1AFB0AEFEFAE1ABE0ADE
:10169000E8CF41E08C81811101C040E06B818A81FB
:1016A0000E94001C9D8335C02D813E813227232757
:1016B000322741E08C81811101C040E06B818A8139
:1016C0000E94CE1B02C08FEF898340E250E0B80138
:1016D00082E00E94CC1629CB09BD19BD09B400FED9
:1016E000FDCF8091D8008F7D8093D8008091E0005D
:1016F00082608093E0008091E00081FDFCCF0E9439
:101700001B281CCB87E290E00E945F311B821C8269
:101710001D828E83DACF2B30310508F027CD5CCDCA
:101720002B30310508F06ECDA3CDA8E0B0E0EBE999
:10173000FBE00C94CC30FC018481882309F4E0C5E3
:101740007F0121E0408151816281738195810E94F6
:10175000452E8C01F7018581882309F438C1C80121
:1017600097578038910508F054C1003108F03FC107
:101770008FEF93E00E945F31811139C138E6A32ECB
:1017800032E0B32E002379F0A114F4E0BF0609F48F
:101790002EC1C5010E945F31811101C001502FEFA0
:1017A000A21AB20AEFCFCE0101962C0188E0F20115
:1017B00011928A95E9F72AE0322E85010F5F1F4FBB
:1017C000C5010E945F3189831A82882309F40FC101
:1017D000813009F041C06501F2E0CF0ED11CC80193
:1017E0000E945F318A83882309F401C19FEF980F1B
:1017F000933060F423E0A20EB11CC6010E945F3159
:101800008B83882309F4F3C01C8229C0843031F50E
:101810004E0133E0830E911C02E010E056018FEF81
:10182000A81AB80AC6010E945F31F40181934F01E2
:10183000882309F4DCC08C3741F4E2E0F0E0EC0FDF
:10184000FD1FE00FF11F10820AC00F5F1F4F6501DF
:101850000730110519F7CBC0580101C056018201AC
:10186000F8012081222309F4A8CF213009F053C0C8
:101870008181813081F46801F2E0CF0ED11CF80142
:101880008281893319F460E570E002C060E070E0A5
:101890000E945D2815C0823049F46801F2E0CF0E45
:1018A000D11CF80182810E94D12D0AC0833051F4ED
:1018B0006801F2E0CF0ED11CF80182810E949E2DBA
:1018C000860182C0843019F00F5F1F4F7DC0F80180
:1018D00022810E5F1F4F80E090E030E020533109FD
:1018E0002A30310568F4389EA001399E500D11242C
:1018F000C901840F951F0F5F1F4FF8012081EDCFA5
:10190000009709F461C0EFE9FFE03197F1F700C0FB
:1019100000000197F5CFE22FF0E0ED53FE4F249049
:10192000822F86958695869590E0FC01ED54FE4FBA
:1019300064902770712C022E02C0759467940A94EB
:10194000E2F7F1E06F227724FC01ED55FE4F849021
:10195000912C022E02C0959487940A94E2F731E00C
:1019600083229924FC01ED56FE4FC490D12C02C075
:10197000D594C7942A95E2F781E0C822DD2461144A
:10198000710419F081EE0E94D12D8114910419F097
:1019900086EE0E94D12D60E070E0822D0E945D28CD
:1019A0008114910419F086EE0E949E2D6114710439
:1019B00019F081EE0E949E2DC114D10429F060E03F
:1019C00070E08CE20E945D280F5F1F4F49CFF80145
:1019D000E851FC47E730F10508F03FC103C106E2DA
:1019E00021EE41EE6AE17CE7C7010E94C01A8091B6
:1019F000BF03877009F484C4F7018581882309F443
:101A00007FC48091240382FF7BC482E00E94DE2792
:101A100077C4F801E851FC47E730F10508F4E2C06B
:101A200010921A03C8019057839708F003C184E00D
:101A300090E00E946D319093240380932303F8017A
:101A4000E150F047E232F10520F4E559FF4F0C94E4
:101A50005C32809123038160ACC080912403886054
:101A6000B4C0809123038260A4C08091230320C06E
:101A70008091230388609DC0809124031EC08091C3
:101A800024038260A2C080912303806192C0809170
:101A9000230380628EC08091230380648AC00E94E9
:101AA0001B2880912303806884C080912303886071
:101AB00084607FC0809124038260816086C08091B1
:101AC00023038E7F76C080912403877F7EC0809120
:101AD00023038D7F6EC08091230320C08091230358
:101AE000877F67C0809124031EC0809124038D7F6F
:101AF0006CC0809123038F7E5CC0809123038F7D17
:101B000058C0809123038F7B54C00E941B28809172
:101B100023038F774EC080912303877F8B7F49C03B
:101B2000809124038D7F8E7F50C08091230382FBA0
:101B3000222720F991E0922790FB82F990FB83F90C
:101B400038C080912403982F909591708E7F892BB7
:101B500090FB81F93AC08091230386FB222720F96C
:101B600091E0922790FB86F924C00E941B28809167
:101B7000230387FB222720F991E0922790FB87F926
:101B800018C061E001C060E08EE090E00E94833107
:101B90001EC08091230384FB222720F991E0922725
:101BA00090FB84F906C080912303982F909590FBB9
:101BB00080F9809323030BC08091240383FB2227A9
:101BC00020F991E0922790FB83F9809324036091A0
:101BD00023037091240384E090E00E94A1310E94CD
:101BE0001B2805CFE357FF4F0C945C3207E225EE2C
:101BF00045EE6BE17CE7F8CE06E221EE40EE68E1CF
:101C00007CE7F2CE07E225EE44EE69E17CE7ECCE1C
:101C100006E221EE42EE6CE17CE7E6CE07E225EE3D
:101C200046EE6DE17CE7E0CE08E221E045EE6EE1B4
:101C30007CE7DACE0631FCE71F0709F0B9C08091D6
:101C4000EA038A7A91E009F490E0909325028111E9
:101C500012C089E20E94F1190BC006312CE712076D
:101C600061F480912502811111C389E20E94C31998
:101C70000E94DE24BCCE85E3EDCF8091EA03827220
:101C8000F801E052F847E531F10508F083C0EC5661
:101C9000FF4F0C945C328091FB0280FF1EC0282F06
:101CA0002E7F2093FB023091FC024091FD02509167
:101CB000FE026091FF0270910003809101039091F8
:101CC00002030E94FD280E9476288091F50381601E
:101CD0008093F5030E9499288ACE81608093FB024D
:101CE00061E0869586954EC04BE95CE266EA7CE24F
:101CF0002CC046EA5CE26BE97CE227C042E35CE28E
:101D00006CE37CE222C04CE35CE262E37CE21DC057
:101D100048E15CE265E27CE218C045E25CE268E131
:101D20007CE213C04EEF5BE26BE07CE20EC04BE066
:101D30005CE26EEF7BE209C043E259E26DE379E2D7
:101D400004C04DE359E263E279E20E94E31D4FCE05
:101D500061E081E017C065E082E019C068E086E0DC
:101D600016C06EE089E013C064E18FE010C067E147
:101D700085E10DC061E088E105C062E289E107C04C
:101D800061E083E20E94462C32CE6AE285E20E9444
:101D9000CE1D2DCE0737FCE71F0711F481E005C0EB
:101DA00008372CE7120719F582E00E94D12708C0F6
:101DB00007373CE7130709F06BC281E00E940C284B
:101DC00043E062E081E00E94AF2711CE03309CE740
:101DD000190709F480C208F062C20115FCE71F0769
:101DE00009F46BC201302CE7120709F47AC2F7013B
:101DF000858100811181882349F0C8010E949325C3
:101E0000D82E682FC8010E94922704C0C8010E94E2
:101E10007927D82EB8018D2D0E9416210E94962375
:101E2000D82E192FA82EF7010581C680C2949FE0F5
:101E3000C9228091BF03877001F10023F1F0812F47
:101E4000807F803469F080E28D0D8830B0F0812F82
:101E5000807E803229F4F1E0FD1578F4CC2069F021
:101E60008091240382FF09C082E00E94DE278091D6
:101E7000BF038770BB24B3948111B12C912E92942F
:101E80008FE09822892D90E08C30910508F0D6C122
:101E9000FC01E755FF4F0C945C32812F807F1F704F
:101EA000882311F01295107F0023B9F0112309F453
:101EB000B3C180E28D0D883010F0A11006C0909162
:101EC000EA03192B1093EA0305C09091C103192B63
:101ED0001093C1030E94DE249FC18D2D0E949E2D70
:101EE000112309F4ABC180E28D0D883088F1AA205E
:101EF00079F110959091C10319231093C1032BC060
:101F0000812F807F1F70803211F01295107F8D2DF0
:101F1000AA2029F021E0A21609F44CC057C08091F4
:101F2000240382FD1BC0002369F0112339F0909136
:101F3000EA03192B1093EA030E94DE2480E00E943A
:101F4000D12D7CC180E00E949E2D112309F476C121
:101F5000812F0E94D7240E94DE2470C1002381F0CB
:101F6000CC20C1F131E0C31269C19091C003812F2F
:101F70008923181709F462C1192B1093C0035EC19D
:101F8000C1105CC1812F0E944C288091C003912F09
:101F9000982329F0912F909589238093C003209155
:101FA0002602812F822309F449C110952123209311
:101FB000260244C1002329F085E08C1508F43EC1B7
:101FC00009C094E09C1508F439C115C0002331F014
:101FD000C11022C1812F0E94532830C1CC2059F05A
:101FE000893309F028C1EFEFF7EE23E0E150F0402C
:101FF0002040E1F71EC1812F0E944C281FC1812F74
:1020000086958695837019F0813061F017C10023A1
:1020100021F08D2D912F937002C080E090E00E94FE
:102020004D1A12C1002321F08D2D912F937002C003
:1020300080E090E00E94281A07C1602F8D2D0E9439
:10204000B22C02C1812F8370A9F50111FBC04D2D67
:10205000429546954770440F440F8D2D8F7090E048
:102060009C01042E01C0220F0A94EAF7D4FE08C096
:102070008FE090E001C0880F4A95EAF7809501C093
:1020800080E0169516951370123069F088F49091DF
:102090000002113019F0822B892302C0922B892B68
:1020A0000E941828CFC0822B909100028927F8CF78
:1020B000822BF6CF002319F0812F817001C0869505
:1020C000882309F4BFC04D2D429546954770440FB3
:1020D000440F8D2D8F7090E09C01042E01C0220FC3
:1020E0000A94EAF7D4FE08C08FE090E001C0880FA0
:1020F0004A95EAF7809501C080E016951695137011
:10210000123059F078F490910102113019F0822BBD
:10211000892309C0922B892B06C0822B9091010242
:10212000892701C0822B0E94AC278CC01F7000231E
:1021300039F0812F0E940C288D2D0E94532882C0D7
:102140008D2D0E944C28812F0E94D1277BC08D2D80
:1021500032EFA31681F13A1538F090EFA91659F035
:10216000E1EFAE1619F154C0F3EFAF1659F124EFB9
:10217000A216C1F04DC0002381F034E03C1508F4F4
:102180005DC01F7181E090E0012E01C0880F0A94AC
:10219000EAF790910102892720C085E08C1508F4A8
:1021A0004DC0EFCF8091240382FD1AC0002329F097
:1021B000812F8F7120C00023D9F3812F8F710E944E
:1021C000D1273CC0002341F01F7181E0012E01C0E6
:1021D000880F0A94EAF701C080E00E94AC272EC065
:1021E000002361F0812F8F7198E0899F9001112465
:1021F00023602093BF030E940C2820C081E00E942E
:10220000DE27E1E0EC15D0F482E00E94DE2716C064
:10221000002321F0CC2061F28D2D91CECC2069F2EB
:10222000893349F4FFEF27EE33E0F150204030408E
:10223000E1F700C000008D2D0E949E2D88EF890DD2
:10224000843010F40E94721ABB20A9F08091BF0361
:1022500080FD11C0F70115828695869586950E94AE
:102260000C28C7010E94950B8091BF038695869527
:1022700086950E94D12720E0F7014081518162813B
:102280007381848195810E94452E3AC085E3EECC0E
:1022900008378CE7180709F099CD82E08FCD0B3510
:1022A0003CE7130749F10C358CE71807E9F00A35CC
:1022B0001C4709F09CCD81E020C00E941B28EFEF55
:1022C000F4E32CE0E150F0402040E1F700C00000D2
:1022D0000E9433178CCB6FEF7FEF80E090E00E947D
:1022E000A1310E94FA2E83CB8091240382FB8827A0
:1022F00080F991E0892701C080E00E94F52777CD21
:102300002896E2E10C94E83080913A0287FF11C0F0
:102310008091E80082FD05C0809138028111F8CFDC
:1023200011C08091E8008B770BC080913802882320
:1023300049F08091E80080FFF8CF8091E8008E7727
:102340008093E8000895982F973068F59093E900FE
:10235000981739F07091EC002091ED005091F00049
:1023600003C0242F762F50E021FD02C09F5FECCFE9
:102370003091EB003E7F3093EB003091ED003D7FDC
:102380003093ED003091EB0031603093EB007093AF
:10239000EC002093ED005093F0002091EE0027FD1B
:1023A000E5CF80E008958F708093E90081E0089583
:1023B00020914002309141022617370748F06115FD
:1023C000710539F42091E8002E772093E80001C0D0
:1023D000B901FC0120E06115710579F180913802A5
:1023E0008823F1F18530F1F18091E80083FD3CC054
:1023F0008091E80082FD2EC08091E80080FFEBCF45
:102400002091F3008091F20090E0922B611571050C
:1024100051F08830910538F421912093F1006150FA
:1024200071090196F3CF21E0089709F020E080912F
:10243000E8008E778093E800CECF2111CFCF0AC07D
:1024400080913802882361F0853061F08091E80046
:1024500083FD0AC08091E80082FFF2CF80E00895FA
:1024600082E0089583E0089581E0089580912D022F
:102470000895AAE2B0E0EFE3F2E10C94DB30EAE386
:10248000F2E082E492E02091F10021938E179F0701
:10249000D1F780913B02833009F463C030F481307E
:1024A00071F0823009F49DC0B4C08A3009F489C04B
:1024B0008B3009F46EC0893009F0ABC020C0809128
:1024C0003A02813A09F0A5C08091E800877F8093A5
:1024D000E80080913E0290913F02892B21F468E050
:1024E0008EE292E003C060E080E090E070E00E9445
:1024F000D8118091E8008B778093E8008AC08091A2
:102500003A02813209F085C080913E0290913F02EB
:10251000009719F0029709F07CC08091E800877F4E
:102520008093E8008091E80082FD05C08091380228
:102530008111F8CF6EC02091F3008091F20090E0FD
:10254000922B029731F48091F100813011F08630A6
:1025500021F48091F10080932D028091E8008B7727
:1025600054C080913A02813A09F053C080913E02F2
:1025700090913F02892B09F04CC08091E800877F41
:102580008093E8008091E80080FFFCCF80910F01EC
:1025900037C080913A028132E1F580913E029091FC
:1025A0003F02892BB1F58091E800877F8093E80096
:1025B0000E94841180913C0280930F010E941B288D
:1025C00028C080913A02813221F58091E800877F0E
:1025D0008093E8000E94841180913D0280932C0238
:1025E00018C080913A02813AA1F48091E800877F77
:1025F0008093E8008091E80080FFFCCF80912C025E
:102600008093F1008091E8008E778093E8000E942B
:1026100084118091E80083FFDFC180913A0290919C
:102620003B02492F50E04A30510508F0D5C1FA016C
:10263000EB54FF4F0C945C32803821F0823809F063
:10264000CBC108C08091360290913702992389F05E
:1026500082600FC080913E028F70873008F0BCC14D
:102660008093E9008091EB0085FB882780F9109228
:10267000E9009091E800977F9093E8008093F10043
:102680001092F10070C1282F2D7F09F0A5C1882379
:1026900019F0823061F0A0C180913C02813009F0D4
:1026A0009BC1933009F080E0809337022EC0809167
:1026B0003C0281112AC080913E028F702FEF280FBB
:1026C000263008F089C18093E9002091EB0020FFBB
:1026D0001CC0933021F48091EB00806214C0909173
:1026E000EB0090619093EB0021E030E0A90102C083
:1026F000440F551F8A95E2F74093EA001092EA00D2
:102700008091EB0088608093EB001092E90080914B
:10271000E800877F8093E8000E9484115DC18111E9
:102720005BC110913C021F778091E3008078812B80
:102730008093E3008091E800877F8093E8000E9407
:1027400084118091E80080FFFCCF8091E3008068D5
:102750008093E300111102C082E001C083E0809306
:1027600038023AC18058823008F036C120913C02CC
:1027700030913D022C3D53E0350779F583E08A83A3
:102780008AE289834FB7F894DE01139620E03EE099
:1027900051E2E32FF0E050935700E49120FF03C093
:1027A000E295EF703F5FEF708E2F90E0EA3010F00F
:1027B000C79601C0C0968D939D932F5F243149F732
:1027C0004FBF8091E800877F8093E8006AE270E065
:1027D000CE0101960E94D811B4C080913E02909122
:1027E0003F02432F552743305105A9F068F441308B
:1027F000510509F400C14230510509F0EDC08BE5E7
:1028000090E0EFE5F3E04BC04132510529F142324F
:10281000510589F1E1C0C901992781309105A1F0E5
:1028200058F0029709F0D8C0ECECF3E0E4918E2F59
:1028300090E0ECECF3E030C0E2E0F4E0E4918E2FC5
:1028400090E0E2E0F4E028C0EAEEF3E0E4918E2FBD
:1028500090E0EAEEF3E020C08330910508F0BCC0C0
:10286000880F991FFC01EC57FE4F0190F081E02D7D
:1028700089E090E014C08330910508F0ADC0FC0100
:10288000EE0FFF1FE258FE4F0190F081E02DDC01BA
:10289000A558BE4F8C9190E0009709F49DC02091FF
:1028A000E800277F2093E800209140023091410208
:1028B0002817390708F4C90140E0009789F12091F1
:1028C0003802222309F43DC02530D9F12091E800D7
:1028D00023FD37C02091E80022FD2FC02091E800A1
:1028E00020FFEBCF4091F3002091F20030E0342B39
:1028F000009759F02830310540F444914093F1009D
:10290000319601972F5F3F4FF3CF41E028303105DB
:1029100009F040E02091E8002E772093E800CDCF29
:102920004111CDCF0AC080913802882351F0853003
:1029300041F08091E80083FD04C08091E80082FFAF
:10294000F2CF8091E8008B778093E80045C0803813
:1029500009F042C08091E800877F8093E800809171
:1029600039028093F1008091E8008E77D3CE8111F7
:1029700033C080913C0290913D029927029764F503
:102980008091E800877F8093E80010913C021093CB
:1029900039020E948411111106C08091E30087FD65
:1029A00002C081E001C084E08093380242E061EC23
:1029B00081E00E94A31142E261EC84E00E94A31135
:1029C00042E261EC82E00E94A31142E260EC83E00B
:1029D0000E94A311809138028091E80083FF10C00B
:1029E0008091E800877F8093E8008091EB0080620F
:1029F0008093EB0005C082E190E0EAEBF3E04FCF7B
:102A0000AA96E3E00C94F7301F920F920FB60F9244
:102A100011242F933F934F935F936F937F938F93E3
:102A20009F93AF93BF93CF93DF93EF93FF93C091A7
:102A3000E900CF708091EC00D82FD17080FDD0E8F4
:102A40001092E9008091F000877F8093F0007894E5
:102A50000E9439121092E9008091F0008860809302
:102A6000F000CD2BCF70C093E900FF91EF91DF9183
:102A7000CF91BF91AF919F918F917F916F915F9116
:102A80004F913F912F910F900FBE0F901F9018956F
:102A9000E8EDF0E080818E7F80831092E20010925A
:102AA000DA001092E100A0EEB0E08C9181608C938E
:102AB00080818F77808319BCA7EDB0E08C918E7FE9
:102AC0008C9380818F7E808310922B020895A0E0EA
:102AD000B0E0EDE6F5E10C94D630C8EDD0E08881A9
:102AE0008F7E8883E7EDF0E080818160808384E0E1
:102AF00082BF81E080932B0288818E7F888302EEE3
:102B000010E0F80110821092DA0081EEC82ED12C6C
:102B1000F601108288818F77888388818068888316
:102B200088818F7D888319BC1092380210923902F7
:102B3000109237021092360290EEE92EF12CF70136
:102B400080818B7F808388818160888342E060E020
:102B500080E00E94A311F60180818E7F8083F801BE
:102B6000808181608083808188608083F70180819B
:102B70008E7F8083888180618883CDB7DEB7E8E06F
:102B80000C94F2301F920F920FB60F9211242F93D4
:102B90003F934F935F936F937F938F939F93AF93E5
:102BA000BF93EF93FF938091E10082FF09C0809172
:102BB000E20082FF05C08091E1008B7F8093E100FD
:102BC0008091DA0080FF2AC08091D80080FF26C063
:102BD0008091DA008E7F8093DA008091D90080FFA7
:102BE00018C080E189BD82E189BD09B400FEFDCF36
:102BF00081E08093380280912B0281110FC00E94E6
:102C000048150E9467158091E20084608093E2007D
:102C100005C019BC1092380210922B028091E1007D
:102C200080FF17C08091E20080FF13C08091E20016
:102C30008E7F8093E2008091E20080618093E200C9
:102C40008091D80080628093D80019BC85E0809381
:102C500038028091E10084FF30C08091E20084FF5F
:102C60002CC080E189BD82E189BD09B400FEFDCFA1
:102C70008091D8008F7D8093D8008091E1008F7E75
:102C80008093E1008091E2008F7E8093E20080914A
:102C9000E20081608093E20080913902882311F084
:102CA00084E007C08091E30087FD02C081E001C09D
:102CB00083E080933802809138028091E10083FFA5
:102CC00027C08091E20083FF23C08091E100877FCD
:102CD0008093E10082E08093380210923902809163
:102CE000E1008E7F8093E1008091E2008E7F8093EF
:102CF000E2008091E20080618093E20042E060E0C7
:102D000080E00E94A3118091F00088608093F00021
:102D1000FF91EF91BF91AF919F918F917F916F91B3
:102D20005F914F913F912F910F900FBE0F901F9089
:102D300018952091E4003091E50095E64091EC0073
:102D4000842F817040FF23C08091E80080FD1DC06A
:102D500080913802882399F0853099F08091EB00BA
:102D600085FD11C04091E4005091E500241735071E
:102D700029F3915011F09A01E1CF84E0089582E0A7
:102D8000089583E0089581E0089580E008954091DA
:102D9000E80042FFDDCF08950F931F93CF93DF9399
:102DA0008B01EA0190913802943079F58F7080930D
:102DB000E9008FEF9091E800815095FD06C095EDF8
:102DC0009A95F1F700008111F5CF8091E80085FF19
:102DD0001CC00E949916882361F08091E8008E77CC
:102DE0008093E80012C0F80181918F018093F10077
:102DF0002197209791F38091E80085FDF4CF809191
:102E0000E8008E778093E800E4CFDF91CF911F91A7
:102E10000F91089543E050E0BC0184E00E94CC167D
:102E2000089546E050E0BC0184E00E94CC1608956D
:102E300040E250E0BC0184E00E94CC160895CF939C
:102E4000DF93EC0148E050E0BC0181E00E94CC1629
:102E500088E0FE01AEE2B2E001900D928A95E1F7C2
:102E6000DF91CF91089587E797E7909301088093CA
:102E700000089AE088E10FB6F894A8958093600066
:102E80000FBE90936000FFCF78941F920F920FB601
:102E90000F9211248F939F93AF93BF93809127023A
:102EA00090912802A0912902B0912A020196A11DB9
:102EB000B11D8093270290932802A0932902B0931A
:102EC0002A02BF91AF919F918F910F900FBE0F90EB
:102ED0001F9018959C014FB7F8948091270290910C
:102EE0002802A0912902B0912A024FBF821B930BA6
:102EF00008952FB7F894609127027091280280916D
:102F0000290290912A022FBF08952FB7F89480913B
:102F1000270290912802A0912902B0912A022FBF86
:102F20000895529A08952BB12B7F3BB134604FB76F
:102F3000F894FC01CB01880F991F680F791F6E0F61
:102F40007F1FE617F70789F0819198E03BB90000F1
:102F500000C087FF2BB9880F000000C000C000C070
:102F60002BB900C09A9591F7ECCF4FBF8FE594E055
:102F70000197F1F700C0000008952F923F925F92F1
:102F80006F927F928F929F92AF92BF92CF92DF9279
:102F9000EF92FF920F931F93CF93DF93FC01628018
:102FA000548081E08483E6E0F4E07490E5E8F4E0A6
:102FB000E491C091FE02C695C158D0E0CC0FDD1F50
:102FC0002D2E3324812C75E0972EAA24AA94B12C9F
:102FD000E719EE2EF12C80911501881608F098C0A3
:102FE000C82CD12C22E0261568F09C9CF0019D9CF9
:102FF000F00D1124EF55FD4F8091FC0280838091EC
:10300000FD02818351100AC09C9CF0019D9CF00D33
:103010001124EF55FD4F1382128260C09C9C8001E9
:103020009D9C100D1124E801CF55DD4F8B81882325
:10303000F9F081508B832FEF829FC00111246C81A6
:1030400070E00E943432FB01FF27EA5FFB4F84915E
:10305000E82FE7192FEFE29FC0011124B7010E946A
:1030600034328091FE02689FB00111247A8336C009
:103070000E944F31B5010E9448328215930574F5C4
:1030800082E0861588F40E944F31B5010E944832D3
:1030900088830E944F312091FD022695622F70E0B7
:1030A0000E944832280F29839C9CF0019D9CF00DC2
:1030B0001124EF55FD4F12828091FE02843120F0E1
:1030C000893C18F088EC01C084E19C9CF0019D9C37
:1030D000F00D1124EF55FD4F8483838380911301FC
:1030E0009601280F311DC901880F991F280F391F1C
:1030F00025593D4F9C9CF0019D9CF00D1124EF55EE
:10310000FD4F4281618180810E945729839463CF62
:103110000E949928DF91CF911F910F91FF90EF901E
:10312000DF90CF90BF90AF909F908F907F906F90E7
:103130005F903F902F9008950F931F93CF93DF934D
:10314000EC0100E010E080911501282F30E002171B
:10315000130724F5909113019801290F311DA9013E
:10316000440F551F240F351F25593D4F869590E07C
:103170004C81081719071CF4442331F002C0411197
:1031800003C04091FE0201C040E06091FD028091C9
:10319000FC020E9457290F5F1F4FD5CF0E9499282C
:1031A0008C8190E00196817099278C83DF91CF917B
:1031B0001F910F910895A0E0B0E0E1EEF8E10C94CA
:1031C000D2308C01FC014481C42FD0E09E01DE018D
:1031D0000E940B329B01AC010E94D6316B017C0135
:1031E000E0E2F0E0EC1BFD0BA5E5B0E09B01AC01DB
:1031F0000E94D6314B015C019F01DF010E946932C0
:103200009B01AC010E94E1319B01AC012C0D3D1DE5
:103210004E1D5F1DC501B4010E94E931C22FD22F9E
:103220002A3228F4F3E02F9F900111240DC025E5E8
:1032300030E02C1B3109C901880F991F280F391F55
:1032400037FF02C02F5F3F4F35952795C22FC0959E
:10325000F12C85E5E82EED1A80911501F816C8F4D9
:10326000F1FC02C08E2D01C08D2F909113012F2DE6
:1032700030E0290F311DA901440F551F240F351FC0
:1032800025593D4F4C2F6091FD020E945729F39420
:10329000E3CF0E949928F8018481811102C091E056
:1032A00003C0803219F49FEF9093100190911001A8
:1032B000890FF8018483CDB7DEB7ECE00C94EE30D3
:1032C000A3E0B0E0E6E6F9E10C94DA308C018091FD
:1032D0006A0281110AC09E012F5F3F4F4FEF6FEFCF
:1032E0000E9457298A8180936A02F8018481813083
:1032F00051F028F0823061F440916A020AC0809156
:103300006A0240E007C060916A0240E080E003C0CA
:1033100040E080E060E00E94BF28F801848190E0F6
:10332000019663E070E00E94483284832396E4E0D3
:103330000C94F6301F920F920FB60F9211248F93B8
:103340009F93AF93BF9380912503811113C0809108
:10335000270290912802A0912902B0912A02419659
:10336000A11DB11D8093270290932802A0932902EA
:10337000B0932A02BF91AF919F918F910F900FBE92
:103380000F901F90189590910F01992321F0909123
:10339000230397FD03C0E2E4F2E01DC0E82FE695A9
:1033A000E695E695EE31E0F4F0E0E65BFD4F8770E0
:1033B00021E030E0A90102C0440F551F8A95E2F7D1
:1033C000CA0180959281892382830895319652E0C3
:1033D000E834F50729F092818913F8CF1282F6CFED
:1033E000089590910F019923D1F09091230397FFB5
:1033F00016C0E82FE695E695E695EE3140F5F0E04B
:10340000E65BFD4F877021E030E0A90102C0440F68
:10341000551F8A95E2F7CA019281892B16C0A4E450
:10342000B2E0EFEF90E02D91821789F0EF3F19F4B1
:10343000211101C0E92F9F5F9630A9F7EF3F39F0C6
:103440000E2E000CFF0BEE5BFD4F82830895089556
:10345000A3E0B0E0EEE2FAE10C94DC30209121032D
:103460003091220328173907A1F09093220380930B
:103470002103E0911F03F0912003309751F024E0E5
:1034800029839B838A830084F185E02DCE010196F8
:1034900009952396E2E00C94F830A3E0B0E0E3E570
:1034A000FAE10C94DC3020911D0330911E032817A3
:1034B0003907A1F090931E0380931D03E0911F0331
:1034C000F0912003309751F023E029839B838A8376
:1034D0000084F185E02DCE01019609952396E2E066
:1034E0000C94F83080911B03882359F0E0911F035E
:1034F000F0912003309729F00190F081E02D09959B
:10350000089580E0089587E290E00E948331089555
:10351000CF93C82F811102C06FEF01C064E284E233
:1035200090E00E948331C11102C06FEF01C068E0DA
:1035300085E290E00E948331C11102C06FEF01C0AB
:1035400060E186E290E00E948331CF91089584E2A9
:1035500090E00E945F31843281F485E290E00E9425
:103560005F31883051F486E290E00E945F3191E053
:10357000803109F090E0892F01C080E081700895CA
:103580000F931F93CF93DF93C42FD22FFC0185811C
:103590008823B1F040931A030E9485179093190372
:1035A0008093180380E28C0F883008F068C0C770E1
:1035B00081E001C0880FCA95EAF70E9453285FC0D6
:1035C00080911A0348133DC080911803909119030C
:1035D0000E946A17883C9105A0F510E21D0FCD17D7
:1035E000E9F080E28C0F883040F4C77081E001C0C0
:1035F000880FCA95EAF70E944C28183078F581E0C8
:103600009D2F977001C0880F9A95EAF70E94532862
:10361000093351F560E570E089E329C0093319F4F5
:1036200060E570E002C060E070E0802F0E945D28DD
:10363000183028F5D77081E001C0880FDA95EAF7D5
:103640000AC080E28C0F8830D0F4C77081E001C0DE
:10365000880FCA95EAF70E944C2811C0093351F42B
:1036600060E570E089E309C060E070E0802F0E94AF
:103670005D28E0CF60E070E0802F0E945D28DF9140
:10368000CF911F910F9108950E94851720911403E7
:10369000211104C020911503222321F090931103DE
:1036A0008093100320911603211104C02091170369
:1036B000222321F090930F0380930E03E0911F03C8
:1036C000F0912003309749F082E080931203068046
:1036D000F781E02D82E193E00995089580910D0333
:1036E00080FD16C081FD16C082FD18C080910C03BC
:1036F000882391F0883290F428E0829FC001112441
:1037000068E270E00E944832862F672B29F007C0DC
:1037100082E0089584E0089581E0089588E00895A6
:1037200080910D0380FD14C081FD14C082FD16C080
:1037300080910B03882381F08E3180F420E5829FF5
:10374000C00111246EE170E00E944832862F089576
:1037500084E1089588E2089588E0089580E5089559
:10376000282F35EB2303C001112497FF03C0805895
:10377000910902C080589F4F892F0895CF93DF93FE
:10378000C8E6D2E060E0CE010E9483312196C115E7
:1037900084E0D807B9F7DF91CF9108950F931F9375
:1037A000CF93DF93843038F5643028F594E0699F37
:1037B000E001112490E1899FC00DD11D1124C85D45
:1037C000DD4F411103C082E090E002C080E090E054
:1037D000632F022F142F8C0F9D1F0E948331111114
:1037E00003C083E090E002C081E090E0602F8C0F86
:1037F0009D1F0E948331DF91CF911F910F910895FA
:10380000FF920F931F93CF93DF93843058F564306A
:1038100048F524E0629F8001112430E1839F000D70
:10382000111D1124085D1D4F411103C082E090E07D
:1038300002C080E090E0F42E800F911F0E945F3163
:1038400090E0D82FCC27F11003C083E090E002C0B5
:1038500081E090E0800F911F0E945F319E01282B34
:10386000C90102C080E090E0CDB7DEB7E5E00C947E
:10387000F5301F93CF93DF93962F8430E8F46830B0
:10388000D8F44830C8F4632F122FC42FD0E0CC0FE7
:10389000DD1F20E1929FC00DD11D112490E8899F6A
:1038A000C00DD11D1124CE0188960E948331612F55
:1038B000CE0189960E948331DF91CF911F910895A7
:1038C000A0E0B0E0E6E6FCE10C94D23096E0C92E30
:1038D00097E0D92EE12CF12C912C812C00E010E006
:1038E000C0E0D0E05701A00EB11EF501EC0FFD1FA6
:1038F000EE0FFF1FEA5FFA4F259134914C2F682D90
:10390000892D0E94391C2196C830D10571F7085FB6
:103910001F4F839488E08812E3CF8601C0E0F8014E
:103920002591349141E06C2F892D0E94CE1BF80126
:1039300032962591349140E06C2F892D0E94CE1B48
:103940000C5F1F4FCF5FC43051F780E1C80ED11C10
:10395000939480E4E80EF11C84E09812BECFCDB7BA
:10396000DEB7ECE00C94EE3080E00E94881A60E054
:1039700070E0CB010E94831A0E94601C0E94BE1B53
:1039800081E00E94881A08950F931F93CF93DF93CD
:10399000843008F56830F8F44830E8F4C42FD0E0FB
:1039A000CC0FDD1F20E1629FC00DD11D112430E836
:1039B000839FC00DD11D1124CE0188960E945F31D6
:1039C00090E0182F0027CE0189960E945F31980160
:1039D000282BC90102C080E090E0DF91CF911F91B8
:1039E0000F910895FC01680F791F8FEF91E3E6179F
:1039F000F70771F02191822728E030E087FF03C0AC
:103A0000880F892701C0880F21503109B9F7EFCFFE
:103A1000089590E0FC01662319F0E85EFE4F02C0B5
:103A2000EA5EFE4F20812F3F71F0E22FE295EF70AA
:103A3000F0E080A190E02F7002C0959587952A95BF
:103A4000E2F78170089580E0089590E0FC0166231C
:103A500019F0E85EFE4F02C0EA5EFE4F80818F3FA4
:103A6000A1F0E82FE295EF70F0E031A1282F2F7040
:103A700081E090E001C0880F2A95EAF7982F909591
:103A8000932391A392A1892B82A30895909105037A
:103A9000E92FF0E04091060350E09F012F5F3F4F78
:103AA0002370332742175307A1F0E95FFC4F8F774C
:103AB00020812078822B60FB87F980839F5F937041
:103AC00090930503809103038F5F8093030381E04C
:103AD000089580E00895ACE0B0E0E1E7FDE10C94EA
:103AE000D53080E00CEF93E0F92EEE24E3942DEF37
:103AF000D22E32E0C32E90910603209105032917A0
:103B000009F448C0E92FF0E0E95FFC4F108117FB92
:103B1000BB24B0F81F779F5F93709093060380914A
:103B200004038F5F80930403BB2041F00E9485173C
:103B30001F83D8869A878987CB8607C00E948517FE
:103B40001F8308879A878987FB86EC864F81588573
:103B500069857A858B859C850E946A2EBB2041F001
:103B60000E9485171983DA829C838B83CD8207C0DC
:103B70000E94851719830A839C838B83FD821E8292
:103B800049815A816B817C818D819E810E946A2E40
:103B900081E0B1CF2C96E9E00C94F1309091FB02DA
:103BA00090FF05C096959695981748F003C081112F
:103BB00006C090E0961718F40E94A62C089561E0C4
:103BC0000E94462C0895882311F0FA0101C0FB01E0
:103BD0000995089581E080931B02089580E008957F
:103BE000A0E0B0E0E6EFFDE10C94D4307C015B0195
:103BF0006A01809162038A3018F001E010E002C08F
:103C00000AE010E0C1E0D0E0B501C701F601099576
:103C1000811115C021960C171D0794F0CC9F9001BF
:103C2000CD9F300D300D112480E090E045E34A95A2
:103C3000F1F70000019682179307C1F7E5CF81E005
:103C4000CDB7DEB7EAE00C94F030ABE0B0E0EBE2E9
:103C5000FEE10C94DC3088E0EBEFF2E0DE0111963F
:103C600001900D928A95E1F78091F3039091F4030E
:103C7000A091F50389879A87AB872B8540915E03D6
:103C800050915F0360916003709161033FB7F894B6
:103C90008091270290912802A0912902B0912A02D6
:103CA0003FBF841B950BA60BB70B84369105A1056E
:103CB000B10510F4222319F180914B0190914C0130
:103CC0008F5B9C4F40914A0150E04C30510510F001
:103CD0004BE050E0BE016F5F7F4F0E94C93286E02B
:103CE00090E00E945130882369F00E947917609318
:103CF0005E0370935F03809360039093610310925F
:103D0000F50381E02B96E2E00C94F830A1E0B0E0FE
:103D1000ECE8FEE10C94D030C62E4A015901682E21
:103D2000880F7708C3010E945130882309F473C0BB
:103D3000C30123E0880F991F2A95E1F7FC01E65E95
:103D4000FE4F438150E04115510511F041E050E034
:103D5000FC01E65EFE4F648175816F5B7C4FCE0196
:103D600001960E94C932F4014081518162817381C0
:103D70002FB7F8948091270290912802A0912902F0
:103D8000B0912A022FBF841B950BA60BB70B84366C
:103D90009105A105B10538F4B701C8010E94F21CD4
:103DA00099818917D1F10C2C000CDD08C6010E9405
:103DB0005130782E8823E1F0E114F104C9F0960126
:103DC00083E0220F331F8A95E1F7F901E65EFE4F8B
:103DD000438150E0E416F50608F4A701F901E65E18
:103DE000FE4F648175816F5B7C4FC5010E94C932B3
:103DF000B701C8010E94F21C91E02981281390E0CC
:103E0000D92ED72089F00E947917F401608371833D
:103E10008283938309C0D12C02C0DD24D394A701EF
:103E2000B801C5010E94C9328D2D2196EEE00C9497
:103E3000EC30A8E0B0E0EFE1FFE10C94D83088E08E
:103E4000E82EF12C07E413E09E012F5F3F4F49E37A
:103E500053E063E082E00E94861E182F882389F1D8
:103E60009091460380913803981759F120E0909182
:103E70004A03809149038917C9F0E92FF0E0EB5B11
:103E8000FC4F868187FB662760F99F5F9370909354
:103E90004A03909148039F5F909348038F770E9455
:103EA000461D21E08111E3CF10E002C0222329F05A
:103EB00084E090E00E945130182380914603809363
:103EC0003803812F2896E6E00C94F430A4E0B0E0AB
:103ED000ECE6FFE10C94D6306B0184E0E82EF12C87
:103EE00002E413E09E012F5F3F4F44E353E061E0A3
:103EF00080E00E94861E882361F049815A816B818F
:103F00007C8140933003509331036093320370936C
:103F1000330340913003509131036091320370912B
:103F20003303F60140835183628373832496E8E070
:103F30000C94F230F894E82FE295EF70F0E031A1A4
:103F4000282F2F7081E090E001C0880F2A95EAF7B2
:103F5000982F9095932391A392A1892B82A3789473
:103F600008950F931F9380911B03882319F00E94DB
:103F700079170EC00E9479170091F2011091F30198
:103F80002091F4013091F501600F711F821F931F82
:103F90001F910F910895A4E0B0E0E1EDFFE10C94D2
:103FA000DC3040913D0350913E0360913F0370919E
:103FB00040032FB7F8948091270290912802A09196
:103FC0002902B0912A022FBF841B950BA60BB70BB9
:103FD00084369105A105B10570F10E94B11FDC0185
:103FE000CB010296A11DB11D89839A83AB83BC834B
:103FF00080914301909144018F5B9C4F409142011D
:1040000050E04530510510F044E050E0BE016F5FD4
:104010007F4F0E94C93285E090E00E945130882392
:1040200059F00E94791760933D0370933E0380938B
:104030003F039093400381E02496E2E00C94F83033
:1040400080911B03882319F00E94851708950E9410
:10405000B11FCB0108959091230392FF10C041E05E
:10406000282F2471243009F040E031E0282F2871F6
:10407000283009F030E0431711F02CE0822793FF3D
:1040800010C041E0282F2471243109F040E031E0D4
:10409000282F2871283109F030E0431711F02CE067
:1040A00082273091240330FF10C051E0282F217166
:1040B000213009F050E041E0282F2871283009F024
:1040C00040E0541711F029E0822731FF10C041E091
:1040D000282F2171213109F040E031E0282F28718B
:1040E000283109F030E0431711F029E0822794FDD0
:1040F000877E08958238910569F1B0F48133910586
:1041000009F475C048F48932910509F467C08A3210
:10411000910509F471C008958533910509F459C0DA
:1041200089339105B9F00895833E910589F138F4FA
:10413000803E9105D1F0823E910529F10895863E99
:104140009105C9F1873E9105D9F1843E910509F0A9
:104150006CC027C02091230320FD57C021FD55C00E
:104160002091240323FD5BC008958091230380FDEB
:1041700048C08091240380FF48C08091230384FDC0
:1041800046C083EE51C08091230382FF3CC0F5CF2F
:104190008091230382FD37C08091240380FD35C0C8
:1041A000ECCF8091240381FF36C08091230384FDEE
:1041B0002EC087EE39C08091230383FF2AC0F5CF3C
:1041C0008091230383FD25C08091240381FD23C0BA
:1041D000ECCF8091230385FD22C01FC08091230373
:1041E00085FD1BC08091240383FF19C00AC0809104
:1041F000230386FD16C017C08091230386FD13C0DC
:1042000010C089E311C082EE0FC080EE0DC080E0C7
:104210000BC086EE09C084EE07C085E305C089E2C5
:1042200003C08AE201C081E390E00895783048F449
:104230006830C8F48430B8F4462F672F0E94C41C3D
:1042400008957D3F31F4643070F4843060F441E0CF
:1042500007C07C3F41F4643030F4843020F440E007
:104260000E94001C089580E090E00895ACE0B0E06A
:10427000ECE3F1E20C94CF30AE014F5F5F4F7A0177
:1042800088E0DA011D928A95E9F70FE511E06A01ED
:1042900083E6682E81E0782EAA24A394B12C2BE625
:1042A000822E21E0922EF80180818F3F09F440C0D8
:1042B000F894E82FE295EF70F0E021A18F70A5014E
:1042C00002C0440F551F8A95E2F7CA01922F982B1E
:1042D00091A392A18095892382A3789400C0E3E6FC
:1042E000F1E0512C31E021912F3F89F0A22FA295CE
:1042F000AF70B0E090968C9190E02F7002C09595D1
:1043000087952A95E2F780FD02C0832F01C080E0E7
:10431000582A330F8E169F0631F7D8018C918F3FA4
:1043200011F00E949A1FB0EABA95F1F7F601508297
:104330000F5F1F4FFFEFCF1ADF0A6016710609F0FB
:10434000B2CF48E050E0B70186EF91E00E94BC3266
:10435000892B99F088E0F701A6EFB1E001900D926A
:104360008A95E1F781E0809328030E948517909356
:10437000270380932603F12C27C0809128038823EC
:10438000D1F30091FF0180912603909127030E94B1
:104390006A17059780F310E0035E1D4F44E050E07C
:1043A00066EF71E0C8010E94BC32892B09F421C17B
:1043B00084E0E6EFF1E0D80101900D928A95E1F7F3
:1043C000FF24F3941092280380911B03E091FF01D6
:1043D000882309F481C019861A861B861C860E2F35
:1043E00010E0035E1D4F809162038A3058F446E668
:1043F0005FE1BE01675F7F4FC8010E94F01D882307
:10440000E9F10AC08091290390912A030E946A175A
:10441000843F914060F743C049E15FE1BE01675FBF
:104420007F4FC8010E94F01D882341F14BEC5FE1F2
:10443000BE01675F7F4FC8010E94F01D8823F1F025
:1044400045E25EE1BE01675F7F4FC8010E94F01D3B
:104450008823A1F0109262038091FE0190E044E075
:1044600050E0BE01675F7F4F835E9D4F0E94BC326C
:1044700021E020932F03892B01F5B5C080916203C1
:104480008F3F19F08F5F80936203809162038A30BF
:1044900018F30E94851790932A0380932903809133
:1044A0002F03882309F49FC0FE01399684E0DF01C1
:1044B0001D928A95E9F710922F03E091FE01F0E03A
:1044C000E35EFD4F89859A85AB85BC8580839183AA
:1044D000A283B38381E088C0F0E0E35EFD4F84E017
:1044E000A2E4B3E001900D928A95E1F764E070E0F8
:1044F00082E493E00E94F21C8093410388E0E3E0B1
:10450000F3E0A7E4B3E001900D928A95E1F768E04B
:1045100070E087E493E00E94F21C80934603809051
:104520004F0390905003A0905103B090520380919C
:104530002B0390912C03A0912D03B0912E0388168C
:104540009906AA06BB06B1F080922B0390922C0329
:10455000A0922D03B0922E030E947917861A970A13
:10456000A80AB90A8092F2019092F301A092F40194
:10457000B092F50180915303982F9170869586959E
:10458000E0905403D0905503C090560300915C0313
:1045900010915D0310925D03112329F110FF0DC0EE
:1045A000992349F09091FB0291609093FB0260E0A7
:1045B0000E94462C02C00E94DA2811FF06C020E0AB
:1045C0004C2D6D2D8E2D0E946E2B12FF07C00023E7
:1045D00019F00E947D2802C00E94762813FF03C0B4
:1045E00081E08093F00380E08F292C96EFE00C941B
:1045F000EB30F12CE7CE9091EA038091C103892B37
:104600009091C0039923E1F0892B90910F01992398
:1046100041F09091230397FF04C09EE12CE432E027
:1046200003C096E024E432E0F90120E0915028F044
:1046300031913323D9F32F5FF9CF21111092C003A9
:1046400008952091BE039091850357E02917A9F0A2
:1046500030E0529FF001539FF00D1124EA57FC4FB8
:104660007181761306C07081781303C0758174134D
:1046700006C02F5F3F4F2770E9CF80E0089581E0AB
:1046800008959B01782F777043E0969587954A951A
:10469000E1F7FC01EE0FFF1F8E0F9F1FF901E80FDE
:1046A000F91F40E050E080E0219130E0072E02C089
:1046B000369527950A94E2F721703327042E01C01E
:1046C000220F0A94EAF7822B4F5F5F4F4330510568
:1046D00059F70895962F9770A1E001C0AA0F9A95F7
:1046E000EAF793E0769567959A95E1F7FB01EE0F6F
:1046F000FF1F6E0F7F1FFA01E60FF71F40E050E02B
:10470000682F70E090819B01042E02C0369527959A
:104710000A94E2F72170219529272A23292721933A
:104720004F5F5F4F4330510569F708951F93CF9353
:10473000DF930E947A20EC01C11580E5D807E8F5E7
:10474000C11590E4D90708F0A8C0C03ED10530F5E6
:10475000CD3CD10508F094C0C83AD10578F4C53AEB
:10476000D10508F083C0C130D10509F47CC008F43C
:10477000F2C0C430D10508F0F1C0EDC0C33CD10592
:1047800008F0E9C0C85AD0E0CC0FDD1FC157DE4F9A
:104790000990D881C02DCE019464E1C0C11580E29A
:1047A000D80708F0CBC0C11591E0D90708F06BC05D
:1047B000C83ED10508F4D2C0CEC0C03682E5D807C5
:1047C00028F5C03492E5D90708F079C0C03282E5F7
:1047D000D80708F06CC0C11592E5D90708F481C06C
:1047E0004C2F4695469580E2489FA0011124C37046
:1047F00021E030E0C90102C0880F991FCA95E2F795
:10480000EA01C82BD92BCE019D68A9C0C03A82E528
:10481000D807B8F48C2F8F71C03892E5D90708F00B
:104820007BC08695869590E2899F90011124C37084
:1048300081E090E002C0880F991FCA95E2F79A685C
:1048400068C0C03C82E5D80708F46DC0C03E92E560
:10485000D90708F080C0CF71DD27DC2FCC27CE012F
:10486000806F906A7CC081E090E079C0C55AD0E04A
:10487000C457DE4F8881C82FD0E0CE0190646FC04E
:10488000CE0190656CC08D2F0E942B20182FCE0179
:1048900099270E947A201F715CC0CE0199270E943F
:1048A0007A20CC27DF70D06A8C2B9D2B58C0CF711B
:1048B000D0E0DC2FCC27CE01816F906A50C08C2FC6
:1048C0008F718695869590E2899F90011124C3701F
:1048D00081E090E002C0880F991FCA95E2F79C68BA
:1048E00018C08C2F8F710E942B2095E0D695C7950C
:1048F0009A95E1F7CF70D0E0DC2FCC27282F30E05D
:1049000084FF05C084E0220F331F8A95E1F7D06948
:10491000CE01822B932B23C090E0D82FCC27CE0141
:10492000846F906A1CC08C2F8F710E942B208F7116
:1049300090E0D82FCC27CE01906211C08D2F8F71BF
:104940000E942B20182FCE0199270E947A201F71D8
:104950009062912B04C080E090E001C0CE01DF9115
:10496000CF911F910895A6E0B0E0E9EBF4E20C943A
:10497000DA300E9485178C018091EB039091EC0353
:104980000817190781F019821A820E948517682F6B
:1049900049815A81792F80E090E00E946A2E10931D
:1049A000EC030093EB032696E4E00C94F63080953C
:1049B0009091EA0389238093EA03089580910F017F
:1049C000882351F18091230387FF26C00E94FB2298
:1049D00080934B0240E250E062EC73E08AE492E0A4
:1049E0000E94BC32892BD9F180E2EAE4F2E0A2EC29
:1049F000B3E001900D928A95E1F7E0911F03F091E9
:104A00002003309761F186E080934A020480F581AB
:104A1000E02D8AE492E022C00E94FB2280934202B1
:104A200048E050E062EE73E082E492E00E94BC3223
:104A3000892BA9F088E0E2E4F2E0A2EEB3E0019075
:104A40000D928A95E1F7E0911F03F09120033097D2
:104A500031F00280F381E02D82E492E0099508951F
:104A60008091BE0390918503891719F08F5F87703D
:104A7000FBCF0895CF93DF938091840382958F704D
:104A800009F04EC080918303882309F449C08091C6
:104A9000BE034091850350917F0360917E03C091D6
:104AA0008003D091810377E08417D1F190E0789F63
:104AB000F001799FF00D1124DF01AA57BC4F149625
:104AC0002C911497222349F111962C9111972513BB
:104AD00024C02C91261321C015962C9115972111D5
:104AE0001CC012962D913C9113972C1B3D0B283C1A
:104AF000310598F4809184038F70806180938403E2
:104B0000E457FC4F80818F70806180838EE793E053
:104B10000E94950B0E94302503C001968770C4CF78
:104B2000DF91CF910895CF92DF92FF920F931F9361
:104B3000CF93DF936C010091010280910002082B5A
:104B4000C3E0D0E010E0C8010C2E02C09595879517
:104B50000A94E2F780FD04C02197A8F7F12C09C060
:104B6000FC2EB6018C2F0E9416210E9496230197DD
:104B700099F38F2DDF91CF911F910F91FF90DF90CF
:104B8000CF900895CF93DF93EC010E949325BE014F
:104B90000E9416210E949623DF91CF910895FC0177
:104BA00024812223D9F0808191810E94C22592958F
:104BB0009F70963079F010F4925001C09A50923064
:104BC00068F4803F69F018F4883E40F409C0843FDF
:104BD00029F406C0883E20F0813F11F080E008955E
:104BE00081E00895A4E1B0E0E8EFF5E20C94D23062
:104BF0008C0186E0F801DE011F9601900D928A95E6
:104C0000E1F7F8018481E5809EE7892E93E0992EF3
:104C100090918203911120C0882309F463C1EE2092
:104C200009F442C0C8010E94CF25F82E8823E1F183
:104C300087E0F801D40101900D928A95E1F7809107
:104C40008203813031F480917E0390917F030E9432
:104C5000C2250E943A2548C1F801D080C180A280B7
:104C6000B380F09083032091800330918103FF2073
:104C700009F4E7C0A501421B530B483C510508F05D
:104C80009DC0882309F430C180918403282F207FA0
:104C900090917F03222361F09C1509F460C0C80144
:104CA0000E94CF25811163C0C8010E94950B1AC1D3
:104CB0009C1113C090917E039D110FC0E1100DC097
:104CC0008F708061809384038EE793E00E94950B40
:104CD00080918403F801868303C1E1103AC040E06B
:104CE0006C2D8D2D0E94212340E06C2D8D2D0E9476
:104CF0002123E82E8111F4C0DF86C88A8F85988928
:104D00000E94C225292F22952F70243020F49F70F5
:104D1000223028F009C02A50223080F014C0992394
:104D200049F0811107C013C0992321F0F801968141
:104D3000907F69F0805E883030F409C0803F38F0A1
:104D4000815F833020F0C8010E94950BEF2CFE2C70
:104D5000CBC080918403816080938403C1C0909113
:104D60007E039D119CCFE1109ACFF80198C0EE20F0
:104D700009F49ACF20918403822F82958F7090E05E
:104D800002978CF080917E0390917F0399878887AA
:104D9000BB86AA86809182038C871D862E87CE01D2
:104DA00008960E94950B87E0F801AEE7B3E001900A
:104DB0000D928A95E1F70E943A2594C09091840360
:104DC000292F207F51F48EE793E00E94950B87E016
:104DD000F40111928A95E9F783C0882309F484C00D
:104DE00080917F038C110CC080917E038D1108C0CF
:104DF000E11006C0F8019683C8010E94950B6AC0B5
:104E0000C8010E94CF25882309F44ECFEE2009F473
:104E10004BCF20918403822F82958F7090E0029770
:104E200014F280917E0390917F039A838983BC82E0
:104E3000AB82809182038D831E822F83CE010196E7
:104E4000B0CFA21AB30AF8ECAF16B10408F042C012
:104E5000882309F447C0FE2CEE2009F425CF809169
:104E60007F038C1129C080917E038D1125C0909104
:104E7000840390FD18C0892F82958F70282F30E011
:104E80002115310581F0F80196832F30310541F06D
:104E90008F5F982F9295907F86818F70892B868364
:104EA000C8010E94950B87E0F801AEE7B3E00190DE
:104EB0000D928A95E1F718C0C8010E94CF25811193
:104EC00072CF80918403816080938403C8010E9423
:104ED000950B0AC087E0F40111928A95E9F704C0A6
:104EE000F12C02C0FF24F3948F2D6496ECE00C9417
:104EF000EE30292F983058F4883048F490E066E678
:104F000073E038E0239F800D911D112406C02C5FB3
:104F1000223030F463E673E090E00E94412308956C
:104F200080E00895282F862F983060F4283050F4C0
:104F3000622F70E028E0929F600D711D112446E6FB
:104F400053E007C09C5F923030F4622F70E043E67C
:104F500053E00E946A23089580930102089590917E
:104F6000010221E030E0F90101C0EE0F8A95EAF775
:104F7000D90102C0AA0FBB1F6A95E2F7BD016E2BD3
:104F800001C0220F4A95EAF7892F8623681303C0D0
:104F9000892F822B03C02095822F89230E94AC2762
:104FA000089521E030E001C0220F8A95EAF72095AC
:104FB0008091010282230E94AC2708959091BF0343
:104FC000809589238093BF03282F277069F4981751
:104FD00059F09091240392FF07C086958695869597
:104FE0000E94D1271092BF0308959091240392FB51
:104FF000222720F9281779F080FB92F99093240357
:10500000609123037091240384E090E00E94A13119
:1050100082E00E94DE27089521E030E001C0220FE7
:105020008A95EAF780910102822B0E94AC270895AD
:105030008093000208951092EA0380910F01882363
:1050400041F08091230387FF04C08EE1ECE4F2E09D
:1050500003C086E0E4E4F2E0DF011D928A95E9F7FF
:1050600080E090E00E944D1A80E090E00E94281AB3
:105070001092C1030E94DE24E2E1F3E086E0DF014A
:105080001D928A95E9F710920B0310920C0310926F
:105090000D030E94441B0895882321F00E94D72409
:1050A0000E94DE240895882339F09091EA03892B29
:1050B0008093EA030E94DE2408951F93CF93DF9329
:1050C000182FEB010E94D12D209741F08FE99FE02E
:1050D0000197F1F700C000002197F6CF812F0E94C1
:1050E0009E2DDF91CF911F9108950895E3EFF3E096
:1050F000118282818460828308956091FB026695AB
:10510000669570E04BE050E082E591E00E94AF329E
:10511000892B19F481E08093F4030E94202090935E
:10512000EE038093ED038091F50384608093F50393
:105130000895609112018091FB0280FF0CC0809164
:10514000110170E023E0829FC001112485599D4F19
:105150000E9493170895809113019091140189176B
:1051600070F7E82FF0E09F01220F331FE20FF31FCB
:10517000E559FD4F1182108212828F5FF0CF90911E
:10518000FB0290FF16C09091130120911401921719
:1051900070F4E92FF0E0DF01AA0FBB1FEA0FFB1F3D
:1051A000E559FD4F8183608342839F5FF0CF0E946A
:1051B00099280895EBEFF2E080818E7F80830E9432
:1051C0007628E3EFF3E08281816082830E94992850
:1051D00008958091FB02282F2695269530E0211511
:1051E000310519F48370846005C02B32310524F039
:1051F0008370886A8093FB020895A0E0B0E0E3E04A
:10520000F9E20C94D23049015A016B017C010E94F1
:10521000E9288401A4016A2D7B2D88E090E00E949A
:10522000953194014A2D5B2DB601C70100E20E9421
:105230009332622F83E290E00E948331CDB7DEB7D4
:10524000ECE00C94EE308091FF02882319F081503D
:105250008093FF022091FB023091FC024091FD02FD
:105260005091FE026091FF02709100038091010352
:10527000909102030E94FD2808958091FF028330DF
:1052800018F48F5F8093FF022091FB023091FC02A3
:105290004091FD025091FE026091FF027091000367
:1052A00080910103909102030E94FD280895A0E0DF
:1052B000B0E0EDE5F9E20C94D430E82EF62EE901E9
:1052C000E42FF0E0611106C0EA5BF84FE4914E2F45
:1052D0002E2F71C0062F10E0EA5BF84F4491F42F97
:1052E000C42ED12C26E0829FC00111242FEF30E084
:1052F000B9010E9434325BEA5603C001579F900DFA
:1053000011248E0D911D8E0D911D582F550F580F84
:10531000D901A01BB10BAC9DC001AD9D900DBC9DF2
:10532000900D1124E92FF59ED0011124AB2FBB273E
:105330007901EA1AFB0AEC9CD001ED9CB00DFC9CB3
:10534000B00D11245901A51AB108A09E7001A19EAB
:10535000F00CB09EF00C1124EF2CFF242E193F0905
:105360002C9D80012D9D100D3C9D100D1124212F91
:105370006230710591F048F461157105E1F061301A
:105380007105B9F4242F4B2F16C06430710569F0F4
:1053900040F06630710579F00CC0242F492FE12FC1
:1053A0000AC0492FEF2F2B2F06C0292FE42F412FA2
:1053B00002C0292FEB2F49832883EA83CDB7DEB7BC
:1053C000EAE00C94F030A3E0B0E0E9EEF9E20C94EE
:1053D000DC309091FB0290FF0AC09E012F5F3F4F8F
:1053E0000E9457294B8169818A810E94BF28239698
:1053F000E2E00C94F830CF93DF93EC01EBEFF2E0B6
:10540000438162818C810E94E3298C818F5F8C8330
:10541000DF91CF910895CF93DF93EC01EC81F0E021
:10542000EA5FFB4F4491EBEFF2E0628181810E94E1
:10543000E3298C818F5F8C83DF91CF9108951F9337
:10544000CF93DF93EC018C81811109C081E08C83C3
:105450001092F70392E090935E0180935D0180913A
:10546000130190911401891770F4E82FF0E09F0167
:10547000220F331FE20FF31FE559FD4F11821082F7
:1054800012828F5FF0CF10E0609115011617C0F502
:10549000E12FF0E070E0CF010E944832209113012B
:1054A000820F2091F703022E000C330B90E0E217DD
:1054B000F307CCF020915E01022E000C330B2E1767
:1054C0003F078CF09C01220F331F820F931F9C011A
:1054D00025593D4F4091FE026091FD028091FC02F2
:1054E0000E9457290BC0FC01EE0FFF1F8E0F9F1F5C
:1054F000FC01E559FD4F1182108212821F5FC4CF5B
:105500000E94992880915D012091F703280F209334
:10551000F70390915E01980F90935E0119165CF469
:10552000022E000C330B4091150150E041505109FF
:105530002417350734F0819580935D01813009F49B
:105540001C82DF91CF911F910895A0E0B0E0EBEABB
:10555000FAE20C94D230EC018A8180FF03C0BB24B4
:10556000BA9402C0BB24B3948C8181110DC081E038
:10557000B81206C08091150181508093F60302C0D5
:105580001092F60381E08C83A12C42E1942E80914D
:105590001501A81608F044C080911301CA2CD12C23
:1055A0008601080F111DC801880F991F080F191FC8
:1055B00005591D4FF80111821082128234E0E32E4A
:1055C000F12C812C8091F603880D83312CF0692D0C
:1055D0000E942632892F05C087FF03C090911501D4
:1055E000890F082E000C990BC816D90691F48091EA
:1055F000FE028E9DA0018F9D500D1124559547955B
:105600005595479598016091FD028091FC020E949A
:1056100057298B0CF1E0EF1AF108A1F6A394B7CF4C
:105620000E9499288091F60391E0B9120EC0811171
:1056300007C08091150181508093F6031C820FC032
:1056400081508093F603BC820AC090E0019660917D
:10565000150170E00E9448328093F6038C83CDB729
:10566000DEB7ECE00C94EE30FF920F931F93CF93D4
:10567000DF93EC01F12C0FEF10E060911501F616AD
:10568000F0F4809113012F2D30E0280F311DC90156
:10569000880F991F280F391F25593D4F70E0C80109
:1056A0000E944832962F8C814091FE026091FD024B
:1056B000F99E800D11240E945729F394DECF0E9499
:1056C00099289A818C8190FF02C08F5F01C0815020
:1056D0008C83CDB7DEB7E5E00C94F530A3E0B0E005
:1056E000E4E7FBE20C94D530082FE62EF42ED22E00
:1056F0009091FB0290FF7EC02091FC02281308C00D
:105700008091FD02861304C08091FE02841729F067
:105710008091F50382608093F503E92FE695E69585
:10572000AE2FB0E0AB53BE4F8C918093F3039C7FC0
:10573000943071F49E012F5F3F4F4F2D6E2D802FBF
:105740000E9457294B8169818A810E94BF283CC0F1
:10575000823019F4F090FE0237C08630A1F1893012
:1057600091F1893189F5E9518E2F8170C82EE69526
:10577000F0E0EA5BF74F1491B12C60911501B61679
:10578000F8F4B19EC001112470E00E943432802FE1
:10579000C11002C0860F01C0861B909113012B2DF2
:1057A00030E0290F311DA901440F551F240F351F6B
:1057B00025593D4F4F2D6E2D0E945729B394DDCFB3
:1057C0000E94992801C0022F0093FC02E092FD0282
:1057D000F092FE02DD2071F02091FB026091FF0249
:1057E00070910003302FA701809101039091020373
:1057F0000E94FD282396E9E00C94F130EBEFF2E0F3
:10580000438121E1421B08F440E021E06281818173
:105810000E946E2B0895EBEFF2E0438121E1420FED
:1058200008F44FEF21E0628181810E946E2B089580
:10583000EBEFF2E0628121E1621B08F460E021E01D
:10584000438181810E946E2B0895EBEFF2E062812B
:1058500021E1620F08F46FEF21E0438181810E9412
:105860006E2B0895EBEFF2E0818121E043816281AC
:1058700088500E946E2B0895EBEFF2E0818121E0C9
:1058800043816281885F0E946E2B08959091FB0294
:1058900090FF45C09370811102C0946007C08B32A5
:1058A00010F0986A03C0880F880F982B9093FB0222
:1058B0008091F50381608093F503662391F0209138
:1058C000FB023091FC024091FD025091FE0260917A
:1058D000FF027091000380910103909102030E94E6
:1058E000FD286091FB026695669570E04BE050E004
:1058F00082E591E00E94AF32892B19F00E94762850
:1059000002C00E947D2881E08093F00320E0409156
:10591000FE026091FD028091FC020E946E2B0895B0
:10592000EBEFF2E080818160808360E08695869570
:105930000E94462C08958091FB02869586958150A1
:1059400009F48AE261E00E94462C08958091FB02EE
:10595000869586958F5F8B3208F081E061E00E942A
:10596000462C089590911403662309F470C0911198
:105970000CC090911503911108C0909117039111DB
:1059800004C090911603992331F098E090930B0393
:1059900091E090930C038D3C21F40E94901B819523
:1059A00004C08E3C29F40E94901B80931503C3C051
:1059B0008F3C21F40E94901B819504C0803D29F406
:1059C0000E94901B80931403B6C0893D19F40E9475
:1059D0006E1B05C08A3D31F40E946E1B8195809339
:1059E0001603A9C08B3D21F40E946E1B819504C053
:1059F0008C3D29F40E946E1B809317039CC09FE28C
:105A0000980F983078F421E030E0A90102C0440FEB
:105A1000551F9A95E2F7CA0190911303892B809341
:105A2000130389C08D3D21F480910D0381600CC06A
:105A30008E3D21F480910D03826006C08F3D09F0F8
:105A40007AC080910D03846080930D0374C08D3CF7
:105A500039F49091150397FF33C01092150357C086
:105A60008E3C29F4909115031916BCF329C08F3C84
:105A700029F497FF25C01092140349C0803D19F402
:105A80001916CCF31DC090911603893D29F41916FF
:105A9000BCF4109216033BC08A3D19F497FF10C066
:105AA000F8CF8B3D39F49091170397FF09C01092FE
:105AB00017032DC08C3D21F4909117031916BCF3E8
:105AC0009FE2980F983080F421E030E0A90102C0F5
:105AD000440F551F9A95E2F7CA01809590911303E0
