:100000000C942B030C9472030C9472030C947203E3
:100010000C94C42A0C9472030C9472030C94720313
:100020000C9472030C9472030C9473220C94AF2101
:100030000C94151A0C9472030C9472030C947203B2
:100040000C9472030C9472030C9472030C9472035C
:100050000C9472030C9487190C9472030C94720321
:100060000C9472030C9472030C9472030C9472033C
:100070000C9472030C9472030C9472030C9472032C
:100080000C9472030C9472030C9472030C9472031C
:100090000C9472030C9472030C9472030C9472030C
:1000A0000C9472030C9472030C947203500853085E
:1000B0006F087C088308A308A608DA08FC089F09D3
:1000C0009F09070909090D093309560959095C09EE
:1000D0007F0995159515CF15CF1528164416DA17F3
:1000E000DA174F162D173E173E17AA1BAA1BBD1B6A
:1000F000BD1BB31BBD1BBD1BBD1BAA1BAA1BB81B75
:10010000BD1BBD1BB81BC31FEA1F9121EA1F912114
:100110003620592091214E215E210004643214784A
:100120003C1E000000000000000000000000000075
:1001300000000000000000000000000000000000BF
:100140000000000000007E0F00D4FFFFFFC700008A
:10015000007800000000000000002A2B28000000AA
:100160000000000000000000000000000029000066
:1001700000002C1E3420212224342627252E362D43
:100180003738271E1F202122232425263333362EDD
:1001900037381F0405060708090A0B0C0D0E0F104F
:1001A0001112131415161718191A1B1C1D2F313094
:1001B000232D350405060708090A0B0C0D0E0F1038
:1001C0001112131415161718191A1B1C1D2F313074
:1001D000354C00010101010101010101020202028D
:1001E00002020202020303030303030303040404E1
:1001F00004040404050505050506060606060707AA
:1002000007070708080808090909090A0A0A0B0B61
:100210000B0C0C0C0D0D0D0E0E0E0F0F0F10101100
:100220001111121213131414151516161717181886
:1002300019191A1A1B1B1C1D1D1E1E1F20202122EE
:1002400022232424252626272829292A2B2C2D2D34
:100250002E2F30313232333435363738393A3B3C51
:100260003D3E3F404142434445464748494A4C4D44
:100270004E4F50515354555658595A5B5D5E5F610D
:100280006264656668696B6C6D6F707273757778A0
:100290007A7B7D7E8082838587888A8C8E8F9193FE
:1002A0009596989A9C9EA0A2A3A5A7A9ABADAFB125
:1002B000B3B5B7BABCBEC0C2C4C6C9CBCDCFD1D40A
:1002C000D6D8DBDDDFE2E4E7E9EBEEF0F3F5F8FAB0
:1002D000FDFF05010902A10185020901A10005092F
:1002E00019012908150025019508750181020501EC
:1002F000093009311581257F950275088106093875
:100300001581257F950175088106050C0A380215AF
:1003100081257F950175088106C0C005010980A16E
:1003200001850319012AB700150126B7009501754B
:10033000108100C0050C0901A101850419012AA042
:1003400002150126A002950175108100C00660FF0C
:100350000961A1010962150026FF00952075088139
:10036000020963150026FF00952075089102C0055B
:10037000010906A101050719E029E71500250195E6
:100380000875018102950175088101050719002989
:10039000FF150026FF009506750881000508190164
:1003A0002905950575019102950175039101C00913
:1003B000025B00030100A0FA09040000010301012F
:1003C00000092111010001224000070581030800F6
:1003D0000A090401000203000000092111010001C3
:1003E00022220007058203200001070503032000E5
:1003F00001090402000103000000092111010001AC
:10040000227B000705840320000A1201100100006E
:10041000000801BB12000100010200011C0365007D
:10042000720067006F0074006F006E006900630067
:100430005F006600320034000000160368006100AF
:100440006E0061006300680069002D0061007000AB
:10045000000004030904290014001A000800150014
:100460001700070009002B00040016000700090010
:100470000A0008000000E1001D001B000600190032
:1004800005004C000000E2000400050050004F0091
:100490002C00E00000000A001C0018000C001200F4
:1004A00013002F000C000B000B000D000E000F00BE
:1004B000330034000000E300110010003600370064
:1004C0003800380000002A002800510052000D00BA
:1004D0000E0028000000290014001A000800150072
:1004E0001700070009002B00040016000700090090
:1004F0000A0008000000E1001D001B0006001900B2
:1005000005004C000000E3000400050050004F000F
:100510002C00E00000000A001C0018000C00120073
:1005200013002F000C000B000B000D000E000F003D
:10053000330034000000E3001100100036003700E3
:100540003800380000002A002800510052000D0039
:100550000E0028000000290014001A0008001500F1
:100560001700070009002B0004001600070009000F
:100570000A0008000000E1001D001B000600190031
:1005800005004C000000E3000400050050004F008F
:100590002C00E00000000A001C0018000C001200F3
:1005A00013002F000C000B000B000D000E000F00BD
:1005B000330034000000E300110010003600370063
:1005C0003800380000002A002800510052000D00B9
:1005D0000E0028000000290014001A000800150071
:1005E0001700070009002B0004001600070009008F
:1005F0000A0008000000E1001D001B0006001900B1
:1006000005004C000000E3000400050050004F000E
:100610002C00E00000000A001C0018000C00120072
:1006200013002F000C000B000B000D000E000F003C
:10063000330034000000E3001100100036003700E2
:100640003800380000002A002800510052000D0038
:100650000E002800000011241FBECFEFDAE0DEBF3D
:10066000CDBF04B603FE27C08091F9029091FA0233
:10067000A091FB02B091FC028730904BA740B04B99
:10068000D1F41092F9021092FA021092FB02109229
:10069000FC0214BE84B7877F84BF0FB6F894A89578
:1006A00080916000886180936000109260000FBEAE
:1006B000E0E0F8E3099511E0A0E0B1E0ECE5FFE54A
:1006C00002C005900D92AE3BB107D9F722E0AEEB28
:1006D000B1E001C01D92A93FB207E1F70E94740387
:1006E0000C94AC2F0C940000CF93DF93CDB7DEB702
:1006F000AC970FB6F894DEBF0FBECDBF84B7877F2F
:1007000084BF0FB6F894A8958091600088618093AB
:100710006000109260000FBE90E080E80FB6F89481
:1007200080936100909361000FBE85B7806885BF9C
:1007300085B7806885BF8CED98E19093BF01809369
:10074000BE010E94F3210E9412228091E200846087
:100750008093E200789480919D028823A1F010910B
:10076000E9001F709091EC00892F817090FD80E866
:10077000182B1092E9008091E80083FD0E94DD1E95
:100780001F701093E90082E084BD93E095BD9AEF5D
:1007900097BD80936E001092C0011092C10110921B
:1007A000C2011092C3010E949F0D809305018091A8
:1007B0000501882321F01092000188E003C088E041
:1007C00080930001809301010E949F0D81110E947E
:1007D00094298091050180910501882311F090E012
:1007E00001C094E09093CF0184E0891B8093CE01F7
:1007F00087EF0E94C20D81E30E94C20D83E30E9435
:10080000C20D82E30E94C20D0EE211E0B6E3EB2EB0
:10081000B1E0FB2ED8018D918D010E94C20DE01632
:10082000F106C1F7E6ECF1E08EEC91E0A7E0B2E072
:1008300011921D928E179F07D9F780E090E00E94D9
:10084000E52B8A3E9E4F11F00E94761A82E090E0DE
:100850000E94D72B8093F9010E94651A9093C501DD
:100860008093C4010E94D90DEFE3FCE93197F1F7C1
:1008700000C000000E94D90D8091070280FF17C0C0
:100880006FEF83E290E00E94EB2B6FEF84E290E049
:100890000E94EB2B6FEF85E290E00E94EB2B6FEF55
:1008A0007FEF80E090E00E94092C0E94631983E0B2
:1008B00090E00E94D72B682F70E080E090E00E94CB
:1008C000851C0E949F0D811102C00E949A2983E21B
:1008D00090E00E94D72B823281F484E290E00E9463
:1008E000D72B843051F485E290E00E94D72B91E021
:1008F000813009F090E0892F01C080E080FF68C559
:100900008091D00181113BC080E090E00E94E52BF6
:100910008A3E9E4F21F00E94761A0E94150B88E0B5
:1009200090E00E94DF2B6093020270930302809399
:100930000402909305028091E20183608093E201BA
:100940006E7F71F40E94150B88E090E00E94DF2B0F
:100950006093020270930302809304029093050255
:100960000E94CE0A0E9482278091020280FF04C06A
:1009700060E086950E94991181E08093D001FCEEA1
:100980008F2EF1E09F2E48E451E02AE431E0AAEEF8
:100990006A2EA1E07A2E61E070E08614970409F4D3
:1009A0004EC0F901A1919F018A2F82958F7090E02E
:1009B000FC01F1A0AF70EA2E8B0101C0000FAA95D7
:1009C000EAF7F02FF095FF22DC019196FC929197C7
:1009D0009296AC91A02BFC01A2A3DA01FD90AD018F
:1009E000EF2DE295EF70F0E0B1A0BF2DBF70FB2EB0
:1009F0006B0101C0CC0CBA95EAF7DC2CD094DB205B
:100A0000D1A2D2A0CD28C2A2DC0190968C9190E018
:100A100002C095958795EA94E2F78170E0A1F0E035
:100A200002C0F595E795FA94E2F7E0FF02C092E084
:100A300001C090E0892BF30181933F01AECF8091FB
:100A40000501882311F090E001C092E09093E90144
:100A500082E0891B8093D10186E091E09093D301DD
:100A60008093D20180919D02853009F068C0FF24F7
:100A7000F39400E112E180919D02853009F04AC0B3
:100A800080919D02843009F433C00E9482278091B6
:100A9000D601811109C0F092D601809102028170C5
:100AA0008093D5010E9482111092D40128E130E098
:100AB00040E40FB6F894A895209360000FBE4093D1
:100AC000600083B7817F846083BF83B7816083BF09
:100AD0007894889583B78E7F83BF0FB6F894A895D6
:100AE00080916000886180936000109260000FBE6A
:100AF00080919C02882309F4BECF0E94D90DE7E0C3
:100B0000F2E08191811145C48FE092E08E179F073A
:100B1000C1F7B1CF0E94B41E0E94AB251092D6013E
:100B20008091D501882349F08091020281608093F1
:100B3000020260E086950E9499110E9489270E9416
:100B4000D90D81110E94BC19AAEFB1E0E7E0F2E0F3
:100B500000E010E0C02ED1908D918D2549F1E12C5F
:100B6000FF24F394982F9F21F1F00E949F0D88237A
:100B700099F0E9A2CAA2DF2081E009F480E08BA30A
:100B80000E94001A8160782F9DA38CA349A15AA1CD
:100B90006BA18DA10E94DF24F801E650FE4F8081F9
:100BA000F826F0821AC0E394FF0C98E0E912DACF3D
:100BB0000F5F1F4F0830110569F68FEF8EA38FA3CB
:100BC00018A60E94001A8160782F9AA789A74EA1C3
:100BD0005FA168A58AA50E94DF248091E101882396
:100BE00009F48CC08091E001E0910202E695E81BD7
:100BF000E093DC01823059F4F0E0E15EFE4FE491D5
:100C00000E2F10E0E8EACE2EE3E2DE2E28C085307B
:100C100061F4E695F0E0E45EFE4FE4910E2F10E003
:100C200074EAC72E74E2D72E1AC08B3059F08C307C
:100C300081F4EAE1F1E00591149161EDC62E63E2E1
:100C4000D62E0DC008E210E051E1C52E54E2D52E9B
:100C500006C000ED17E047EAC42E43E2D42E80918F
:100C6000DD01882361F01092DD010E940C1A90933F
:100C7000DB018093DA011092DF011092DE010E9405
:100C80000C1AE091DA01F091DB019C012E1B3F0B65
:100C90002F3F3F4798F52091D9012223B1F01092C0
:100CA000D9012091D7013091D801821B930B8F3F3E
:100CB0009F4758F4205D3A483093D8012093D701DC
:100CC0008091E20188608093E201E090DE01F09083
:100CD000DF010E0F1F1F1093DB010093DA018AED75
:100CE00091E0F60109958091DE019091DF01892B59
:100CF00029F4EF2819F081E08093D90107EE11E083
:100D000096E4492E91E0592E2AEEA22E21E0B22E31
:100D100038E4832E31E0932E2AE431E03CA72BA760
:100D20003501D12C212CD3018D913D01E82FEE0FFF
:100D3000EE0FABA5BCA52D91BCA7ABA7A22FA2958A
:100D4000AF70B0E090968C9190E02F7002C09595B6
:100D500087952A95E2F79C0121703327D4018D9164
:100D60004D01A82FA295AF70B0E090964C9150E045
:100D70008F7002C0559547958A95E2F7CA01817038
:100D8000992740FF02C082E090E0822B932B8E2BAC
:100D9000F50181935F01D201ED902D013090E901C1
:100DA000320C8F70E82FF0E0EA5CFE4F9081F80182
:100DB0008081890F8083F12C082E000C990B8E15F1
:100DC0009F056CF0E32DF0E0ED51FE4F80818F5FC9
:100DD000808360E0832D0E943E1121E001C020E06D
:100DE000D8018C91082E000C990B442755274E19D9
:100DF0005F094817590764F0E32DF0E0ED51FE4F0D
:100E000080818150808361E0832D0E943E1121E02A
:100E1000F8018081082E000C990BB7010E94332C39
:100E2000D8018D938D01D22A2394B2E02B127BCF6F
:100E3000D1100E947D2586E0E2EFF1E08E010F5F88
:100E40001F4FD80101900D928A95E1F7C090F401EF
:100E5000D090F501E090F601F090F7011092F401C6
:100E60001092F5011092F6011092F701C11003C023
:100E7000DD2009F451C08091F0019091F1010E94B0
:100E8000AD199C019091EF01992309F4BAC2233363
:100E9000310508F441C09F3F19F09F5F9093EF0127
:100EA000CC2061F00E94240D1C1414F491E001C0C8
:100EB0009FEF899F802D11248093F401DD2061F044
:100EC0000E94240D1D1414F491E001C09FEF899F2E
:100ED000802D11248093F5013091F4013323E1F04A
:100EE0002091F5012223C1F045EB3403C001112408
:100EF000992319F09093F40103C081E08093F401E9
:100F000035EB2303C0011124992319F09093F501C7
:100F100003C081E08093F501E11003C0FF2009F4D4
:100F200051C08091ED019091EE010E94AD199C019C
:100F30009091EC01992309F469C22536310508F432
:100F400041C09F3F19F09F5F9093EC01EE2061F04C
:100F50000E94020D1E1414F491E001C09FEF899FBE
:100F6000802D11248093F601FF2061F00E94020D74
:100F70001F1414F491E001C09FEF899F802D11246C
:100F80008093F7013091F6013323E1F02091F701CE
:100F90002223C1F045EB3403C0011124992319F039
:100FA0009093F60103C081E08093F60135EB2303B3
:100FB000C0011124992319F09093F70103C081E037
:100FC0008093F7018091F40181110BC08091F501AC
:100FD000811107C08091F601811103C08091F70152
:100FE00081110E94610CCB82DC82ED82FE8286E060
:100FF000F801A2EFB1E001900D928A95E1F70E940D
:10100000AB259091F801891721F00E94AB258093C0
:10101000F80180919D02843009F024CD83E0809313
:10102000E9008091E80082FF1DCD8091E80085FFF6
:1010300021C00E94482381111BC080E2C82ED12C00
:10104000780109C08091F100D7018D937D01B1E055
:10105000CB1AD10869F08091E80085FDF3CF80912B
:10106000E8008B778093E8000E944823882399F357
:1010700091E001C090E08091E8008B778093E800D8
:10108000992309F4EFCCE9818E2F90E0FC01319790
:10109000E331F10508F053C1EA5AFF4F0C94692C73
:1010A0001A8289E0A7C08A81823009F488C183301E
:1010B00051F0813009F043C10E94BC199B838C839D
:1010C0007D836E833EC1FE013396CE010B96A7E071
:1010D000B2E02D9121938E179F07D9F732C18A81F3
:1010E000823009F02CC16B817C818D819E810E94B0
:1010F0006F2C86E290E024C04C816B818A810E9433
:10110000DC269D8363C1ED80FE80FE24EF24FE2457
:101110008C81CB809A81E0E1CE9E60011124F0E8C1
:101120009F9FC00CD11C1124C80ED11CC80ED11C0D
:101130006F2DC60187960E94EB2B6E2DC6018896F7
:101140000E94EB2BFEC00E948A26FBC08A81813858
:10115000B1F050F4803809F0F4C020E04B81609188
:1011600004028091030223C08238E9F0833809F039
:10117000E8C020E0409105026C818B8118C060E0DE
:101180008B810E9499118B81811103C00E94821171
:10119000D8C08091020281608093020260E086954F
:1011A0000E949911CEC08B8180930602CAC00E9412
:1011B000C20BC7C08A81813899F030F4803809F0B9
:1011C000C0C08091050216C0823891F0833809F0C2
:1011D000B8C0809103028B83809104028C83B1C0DC
:1011E0008091020280FF02C0869504C080E002C0A8
:1011F000809106028B83A5C0609102027091030268
:1012000080910402909105020E94E10A9AC080E157
:1012100051C081E08A8389EDEDCFEA80FB80FE2416
:10122000EF24FE24AC80B12C6801C701895D9D4F7D
:101230009601201B310B2A153B0508F082C029EDD1
:10124000E21621E0F20630F40E94D72BD601149664
:101250008C9302C0F6011482FFEFEF1AFF0A2FEF02
:10126000C21AD20AE2CFEA80FB80FE24EF24FE24D9
:10127000AC80B12C6801C701895D9D4F9601201B90
:10128000310B2A153B0508F05CC039EDE31631E05F
:10129000F30628F4D60114966C910E94EB2BBFEF55
:1012A000EB1AFB0AEFEFCE1ADE0AE5CF0E947A2690
:1012B00048C084E08A8345C0EA80FB80FE24EF2496
:1012C000FE24AC80B12C6801C70187969601201BD3
:1012D000310B2A153B05A8F5E114F2E0FF0630F4C6
:1012E0000E94D72BD60114968C9302C0F60114826B
:1012F000FFEFEF1AFF0A2FEFC21AD20AE5CFEA80FA
:10130000FB80FE24EF24FE24AC80B12C6801C701D1
:1013100087969601201B310B2A153B0590F4E114AA
:1013200032E0F30628F4D60114966C910E94EB2B60
:10133000BFEFEB1AFB0AEFEFCE1ADE0AE8CF8FEF12
:10134000898380919D02843009F08CCB8091E900E3
:101350008F702091EC00922F917020FD90E8F92E73
:10136000F82A82E08093E9008091E80080FF0CC0B9
:1013700040E050E060E270E0C8010E947B23809171
:10138000E8008E778093E8008F2D8F708093E900BE
:1013900069CB09BD19BD09B400FEFDCF8091D8000D
:1013A0008F7D8093D8008091E00082608093E00080
:1013B0008091E00081FDFCCF0E94B41E5CCB86E2F0
:1013C00090E00E94D72B1B821C821D828E83B9CF96
:1013D00060E086E290E00E94EB2B0E948A260E9449
:1013E0007A2662E283E290E00E94EB2B64E084E2E2
:1013F00090E00E94EB2B61E085E290E00E94EB2BF5
:101400007FCA2D32314008F048CD86CD2D32314093
:1014100008F099CDD7CD9091C40192FF0DC0282F2F
:101420002871283019F4877F846006C0282F247122
:10143000243011F48B7F886093FF0DC0282F287112
:10144000283119F4877E846106C0282F2471243145
:1014500011F48B7E88612091C50120FF0DC0382FCB
:101460003871383019F4877F816006C0382F3171A8
:10147000313011F48E7F886021FF0DC0282F287134
:10148000283119F4877E816106C0282F217121310E
:1014900011F48E7E886194FD877E089525E0E2E058
:1014A000F2E0DC0101900D922A95E1F72091E00134
:1014B0003091E1014091E201FC01258336834783AD
:1014C00008951092E20108958091E201089530910B
:1014D00001018091020280FF16C0E091000163E0EB
:1014E000E69FF0011124E555FD4F529A8BB18B7F99
:1014F0009BB194602FB7F894AF0163E0369F400D25
:10150000511D112414C0809102019091030189178B
:1015100020F7E82FF0E0AF01440F551FE40FF51F4F
:10152000E555FD4F1182108212828F5FF0CFE417D4
:10153000F50789F0319168E09BB9000000C037FFE2
:101540008BB9330F000000C000C000C08BB900C0D1
:101550006A9591F7ECCF2FBF8FE594E00197F1F7F3
:1015600000C0000008959091020290FF16C0909173
:10157000020120910301921770F4E92FF0E0DF01DE
:10158000AA0FBB1FEA0FFB1FE555FD4F8183608348
:1015900042839F5FF0CF0C94670A08958091020206
:1015A000282F269530E02115310519F481708260CD
:1015B00005C02D30310524F08170886180930202CE
:1015C0000895CF92DF92EF92FF926B017C010E940F
:1015D000CE0AB701A60188E090E0FF90EF90DF907F
:1015E000CF900C94FD2B80910602882319F0815036
:1015F00080930602609102027091030280910402BE
:10160000909105020C94E10A80910602833018F44F
:101610008F5F8093060260910202709103028091B5
:101620000402909105020C94E10AE2E0F2E083E00A
:10163000808311828FEF828383831482A0EEB1E0D6
:1016400012968C911297836012968C9360817181AF
:10165000828193810C94E10AAF92BF92CF92DF9284
:10166000EF92FF920F931F93CF93DF93E82EF62E06
:10167000E901E42FF0E0611106C0EE52FE4FE49163
:101680004E2F2E2F71C0062F10E0EE52FE4F4491C8
:10169000F42FC42ED12C26E0829FC00111242FEFFD
:1016A00030E0B9010E941F2C5BEA5603C001579F2E
:1016B000900D11248E0D911D8E0D911D582F550FDB
:1016C000580FD901A01BB10BAC9DC001AD9D900D71
:1016D000BC9D900D1124E92FF59ED0011124AB2F54
:1016E000BB277901EA1AFB0AEC9CD001ED9CB00DF6
:1016F000FC9CB00D11245901A51AB108A09E7001DF
:10170000A19EF00CB09EF00C1124EF2CFF242E199A
:101710003F092C9D80012D9D100D3C9D100D112425
:10172000212F6230710591F048F461157105E1F0E7
:1017300061307105B9F4242F4B2F16C06430710548
:1017400069F040F06630710579F00CC0242F492F04
:10175000E12F0AC0492FEF2F2B2F06C0292FE42F8E
:10176000412F02C0292FEB2F49832883EA83DF9181
:10177000CF911F910F91FF90EF90DF90CF90BF908E
:10178000AF900895EF92FF920F931F93CF93DF9343
:1017900000D01F92CDB7DEB7182FF62E042FE22E01
:1017A0008091020280FF41C0E82FE695F0E0E45905
:1017B000FE4F90819093E0018E7F823061F49E0114
:1017C0002F5F3F4F812F0E942C0B4B8169818A81B3
:1017D0000E94B30A07C0923019F41091030202C0AC
:1017E0009530D9F380910302181308C08091040248
:1017F000F81204C080910502081729F08091E201D7
:1018000082608093E20110930302F092040200933D
:101810000502EE2051F06091020270910302809166
:101820000402909105020E94E10A0F900F900F9020
:10183000DF91CF911F910F91FF90EF900895E2E01B
:10184000F2E0438128E0421B08F440E021E062819D
:1018500081810C94C20BE2E0F2E0438128E0420F68
:1018600008F44FEF21E0628181810C94C20BE2E029
:10187000F2E0628128E0621B08F460E021E043812D
:1018800081810C94C20BE2E0F2E0628128E0620FF9
:1018900008F46FEF21E0438181810C94C20BE2E0F8
:1018A000F2E0818121E04381628188500C94C20B77
:1018B000E2E0F2E0818121E043816281885F0C9463
:1018C000C20B0E94001A2091F401211104C0209142
:1018D000F501222321F09093F1018093F0012091F2
:1018E000F601211104C02091F701222321F09093E9
:1018F000EE018093ED01E091D201F091D301309798
:1019000049F082E08093F2010480F581E02D82EFBE
:1019100091E009940895803F39F49091F50197FF83
:1019200035C01092F50159C0813F29F49091F5011D
:101930001916BCF32BC09091F401823F29F497FF54
:1019400025C01092F40149C0833F19F41916CCF355
:101950001DC09091F601893F29F41916BCF410922C
:10196000F6013BC08A3F19F497FF10C0F8CF8B3FB8
:1019700039F49091F70197FF09C01092F7012DC03B
:101980008C3F21F49091F7011916BCF39CE0980F5D
:10199000953080F421E030E0A90102C0440F551FCA
:1019A0009A95E2F7CA0180959091F301892380937B
:1019B000F30113C08D3F21F4809122028E7F0BC072
:1019C0008E3F21F4809122028D7F05C08F3F29F444
:1019D000809122028B7F809322028091F4018111F9
:1019E00006C08091F501811102C01092EF01809133
:1019F000F601811106C08091F701811102C0109299
:101A0000EC0108958091220280FD16C081FD16C070
:101A100082FD18C08091EC01882391F0883290F407
:101A200028E0829FC001112468E270E00E94332CFC
:101A3000862F672B29F007C082E0089584E008957F
:101A400081E0089588E008958091220280FD14C00D
:101A500081FD14C082FD16C08091EF01882381F0C2
:101A6000843180F422E3829FC001112464E170E09C
:101A70000E94332C862F08958CE0089589E1089503
:101A800085E0089582E30895803F21F40E94240DAB
:101A9000819504C0813F29F40E94240D8093F501B3
:101AA0000895823F21F40E94240D819504C0833F54
:101AB00029F40E94240D8093F4010895893F19F4BC
:101AC0000E94020D05C08A3F31F40E94020D8195EB
:101AD0008093F60108958B3F21F40E94020D8195B9
:101AE00004C08C3F29F40E94020D8093F7010895F1
:101AF0009CE0980F953078F421E030E0A90102C015
:101B0000440F551F9A95E2F7CA019091F301892B72
:101B10008093F30108958D3F21F48091220281602A
:101B20000BC08E3F21F480912202826005C08F3F5E
:101B300029F480912202846080932202089580918A
:101B40001302811118C08091D80080618093D80061
:101B50008AE18A95F1F700C08091D90080FD02C02A
:101B600082E001C081E080931302823021F40E9460
:101B7000F32110929D0281E090911302913009F0BF
:101B800080E00895F894E82FE295EF70F0E031A13D
:101B9000282F2F7081E090E001C0880F2A95EAF786
:101BA000982F9095932391A392A1892B82A3789447
:101BB00008958F929F92AF92BF92CF92DF92EF9251
:101BC000FF920F931F93CF93DF9300D000D0CDB738
:101BD000DEB786E2C82E81E0D82E96ECE92E91E0A1
:101BE000F92E470100E0AA24A394B12CB601D60136
:101BF0008C91F894E82FE295EF70F0E021A18F70BE
:101C0000A50102C0440F551F8A95E2F7CA01922F21
:101C1000982B91A392A18095892382A3789400C0E8
:101C2000EEE2F1E020E030E010E04191842F829577
:101C30008F7090E0DC0190968C9190E04F7002C024
:101C4000959587954A95E2F780FD07C08A2D022E6B
:101C500001C0880F0A94EAF701C080E0182B2F5FBB
:101C60003F4F2830310509F7BFEFCB1ADB0AFB01E4
:101C700080810E94C20DF0EAFA95F1F7D4018C91AF
:101C8000181719F01C9381E001C080E0082BBFEF0A
:101C90008B1A9B0AEAE2CE16E1E0DE0609F0A6CF37
:101CA0001091CF01002349F081E0809311020E943E
:101CB000001A9093100280930F02809111028823E2
:101CC000B9F080910F02909110020E94AD19069711
:101CD00078F0E12FF0E0E95FFD4FD7018D917D01B4
:101CE0008193BAECEB16B1E0FB06B9F71092110242
:101CF0000E949F0D6091CF01882309F45BC0198277
:101D00001A821B821C82862F90E0BE016F5F7F4F7C
:101D1000895F9D4F0E94BD29811117C080911202D9
:101D20008F5F80931202863040F1E091CE01F0E0A7
:101D3000E95FFD4FDE011196CE01059611921D92CD
:101D4000A817B907D9F711E019C010921202E09153
:101D5000CE01F0E0E95FFD4FDE0111969E012B5FA1
:101D60003F4F10E08D919081981711F0808311E022
:101D70003196A217B307B1F701C010E080911201AC
:101D800082FF23C00E94001A209114023091150294
:101D9000AC01421B530B20911001309111014217ED
:101DA000530798F0BC0180911602909117020E948F
:101DB000B7250BC070E0695F7D4F8091CE0190E048
:101DC000895F9D4F0E94EF2910E0011102C0812F11
:101DD00002C081E090E00F900F900F900F90DF9184
:101DE000CF911F910F91FF90EF90DF90CF90BF9018
:101DF000AF909F908F900895CF93DF930E9402271A
:101E0000EC018238910559F1A0F48133910509F470
:101E100073C040F48932910509F467C08A9709F4C8
:101E200072C084C08533910509F458C0C997B9F0D0
:101E30007DC0833E910571F138F4803E9105B1F08B
:101E4000823E910511F172C0863E9105B9F1873E3F
:101E50009105C9F1843E910509F068C024C08091C4
:101E6000C40180FD5DC081FD5BC060C08091C40184
:101E700080FD50C08091C50180FF49C18091C4019F
:101E800084FD43C1C3EED0E042C18091C40182FF12
:101E90003EC1F4CF8091C40182FD3FC08091C50155
:101EA00080FD3EC0EBCF8091C50181FF30C18091A4
:101EB000C40184FD2AC1C7EED0E029C18091C401CC
:101EC00083FF25C1F4CF8091C40183FD2CC0809194
:101ED000C50181FFECCFC4EED0E019C18091C401EF
:101EE00085FF15C1C9E2D0E012C18091C40185FF10
:101EF0000EC1C5E3D0E00BC18091C40186FF07C1CC
:101F0000CAE2D0E004C18091C40186FF00C1C1E3F0
:101F1000D0E0FDC0C9E3D0E0FAC0C2EED0E0F7C027
:101F2000C0EED0E0F4C0C6EED0E0F1C0C11581E54E
:101F3000D80708F066C0C11520E5D207E0F0CE0151
:101F400074E0969587957A95E1F783709C2F93704E
:101F500021E030E002C0220F331F9A95E2F73C687F
:101F6000382BCF70C695C69540E2C49FE00111247E
:101F7000C22BD32BCCC0C83ED10560F5C03ED105E5
:101F800008F0C5C0C83AD105B0F4C53AD10540F053
:101F9000C55AD0E0C357DE4FC881D0E0D064B7C087
:101FA000C130D10509F4B3C008F4AFC0C430D105C5
:101FB00008F4ABC0ACC0CF3BD10508F0A6C0C85AEE
:101FC000D0E0CC0FDD1FC057DE4F0990D881C02D67
:101FD000D4649DC0C11540E2D40758F4C11581E016
:101FE000D80708F094C0C03FD10508F48EC0D06572
:101FF0008EC0C11520E4D20708F487C0DF70D06A14
:1020000086C0C11545E5D40708F042C0C11584E576
:10201000D80728F0DC2FCC27C46FD06A78C0C11550
:1020200023E5D207B0F0CE018370992721E030E09C
:1020300002C0220F331F8A95E2F78C2F8695869572
:1020400040E2849FC0011124E901C82BD92BDA6832
:102050005EC0C11542E5D40728F4DC2FCC27C16F40
:10206000D06A55C0CE018370992721E030E002C0CC
:10207000220F331F8A95E2F78C2F8695869540E2D2
:10208000849FC0011124E901C82BD92BDC683FC013
:10209000C11589E5D807B8F4C11528E5D20728F09D
:1020A000DC2FCC27C06FD06A32C0C11546E5D407FB
:1020B00060F58C2F0E940B0A8F71C82FD0E0DC2FA7
:1020C000CC27D06224C0C1158AE5D80780F48C2FB4
:1020D0008F700E940B0A94E0D695C7959A95E1F708
:1020E000CF70D0E0DC2FCC27D069C82B10C0CE0138
:1020F00090568115904248F48D2F8F710E940B0AE3
:10210000DD27D0628F71D82B02C0C0E0D0E0CE01B5
:10211000DF91CF910895AF92BF92CF92DF92EF926D
:10212000FF920F931F93CF93DF93EC018AE0A82EC9
:102130002881222309F497C0213009F041C0898108
:10214000813039F48E010E5F1F4F8A810E94C428AE
:1021500008C0823041F48E010E5F1F4F8A810E94B9
:102160002028E8017EC0833039F48E010E5F1F4FB6
:102170008A810E94B927F5CF843011F0219671C071
:102180002A81229680E090E030E0205331092A3005
:10219000310558F4A89EA001A99E500D1124C90133
:1021A000840F951F21962881EFCF009709F459C01D
:1021B000EFE9FFE03197F1F700C000000197F5CF9C
:1021C000E22FF0E0EE5AFE4FB490822F869586956E
:1021D000869590E0FC01EE5BFE4FE4902770F12CB9
:1021E000022E02C0F594E7940A94E2F7F1E0EF22A0
:1021F000FF24FC01EE5CFE4FC490D12C022E02C0E5
:10220000D594C7940A94E2F731E0C322DD24FC019F
:10221000EE5DFE4F049110E002C0159507952A95DA
:10222000E2F701701127E114F10419F081EE0E9428
:102230002028C114D10419F086EE0E9420288B2D8D
:102240000E94C428CD2819F086EE0E94B927EF28F5
:1022500019F081EE0E94B927012B19F08CE20E943F
:10226000C428219665CFDF91CF911F910F91FF90E8
:10227000EF90DF90CF90BF90AF9008950F931F9392
:10228000CF93DF93CDB7DEB72A970FB6F894DEBFB2
:102290000FBECDBF24E0829FC0011124FC01E60FD8
:1022A000F11DEE0FFF1FE45BFE4F108101810E83D5
:1022B0001F8381E088870E94001A8160782F9A87A7
:1022C00089874E815F8168858A850E94DF24098322
:1022D0001A831B820E94001A8160782F9D838C8351
:1022E00049815A816B818D810E94DF2480E02A968A
:1022F0000FB6F894DEBF0FBECDBFDF91CF911F9117
:102300000F910895E2E0F2E080818E7F80830E9449
:102310008227E0EEF1E08281816082832FEF80E707
:1023200092E0215080409040E1F700C000000C9402
:10233000670A9091020290FF3BC09170811102C028
:10234000926006C08D3010F0986102C0880F982B03
:10235000909302028091E20181608093E201662302
:1023600051F06091020270910302809104029091F9
:1023700005020E94E10A60910202669570E041E068
:1023800050E084E191E00E94A72C892B19F00E9473
:10239000822702C00E94892781E08093DD0120E02E
:1023A0004091050260910402809103020C94C20BDB
:1023B00008951F93CF93DF93EC01162F8F8180FF39
:1023C0000FC0888180FF0AC08091020281608093E3
:1023D0000202888186950E94991102C00E94821192
:1023E0008F8181FF06C0212F4B816A8189810E94E4
:1023F000C20B8F8182FF08C08E81882319F00E9452
:10240000892702C00E9482278F8183FF03C081E059
:102410008093DD01DF91CF911F9108958091020299
:102420008695815009F48CE061E00C9499118091BB
:10243000020286958F5F8D3008F081E061E00C9498
:1024400099118F929F92AF92BF92CF92DF92EF92AB
:10245000FF920F931F93CF93DF93CDB7DEB72D97E6
:102460000FB6F894DEBF0FBECDBFFC018081918115
:1024700023813481232B31F09F3F31F491E08F3F52
:1024800019F403C091E001C090E090FD7FC67F0188
:1024900085E0DE01199601900D928A95E1F7F7012A
:1024A000228189859A85222349F00E944B1B182F8F
:1024B000682F89859A850E94ED1B03C00E94C11B6D
:1024C000182F69857A85812F0E9402278C01F701D8
:1024D0008281882309F446C0C80182519F454097F4
:1024E00008F087C58FEF93E00E94D72B811143C07E
:1024F0002EEED22ED00E07E212E0DD2069F001159B
:10250000F4E01F07C1F1C8010E94D72B811101C05F
:10251000DA940F5F1F4FF1CF19821A821B821C823F
:10252000BB24B39468012FEFC21AD20AC8010E94DB
:10253000D72B89831A828823F1F09FEF980F93306D
:1025400058F48A83B9820E5F1F4FC6010E94D72BB1
:102550008B83882381F06801CE0101960E948B1045
:102560008601E0CF0031FFE51F0799F481E00E946A
:10257000221C0E94BF1E80918302877009F406C648
:10258000F7018281882309F401C682E00E94471C7A
:10259000FDC501312FE5120711F482E0E8CF0E945A
:1025A000001A6C01F7018281882309F468C08091C8
:1025B000120182FF05C0B60180E090E00E94B725BD
:1025C000809185028D7F8093850209313CE5130758
:1025D000A1F178F407319CE5190729F10831ECE500
:1025E0001E0709F047C080911001909111010597D5
:1025F0001FC00B31FCE51F0781F040F00C313CE5BA
:102600001307C1F5809112018E7F0AC080911201DB
:10261000982F909590FB80F903C080911201816002
:102620008093120178C0809110019091110105965C
:1026300090931101809310016EC0809111018F93CE
:10264000809110018F9389E791E09F938F931F9260
:1026500088E08F93CE0101966C019F938F930E9427
:10266000B42CC6010E948B100FB6F894DEBF0FBECB
:10267000CDBF51C0C80104974A9730F479C1C80151
:1026800004974A9708F48FC1033FFCE51F0759F1EF
:1026900090F4083D3CE51307E9F0093D8CE5180787
:1026A000A1F1073D9CE51907B1F506E221EE41EEE7
:1026B00067ED7CE514C0053FECE51E0701F1C8F0AD
:1026C000063F2CE5120739F507E225EE46EE66EFE8
:1026D0007CE505C007E225EE45EE68ED7CE5C70127
:1026E0000E94072648CF06E221EE40EE63EF7CE52C
:1026F000F6CF07E225EE44EE64EF7CE5F0CF06E28C
:1027000021EE42EE65EF7CE5EACF08E221E045EEFE
:1027100069ED7CE5E4CFF7018281882309F45EC18D
:10272000109218020230FCE51F0708F441C106317F
:102730002CE5120730F0C8018A5F9C45099708F024
:1027400037C10E94651A9093C5018093C40100317E
:102750003CE5130709F4C3C008F041C008309CE50C
:10276000190709F49AC0F0F40430FCE51F0709F4D6
:1027700087C068F402303CE5130709F477C00330E2
:102780001C4509F0E5C08091C401826076C0063026
:102790009CE5190709F46EC008F07BC08091C40164
:1027A00088606BC00C30FCE51F0709F485C068F435
:1027B0000A303CE5130709F474C008F079C00E94A0
:1027C000B41E8091C401806858C00E309CE5190782
:1027D00009F476C008F07FC08091C4018BC00B3F24
:1027E000FCE51F0709F44FC018F503313CE513075A
:1027F00009F47DC078F401319CE5190709F473C030
:1028000002311C4509F0A4C00E94B41E8091C4018D
:102810008F7733C00531FCE51F0709F472C008F457
:1028200086C00A3F1C4509F093C08091C5013EC097
:102830000F3F8CE5180709F45FC058F40D3FECE535
:102840001E0709F444C008F43FC08091C5018260AE
:102850002DC001302DE5120709F475C008F45DC0E4
:1028600002301D4509F074C060E06EC08091C40163
:10287000816003C08091C40180618093C40168C0FD
:102880008091C40111C08091C50182608093C5010F
:102890005FC08091C4018062F0CF8091C4018064E8
:1028A000ECCF8091C40188608460E7CF8160EECF77
:1028B0008091C4018E7FE1CF8091C4018D7FDDCFF7
:1028C0008091C401877FD9CF8091C50118C08091C4
:1028D000C5018D7FDBCF8091C4018F7ECECF8091EB
:1028E000C4018F7DCACF8091C4018F7BC6CF8091F8
:1028F000C401877F8B7FC1CF8091C5018D7F8E7F83
:10290000C5CF8091C40182FB222720F991E0922754
:1029100090FB82F990FB83F9B0CF8091C501982F8D
:10292000909591708E7F892B90FB81F9AFCF0E949B
:10293000B41E8091C40187FB222720F991E09227E1
:1029400090FB87F99ACF61E08EE090E00E94EB2B3C
:102950006091C4011091C50184E090E00E94EB2BCE
:10296000612F82E290E00E94EB2B0E94B41E03CE06
:10297000F70182818823B9F08091120180FFD0CEC7
:10298000909186029111CCCE1093170200931602FB
:10299000D0921502C092140284608093120182E0EA
:1029A0000E94471CE8CDB601C8010E94B725E3CDBF
:1029B0000631FCE51F0721F5809186028A7A91E0B5
:1029C00009F490E090931902882311F065E301C0A7
:1029D00069E28AE192E00E944B1A0FC006319CE541
:1029E000190709F040C080911902882309F410C327
:1029F00065E38AE192E00E943E1A0E94E71ABBCD8D
:102A00000A353DE5130749F158F401159CE519070E
:102A1000B1F00E3D1C4509F042C00E94761AABCDC4
:102A20000B35FDE51F07D9F00C351D45C1F580912B
:102A3000C50182FB882780F991E0892711C00E9497
:102A4000B41E3FEF84E39CE0315080409040E1F7BA
:102A500000C000000E9463198ECD81E001C080E0BB
:102A60000E94311B1CC08091860282720C3C9CE546
:102A7000190709F474C308F0FDC2063CFCE51F0702
:102A800009F459C308F0D4C2033C3CE5130709F428
:102A900048C308F0BFC2023C1C4509F418C3F70143
:102AA000828100811181882349F0C8010E944B1B5B
:102AB000D82E682FC8010E94ED1B04C0C8010E94D7
:102AC000C11BD82EB8018D2D0E94FC0E8C01982EB2
:102AD000F701D280A580A2949FE0A9228091830271
:102AE000877099F0DD2089F0812F807F803421F07C
:102AF00080E2800F883048F082E00E94471C80917D
:102B000083028770CC24C3948111C12CB12EB2945E
:102B10008FE0B8228B2D90E08C30910508F04AC2EE
:102B2000FC01E759FF4F0C94692C812F807F1F70A7
:102B3000882311F01295107FDD20B9F0112309F4DC
:102B400024C280E2800F883010F0911006C080917E
:102B50008602182B1093860205C080918502182BDF
:102B6000109385020E94E71A10C2802F0E94B92795
:102B7000112309F41FC2005E1095083010F0911067
:102B800006C08091860218231093860205C08091AA
:102B900085021823109385020E94E71A0BC2812F29
:102BA000807F1F70803211F01295107F992021F0E4
:102BB000F1E09F1611F130C0DD20B1F0AA2081F0C4
:102BC00001E0A0120DC08091C50182FDF3C180918A
:102BD0008702182B181709F4EDC110938702EAC178
:102BE00080918702812B10C0AA2021F021E0A2163B
:102BF00009F4E0C10E94E11A27C0DD2041F035E070
:102C00003A1508F4D7C1812F0E94AF27D3C184E0C1
:102C10008A1508F4CFC118C0DD2049F0AA2099F325
:102C2000F701858180FFB1C18F708583ECCFAA2029
:102C300059F0093309F0BBC1FFEF17EE23E0F15063
:102C400010402040E1F7B1C1812F0E94A427B2C1FA
:102C5000812F86958695837019F0813059F0AAC12D
:102C6000DD2019F0C801937002C080E090E00E945E
:102C70009525A6C1DD2019F0C801937002C080E03F
:102C800090E00E947F259CC1802FDD2019F00E94DA
:102C9000440D02C00E948B0C0E94610C91C1812FD7
:102CA000837009F069C0D11089C1902F92959695D3
:102CB0009770990F990F802F8F70882E912CA12CCF
:102CC000B12C092E04C0880C991CAA1CBB1C0A94A8
:102CD000D2F704FF12C04FE050E060E070E004C0A3
:102CE000440F551F661F771F9A95D2F7DB01CA0163
:102CF00080959095A095B09503C080E090E0DC01B0
:102D000016951695412F4370423019F1C8F4009181
:102D100088021091890220918A0230918B02413001
:102D200059F088299929AA29BB29BC01CD01602322
:102D30007123822393230AC0802A912AA22AB32ACC
:102D4000BC01CD01682979298A299B290E94851C0B
:102D500035C188299929AA29BB2900918802109197
:102D6000890220918A0230918B02BC01CD0160273B
:102D7000712782279327EACFDD2019F0812F8170F8
:102D800001C08695882309F419C1902F92959695D4
:102D90009770990F990F802F8F70882E912CA12CEE
:102DA000B12C092E04C0880C991CAA1CBB1C0A94C7
:102DB000D2F704FF12C04FE050E060E070E004C0C2
:102DC000440F551F661F771F9A95D2F7DB01CA0182
:102DD00080959095A095B09503C080E090E0DC01CF
:102DE00016951695412F43704230D9F068F5009141
:102DF000A7021091A8022091A9023091AA024130A5
:102E000059F088299929AA29BB29BC01CD01602341
:102E10007123822393231EC0802A912AA22AB32AD7
:102E200013C088299929AA29BB290091A7021091CA
:102E3000A8022091A9023091AA02BC01CD0160270D
:102E400071278227932706C0BC01CD016829792903
:102E50008A299B290E94181CB1C01F70DD2039F0FF
:102E6000812F0E94641C802F0E94AF27A7C0802F53
:102E70000E94A427812F0E94221CA0C0802F32EF25
:102E8000931609F440C0391538F090EF991661F0A7
:102E9000E1EF9E1699F174C0F3EF9F16D9F124EF7C
:102EA000921609F44EC06CC0DD2019F134E03A15D9
:102EB00008F480C01F7181E090E0A0E0B0E0AC01B8
:102EC000BD0104C0440F551F661F771F1A95D2F726
:102ED0008091A7029091A802A091A902B091AA02A4
:102EE0008A019B01082719272A273B27C901B80116
:102EF00025C025E02A1508F45DC0DCCFDD2029F0CF
:102F0000812F8F7130C0DD20D9F3812F8F710E9406
:102F1000221C50C0DD2079F01F7181E090E0A0E01C
:102F2000B0E0BC01CD0104C0660F771F881F991F58
:102F30001A95D2F703C060E070E0CB010E94181C24
:102F400039C0DD2099F01F71812F0E94641C80918F
:102F5000C50182FD07C038E0139FC00111248360C2
:102F600080938302812F0E94641C24C081E00E9410
:102F7000471C81E08A15F0F482E00E94471C1AC0C9
:102F8000DD2039F0AA2009F4BBCF802F0E94202831
:102F900011C0AA2009F4B9CF893349F49FEFE7EEB5
:102FA000F3E09150E040F040E1F700C00000802FD6
:102FB0000E94B92788EF8B0D843010F40E94AB2556
:102FC000CC2009F4E3C08091830280FDDFC0F701CB
:102FD00012828595859585950E94641CC7010E9483
:102FE0002112809183028595859585950E94221CEA
:102FF000CDC000313FE5130711F481E006C0013177
:103000008FE5180709F0CBCA82E00E94641CB1CAA0
:1030100069E2EFCC043CFCE51F0709F487C0053CDE
:103020001C4509F03CCD4FE45CE068E57CE09BC0CA
:10303000093C3CE5130709F488C070F4073CECE553
:103040001E0709F47DC0083C1C4509F028CD43E467
:103050005CE067E37CE087C00A3C2CE5120709F4DA
:1030600079C00B3C1C4509F01ACD43EF5AE064E0EF
:103070007BE079C0033D8CE51807C0F4013D9CE579
:10308000190708F078CA0E3CECE51E0709F473CA6C
:1030900008F46CC00F3C2CE5120709F46AC0003D2F
:1030A0001C4509F0FCCC6AE085E065C0043D8CE578
:1030B000180709F460CA08F461C0053DECE51E0775
:1030C00009F45FC00D351D4509F455CAE8CC80915F
:1030D000020280FF20C08E7F809302026091020274
:1030E0007091030280910402909105020E94E10A0E
:1030F0000E9482278091E20181608093E2010FEFBC
:1031000010E722E0015010402040E1F700C000002D
:103110000E94670A30CA81608093020261E086954E
:1031200032C04EE052E167E172E11DC047E152E179
:103130006EE072E118C048E55CE06FE47CE013C02B
:1031400047E35CE063E47CE00EC04FE15CE06BE2EF
:103150007CE009C04BE25CE06FE17CE004C044E04D
:103160005BE063EF7AE00E947C2705CA61E081E0C2
:103170000AC064E082E00E946A27FDC961E08BE03A
:1031800002C061E08CE00E949911F5C92D960FB63E
:10319000F894DEBF0FBECDBFDF91CF911F910F918D
:1031A000FF90EF90DF90CF90BF90AF909F908F9067
:1031B000089580919202089580E00895CF93DF935F
:1031C00000D01F92CDB7DEB790919D02943011F5DB
:1031D00089837B836A839093E9008FEF9091E80065
:1031E000815095FD06C095ED9A95F1F7000081118B
:1031F000F5CF8091E80085FF0DC040E050E063E02E
:1032000070E0CE0101960E947B238091E8008E77CA
:103210008093E8000F900F900F90DF91CF91089569
:10322000BC0184E00C94DE18BC0183E00C94DE1831
:1032300024E02093E9002FEF3091E800215035FD84
:1032400006C035ED3A95F1F700002111F5CF209138
:10325000E80025FF0BC040E050E066E070E00E940F
:103260007B238091E8008E778093E8000895CF93C8
:10327000DF9321E02093E9002FEF3091E800215007
:1032800035FD06C035ED3A95F1F700002111F5CF77
:103290002091E80025FF14C0EC0140E050E068E018
:1032A00070E00E947B238091E8008E778093E80095
:1032B00088E0FE01A3E9B2E001900D928A95E1F762
:1032C000DF91CF91089581E08093E00080E28093C8
:1032D000D8001092C9008FE19EE40197F1F700C079
:1032E000000087E090EBDC018093F9029093FA02F2
:1032F000A093FB02B093FC029CE088E10FB6F89427
:10330000A895809360000FBE90936000FFCF7894E3
:103310001F920F920FB60F9211248F939F93AF932A
:10332000BF9380918C0290918D02A0918E02B091FA
:103330008F020196A11DB11D80938C0290938D0286
:10334000A0938E02B0938F02BF91AF919F918F9106
:103350000F900FBE0F901F9018959C014FB7F894D7
:1033600080918C0290918D02A0918E02B0918F027B
:103370004FBF821B930B08952FB7F89460918C0276
:1033800070918D0280918E0290918F022FBF0895CF
:103390000F931F930E949F0D882321F01F910F917F
:1033A0000C94BC190E94BC190091C0011091C1017C
:1033B0002091C2013091C301600F711F821F931FC2
:1033C0001F910F910895CF92DF92EF92FF926B01C0
:1033D0007C010E949F0D81110EC00E94BC19C61A6B
:1033E000D70AE80AF90AC092C001D092C101E0925E
:1033F000C201F092C301FF90EF90DF90CF9008954B
:103400002FB7F89480918C0290918D02A0918E023A
:10341000B0918F022FBF08950E949F0D81110C94CF
:10342000001A0E94C819CB0108951F920F920FB67F
:103430000F9211248F939F93AF93BF938091D401E8
:10344000811113C080918C0290918D02A0918E0207
:10345000B0918F024196A11DB11D80938C02909373
:103460008D02A0938E02B0938F02BF91AF919F9176
:103470008F910F900FBE0F901F9018959C012A5F9F
:103480003F4FFC014281461301C012820196821710
:103490009307B9F708959C01FC0132969FEF80E0F5
:1034A0004191461789F09F3F19F4411101C0982FAF
:1034B0008F5F8630A9F79F3F39F0F901E90FF11DC1
:1034C00097FDFA95628308950895CF9384E090E084
:1034D0000E94D72BC82F82E290E00E94D72B2C2F7E
:1034E00030E0A901582BCA01CF9108956AEE7EEF12
:1034F00080E090E00E94092C60E082E090E00E9471
:10350000EB2B60E083E090E00E94EB2B10928802AE
:103510001092890210928A0210928B0260E084E07D
:1035200090E00E94EB2B60E082E290E00E94EB2BA7
:1035300060E085E090E00E94EB2B60E086E090E0A8
:103540000E94EB2B6FEF87E090E00E94EB2B40E0B6
:1035500050E0BA0188E090E00E94FD2B60E08DE031
:1035600090E00E94EB2B40E050E0BA0188E190E04F
:103570000E94FD2B60E087E190E00E94EB2B40E091
:1035800050E0BA018CE190E00E94FD2B60E070E019
:1035900080E290E00E94092C40E050E0BA0188E10E
:1035A00090E00E94FD2B40E050E0BA018FE090E0F7
:1035B0000E94FD2B40E050E0BA0183E190E00C94C2
:1035C000FD2B8091870281111092870208959091BE
:1035D000860280918502892B20918402982F922B5C
:1035E00090931A0280918702882389F0892B809317
:1035F0001A02ECE1F2E097E080E0915029F021918D
:103600002223D9F38F5FF9CF81110E94E11AE09153
:10361000D201F091D301309731F00280F381E02D97
:103620008AE192E00994089580E090E00E94952557
:1036300080E090E00E947F25109285021092840223
:103640000E94E71AE2EFF1E086E0DF011D928A9521
:10365000E9F71092EF011092EC01109222020C9403
:10366000610CCF93C091C501C2FB992790F99817BF
:1036700081F080FBC2F9C093C5016091C40184E070
:1036800090E00E94EB2B6C2F82E290E0CF910C94A3
:10369000EB2BCF910895BF92CF92DF92EF92FF92E2
:1036A0000F931F93CF93DF938C01C090A702D0900C
:1036B000A802E090A902F090AA028091880290915D
:1036C0008902A0918A02B0918B02C82AD92AEA2ADB
:1036D000FB2ACFE1D0E0D701C6010C2E04C0B6957D
:1036E000A795979587950A94D2F780FD04C02197F6
:1036F00090F7B12C07C0BC2EB8018C2F0E94FC0E95
:103700000197A9F38B2DDF91CF911F910F91FF901E
:10371000EF90DF90CF90BF900895CF93DF93EC01AF
:103720000E944B1BBE010E94FC0EDF91CF910895B9
:103730000E948D1B292F2F70E92FE295EF704E2FDD
:1037400050E0FA013297EE30F105B8F4EB58FF4F34
:103750000C94692C803F99F018F4883E70F40FC0E7
:10376000843F59F40CC0883E50F0813F31F407C0CB
:10377000822F869586958695089580E0089581E04C
:10378000089528E0929F800D1124682F6695669514
:103790006695982F977085E0689FB001112440E0EE
:1037A00050E080E0FB01E40FF51FE55AFD4F20815A
:1037B00030E0092E02C0369527950A94E2F7217071
:1037C0003327042E01C0220F0A94EAF7822B4F5FA1
:1037D0005F4F4530510531F7089528E0929F800DE5
:1037E0001124E82FE695E695E695877051E001C033
:1037F000550F8A95EAF785E0E89FF0011124E55A14
:10380000FD4F20E030E070E04081CB01022E02C08D
:10381000969587950A94E2F7817081958427852390
:10382000842781932F5F3F4F2530310569F7089535
:103830006093A7027093A8028093A9029093AA02B2
:103840000C94141B0F931F9341E050E060E070E074
:1038500004C0440F551F661F771F8A95D2F7409505
:103860005095609570958091A7029091A802A091C3
:10387000A902B091AA028A019B01082319232A23D5
:103880003B23C901B8011F910F910C94181C209182
:1038900083028095822380938302982F977041F44E
:1038A00030E0482F082E000C550B2417350721F463
:1038B0009091C50192FF07C08595859585950E94D9
:1038C000221C1092830208950F931F9341E050E051
:1038D00060E070E004C0440F551F661F771F8A9593
:1038E000D2F78091A7029091A802A091A902B0916D
:1038F000AA028A019B01082B192B2A2B3B2BC901F9
:10390000B8011F910F910C94181C6093880270935A
:10391000890280938A0290938B020C94141B8091ED
:103920005A0290912902891719F08F5F8770FBCF97
:1039300008950F931F93CF93DF9380912802829570
:103940008F7009F05DC080912502882309F458C06A
:1039500080915A02109129026091230270912402F1
:10396000C0912602D091270291E06F3F09F090E0CC
:10397000292F06E0811709F443C0209721F07F3FEB
:1039800021F030E003C031E001C0322F90E030FD83
:1039900034C0089FF001099FF00D1124DF01A65DDE
:1039A000BD4F11963C911197371327C03C913613A8
:1039B00024C012963C91129731111FC013964D915D
:1039C0005C9114974C1B5D0B483C5105B0F4809101
:1039D00028028F70806180932802E15DFD4F808115
:1039E0008F708061808383E292E00E942112DF91D8
:1039F000CF911F910F910C948F1C01968770BACFB5
:103A0000DF91CF911F910F9108959F92AF92BF9236
:103A1000CF92DF92EF92FF920F931F93CF93DF939A
:103A2000CDB7DEB761970FB6F894DEBF0FBECDBF3E
:103A30008C0185E0F801DE011D9601900D928A95BA
:103A4000E1F7F80190818181E28030912302609159
:103A5000240240912602509127024115510531F070
:103A60006F3F31F421E03F3F19F403C021E001C072
:103A700020E0F22FF1709F2E20FD23C1F801C380BA
:103A8000D48023E2A22E22E0B22EF0902502F6018D
:103A9000E41BF50BFF2009F4CEC020912802E83C7E
:103AA000F10508F099C0422F407F09F051C068131A
:103AB00011C039130FC0FE2CE1100CC02F70206113
:103AC00020932802C5010E94211280912802F8014A
:103AD000858337C1CD2831F08F3F31F421E09F3FFE
:103AE00019F403C021E001C020E020FD03C021E063
:103AF0002E2502C020E030E0F22FF170FF2E20FFD3
:103B00001DC020915A024091290256E0241709F461
:103B1000F6C030E0529FF001539FF00D1124E65D96
:103B2000FD4F6181861306C06081961303C06281D8
:103B3000E61204C02F5F3F4F2770E8CFFE2CEE2027
:103B400009F4FFC08091280281608093280250C050
:103B5000681307C0391305C0E11003C0F8012583BD
:103B60008DC09D878E878D859E850E94981B88239A
:103B700069F1EE2059F120912802822F82958F70F1
:103B800090E0029774F0809123029091240298872C
:103B90008F831986DB86CA862C87CE0107960E9402
:103BA000211286E0F801A3E2B2E001900D928A951D
:103BB000E1F70E94991C0DC06817E1F09D878E8780
:103BC0008D859E850E94981B81111EC0C8010E9490
:103BD0002112FF24F394B5C0422F407F69F783E29E
:103BE00092E00E94211286E0F50111928A95E9F790
:103BF000F12CA7C03913E2CFE110E0CFF801258303
:103C0000C8010E94211257C0EE2001F32091280222
:103C1000822F82958F7090E002971CF28091230290
:103C2000909124029A8389831B82DD82CC822E8329
:103C3000CE010196B4CFE83CF105E8F5FE2CEE206C
:103C400029F2681327C0391325C02091280220FDCE
:103C500018C0822F82958F70482F50E04115510572
:103C600081F0F80125834F30510541F08F5F982F87
:103C70009295907F822F8F70892B8583C8010E9437
:103C8000211286E0F801A3E2B2E001900D928A953C
:103C9000E1F757C09D878E878D859E850E94981B72
:103CA00081117FCF80912802816080932802C80112
:103CB0000E94211246C086E0F50111928A95E9F72B
:103CC00040C0EE2009F482CF9D878E878D859E852A
:103CD0000E94981BF82E882309F478CF86E0F8011B
:103CE000A3E2B2E001900D928A95E1F78091230260
:103CF000909124020E948D1B0E94991C22C09D87D6
:103D00008E878D859E850E948D1B292F22952F7071
:103D1000223028F49F7039F0811105C00BC0243087
:103D200028F49F7049F4805E883020F0C8010E941A
:103D300021129F2CF92C05C0F8019581907F99F7ED
:103D4000F9CF8F2D61960FB6F894DEBF0FBECDBFB1
:103D5000DF91CF911F910F91FF90EF90DF90CF9067
:103D6000BF90AF909F9008951092860286E0ECE19C
:103D7000F2E0DF011D928A95E9F70C94141B0F9372
:103D80001F938091A7029091A802A091A902B091DF
:103D9000AA028C019D010670112722273327BC013E
:103DA000CD01063011052105310511F4686001C00F
:103DB000677F1F910F910C94181C1F93CF93DF9373
:103DC000CDB7DEB7AA970FB6F894DEBF0FBECDBF52
:103DD000EFE9F2E08091F100819342E0E73AF407E5
:103DE000C9F78091A002833009F462C030F48130B9
:103DF00071F0823009F49CC0B3C08A3009F488C0E5
:103E00008B3009F46DC0893009F0AAC020C08091C0
:103E10009F02813A09F0A4C08091E800877F8093D7
:103E2000E8008091A3029091A402892B21F468E01C
:103E300083E992E003C060E080E090E070E00E94DF
:103E400036298091E8008B778093E80089C08091C3
:103E50009F02813209F084C08091A3029091A40254
:103E6000009719F0029709F07BC08091E800877FE6
:103E70008093E8008091E80082FD05C080919D025A
:103E80008111F8CF6DC02091F3008091F20090E095
:103E9000922B029729F48091F1008B7F813021F4DD
:103EA0008091F100809392028091E8008B7754C05A
:103EB00080919F02813A09F053C08091A3029091B2
:103EC000A402892B09F04CC08091E800877F809381
:103ED000E8008091E80080FFFCCF8091130137C09B
:103EE00080919F028132E1F58091A3029091A4021A
:103EF000892BB1F58091E800877F8093E8000E94CC
:103F0000E2288091A102809313010E94B41E28C070
:103F100080919F02813221F58091E800877F809314
:103F2000E8000E94E2288091A2028093910218C0CA
:103F300080919F02813AA1F48091E800877F80936D
:103F4000E8008091E80080FFFCCF8091910280938F
:103F5000F1008091E8008E778093E8000E94E228CB
:103F60008091E80083FFDDC180919F029091A002C3
:103F7000492F50E04A30510508F0D3C1FA01ED57FE
:103F8000FF4F0C94692C803821F0823809F0C9C1A8
:103F900008C080919B0290919C02992389F08260D5
:103FA0000FC08091A3028F70873008F0BAC1809350
:103FB000E9008091EB0085FB882780F91092E900E9
:103FC0009091E800977F9093E8008093F100109221
:103FD000F10070C1282F2D7F09F0A3C1882319F0AB
:103FE000823061F09EC18091A102813009F099C1B7
:103FF000933009F080E080939C022EC08091A10252
:1040000081112AC08091A3028F702FEF280F2630D4
:1040100008F087C18093E9002091EB0020FF1CC0CD
:10402000933021F48091EB00806214C09091EB00FA
:1040300090619093EB0021E030E0A90102C0440FB1
:10404000551F8A95E2F74093EA001092EA008091AA
:10405000EB0088608093EB001092E9008091E8000B
:10406000877F8093E8000E94E2285BC1811159C1DB
:104070001091A1021F778091E3008078812B8093BB
:10408000E3008091E800877F8093E8000E94E228A7
:104090008091E80080FFFCCF8091E30080688093EE
:1040A000E300111102C082E001C083E080939D0211
:1040B00038C18058823008F034C12091A10230917B
:1040C000A2022C3D53E0350779F583E08A838AE22A
:1040D00089834FB7F894DE01139620E03EE051E269
:1040E000E32FF0E050935700E49120FF03C0E295E6
:1040F000EF703F5FEF708E2F90E0EA3010F0C796C0
:1041000001C0C0968D939D932F5F243149F74FBF17
:104110008091E800877F8093E8006AE270E0CE013A
:1041200001960E943629B4C08091A3029091A40206
:10413000432F552743305105A9F068F4413051050C
:1041400009F4FEC04230510509F0EBC08BE590E068
:10415000EFEAF3E04BC04132510529F142325105FB
:1041600089F1DFC0C901992781309105A1F058F08C
:10417000029709F0D6C0ECE1F4E0E4918E2F90E0D4
:10418000ECE1F4E030C0E2E5F4E0E4918E2F90E061
:10419000E2E5F4E028C0EAE3F4E0E4918E2F90E059
:1041A000EAE3F4E020C08330910508F0BAC0880F3C
:1041B000991FFC01E957FE4F0190F081E02D89E045
:1041C00090E014C08330910508F0ABC0FC01EE0F05
:1041D000FF1FEF57FE4F0190F081E02DDC01A25848
:1041E000BE4F8C9190E0009709F49BC02091E800AD
:1041F000277F2093E8002091A5023091A60228177E
:10420000390708F4C90140E0009789F120919D0227
:10421000222309F43DC02530D9F12091E80023FD87
:1042200037C02091E80022FD2FC02091E80020FF38
:10423000EBCF4091F3002091F20030E0342B009757
:1042400059F02830310540F444914093F100319603
:1042500001972F5F3F4FF3CF41E02830310509F040
:1042600040E02091E8002E772093E800CDCF411167
:10427000CDCF0AC080919D02882351F0853041F056
:104280008091E80083FD04C08091E80082FFF2CFB6
:104290008091E8008B778093E80043C0803809F074
:1042A00040C08091E800877F8093E80080919E0263
:1042B0008093F1008091E8008E77D3CE811131C0D8
:1042C0008091A1029091A2029927029754F58091C2
:1042D000E800877F8093E8001091A10210939E026E
:1042E0000E94E228111106C08091E30087FD02C000
:1042F00081E001C084E080939D0242E061EC81E0B6
:104300000E94012942E261EC84E00E94012942E21C
:1043100061EC82E00E94012942E260EC83E00E94AD
:1043200001298091E80083FF10C08091E800877F19
:104330008093E8008091EB0080628093EB0005C0E1
:1043400082E190E0EAE0F4E051CFAA960FB6F8944B
:10435000DEBF0FBECDBFDF91CF911F9108951F9299
:104360000F920FB60F9211242F933F934F935F93A9
:104370006F937F938F939F93AF93BF93CF93DF936D
:10438000EF93FF93C091E900CF708091EC00D82F9C
:10439000D17080FDD0E81092E9008091F000877F15
:1043A0008093F00078940E94DD1E1092E9008091C5
:1043B000F00088608093F000CD2BCF70C093E900AF
:1043C000FF91EF91DF91CF91BF91AF919F918F912D
:1043D0007F916F915F914F913F912F910F900FBE01
:1043E0000F901F901895E8EDF0E080818E7F80831C
:1043F0001092E2001092DA001092E100A0EEB0E01C
:104400008C9181608C9380818F77808319BCA7ED1C
:10441000B0E08C918E7F8C9380818F7E8083109210
:1044200090020895CF92DF92EF92FF920F931F9325
:10443000CF93DF93C8EDD0E088818F7E8883E7ED4E
:10444000F0E080818160808384E082BF81E080939E
:10445000900288818E7F888302EE10E0F80110823E
:104460001092DA0081EEC82ED12CF60110828881DC
:104470008F77888388818068888388818F7D88830F
:1044800019BC10929D0210929E0210929C021092F2
:104490009B0290EEE92EF12CF70180818B7F8083C7
:1044A00088818160888342E060E080E00E94012989
:1044B000F60180818E7F8083F80180818160808316
:1044C000808188608083F70180818E7F80838881EE
:1044D00080618883DF91CF911F910F91FF90EF90C2
:1044E000DF90CF9008951F920F920FB60F92112474
:1044F0002F933F934F935F936F937F938F939F93EC
:10450000AF93BF93EF93FF938091E10082FF09C0C7
:104510008091E20082FF05C08091E1008B7F809353
:10452000E1008091DA0080FF2AC08091D80080FFEE
:1045300026C08091DA008E7F8093DA008091D900C6
:1045400080FF18C080E189BD82E189BD09B400FE09
:10455000FDCF81E080939D028091900281110FC078
:104560000E94F3210E9412228091E20084608093D5
:10457000E20005C019BC10929D0210929002809139
:10458000E10080FF17C08091E20080FF13C080919E
:10459000E2008E7F8093E2008091E2008061809350
:1045A000E2008091D80080628093D80019BC85E039
:1045B00080939D028091E10084FF2EC08091E200F3
:1045C00084FF2AC080E189BD82E189BD09B400FE73
:1045D000FDCF8091D8008F7D8093D8008091E1003D
:1045E0008F7E8093E1008091E2008F7E8093E200D5
:1045F0008091E20081608093E20080919E02882396
:1046000011F084E007C08091E30087FD02C081E0E3
:1046100001C083E080939D028091E10083FF27C069
:104620008091E20083FF23C08091E100877F809327
:10463000E10082E080939D0210929E028091E10051
:104640008E7F8093E1008091E2008E7F8093E20074
:104650008091E20080618093E20042E060E080E0CF
:104660000E9401298091F00088608093F000FF9102
:10467000EF91BF91AF919F918F917F916F915F91DA
:104680004F913F912F910F900FBE0F901F90189553
:104690002091E4003091E50095E64091EC00842FF4
:1046A000817040FF23C08091E80080FD1DC0809193
:1046B0009D02882399F0853099F08091EB0085FD6B
:1046C00011C04091E4005091E5002417350729F30B
:1046D000915011F09A01E1CF84E0089582E00895AD
:1046E00083E0089581E0089580E008954091E80016
:1046F00042FFDDCF0895EF92FF920F931F93CF9368
:10470000DF937C018B010E944823811119C0E701CE
:1047100001151105A1F08091E80085FD0AC0809186
:10472000E8008E778093E8000E944823882381F375
:1047300007C089918093F10001501109E9CF80E011
:10474000DF91CF911F910F91FF90EF900895089501
:104750000F931F93CF93DF9300D01F92CDB7DEB797
:104760008C018091020280FF10C09E012F5F3F4F9D
:104770004091050260910402F80184810E942C0B93
:104780004B8169818A810E94B30AF80184818F5F1D
:1047900084830F900F900F90DF91CF911F910F9115
:1047A00008950F931F93CF93DF9300D01F92CDB73F
:1047B000DEB78C018091DB0281110AC09E012F5F60
:1047C0003F4F4FEF6FEF0E942C0B8A818093DB02EB
:1047D000F8018481813051F028F0823061F44091F9
:1047E000DB020AC08091DB0240E007C06091DB027F
:1047F00040E080E003C040E080E060E00E94B30A57
:10480000F801848190E0019663E070E00E94332C0F
:1048100084830F900F900F90DF91CF911F910F9194
:1048200008958F929F92AF92BF92CF92DF92EF92B4
:10483000FF920F931F93CF93DF938C01FC01448170
:10484000C42FD0E09E01DE010E947E2C9B01AC01B2
:104850000E94942C6B017C01E0E2F0E0EC1BFD0B6C
:10486000A5E5B0E09B01AC010E94942C4B015C01DA
:104870009F01DF010E94762C9B01AC010E949F2CBE
:104880009B01AC012C0D3D1D4E1D5F1DC501B401EA
:104890000E94472CC22FD22F2A3228F4F3E02F9FF8
:1048A000900111240DC025E530E02C1B3109C90110
:1048B000880F991F280F391F37FF02C02F5F3F4F06
:1048C00035952795C22FC095F12C85E5E82EED1A78
:1048D00080910401F816C8F4F1FC02C08E2D01C0CD
:1048E0008D2F909102012F2D30E0290F311DA9014C
:1048F000440F551F240F351F25553D4F4C2F6091F8
:1049000004020E942C0BF394E3CF0E94670AF80183
:104910008481811102C091E003C0803219F49FEFBD
:104920009093150190911501890FF8018483DF910F
:10493000CF911F910F91FF90EF90DF90CF90BF909C
:10494000AF909F908F900895FF920F931F93CF93F6
:10495000DF93EC01F12C0FEF10E060910401F616EB
:10496000F0F4809102012F2D30E0280F311DC90194
:10497000880F991F280F391F25553D4F70E0C8013A
:104980000E94332C962F8C81409105026091040285
:10499000F99E800D11240E942C0BF394DECF0E940F
:1049A000670A9A818C8190FF02C08F5F01C081509D
:1049B0008C83DF91CF911F910F91FF9008951F93EA
:1049C000CF93DF93CDB7DEB767970FB6F894DEBF0E
:1049D0000FBECDBF342F4B8B252F5C8B6D8B7E8B09
:1049E0008F8B4E895F8961111092850286E0FE01EE
:1049F0003D96DF01982F1D929A95E9F73D872E8706
:104A00006F87598B488BDE01179601900D928A951E
:104A1000E1F7CE0107960E94051D81113EC086E098
:104A2000FE013796DE01119601900D928A95E1F70D
:104A3000FF81E8856A857B856115710531F0EF3F5F
:104A400031F481E0FF3F19F403C081E001C080E050
:104A500080FD23C02091290230E0C90101968770B2
:104A6000992740915A0250E08417950779F1F9830C
:104A7000EA837D836C8396E0929FD001939FB00D73
:104A80001124A65DBD4FFE01319601900D929A95BD
:104A9000E1F7809329020E948F1C16E080915A0250
:104AA000909129028917F9F0189FC0011124865DA1
:104AB0009D4F0E94051D8823B1F080915A0290E01D
:104AC00001968770992780935A02E8CF0E94B41EFE
:104AD0001092290210925A02E3E2F2E086E0DF012E
:104AE0001D928A95E9F767960FB6F894DEBF0FBE60
:104AF000CDBFDF91CF911F9108950C94BC192091E7
:104B0000E0023091E1022817390771F09093E10239
:104B10008093E002E091D201F091D301309721F02F
:104B20000084F185E02D099408952091DE023091F2
:104B3000DF022817390771F09093DF028093DE02BD
:104B4000E091D201F091D301309721F00680F781F6
:104B5000E02D09940895E091D201F091D3013097AE
:104B600021F00190F081E02D099480E008950F93E9
:104B70001F93CF93DF938C01EB018091120182FF91
:104B80002CC08B7F809312018091140290911502AA
:104B90009B01281B390B809110019091110128175E
:104BA000390740F4809116020E942028809112015A
:104BB0008D7F0CC0809185028260809385028091F8
:104BC00016020E94202880911201826080931201B7
:104BD000809116020E94B9270AC0802F0E94B9272F
:104BE00080911602909117020817190729F48091F5
:104BF00085028D7F809385020E94E71AD09315026B
:104C0000C0931402DF91CF911F910F9108950F93DC
:104C10001F93CF93DF93C42FD22FFC01828188236F
:104C2000C9F0409318020E94001A9093DD0280930D
:104C3000DC0280E28C0F883008F057C0C77081E03A
:104C400001C0880FCA95EAF7DF91CF911F910F91AC
:104C50000C94AF2780911802481330C08091DC0279
:104C60009091DD020E94AD19883C910538F510E263
:104C70001D0FCD17B9F080E28C0F883040F4C7705B
:104C800081E001C0880FCA95EAF70E94A427183076
:104C900028F581E09D2F977001C0880F9A95EAF75B
:104CA0000E94AF27802F0E94C4281830F0F4D770DC
:104CB00081E001C0880FDA95EAF70AC080E28C0F24
:104CC000883098F4C77081E001C0880FCA95EAF770
:104CD000DF91CF911F910F910C94A427802FDF912A
:104CE000CF911F910F910C94C428DF91CF911F9108
:104CF0000F910895CF93DF93C7E2D2E060E0CE0139
:104D00000E94EB2B2196C11584E0D807B9F7DF91FB
:104D1000CF9108956F927F928F929F92AF92BF92A0
:104D2000CF92DF92EF92FF920F931F93CF93DF9377
:104D3000C0E0D0E000E010E03E0187E2680E711CA8
:104D40006301C00ED11EE12CF12C4E01800E911E8C
:104D5000F401EE0DFF1DEA5AFB4FA590B4906B2DA8
:104D6000C6010E94EB2B6A2DC60101960E94EB2B17
:104D700082E0E80EF11C82E0C80ED11C80E1E8164A
:104D8000F10431F7005F1F4F00381105C9F6C05814
:104D9000DF4FC11582E0D80769F6DF91CF911F91EF
:104DA0000F91FF90EF90DF90CF90BF90AF909F90CA
:104DB0008F907F906F9008950F931F93CF93DF9301
:104DC000C42FD0E0CC0FDD1F20E1629FC00DD11DAC
:104DD000112430E8839FC00DD11D1124CE01879688
:104DE0000E94D72B082F10E0102F0027CE018896A5
:104DF0000E94D72B9801282BC901DF91CF911F91D9
:104E00000F910895462F843038F4783028F46830B4
:104E100018F4672F0C94DC2680E090E00895CF9280
:104E2000DF92EF92FF920F931F93CF93DF936C016A
:104E3000F12C80E0D091D101DF0DF601C1916F011D
:104E40000D2F10E00D511E4FF8019081C91BEC2E63
:104E50001E145CF4EA94F80180818F5F808360E027
:104E60008D2F0E943E1181E0F3CF9C2FC7FD90E073
:104E7000C91BCC2359F0CF5FF8018081815080831A
:104E800061E08D2F0E943E1181E0F3CFF394F2E0B8
:104E9000FF12D0CF882351F0DF91CF911F910F9156
:104EA000FF90EF90DF90CF900C947D25DF91CF9114
:104EB0001F910F91FF90EF90DF90CF900895E091B8
:104EC000E901F0E0ED51FE4F20813181FC01318399
:104ED000208308959091020290FF04C09695981740
:104EE00040F003C0811105C090E0961710F40C94B7
:104EF000171261E00C949911882311F0FA0101C096
:104F0000FB010994E0EEF1E01182828184608283EA
:104F1000089560910202669570E041E050E084E1FE
:104F200091E00E94A72C892B19F481E08093E10184
:104F30000E940C1A9093DB018093DA018091E201C8
:104F400084608093E2010895882341F080959091D8
:104F500086028923809386020C94E71A0895882399
:104F600039F090918602892B809386020C94E71A7F
:104F70000895882309F463C0823869F40E94AB2540
:104F800081FF5DC069E38AE192E00E944B1A0E94B2
:104F9000E71A69E30EC0833891F40E94AB2580FFC5
:104FA0004EC063E58AE192E00E944B1A0E94E71A24
:104FB00063E58AE192E00E943E1A0C94E71A843875
:104FC00069F40E94AB2582FF3AC067E48AE192E06F
:104FD0000E944B1A0E94E71A67E4EBCF9CEF980FF0
:104FE000913A10F4682FE5CF90E2980F983088F44A
:104FF000877021E030E0A90102C0440F551F8A9557
:10500000E2F7CA01809590918602892380938602F7
:10501000D4CF9BE5980F933020F480E090E00C947F
:10502000952598E5980F973120F480E090E00C9456
:105030007F25803F20F00E948B0C0C94610C08951A
:10504000CF93882309F49EC0C82F8238B1F40E9400
:10505000AB2581FD97C069E38AE192E00E944B1A7B
:105060000E94E71A2FEF81EE94E02150804090409B
:10507000E1F700C0000069E317C08338E1F40E9443
:10508000AB2580FD7FC063E58AE192E00E944B1A68
:105090000E94E71A2FEF81EE94E02150804090406B
:1050A000E1F700C0000063E58AE192E00E943E1A49
:1050B000CF910C94E71A8438B1F40E94AB2582FD9D
:1050C00061C067E48AE192E00E944B1A0E94E71AED
:1050D0002FEF81EE94E0215080409040E1F700C036
:1050E000000067E4E1CF8CEF8C0F813A80F4ECE1B3
:1050F000F2E082E292E02191C217E1F18E179F0760
:10510000D1F76C2F8AE192E00E944B1AD1CF80E256
:105110008C0F883068F4C77081E090E001C0880F80
:10512000CA95EAF790918602892B80938602C0CFB8
:10513000EBE5EC0FE33040F4F0E0E357FE4F808105
:1051400090E0CF910C949525E8E5EC0FE73150F411
:10515000F0E0EE0FFF1FE057FE4F80819181CF916D
:105160000C947F25C03F70F08C2F0E94440DCF918E
:105170000C94610C6C2F8AE192E00E943E1A0E940E
:10518000E71ABFCFCF9108951F93CF93DF93182FC6
:10519000893319F0C0E0D0E002C0C0E5D0E0812F33
:1051A0000E942028209741F08FE99FE00197F1F7B6
:1051B00000C000002197F6CF812FDF91CF911F9182
:1051C0000C94B92780919F0287FF11C08091E8005D
:1051D00082FD05C080919D028111F8CF11C08091A0
:1051E000E8008B770BC080919D02882349F0809165
:1051F000E80080FFF8CF8091E8008E778093E80088
:105200000895982F973068F59093E900981739F032
:105210007091EC002091ED005091F00003C0242F1C
:10522000762F50E021FD02C09F5FECCF3091EB0064
:105230003E7F3093EB003091ED003D7F3093ED00E9
:105240003091EB0031603093EB007093EC002093D1
:10525000ED005093F0002091EE0027FDE5CF80E0B7
:1052600008958F708093E90081E008952091A50250
:105270003091A6022617370748F06115710539F4F9
:105280002091E8002E772093E80001C0B901FC01CD
:1052900020E06115710579F180919D028823F1F17B
:1052A0008530F1F18091E80083FD3CC08091E800F9
:1052B00082FD2EC08091E80080FFEBCF2091F300AB
:1052C0008091F20090E0922B6115710551F08830C9
:1052D000910538F421912093F100615071090196F4
:1052E000F3CF21E0089709F020E08091E8008E7765
:1052F0008093E800CECF2111CFCF0AC080919D02CC
:10530000882361F0853061F08091E80083FD0AC058
:105310008091E80082FFF2CF80E0089582E0089556
:1053200083E0089581E0089562E070E086E191E015
:105330000C94722A62E070E086E191E00C947B2A82
:105340000E94640A882361F08EEE92E00E944E0A69
:1053500081E090E00E94542B892B11F40C94610A97
:1053600008958091ED02883039F460E08EEE92E08D
:105370000E94D9111092ED020895CF93DF93D62F9A
:10538000C72F0E94A02980E090E00E94542B892B17
:1053900011F5ED2FFC2F80E090E0DC01A951BD4F0D
:1053A0002C912193019684309105B9F78BEE92E010
:1053B0000E940F270E94C819DC01CB010296A11D93
:1053C000B11D8093E3029093E402A093E502B093B1
:1053D000E60281E001C080E0DF91CF910895CF9394
:1053E000DF93D62FC72F0E94B1296091E3027091FD
:1053F000E4028091E5029091E6020E94E319ED2F0C
:10540000FC2F80E090E02191DC01A951BD4F2C934D
:10541000019684309105B9F78BEE92E0DF91CF9140
:105420000C945F278EE14B9B02C08150E1F74B9BB0
:10543000FECF08955B9880E28A95F1F75B9A089514
:10544000FC012AE02A95F1F790E020E080E031E0CD
:10545000261779F040E14A95F1F7880F4B9B02C07F
:105460008160932700C0000040E14A95F1F72F5F6B
:10547000EFCF20E12A95F1F729B100C0000030E11B
:105480003A95F1F723FB222720F992272081920FEA
:1054900090830895EF92FF920F931F93CF93DF9322
:1054A0001F92CDB7DEB719828C017C01E60EF11C8C
:1054B0000E151F0559F00E94122A68E0CE010196D0
:1054C0000E94202AF80181938F01F2CF81E0998117
:1054D000911180E00F90DF91CF911F910F91FF907C
:1054E000EF9008959093F8028093F7026093F6028C
:1054F000539A5B9A08959093F8028093F702609311
:10550000F60253985B9AEB9AE9E6F0E080818F739C
:1055100080830895615091E001C0990F6A95EAF780
:1055200020E031E0992361F0492F482319F05B9A7C
:10553000232701C05B9840E24A95F1F79695F2CF98
:10554000222311F05B9A01C05B9880E28A95F1F703
:105550005B980895FF920F931F93CF93DF93EC0115
:105560008C01060F111DC017D10741F0F9900E9460
:105570001A2A68E08F2D0E948A2AF5CFDF91CF91F9
:105580001F910F91FF9008951F920F920FB60F92E7
:1055900011240F931F932F933F934F935F936F9318
:1055A0007F938F939F93AF93BF93EF93FF93CF938B
:1055B000DF931F92CDB7DEB719820E94122A67E0EF
:1055C000CE0101960E94202A382F369536953695C1
:1055D000932F96959570232F2570920F292F237066
:1055E000969596958770920F891348C0898181118D
:1055F00045C08091F602831708F440C080E18A9587
:10560000F1F75B9A539AA2E0AA95F1F700C00091D6
:10561000F7021091F802B8E03B9F000D111D112414
:105620005B98F8016581662321F0868197810E944D
:10563000AA2A0E941A2AF0E1FA95F1F75B9853988A
:105640005B9A80E18A95F1F7D80112966C911297D6
:10565000662369F013968D919C9114970E944A2AB3
:10566000D801ED91FC91811105C082E004C0D80100
:10567000ED91FC9188E080830E94122A0F90DF91C7
:10568000CF91FF91EF91BF91AF919F918F917F91BA
:105690006F915F914F913F912F911F910F910F90BB
:1056A0000FBE0F901F9018950F931F93CF93DF930A
:1056B0002091F60230E0281739070CF471C09C01E4
:1056C00093E0220F331F9A95E1F7C091F702D09132
:1056D000F802C20FD31FF894539A5B9845E04A959D
:1056E000F1F70000982F969595708570890F982F87
:1056F000937086958695890F8901082B0E941A2A36
:1057000084E08A95F1F700C067E0802F0E948A2A22
:1057100040E14A95F1F753985B9A4B9902C000C05B
:10572000FCCF87E090E04B9B0EC0019751F4539A59
:105730005B9AE881F98181E08083789481E090E050
:1057400031C000C0F0CF6D81662381F08E819F81D2
:105750000E944A2A81110AC0539A5B9AE881F98112
:1057600082E08083789482E090E01CC00E94122A3C
:1057700080E28A95F1F75B98539A40E14A95F1F7F8
:105780006A81662321F08B819C810E94AA2A0E9453
:105790001A2AE881F9811082789480E090E002C0B2
:1057A00084E090E0DF91CF911F910F910895F999D6
:1057B000FECF92BD81BDF89A992780B50895A6E1E4
:1057C000B0E044E050E00C94112CA8E1B0E042E0DD
:1057D00050E00C94112C262FF999FECF92BD81BD7B
:1057E000F89A019700B4021639F01FBA20BD0FB61F
:1057F000F894FA9AF99A0FBE08950396272F0E94FB
:10580000EC2B0E94EB2B252F0E94EC2B242F0C94C9
:10581000EC2B0196272F0E94EC2B0C94EB2BDC0138
:10582000CB01FC01F999FECF06C0F2BDE1BDF89AAB
:10583000319600B40D9241505040B8F70895AA1B1C
:10584000BB1B51E107C0AA1FBB1FA617B70710F06B
:10585000A61BB70B881F991F5A95A9F7809590959D
:10586000BC01CD01089597FB072E16F4009407D0D4
:1058700077FD09D00E941F2C07FC05D03EF49095BF
:1058800081959F4F0895709561957F4F0895A1E28E
:105890001A2EAA1BBB1BFD010DC0AA1FBB1FEE1FAA
:1058A000FF1FA217B307E407F50720F0A21BB30BF5
:1058B000E40BF50B661F771F881F991F1A9469F771
:1058C00060957095809590959B01AC01BD01CF01CD
:1058D0000895EE0FFF1F0590F491E02D09946927BC
:1058E0009627692778278727782708950E947E2C96
:1058F000332312F48A1B9B0B0C948F2CA29FB001B4
:10590000B39FC001A39F700D811D1124911DB29FF3
:10591000700D811D1124911D08950E947E2CB7FFEA
:105920000895821B930B08950E947E2CA59F900DD5
:10593000B49F900DA49F800D911D11240895B7FF71
:105940000C94942C0E94942C821B930B0895FC01C0
:105950004150504030F001900616D1F73197CF01F9
:105960000895882799270895AEE0B0E0EAEBFCE2BD
:105970000C94832F0D891E898F89988D26E02C83A6
:105980001A83098397FF02C080E090E801979E8305
:105990008D83AE01455E5F4F698D7A8DCE01019694
:1059A0000E94E42C4D815E8157FD0AC02F8138850D
:1059B000421753070CF49A01F801E20FF31F10820B
:1059C0002E96E4E00C949F2FABE0B0E0EAEEFCE210
:1059D0000C94752F6C017B018A01FC0117821682E1
:1059E000838181FFCCC1CE0101963C01F6019381F8
:1059F000F70193FD859193FF81917F01882309F43D
:105A0000BAC1853239F493FD859193FF81917F016D
:105A1000853229F4B60190E00E94DB2EE7CF912C6D
:105A2000212C312CFFE1F315D8F08B3279F038F4CA
:105A3000803279F08332A1F4232D20611DC08D3294
:105A400061F0803369F4232D216016C0832D8260BC
:105A5000382EE32DE4603E2E2AC0F32DF8601DC0E1
:105A600037FC2DC020ED280F2A3040F08E32B9F4DB
:105A700036FC81C1232D2064322E19C036FE06C0AB
:105A80008AE0989E200D1124922E11C0EAE02E9EED
:105A9000200D1124222EF32DF0623F2E08C08C36EB
:105AA00021F4832D8068382E02C0883641F4F70136
:105AB00093FD859193FF81917F018111B3CF982F41
:105AC0009F7D9554933028F40C5F1F4F9FE399837B
:105AD0000DC0833631F0833771F0833509F059C03A
