:100000000C94B3030C94FA030C94FA030C94FA03C3
:100010000C94A62D0C94FA030C94FA030C94FA0396
:100020000C94FA030C94FA030C94191D0C94551CAF
:100030000C94D3250C94FA030C94FA030C94FA0351
:100040000C94FA030C94FA030C94FA030C94FA033C
:100050000C94FA030C9486250C94FA030C94FA037E
:100060000C94FA030C94FA030C94FA030C94FA031C
:100070000C94FA030C94FA030C94FA030C94FA030C
:100080000C94FA030C94FA030C94FA030C94FA03FC
:100090000C94FA030C94FA030C94FA030C94FA03EC
:1000A0000C94FA030C94FA030C94FA03AF08AF080B
:1000B000E208E208550973097F0A7F0A7E09F209FE
:1000C000030A030A83108610A410B110B810D810C8
:1000D000DB100F113111D411D4113C113E1142111A
:1000E00068118B118E119111B411671A8E1A371C79
:1000F0008E1A371CDA1AFD1A371CF21B021CF31F6A
:10010000F31F06200620FC1F062006200620F31FF2
:10011000F31F01200620062001200000000000003F
:1001200000000000000000000000000000000000CF
:1001300000000000000000000000000000007E0F32
:1001400000D4FFFFFFC7000000780000000000009F
:1001500000002A2B28000000000000000000000022
:10016000000000000029000000002C1E3420212285
:1001700024342627252E362D3738271E1F202122EE
:10018000232425263333362E37381F040506070867
:10019000090A0B0C0D0E0F10111213141516171857
:1001A000191A1B1C1D2F3130232D35040506070895
:1001B000090A0B0C0D0E0F10111213141516171837
:1001C000191A1B1C1D2F3130354C00047F3F1F6452
:1001D0003214643214783C1E1E140A05050109020B
:1001E000A10185020901A1000509190129081500CD
:1001F0002501950875018102050109300931158134
:10020000257F95027508810609381581257F95019E
:1002100075088106050C0A38021581257F95017540
:10022000088106C0C005010980A101850319012AC2
:10023000B700150126B700950175108100C0050CA7
:100240000901A101850419012AA002150126A002B5
:10025000950175108100C00660FF0961A101096266
:10026000150026FF009520750881020963150026F8
:10027000FF00952075089102C005010906A101053E
:100280000719E029E71500250195087501810295F8
:1002900001750881010507190029FF150026FF00D7
:1002A0009506750881000508190129059505750150
:1002B0009102950175039101C009025B00030100E1
:1002C000A0FA090400000103010100092111010045
:1002D000012240000705810308000A090401000209
:1002E00003000000092111010001222200070582FC
:1002F0000320000107050303200001090402000197
:1003000003000000092111010001227B0007058480
:100310000320000A120100020000000801BB1200C5
:100320000100010200011C036500720067006F00FC
:1003300074006F006E00690063005F0066003200A9
:10034000340000001603680061006E006100630065
:10035000680069002D0061007000000004030904BA
:100360002223252628292A2C2D2F303233353638C2
:100370003A3B3D3E4042434547494A4C4E5051531B
:100380005557595A5C5E6062646668696B6D6F713F
:10039000737577797B7D7F81838587898A8C8E9041
:1003A000929496989A9C9E9FA1A3A5A7A8AAACAE4A
:1003B000AFB1B3B4B6B8B9BBBCBEBFC1C2C3C5C68A
:1003C000C7C9CACBCCCDCED0D1D2D2D3D4D5D6D733
:1003D000D7D8D9D9DADADBDBDBDCDCDCDCDCDDDD71
:1003E000DDDDDCDCDCDCDCDBDBDBDADAD9D9D8D761
:1003F000D7D6D5D4D3D2D2D1D0CECDCCCBCAC9C703
:10040000C6C5C3C2C1BFBEBCBBB9B8B6B4B3B1AF39
:10041000AEACAAA8A7A5A3A19F9E9C9A98969492D9
:10042000908E8C8A89878583817F7D7B79777573B0
:10043000716F6D6B6968666462605E5C5A5957558E
:100440005351504E4C4A4947454342403E3D3B3A4A
:100450003836353332302F2D2C2A292826252322D1
:10046000290014001A0008001500170007000900F1
:100470002B0004001600070009000A000800000015
:10048000E1001D001B000600190005004C000000E3
:10049000E2000400050050004F002C00E0000000C6
:1004A0000A001C0018000C00120013002F000C00A2
:1004B0000B000B000D000E000F0033003400000095
:1004C000E30011001000360037003800380000004B
:1004D0002A002800510052000D000E0028000000E4
:1004E000290014001A000800150017000700090071
:1004F0002B0004001600070009000A000800000095
:10050000E1001D001B000600190005004C00000062
:10051000E3000400050050004F002C00E000000044
:100520000A001C0018000C00120013002F000C0021
:100530000B000B000D000E000F0033003400000014
:10054000E3001100100036003700380038000000CA
:100550002A002800510052000D000E002800000063
:10056000290014001A0008001500170007000900F0
:100570002B0004001600070009000A000800000014
:10058000E1001D001B000600190005004C000000E2
:10059000E3000400050050004F002C00E0000000C4
:1005A0000A001C0018000C00120013002F000C00A1
:1005B0000B000B000D000E000F0033003400000094
:1005C000E30011001000360037003800380000004A
:1005D0002A002800510052000D000E0028000000E3
:1005E000290014001A000800150017000700090070
:1005F0002B0004001600070009000A000800000094
:10060000E1001D001B000600190005004C00000061
:10061000E3000400050050004F002C00E000000043
:100620000A001C0018000C00120013002F000C0020
:100630000B000B000D000E000F0033003400000013
:10064000E3001100100036003700380038000000C9
:100650002A002800510052000D000E002800000062
:100660000001010101010101010102020202020275
:100670000202020303030303030303040404040448
:10068000040405050505050606060606070707070F
:100690000708080808090909090A0A0A0B0B0B0CC4
:1006A0000C0C0D0D0D0E0E0E0F0F0F101011111161
:1006B00012121313141415151616171718181919E2
:1006C0001A1A1B1B1C1D1D1E1E1F20202122222347
:1006D0002424252626272829292A2B2C2D2D2E2F88
:1006E00030313232333435363738393A3B3C3D3E9F
:1006F0003F404142434445464748494A4C4D4E4F8E
:1007000050515354555658595A5B5D5E5F6162644F
:10071000656668696B6C6D6F7072737577787A7BDC
:100720007D7E8082838587888A8C8E8F9193959633
:10073000989A9C9EA0A2A3A5A7A9ABADAFB1B3B553
:10074000B7BABCBEC0C2C4C6C9CBCDCFD1D4D6D82F
:10075000DBDDDFE2E4E7E9EBEEF0F3F5F8FAFDFFCD
:10076000FFAA7F55400011241FBECFEFDAE0DEBFA5
:10077000CDBF04B603FE27C080914F039091500374
:10078000A0915103B09152038730904BA740B04BDA
:10079000D1F410924F031092500310925103109213
:1007A000520314BE84B7877F84BF0FB6F894A89510
:1007B00080916000886180936000109260000FBE9D
:1007C000E0E0F8E3099512E0A0E0B1E0E8E6F0E649
:1007D00002C005900D92AA30B107D9F723E0AAE034
:1007E000B2E001C01D92AF34B207E1F70E94A20B44
:1007F0000C9432300C9400001F93CF93DF93CDB74D
:10080000DEB767970FB6F894DEBF0FBECDBF4B8B38
:100810005C8B6D8B7E8B8F8B61111092E60286E074
:100820009E01235F3F4FD901E82F1D92EA95E9F71A
:1008300095E0FE017396D90101900D929A95E1F72A
:100840009C894E895F897B897D879E876F87598BBD
:10085000488BF901DE01179601900D928A95E1F718
:10086000CE0107960E940A2081113EC086E0FE015B
:100870003796DE01119601900D928A95E1F7FF817E
:10088000E8856A857B856115710531F0EF3F31F4AC
:1008900081E0FF3F19F403C081E001C080E080FDEA
:1008A00023C02091B20230E0C901019687709927D8
:1008B0004091E30250E08417950779F1F983EA83C8
:1008C0007D836C8396E0929FD001939FB00D11249D
:1008D000AD54BD4FFE01319601900D929A95E1F70E
:1008E0008093B2020E942C1F16E08091E302909147
:1008F000B2028917F9F0189FC00111248D549D4F41
:100900000E940A208823B1F08091E30290E00196D2
:10091000877099278093E302E8CF0E945B221092B0
:10092000B2021092E302ECEAF2E086E0DF011D92EF
:100930008A95E9F767960FB6F894DEBF0FBECDBF74
:10094000DF91CF911F9108950F931F93CF93DF9362
:10095000CDB7DEB72A970FB6F894DEBF0FBECDBF76
:1009600024E0829FC0011124FC01E60FF11DEE0F6F
:10097000FF1FE35AFE4F108101810E831F8381E028
:1009800088870E94C7258160782F9A8789874E8142
:100990005F8168858A850E94FC0309831A831B8214
:1009A0000E94C7258160782F9D838C8349815A815D
:1009B0006B818D810E94FC0380E02A960FB6F8942B
:1009C000DEBF0FBECDBFDF91CF911F910F91089574
:1009D0003F924F925F926F927F928F929F92AF92CF
:1009E000BF92CF92DF92EF92FF920F931F93CF931C
:1009F000DF93CDB7DEB729970FB6F894DEBF0FBEF1
:100A0000CDBFFC018081918123813481232B31F082
:100A10009F3F31F491E08F3F19F403C091E001C092
:100A200090E090FD77C67F0185E0DE011196019090
:100A30000D928A95E1F7F701228189819A8122231B
:100A400049F00E94A21F182F682F89819A810E9465
:100A5000D72103C00E94AB21182F69817A81812F91
:100A60000E945A278C01F7018281882309F4F2C081
:100A7000980122513F452031310508F01DC18FEF0B
:100A800093E00E94252F8111EFC0025137E2832E9F
:100A900032E0932E002379F08114F4E09F0609F4EC
:100AA000E3C0C4010E94252F811101C001502FEF26
:100AB000821A920AEFCF1E821F821886198644245A
:100AC00043942AE0322E84010F5F1F4FC4010E941D
:100AD000252F8E831F82882309F4C6C09FEF980FAD
:100AE000933060F48F834E8232E0830E911CC801F4
:100AF0000E94252F8887811102C0B6C048018E014F
:100B00000A5F1F4FF80120812223E9F2213009F00A
:100B10004CC08181813049F46801F2E0CF0ED11CD4
:100B2000F80182810E9477220AC0823051F4680164
:100B3000F2E0CF0ED11CF80182810E945F2C860169
:100B400086C0833049F46801F2E0CF0ED11CF80171
:100B500082810E94FF2BF3CF843019F00F5F1F4F6B
:100B600076C0F80122810E5F1F4F80E090E030E0F8
:100B7000205331092A30310568F4389EA001399E8E
:100B8000500D1124C901840F951F0F5F1F4FF801ED
:100B90002081EDCF009709F45AC0EFE9FFE03197CB
:100BA000F1F700C000000197F5CFE22FF0E0E65B1F
:100BB000FE4F5490822F86958695869590E0FC0195
:100BC000E65CFE4F64902770712C022E02C0759473
:100BD00067940A94E2F7F1E06F227724FC01E65D66
:100BE000FE4FA490B12C022E02C0B594A7940A9493
:100BF000E2F731E0A322BB24FC01E65EFE4FC49085
:100C0000D12C02C0D594C7942A95E2F781E0C8227E
:100C1000DD246114710419F081EE0E945F2CA1148F
:100C2000B10419F086EE0E945F2C852D0E94772278
:100C3000AB2819F086EE0E94FF2B672819F081EE91
:100C40000E94FF2BCD2819F08CE20E9477220F5FC3
:100C50001F4F58CF00313FE5130709F085C481E0ED
:100C60000E9406220E9474198091E402877009F4A0
:100C700051C5F7018281882309F44CC58091120285
:100C800082FD48C582E029960FB6F894DEBF0FBEFC
:100C9000CDBFDF91CF911F910F91FF90EF90DF902B
:100CA000CF90BF90AF909F908F907F906F905F900C
:100CB0004F903F900C9412220031FFE51F0711F472
:100CC00081E005C001312FE5120721F482E00E9486
:100CD0004C22C8CF033FFCE51F0749F406E221EE92
:100CE00040EE63EF7CE5C7010E945F26BDCF043F65
:100CF0002CE5120708F050C1083D3CE5130731F41C
:100D000007E225EE45EE68ED7CE5EDCF093D9CE57B
:100D1000190731F408E221E045EE69ED7CE5E3CF07
:100D2000073DECE51E0731F406E221EE41EE67EDEA
:100D30007CE5D9CF882309F464C1109233030330D2
:100D40009DE5190758F40A3FECE51E0760F4C80159
:100D500082509C45449708F03EC105C00136FDE530
:100D60001F0709F038C10E944F1E90931202809312
:100D7000110200312CE5120709F4CAC008F041C085
:100D800008308CE5180709F4A4C0F0F40430ECE551
:100D90001E0709F48CC068F402302CE5120709F430
:100DA00082C003301C4509F0E7C0809111028260C7
:100DB000E1C006308CE5180709F483C008F085C04F
:100DC000809111028860D6C00C30ECE51E0709F452
:100DD00090C068F40A302CE5120709F47EC008F0D0
:100DE00084C00E945B22809111028068C3C00E30D3
:100DF0008CE5180709F481C008F086C080911102C3
:100E000094C00C3FECE51E0709F47BC038F50431B3
:100E10002CE5120709F49AC058F402318CE5180742
:100E200009F47AC008F07EC0809111028F7BA2C0C5
:100E30000A3FECE51E07F1F108F03FC005311C4503
:100E400009F09AC08091110282FB222720F991E0DB
:100E5000922790FB82F990FB83F98CC001153DE548
:100E6000130709F467C050F4809112020E3F9CE50D
:100E70001907C1F108F05BC08D7F65C00230FDE548
:100E80001F0709F471C008F46DC001361D4509F053
:100E900073C08091110284FB222720F991E09227F0
:100EA00090FB84F967C080911102816063C08091DA
:100EB000110216C08091120216C080911202826047
:100EC00042C080911102806155C080911102806200
:100ED00051C08091110280644DC0809111028860E0
:100EE000846048C0826081602EC0809111028E7F34
:100EF00041C0809111028D7F3DC080911102877F9A
:100F000039C08091120214C0809111028F7E32C0CC
:100F1000809111028F7D2EC00E945B228091110270
:100F20008F7728C080911102877F8B7F23C08D7FB0
:100F30008E7F09C080911202982F909591708E7FBC
:100F4000892B90FB81F98093120216C00E945B22CC
:100F50008091110287FB222720F991E0922790FBD4
:100F600087F908C061E001C060E08EE090E00E9477
:100F7000392F02C080931102609111021091120268
:100F800084E090E00E94392F612F82E290E00E947D
:100F9000392F0E945B2268CE053FFCE51F0731F424
:100FA00006E221EE42EE65EF7CE59DCE053F2CE5A5
:100FB000120730F407E225EE44EE64EF7CE593CEB1
:100FC000063F3CE5130709F0B5CE07E225EE46EEF5
:100FD00066EF7CE588CE06318CE5180721F5809117
:100FE000E7028A7A91E009F490E090930C0288235A
:100FF00011F065E301C069E28CE892E00E940926E5
:101000000FC00631ECE51E0709F040C080910C02CC
:10101000882309F4B0C265E38CE892E00E94FC25C5
:101020000E94E21E21CE0A35FDE51F0749F158F462
:1010300001153CE51307B1F00E3D1C4509F042C017
:101040000E946B1E11CE0B359DE51907D9F00C35AA
:101050001D45C1F58091120282FB882780F991E03D
:10106000892711C00E945B22FFEF24E33CE0F1508E
:1010700020403040E1F700C000000E946225F4CD1E
:1010800081E001C080E00E942F221CC08091E70215
:1010900082720C3C9CE5190709F41CC308F09DC240
:1010A000063CFCE51F0709F401C308F074C2033CC9
:1010B0003CE5130709F4F0C208F05FC2023C1C458E
:1010C00009F4C0C2F701828100811181882349F0AF
:1010D000C8010E94A21FD82E682FC8010E94D721E4
:1010E00004C0C8010E94AB21D82EB8018D2D0E94EA
:1010F0005A270E94C714B82E192F982EF701028183
:10110000A580A2949FE0A9228091E4028770B9F0A3
:101110000023A9F0812F807F803421F080E28B0DA5
:10112000883068F08091120282FD09C082E00E943E
:1011300012228091E4028770DD24D3948111D12C96
:10114000C12EC2948FE0C8228C2D90E08C30910586
:1011500008F0D5C1FC01EA5AFF4F0C94C52F812F2E
:10116000807F1F70882311F01295107F0023B9F043
:10117000112309F4B2C180E28B0D883010F0911078
:1011800006C08091E702182B1093E70205C08091FA
:10119000E602182B1093E6020E94E21E9EC18B2DE0
:1011A0000E94FF2B112309F4AAC180E28B0D883025
:1011B00080F1992071F110958091E6021823109327
:1011C000E6022AC0812F807F1F70803211F01295B5
:1011D000107F8B2D992021F0F1E09F16D9F149C0A5
:1011E0008091120282FF1BC0002369F0112339F0A5
:1011F0008091E702182B1093E7020E94E21E80E024
:101200000E945F2C7CC180E00E94FF2B112309F417
:1012100076C1812F0E94DB1E0E94E21E70C1002356
:1012200081F08091E802AA2051F021E0A21207C0CB
:10123000182B181709F463C11093E80260C1812BC1
:1012400010C0AA2021F031E0A31609F458C10E9471
:10125000D51E27C0002341F085E08A1508F44FC150
:10126000812F0E946D224BC194E09A1508F447C16A
:1012700018C0002349F0AA2099F3F701858180FF67
:101280002CC18F708583ECCFAA2059F0893309F0E7
:1012900033C1FFEF27EE33E0F15020403040E1F75B
:1012A00029C1812F0E9466222AC1812F86958695A9
:1012B000837019F0813061F022C1002321F08B2D61
:1012C000912F937002C080E090E00E9439261DC1EA
:1012D000002321F08B2D912F937002C080E090E0CD
:1012E0000E94232612C18B2D002319F00E943A2B55
:1012F00002C00E94812A0E94572A07C1812F837051
:10130000A9F5011100C14B2D429546954770440F38
:10131000440F8B2D8F7090E09C01042E01C0220F92
:101320000A94EAF7B4FE08C08FE090E001C0880F8D
:101330004A95EAF7809501C080E0169516951370DE
:10134000123069F088F49091E902113019F0822B83
:10135000892302C0922B892B0E945722D4C0822B52
:101360009091E9028927F8CF822BF6CF002319F05C
:10137000812F817001C08695882309F4C4C04B2D4C
:10138000429546954770440F440F8B2D8F7090E027
:101390009C01042E01C0220F0A94EAF7B4FE08C093
:1013A0008FE090E001C0880F4A95EAF7809501C070
:1013B00080E0169516951370123059F078F49091DC
:1013C0008B02113019F0822B892309C0922B892BB3
:1013D00006C0822B90918B02892701C0822B0E942C
:1013E000022291C01F70002339F0812F0E944C22ED
:1013F0008B2D0E946D2287C08B2D0E946622812F2B
:101400000E94062280C08B2D92EF991679F19915D2
:1014100038F0E0EF9E1659F0F1EF9F1611F159C028
:1014200023EF921651F134EF9316B9F052C0002316
:1014300079F084E08A1508F462C01F7181E090E0C1
:1014400001C0880F1A95EAF790918B0289271FC077
:1014500095E09A1508F453C0F0CF8091120282FFF4
:1014600019C0002329F0812F8F7126C00023D9F3E2
:10147000812F8F710E94062242C0002339F01F7114
:1014800081E001C0880F1A95EAF701C080E00E9450
:10149000022235C0002399F01F71812F0E944C2237
:1014A0008091120282FD07C0E8E01E9FC001112456
:1014B00083608093E402812F0E944C2220C081E04F
:1014C0000E941222F1E0FA15D0F482E00E9412226A
:1014D00016C0002321F0AA2031F28B2D91CEAA2034
:1014E00039F2893349F42FEF37EE83E02150304051
:1014F0008040E1F700C000008B2D0E94FF2B88EF99
:101500008C0D843010F40E944F26DD2009F402C1B6
:101510008091E40280FDFEC0F701128285958595D9
:1015200085950E944C22C7010E94E8048091E40244
:1015300085958595859529960FB6F894DEBF0FBEE3
:10154000CDBFDF91CF911F910F91FF90EF90DF9072
:10155000CF90BF90AF909F908F907F906F905F9053
:101560004F903F900C94062201319FE5190709F036
:10157000B1CB82E075CB69E24FCD043CFCE51F079F
:1015800009F48FC0053C1C4509F09CCD45E45AE2A6
:101590006EE47AE2A3C0093C3CE5130709F490C06D
:1015A00070F4073CECE51E0709F485C0083C1C45B7
:1015B00009F088CD49E35AE26DE27AE28FC00A3C35
:1015C0002CE5120709F481C00B3C1C4509F07ACDCB
:1015D0004AE858E26BE978E281C0013D8CE51807E2
:1015E00009F488C098F40E3CECE51E0709F47CC0B1
:1015F00008F477C00F3C2CE5120709F478C0003DD1
:101600001C4509F05FCD6EE089E07CC0043D8CE5AF
:10161000180709F475C060F4023DECE51E0709F4F3
:101620006CC0033D1C4509F04DCD61E088E16FC001
:10163000053D2CE5120709F468C00D351D4509F478
:1016400013CB40CD80912C0380FF20C08E7F8093F0
:101650002C0360912C0370912D0380912E039091A7
:101660002F030E9478280E94DC278091F20281607B
:101670008093F2028FEF90E7E2E081509040E040EB
:10168000E1F700C000000E94FE27EECA816080934F
:101690002C0361E086953BC04CEE5BE265EF7BE29C
:1016A0001DC045EF5BE26CEE7BE218C04EE45AE2EF
:1016B00065E47AE213C04DE25AE269E37AE20EC0D1
:1016C00045E15AE261E27AE209C041E25AE265E1AB
:1016D0007AE204C04BE958E26AE878E20E94D62731
:1016E000C3CA61E081E013C065E082E00BC068E03E
:1016F00086E008C064E18FE005C067E185E102C0D3
:1017000062E289E10E94C427AFCA61E083E20E94DD
:10171000AC2BAACA29960FB6F894DEBF0FBECDBF78
:10172000DF91CF911F910F91FF90EF90DF90CF90BD
:10173000BF90AF909F908F907F906F905F904F90F1
:101740003F900895CF93DF93CDB7DEB7AE970FB636
:10175000F894DEBF0FBECDBF84B7877F84BF0FB6BE
:10176000F894A89580916000886180936000109241
:1017700060000FBE90E080E80FB6F894809361009F
:10178000909361000FBE85B7806885BF85B780687C
:1017900085BF87E292E190930B0280930A020E9438
:1017A000991C0E94B81C8091E20084608093E20042
:1017B0007894809181028823A1F01091E9001F7034
:1017C0009091EC00892F817090FD80E8182B109289
:1017D000E9008091E80083FD0E947F191F7010933B
:1017E000E90082E084BD93E095BD9AEF97BD8093B8
:1017F0006E0010920D0210920E0210920F021092C3
:1018000010020E94AB27811102C00E949C270E94F7
:101810000F148093000180910001882321F0109221
:10182000580189E003C089E08093580180935901F1
:101830000E940F1481110E94602D809100018091FF
:101840000001882311F090E001C094E090931C0205
:1018500084E0891B80931B020DE711E071E8E72EFD
:1018600071E0F72ED8018D918D018F3F11F00E940C
:10187000A714E016F106B1F705E811E0F80181912F
:101880008F018F3F11F00E94A714F1E00D381F0760
:10189000A9F788E0E7E3F2E0DF01182F1D921A951F
:1018A000E9F7E3E1F2E0DF011D928A95E9F70E9492
:1018B000601E811102C00E946B1E82E090E00E94B7
:1018C000252F80932E020E944F1E90931202809328
:1018D00011020E94CC16EFE3FCE93197F1F700C04A
:1018E00000000E94CC168091370280FF08C06FEF85
:1018F0007FEF80E090E00E94572F0E94622583E0F6
:1019000090E00E94252F0E9457220E940F148111FF
:1019100002C00E94632D80911D02811138C00E9477
:10192000601E811104C00E946B1E0E94AC2888E0DA
:1019300090E00E942D2F60932C0370932D038093D1
:101940002E0390932F038091F20283608093F20222
:101950006E7F71F40E94AC2888E090E00E942D2FE9
:1019600060932C0370932D0380932E0390932F0389
:101970000E9465280E94DC2780912C0380FF04C010
:1019800060E086950E94AC2B81E080931D029DE271
:10199000892E92E0992E4FE951E021EA31E06BE285
:1019A000662E62E0762E61E070E08614970409F4FA
:1019B0004EC0F901A1919F018A2F82958F7090E00E
:1019C000FC01F1A0AF70EA2E8B0101C0000FAA95B7
:1019D000EAF7F02FF095FF22DC019196FC929197A7
:1019E0009296AC91A02BFC01A2A3DA01FD90AD016F
:1019F000EF2DE295EF70F0E0B1A0BF2DBF70FB2E90
:101A00006B0101C0CC0CBA95EAF7DC2CD094DB203A
:101A1000D1A2D2A0CD28C2A2DC0190968C9190E0F8
:101A200002C095958795EA94E2F78170E0A1F0E015
:101A300002C0F595E795FA94E2F7E0FF02C092E064
:101A400001C090E0892BF30181933F01AECF8091DB
:101A50000001882311F090E001C092E090932A02E7
:101A600082E0891B80931E0281E091E0909337030E
:101A70008093360380918102853009F068C0FF248D
:101A8000F39400E112E180918102853009F04AC0AF
:101A900080918102843009F433C00E94DC27809158
:101AA0002002811109C0F092200280912C038170E4
:101AB00080931F020E94952B10923A0328E130E098
:101AC00040E40FB6F894A895209360000FBE4093B1
:101AD000600083B7817F846083BF83B7816083BFE9
:101AE0007894889583B78E7F83BF0FB6F894A895B6
:101AF00080916000886180936000109260000FBE4A
:101B000080918002882309F4BECF0E94CC16E7E3BF
:101B1000F2E08191811172C48FE392E08E179F07EA
:101B2000C1F7B1CF0E945B220E944F261092200283
:101B300080911F02882349F080912C03816080935B
:101B40002C0360E086950E94AC2B0E94E3270E9444
:101B5000CC1681110E94BB25A7E3B2E0BCA7ABA7BE
:101B6000EFE2F2E000E010E0C02EDD9081918D25E3
:101B700049F1E12CFF24F394982F9F21F1F00E946A
:101B80000F14882399F0E9A2CAA2DF2081E009F4AA
:101B900080E08BA30E94C7258160782F9DA38CA332
:101BA00049A15AA16BA18DA10E94FC03F801E15D3E
:101BB000FD4F8081F826F0821AC0E394FF0C28E0E4
:101BC000E212DACF0F5F1F4F0830110569F68FEF71
:101BD0008EA38FA318A60E94C7258160782F9AA78D
:101BE00089A74EA15FA168A58AA50E94FC038091E8
:101BF000F102882309F4B4C08091F002E0912C0333
:101C0000E695E81BE093EC02823059F4F0E0E852EC
:101C1000FE4FE4910E2F10E084E2E82E85E2F82ECC
:101C200050C0863059F4F0E0EB52FE4FE4910E2F95
:101C300010E0B4E1EB2EB5E2FB2E43C0893061F435
:101C4000E695F0E0EE52FE4FE4910E2F10E0A9ED84
:101C5000EA2EA4E2FA2E35C08F3061F4E695F0E06A
:101C6000E153FE4FE4910E2F10E0FDE3EF2EF4E27E
:101C7000FF2E27C0853159F4F0E0E453FE4FE49184
:101C80000E2F10E0E7EBEE2EE3E2FE2E1AC08831B5
:101C900059F0833281F4EAECF1E00591149174EE8D
:101CA000E72E72E2F72E0DC008E210E064E2E62EA5
:101CB00063E2F62E06C000ED17E058E9E52E52E289
:101CC000F52E8091ED02882361F01092ED020E94C2
:101CD000BE149093EB028093EA021092EF021092EE
:101CE000EE020E94BE14E091EA02F091EB029C0128
:101CF0002E1B3F0B2F3F3F4798F5209123022223B5
:101D0000B1F0109223022091210230912202821B15
:101D1000930B8F3F9F4758F4205D3A48309322023F
:101D2000209321028091F20288608093F202C09099
:101D3000EE02D090EF020E0F1F1F1093EB020093E4
:101D4000EA028AEE92E0F70109958091EE02909105
:101D5000EF02892B29F4CD2819F081E0809323022A
:101D600008E212E09DE9492E91E0592E2BE2622E05
:101D700022E0722E3FE9832E31E0932E41EAA42E19
:101D800041E0B42E7EA66DA6D12C212CADA5BEA51A
:101D90008D91BEA7ADA7E82FEE0FEE0FD5012D91C7
:101DA0005D01A22FA295AF70B0E090968C9190E06B
:101DB0002F7002C0959587952A95E2F79C012170B6
:101DC0003327D4018D914D01A82FA295AF70B0E0BB
:101DD00090964C9150E08F7002C0559547958A952A
:101DE000E2F7CA018170992740FF02C082E090E0CB
:101DF000822B932B8E2BF30181933F01D201ED9027
:101E00002D0130902A02320C8F70E82FF0E0E3575A
:101E1000FE4F9081F8018081890F8083F12C082E7C
:101E2000000C990B8E159F056CF0E32DF0E0EC5D36
:101E3000FD4F80818F5F808360E0832D0E94A4042A
:101E400021E001C020E0D8018C91082E000C990BF4
:101E5000442755274E195F094817590764F0E32DA9
:101E6000F0E0EC5DFD4F80818150808361E0832D47
:101E70000E94A40421E0F8018081082E000C990B37
:101E8000B7010E948F2FD8018D938D01D22A239400
:101E9000B2E02B127BCFD1100E94611686E0E9E4FC
:101EA000F3E08E010F5F1F4FD80101900D928A95CC
:101EB000E1F7C0904B03D0904C03E0904D03F090BD
:101EC0004E0310924B0310924C0310924D0310924C
:101ED0004E03C11003C0DD2009F451C080914703B7
:101EE000909148030E94AC259C0190914303992353
:101EF00009F4A3C22333310508F441C09F3F19F010
:101F00009F5F90934303CC2061F00E941A2B1C1416
:101F100014F491E001C09FEF899F802D11248093DC
:101F20004B03DD2061F00E941A2B1D1414F491E084
:101F300001C09FEF899F802D112480934C03309125
:101F40004B033323E1F020914C032223C1F045EBF6
:101F50003403C0011124992319F090934B0303C05B
:101F600081E080934B0335EB2303C00111249923B7
:101F700019F090934C0303C081E080934C03E1106F
:101F800003C0FF2009F451C080914503909146039E
:101F90000E94AC259C0190914203992309F452C2FE
:101FA0002536310508F441C09F3F19F09F5F90939B
:101FB0004203EE2061F00E94F82A1E1414F491E00E
:101FC00001C09FEF899F802D112480934D03FF2036
:101FD00061F00E94F82A1F1414F491E001C09FEFF1
:101FE000899F802D112480934E0330914D0333231C
:101FF000E1F020914E032223C1F045EB3403C001F0
:102000001124992319F090934D0303C081E080932C
:102010004D0335EB2303C0011124992319F090934C
:102020004E0303C081E080934E0380914B038111E6
:102030000BC080914C03811107C080914D03811129
:1020400003C080914E0381110E94572ACB82DC820B
:10205000ED82FE8286E0F801A9E4B3E001900D92E2
:102060008A95E1F70E944F2690912D02891721F061
:102070000E944F2680932D0280918102843009F0C6
:10208000F9CC83E08093E9008091E80082FFF2CCF4
:102090008091E80085FF21C00E94F01D81111BC0C6
:1020A00080E2E82EF12C680109C08091F100D60190
:1020B0008D936D01B1E0EB1AF10869F08091E800B1
:1020C00085FDF3CF8091E8008B778093E8000E9434
:1020D000F01D882399F391E001C090E08091E80021
:1020E0008B778093E800992309F4C4CCE9818E2F83
:1020F00090E0FC013197E331F10508F055C1EE594C
:10210000FF4F0C94C52F1A8289E0A9C08A818230C2
:1021100009F48AC1833051F0813009F045C10E9431
:10212000BB259B838C837D836E8340C1FE013396E8
:10213000CE010B96ABA5BCA52D91BCA7ABA7219357
:102140008E179F07B9F732C18A81823009F02CC1FE
:102150006B817C818D819E810E94CB2F86E290E0F5
:1021600024C04C816B818A810E9434279D8363C186
:10217000ED80FE80FE24EF24FE248C81CB809A81AA
:10218000B0E1CB9E60011124E0E89E9FC00CD11C01
:102190001124C80ED11CC80ED11C6F2DC601879604
:1021A0000E94392F6E2DC60188960E94392FFEC0DD
:1021B0000E94E226FBC08A818138B1F050F4803859
:1021C00009F0F4C020E04B8160912E0380912D0333
:1021D00023C08238E9F0833809F0E8C020E040915C
:1021E0002F036C818B8118C060E08B810E94AC2B27
:1021F0008B81811103C00E94952BD8C080912C0344
:10220000816080932C0360E086950E94AC2BCEC049
:102210008B8180933003CAC00E947329C7C08A8112
:10222000813899F030F4803809F0C0C080912F03D4
:1022300016C0823891F0833809F0B8C080912D0320
:102240008B8380912E038C83B1C080912C0380FFFF
:1022500002C0869504C080E002C0809130038B8369
:10226000A5C060912C0370912D0380912E03909155
:102270002F030E9478289AC080E151C081E08A83B0
:1022800089EDEDCFEA80FB80FE24EF24FE24AC80B4
:10229000B12C6801C701895D9D4F9601201B310B50
:1022A0002A153B0508F082C0F9EDEF16F1E0FF06B4
:1022B00030F40E94252FD60114968C9302C0F601AB
:1022C0001482FFEFEF1AFF0A2FEFC21AD20AE2CFF1
:1022D000EA80FB80FE24EF24FE24AC80B12C680150
:1022E000C701895D9D4F9601201B310B2A153B05C7
:1022F00008F05CC039EDE31631E0F30628F4D601AE
:1023000014966C910E94392FBFEFEB1AFB0AEFEF86
:10231000CE1ADE0AE5CF0E94D22648C084E08A8326
:1023200045C0EA80FB80FE24EF24FE24AC80B12C63
:102330006801C70187969601201B310B2A153B05C2
:10234000A8F5E114F2E0FF0630F40E94252FD60133
:1023500014968C9302C0F6011482FFEFEF1AFF0A65
:102360002FEFC21AD20AE5CFEA80FB80FE24EF24C9
:10237000FE24AC80B12C6801C70187969601201B12
:10238000310B2A153B0590F4E11432E0F30628F4F2
:10239000D60114966C910E94392FBFEFEB1AFB0AFD
:1023A000EFEFCE1ADE0AE8CF8FEF898380918102AA
:1023B000843009F05FCB8091E9008F702091EC00B0
:1023C000922F917020FD90E8F92EF82A82E08093F8
:1023D000E9008091E80080FF0CC040E050E060E23E
:1023E00070E0C8010E94231E8091E8008E778093E0
:1023F000E8008F2D8F708093E9003CCB09BD19BD9B
:1024000009B400FEFDCF8091D8008F7D8093D80065
:102410008091E00082608093E0008091E00081FD87
:10242000FCCF0E945B222FCB86E290E00E94252FFA
:102430001B821C821D828E83B9CF2D32314008F061
:102440005FCD9DCD2D32314008F0B0CDEECD80E096
:1024500008959091110292FF0DC0282F2871283005
:1024600019F4877F846006C0282F2471243011F46A
:102470008B7F886093FF0DC0282F2871283119F4B5
:10248000877E846106C0282F2471243111F48B7E4D
:1024900088612091120220FF0DC0382F387138302A
:1024A00019F4877F816006C0382F3171313011F403
:1024B0008E7F886021FF0DC0282F2871283119F4E4
:1024C000877E816106C0282F2171213111F48E7E13
:1024D000886194FD877E0895AF92BF92CF92DF927C
:1024E000EF92FF920F931F93CF93DF937C015B01D9
:1024F0006A01809173028A3018F001E010E002C096
:102500000AE010E0C1E0D0E0F894B501C701F6019F
:1025100009957894811115C021960C171D0794F028
:10252000CC9F9001CD9F300D300D112480E090E0C4
:1025300045E34A95F1F70000019682179307C1F72A
:10254000E3CF81E0DF91CF911F910F91FF90EF904A
:10255000DF90CF90BF90AF900895CF93DF93CDB72A
:10256000DEB728970FB6F894DEBF0FBECDBF85E06B
:10257000ECE2F3E0DE01119601900D928A95E1F70D
:102580008091F0029091F102A091F2028E839F83DC
:10259000A887288540916F02509170026091710266
:1025A000709172023FB7F89480913B0390913C0385
:1025B000A0913D03B0913E033FBF841B950BA60B3A
:1025C000B70B84369105A105B10510F4222329F13A
:1025D0008091420190914301855A9D4F4091410164
:1025E00050E04930510510F048E050E0BE016F5F07
:1025F0007F4F0E94293085E090E00E946D2E892B4C
:1026000011F080E00DC00E94BB2560936F027093B3
:10261000700280937102909372021092F20281E034
:1026200028960FB6F894DEBF0FBECDBFDF91CF91D5
:1026300008957F928F929F92AF92BF92CF92DF9236
:10264000EF92FF920F931F93CF93DF931F92CDB71B
:10265000DEB7762E4A0159016801082F880F110B49
:10266000C8010E946D2E892B09F07EC08AE0809FF0
:10267000F001819FF00D1124E35FFE4F458150E092
:102680004115510511F041E050E08AE0809FF001D2
:10269000819FF00D1124E35FFE4F66817781655ABB
:1026A0007D4FCE0101960E942930F4014081518175
:1026B000628173812FB7F89480913B0390913C0322
:1026C000A0913D03B0913E032FBF841B950BA60B39
:1026D000B70B84369105A105B10540F4B701C601D9
:1026E0000E9467279981891709F440C0072D770C4C
:1026F000110BC8010E946D2E892B09F5E114F1041C
:1027000001F18AE0809FF001819FF00D1124E35FC9
:10271000FE4F458150E0E416F50608F4A7018AE073
:10272000809FF001819FF00D1124E35FFE4F6681D1
:102730007781655A7D4FC5010E94293002C010E0A3
:1027400001C011E0B701C6010E94672791E029810D
:10275000281390E0192381F00E94BB25F4016083C7
:1027600071838283938308C010E001C011E0A70148
:10277000B601C5010E942930812F0F90DF91CF91C2
:102780001F910F91FF90EF90DF90CF90BF90AF908F
:102790009F908F907F900895CF92DF92EF92FF925B
:1027A0000F931F93CF93DF9300D000D0CDB7DEB748
:1027B0006B0184E0E82EF12C0CE512E09E012F5F06
:1027C0003F4F4FE452E061E080E00E9419138823FC
:1027D00061F049815A816B817C8140934B02509317
:1027E0004C0260934D0270934E0240914B02509107
:1027F0004C0260914D0270914E02F601408351836C
:10280000628373830F900F900F900F90DF91CF91A1
:102810001F910F91FF90EF90DF90CF9008958091DE
:102820004A02811118C08091D80080618093D8003D
:102830008AE18A95F1F700C08091D90080FD02C03D
:1028400082E001C081E080934A02823021F40E943C
:10285000991C1092810281E090914A02913009F016
:1028600080E008950F931F930E940F14882321F096
:102870001F910F910C94BB250E94BB2500910D0266
:1028800010910E0220910F0230911002600F711F03
:10289000821F931F1F910F910895CF93DF9300D054
:1028A00000D0CDB7DEB740915702509158026091E9
:1028B000590270915A022FB7F89480913B0390917E
:1028C0003C03A0913D03B0913E032FBF841B950BA9
:1028D000A60BB70B84369105A105B10580F10E94C6
:1028E0003214DC01CB010296A11DB11D89839A83AC
:1028F000AB83BC838091380190913901855A9D4FFB
:102900004091370150E04530510510F044E050E06F
:10291000BE016F5F7F4F0E94293084E090E00E94EB
:102920006D2E892B11F080E00BC00E94BB256093B7
:102930005702709358028093590290935A0281E093
:102940000F900F900F900F90DF91CF910895F89412
:10295000E82FE295EF70F0E031A1282F2F7081E091
:1029600090E001C0880F2A95EAF7982F909593235D
:1029700091A392A1892B82A3789408950E940F14A9
:1029800081110C94C7250E943214CB010895CF9376
:10299000DF938238910569F1B0F48133910509F430
:1029A0006FC048F48932910509F465C08A329105F7
:1029B00009F46BC08AC08533910509F457C0893387
:1029C0009105B9F082C0833E910571F138F4803EE3
:1029D0009105B1F0823E910511F177C0863E9105D7
:1029E000B9F1873E9105C9F1843E910509F06DC0AA
:1029F00024C02091110220FD53C021FD51C065C0AB
:102A00008091110280FD46C08091120280FF48C073
:102A10008091110284FD50C183EE90E04FC18091FE
:102A2000110282FF3AC0F4CF8091110282FD35C0BD
:102A30008091120280FD34C0EBCF8091120281FFA1
:102A400035C08091110284FD37C187EE90E036C118
:102A50008091110283FF27C0F4CF8091110283FD82
:102A600022C08091120281FD21C0EBCF8091110222
:102A700085FD1FC021C08091110285FD1DC019C0B8
:102A80008091110286FD1BC01DC08091110286FD40
:102A900019C015C089E390E011C182EE90E00EC12B
:102AA00080EE90E00BC186EE90E008C184EE90E0ED
:102AB00005C189E290E002C185E390E0FFC08AE2AF
:102AC00090E0FCC081E390E0F9C0811531E5930707
:102AD00008F069C0811540E59407F0F09C0174E0AE
:102AE000369527957A95E1F7922F9370482F43708A
:102AF00021E030E002C0220F331F4A95E2F73C6824
:102B0000392B982F9F709695969540E2949FC0011F
:102B10001124822B932BD2C0883E910568F5803E0C
:102B2000910508F0CBC0883A9105B8F4853A910533
:102B300048F0855AE82FF0E0ED55FE4F808190E097
:102B40009064BCC08130910509F4B3C008F4B4C0EE
:102B50008430910508F4B0C0B1C08F3B910508F0F6
:102B6000ABC0885AE82FF0E0EE0FFF1FEA55FE4F8A
:102B7000808191819464A2C0811520E2920758F46B
:102B8000811531E0930708F099C0803F910508F462
:102B900093C0906593C0811540E4940708F48CC0FD
:102BA0009F70906A8BC0811525E5920708F042C09E
:102BB000811534E5930728F0982F8827846F906A51
:102BC0007DC0811543E59407B0F09C012370332745
:102BD00041E050E002C0440F551F2A95E2F7282F2C
:102BE0002695269580E2289F90011124CA01822B08
:102BF000932B9A6863C0811522E5920728F4982FD9
:102C00008827816F906A5AC09C012370332741E066
:102C100050E002C0440F551F2A95E2F7282F269551
:102C2000269580E2289F90011124CA01822B932BC4
:102C30009C6844C0EC01811539E59307A8F481151F
:102C4000984528F09C2F8827806F906A37C0C1155F
:102C500086E5D80788F58C2F0E9429128F7190E0A5
:102C6000982F882790622AC081152AE5920790F450
:102C70008C2F8F700E94291294E0D695C7959A9553
:102C8000E1F7CF70D0E0DC2FCC27D0699E01282B54
:102C9000C90114C090568115904270F48D2F8F7128
:102CA0000E942912282F2F71CE0199279062922B12
:102CB00005C081E090E002C080E090E0DF91CF911C
:102CC00008950C94BB259F92AF92BF92CF92DF9252
:102CD000EF92FF920F931F93CF93DF9300D0CDB766
:102CE000DEB782E0E82EF12C01E612E09E012F5FB4
:102CF0003F4F43E552E063E082E00E941913982EB3
:102D00008823D9F1AE014F5F5F4F6A0180E0B12C9B
:102D100000911E020B0DF60111916F01202F30E082
:102D2000A9014C5D5D4F7A01FA019081191BA12E1A
:102D30001A145CF4AA94F70180818F5F808360E0AD
:102D4000802F0E94A40481E0F3CF912F17FD90E023
:102D5000191B112359F01F5FF70180818150808377
:102D600061E0802F0E94A40481E0F3CFB394F2E0ED
:102D7000BF12CECF81110E946116892D0F900F9046
:102D8000DF91CF911F910F91FF90EF90DF90CF9047
:102D9000BF90AF909F9008957F928F929F92AF9235
:102DA000BF92CF92DF92EF92FF920F931F93CF9338
:102DB000DF93CDB7DEB72C970FB6F894DEBF0FBE0A
:102DC000CDBFAE014F5F5F4F7A0188E0DA011D92FF
:102DD0008A95E9F70DE711E06A0181E8A82E81E004
:102DE000B82E88248394912CF80180818F3F09F4B8
:102DF00041C0F894E82FE295EF70F0E021A18F70C8
:102E0000A40102C0440F551F8A95E2F7CA01922F10
:102E1000982B91A392A18095892382A3789400C0D6
:102E2000E5E8F1E0712C31E021912F3F89F0A22FEC
:102E3000A295AF70B0E090968C9190E02F7002C098
:102E4000959587952A95E2F780FD02C0832F01C0F2
:102E500080E0782A330F51E0ED38F50729F7D801E3
:102E60008C918F3F11F00E94A714B0EABA95F1F748
:102E7000F60170820F5F1F4FFFEFCF1ADF0AA01617
:102E8000B10609F0B1CF48E050E0B70183E192E02C
:102E90000E941C308C01892B41F088E0F701A3E1EE
:102EA000B2E001900D928A95E1F7F0901C020115B5
:102EB000110549F081E0809342020E94C72590935A
:102EC000410280934002809142028823B9F08091B0
:102ED0004002909141020E94AC25059778F0A3E151
:102EE000B2E0EF2DF0E0E95CFD4F87E192E02D913B
:102EF00021938A179B07D9F71092420201151105F9
:102F000009F020C10E940F14E0911C02882309F4EB
:102F100081C019861A861B861C860E2F10E0095C5C
:102F20001D4F809173028A3058F44CEC53E1BE017E
:102F3000675F7F4FC8010E946C128823F1F10AC0BD
:102F400080914302909144020E94AC25843F9140BD
:102F500060F744C043E656E1BE01675F7F4FC8019A
:102F60000E946C12882349F14DE454E1BE01675F71
:102F70007F4FC8010E946C128823F9F04DEA52E19C
:102F8000BE01675F7F4FC8010E946C128823A9F0C1
:102F90001092730280911B0290E044E050E0BE0169
:102FA000675F7F4F895C9D4F0E941C3021E020931A
:102FB0004902892B01F500E0C7C0809173028F3F61
:102FC00019F08F5F80937302809173028A3010F33F
:102FD0000E94C72590934402809343028091490246
:102FE000882349F3FE01399684E0DF011D928A951A
:102FF000E9F710924902E0911B02F0E0E95CFD4F15
:1030000089859A85AB85BC8580839183A283B383B0
:1030100001E09AC0F0E0E95CFD4FF89484E0ACE593
:10302000B2E001900D928A95E1F764E070E08CE5E2
:1030300092E00E94672780935B027894F894E09175
:103040002A02F0E0EC5DFD4F808191819A878987AB
:10305000909362028093610262E070E0CE01099673
:103060000E946727809360027894F894C09063026E
:10307000D0906402E0906502F09066028091450273
:1030800090914602A0914702B0914802C816D90615
:10309000EA06FB06D1F0C0924502D0924602E092C9
:1030A0004702F09248020E940F1481110EC00E9444
:1030B000BB25C61AD70AE80AF90AC0920D02D092B7
:1030C0000E02E0920F02F09210027894F894809130
:1030D0006E028823A9F180FF10C08091670280FFF3
:1030E0000AC090912C03916090932C0360E0869528
:1030F0000E94AC2B02C00E94952B80916E0281FF32
:1031000009C020E040916A026091690280916802E2
:103110000E94732980916E0282FF09C080916D0226
:10312000882319F00E94E32702C00E94DC278091C7
:103130006E0283FF03C081E08093ED0210926E0265
:10314000789402C001E010E0802F2C960FB6F8941E
:10315000DEBF0FBECDBFDF91CF911F910F91FF90CA
:10316000EF90DF90CF90BF90AF909F908F907F9027
:1031700008958091830287FF11C08091E80082FD4D
:1031800005C0809181028111F8CF11C08091E800C3
:103190008B770BC080918102882349F08091E800F1
:1031A00080FFF8CF8091E8008E778093E800089543
:1031B000982F973068F59093E900981739F070913F
:1031C000EC002091ED005091F00003C0242F762FE9
:1031D00050E021FD02C09F5FECCF3091EB003E7FBD
:1031E0003093EB003091ED003D7F3093ED00309156
:1031F000EB0031603093EB007093EC002093ED0016
:103200005093F0002091EE0027FDE5CF80E0089577
:103210008F708093E90081E00895209189023091B8
:103220008A022617370748F06115710539F4209195
:10323000E8002E772093E80001C0B901FC0120E0EE
:103240006115710579F1809181028823F1F1853052
:10325000F1F18091E80083FD3CC08091E80082FD9F
:103260002EC08091E80080FFEBCF2091F300809189
:10327000F20090E0922B6115710551F088309105B4
:1032800038F421912093F100615071090196F3CF38
:1032900021E0089709F020E08091E8008E77809384
:1032A000E800CECF2111CFCF0AC0809181028823C0
:1032B00061F0853061F08091E80083FD0AC0809163
:1032C000E80082FFF2CF80E0089582E0089583E075
:1032D000089581E008950895BC0184E00C94382598
:1032E000BC0183E00C94382580918B02982F967056
:1032F000963011F4886001C0877F0C9402221F93DE
:10330000CF93DF93CDB7DEB7AA970FB6F894DEBFA1
:103310000FBECDBFE3E8F2E08BE892E02091F10030
:1033200021938E179F07D1F780918402833009F48F
:1033300063C030F4813071F0823009F49DC0B4C0B4
:103340008A3009F489C08B3009F46EC0893009F0E5
:10335000ABC020C080918302813A09F0A5C0809162
:10336000E800877F8093E80080918702909188022F
:10337000892B21F468E087E792E003C060E080E0F9
:1033800090E070E00E940D198091E8008B778093A7
:10339000E8008AC080918302813209F085C0809163
:1033A000870290918802009719F0029709F07CC07B
:1033B0008091E800877F8093E8008091E80082FD9B
:1033C00005C0809181028111F8CF6EC02091F30079
:1033D0008091F20090E0922B029731F48091F100FD
:1033E000813011F0863021F48091F10080937602D3
:1033F0008091E8008B7754C080918302813A09F074
:1034000053C08091870290918802892B09F04CC0AB
:103410008091E800877F8093E8008091E80080FF3A
:10342000FCCF8091490137C0809183028132E1F560
:103430008091870290918802892BB1F58091E800F4
:10344000877F8093E8000E94B9188091850280935D
:1034500049010E945B2228C080918302813221F5BC
:103460008091E800877F8093E8000E94B9188091DE
:1034700086028093750218C080918302813AA1F47C
:103480008091E800877F8093E8008091E80080FFCA
:10349000FCCF809175028093F1008091E8008E77D7
:1034A0008093E8000E94B9188091E80083FFDFC193
:1034B0008091830290918402492F50E04A30510557
:1034C00008F0D5C1FA01EB58FF4F0C94C52F803896
:1034D00021F0823809F0CBC108C080917F02909121
:1034E0008002992389F082600FC0809187028F70DB
:1034F000873008F0BCC18093E9008091EB0085FB28
:10350000882780F91092E9009091E800977F9093C6
:10351000E8008093F1001092F10070C1282F2D7FF8
:1035200009F0A5C1882319F0823061F0A0C1809113
:103530008502813009F09BC1933009F080E08093CF
:1035400080022EC08091850281112AC0809187025D
:103550008F702FEF280F263008F089C18093E90083
:103560002091EB0020FF1CC0933021F48091EB00F0
:10357000806214C09091EB0090619093EB0021E089
:1035800030E0A90102C0440F551F8A95E2F740932D
:10359000EA001092EA008091EB0088608093EB00D3
:1035A0001092E9008091E800877F8093E8000E94F4
:1035B000B9185DC181115BC1109185021F7780919F
:1035C000E3008078812B8093E3008091E800877F7F
:1035D0008093E8000E94B9188091E80080FFFCCF3A
:1035E0008091E30080688093E300111102C082E0C3
:1035F00001C083E0809381023AC18058823008F094
:1036000036C120918502309186022C3D53E035076A
:1036100079F583E08A838AE289834FB7F894DE01E3
:10362000139620E03EE051E2E32FF0E05093570084
:10363000E49120FF03C0E295EF703F5FEF708E2FA3
:1036400090E0EA3010F0C79601C0C0968D939D932C
:103650002F5F243149F74FBF8091E800877F809327
:10366000E8006AE270E0CE0101960E940D19B4C034
:103670008091870290918802432F5527433051054E
:10368000A9F068F44130510509F400C142305105F8
:1036900009F0EDC08BE590E0E9EBF2E04BC0413280
:1036A000510529F14232510589F1E1C0C90199273B
:1036B00081309105A1F058F0029709F0D8C0E6E2F8
:1036C000F3E0E4918E2F90E0E6E2F3E030C0ECE529
:1036D000F3E0E4918E2F90E0ECE5F3E028C0E4E421
:1036E000F3E0E4918E2F90E0E4E4F3E020C0833037
:1036F000910508F0BCC0880F991FFC01E152FE4FF4
:103700000190F081E02D89E090E014C083309105B4
:1037100008F0ADC0FC01EE0FFF1FE752FE4F019015
:10372000F081E02DDC01AA52BE4F8C9190E0009711
:1037300009F49DC02091E800277F2093E8002091A4
:10374000890230918A022817390708F4C90140E03C
:10375000009789F120918102222309F43DC0253090
:10376000D9F12091E80023FD37C02091E80022FD27
:103770002FC02091E80020FFEBCF4091F300209173
:10378000F20030E0342B009759F02830310540F436
:1037900044914093F100319601972F5F3F4FF3CF53
:1037A00041E02830310509F040E02091E8002E7713
:1037B0002093E800CDCF4111CDCF0AC08091810286
:1037C000882351F0853041F08091E80083FD04C0EA
:1037D0008091E80082FFF2CF8091E8008B778093A0
:1037E000E80045C0803809F042C08091E800877F3A
:1037F0008093E800809182028093F1008091E8003C
:103800008E77D3CE811133C080918502909186024C
:103810009927029764F58091E800877F8093E800FC
:1038200010918502109382020E94B918111106C0EE
:103830008091E30087FD02C081E001C084E08093B5
:10384000810242E061EC81E00E94D81842E261EC22
:1038500084E00E94D81842E261EC82E00E94D8180D
:1038600042E260EC83E00E94D8188091810280914E
:10387000E80083FF10C08091E800877F8093E80014
:103880008091EB0080628093EB0005C082E190E0C4
:10389000E4E1F3E04FCFAA960FB6F894DEBF0FBE77
:1038A000CDBFDF91CF911F9108951F920F920FB658
:1038B0000F9211242F933F934F935F936F937F93B6
:1038C0008F939F93AF93BF93CF93DF93EF93FF9328
:1038D000C091E900CF708091EC00D82FD17080FDAD
:1038E000D0E81092E9008091F000877F8093F0008B
:1038F00078940E947F191092E9008091F00088600E
:103900008093F000CD2BCF70C093E900FF91EF9131
:10391000DF91CF91BF91AF919F918F917F916F91E7
:103920005F914F913F912F910F900FBE0F901F907D
:103930001895E8EDF0E080818E7F80831092E200A0
:103940001092DA001092E100A0EEB0E08C9181605C
:103950008C9380818F77808319BCA7EDB0E08C9128
:103960008E7F8C9380818F7E808310927402089565
:10397000CF92DF92EF92FF920F931F93CF93DF933B
:10398000C8EDD0E088818F7E8883E7EDF0E080810C
:103990008160808384E082BF81E0809374028881AB
:1039A0008E7F888302EE10E0F80110821092DA0018
:1039B00081EEC82ED12CF601108288818F77888302
:1039C00088818068888388818F7D888319BC109264
:1039D0008102109282021092800210927F0290EE79
:1039E000E92EF12CF70180818B7F808388818160B3
:1039F000888342E060E080E00E94D818F601808170
:103A00008E7F8083F80180818160808380818860DF
:103A10008083F70180818E7F8083888180618883A5
:103A2000DF91CF911F910F91FF90EF90DF90CF909A
:103A300008951F920F920FB60F9211242F933F9368
:103A40004F935F936F937F938F939F93AF93BF93A6
:103A5000EF93FF938091E10082FF09C08091E20023
:103A600082FF05C08091E1008B7F8093E10080910F
:103A7000DA0080FF2AC08091D80080FF26C08091A4
:103A8000DA008E7F8093DA008091D90080FF18C021
:103A900080E189BD82E189BD09B400FEFDCF81E0EE
:103AA000809381028091740281110FC00E94991C41
:103AB0000E94B81C8091E20084608093E20005C0FF
:103AC00019BC10928102109274028091E10080FF73
:103AD00017C08091E20080FF13C08091E2008E7FCA
:103AE0008093E2008091E20080618093E200809107
:103AF000D80080628093D80019BC85E08093810251
:103B00008091E10084FF30C08091E20084FF2CC0EE
:103B100080E189BD82E189BD09B400FEFDCF8091BD
:103B2000D8008F7D8093D8008091E1008F7E8093B4
:103B3000E1008091E2008F7E8093E2008091E200BC
:103B400081608093E20080918202882311F084E0FA
:103B500007C08091E30087FD02C081E001C083E0DF
:103B600080938102809181028091E10083FF27C0D0
:103B70008091E20083FF23C08091E100877F8093E2
:103B8000E10082E080938102109282028091E10044
:103B90008E7F8093E1008091E2008E7F8093E2002F
:103BA0008091E20080618093E20042E060E080E08A
:103BB0000E94D8188091F00088608093F000FF91F7
:103BC000EF91BF91AF919F918F917F916F915F9195
:103BD0004F913F912F910F900FBE0F901F9018950E
:103BE0002091E4003091E50095E64091EC00842FAF
:103BF000817040FF23C08091E80080FD1DC080914E
:103C00008102882399F0853099F08091EB0085FD41
:103C100011C04091E4005091E5002417350729F3C5
:103C2000915011F09A01E1CF84E0089582E0089567
:103C300083E0089581E0089580E008954091E800D0
:103C400042FFDDCF0895EF92FF920F931F93CF9322
:103C5000DF937C018B010E94F01D811119C0E701E7
:103C600001151105A1F08091E80085FD0AC0809141
:103C7000E8008E778093E8000E94F01D882381F38E
:103C800007C089918093F10001501109E9CF80E0CC
:103C9000DF91CF911F910F91FF90EF900895CF93F7
:103CA00084E090E00E94252FC82F82E290E00E94DD
:103CB000252F2C2F30E0A901582BCA01CF91089550
:103CC00080E090E00E94332F893E9E4F11F40C94C7
:103CD000AB2780E0089569EE7EEF80E090E00E94DF
:103CE000572F60E082E090E00E94392F60E083E08F
:103CF00090E00E94392F1092E90260E084E090E0A9
:103D00000E94392F60E082E290E00E94392F60E04B
:103D100085E090E00E94392F60E086E090E00E940C
:103D2000392F6FEF87E090E00E94392F40E050E09C
:103D3000BA0188E090E00E944B2F60E08DE090E0B7
:103D40000E94392F40E050E0BA0188E190E00E94E3
:103D50004B2F60E087E190E00E94392F40E050E077
:103D6000BA018CE190E00E944B2F60E070E080E2AD
:103D700090E00E94572F40E050E0BA0188E190E0C7
:103D80000E944B2F80E00E947E270E949C2740E0EB
:103D900050E0BA018FE090E00E944B2F40E050E0ED
:103DA000BA0183E190E00C944B2F8091E8028111DD
:103DB0001092E802089580959091E70289238093FC
:103DC000E70208959091E7028091E602892B209105
:103DD000E502982F922B90938C028091E802882321
:103DE00089F0892B80938C02EEE8F2E097E080E086
:103DF000915029F021912223D9F38F5FF9CF8111BE
:103E00000E94D51EE0913603F0913703309731F0D0
:103E10000280F381E02D8CE892E00994089580E01F
:103E200090E00E94392680E090E00E9423261092C4
:103E3000E6021092E5020E94E21EE9E4F3E086E069
:103E4000DF011D928A95E9F7109243031092420315
:103E5000109244030C94572A8091E3029091B2028D
:103E6000891719F08F5F8770FBCF08950F931F9309
:103E7000CF93DF938091B10282958F7009F05DC07E
:103E80008091AE02882309F458C08091E30210911A
:103E9000B2026091AC027091AD02C091AF02D091BC
:103EA000B00291E06F3F09F090E0292F06E0811702
:103EB00009F443C0209721F07F3F21F030E003C098
:103EC00031E001C0322F90E030FD34C0089FF00196
:103ED000099FF00D1124DF01AD54BD4F11963C91A7
:103EE0001197371327C03C91361324C012963C918A
:103EF000129731111FC013964D915C9114974C1B72
:103F00005D0B483C5105B0F48091B1028F70806127
:103F10008093B102E854FD4F80818F70806180836F
:103F20008CEA92E00E94E804DF91CF911F910F91FB
:103F30000C942C1F01968770BACFDF91CF911F91FF
:103F40000F910895CF92DF92FF920F931F93CF931B
:103F5000DF936C0100918B028091E902082BC7E08E
:103F6000D0E010E0C8010C2E02C0959587950A9408
:103F7000E2F780FD04C02197A8F7F12C09C0FC2EC0
:103F8000B6018C2F0E945A270E94C714019799F3FB
:103F90008F2DDF91CF911F910F91FF90DF90CF90E8
:103FA0000895CF93DF93EC010E94A21FBE010E94EF
:103FB0005A270E94C714DF91CF910895FC01808198
:103FC00091810E94D11F292F2F70E92FE295EF7068
:103FD0004E2F50E0FA013297EE30F105B8F4E15877
:103FE000FF4F0C94C52F803F99F018F4883E70F471
:103FF0000FC0843F59F40CC0883E50F0813F31F42B
:1040000007C0822F869586958695089580E008954D
:1040100081E008959F92AF92BF92CF92DF92EF928C
:10402000FF920F931F93CF93DF93CDB7DEB76197C6
:104030000FB6F894DEBF0FBECDBF8C0185E0F8014E
:10404000DE011D9601900D928A95E1F7F801E2805C
:104050009091AC026091AD024091AF025091B002DC
:104060004115510531F06F3F31F481E09F3F19F464
:1040700003C081E001C080E0F82FF1709F2E80FD29
:104080001AC1F80130812181C380D4808CEAA82E26
:1040900082E0B82EF090AE02F601E41BF50BFF2093
:1040A00009F4C6C08091B102E83CF10508F091C066
:1040B000482F407F09F050C0621311C093130FC006
:1040C000FE2CE1100CC08F7080618093B102C5019D
:1040D0000E94E8048091B102F801858329C1CD28AE
:1040E00031F02F3F31F481E03F3F19F403C081E00C
:1040F00001C080E080FD03C081E08E2502C080E029
:1041000090E0F82FF170FF2E80FF1CC08091E30239
:104110004091B20256E0841709F4E8C090E0589F3D
:10412000F001599FF00D1124ED54FD4F61812613CC
:1041300006C06081631303C06281E61203C001966A
:104140008770E9CFFE2CEE2009F4F2C08091B10215
:1041500081608093B10249C0621306C0931304C00A
:10416000E11002C0F80186C0C8010E94DE1F88234A
:1041700051F1EE2041F12091B102822F82958F7092
:1041800090E0029774F08091AC029091AD02988714
:104190008F831986DB86CA862C87CE0107960E94FC
:1041A000E80486E0F801ACEAB2E001900D928A954D
:1041B000E1F70E94361F0AC06217C9F0C8010E94C9
:1041C000DE1F81111EC0C8010E94E804FF24F39481
:1041D000AFC0482F407F81F78CEA92E00E94E8044C
:1041E00086E0F50111928A95E9F7F12CA1C09313AD
:1041F000E5CFE110E3CFF8018583C8010E94E80410
:1042000054C0EE2001F32091B102822F82958F706D
:1042100090E0029734F28091AC029091AD029A83C3
:1042200089831B82DD82CC822E83CE010196B7CF9B
:10423000E83CF105D0F5FE2CEE2029F2621327C0F0
:10424000931325C02091B10220FD18C0822F8295C2
:104250008F70482F50E04115510581F0F8012583FA
:104260004F30510541F08F5F982F9295907F822FAC
:104270008F70892B8583C8010E94E80486E0F801CD
:10428000ACEAB2E001900D928A95E1F751C0C80105
:104290000E94DE1F811185CF8091B10281608093E1
:1042A000B102C8010E94E80443C086E0F501119202
:1042B0008A95E9F73DC0EE2009F485CFC8010E9438
:1042C000DE1FF82E882309F47ECF86E0F801ACEAE1
:1042D000B2E001900D928A95E1F78091AC02909145
:1042E000AD020E94D11F0E94361F22C03D872E873B
:1042F0008D859E850E94D11F292F22952F702230F7
:1043000028F49F7039F0811105C00BC0243028F4C7
:104310009F7049F4805E883020F0C8010E94E80454
:104320009F2CF92C05C0F8019581907F99F7F9CF62
:104330008F2D61960FB6F894DEBF0FBECDBFDF9113
:10434000CF911F910F91FF90EF90DF90CF90BF9092
:10435000AF909F90089528E0929F800D1124682FC0
:10436000669566956695982F977083E0689FB00173
:10437000112440E050E080E0FB01E40FF51FEC5613
:10438000FD4F208130E0092E02C0369527950A9412
:10439000E2F721703327042E01C0220F0A94EAF7B6
:1043A000822B4F5F5F4F4330510531F7089528E06E
:1043B000929F800D1124E82FE695E695E69587708B
:1043C00051E001C0550F8A95EAF783E0E89FF001BC
:1043D0001124EC56FD4F20E030E070E04081CB012D
:1043E000022E02C0969587950A94E2F78170819516
:1043F00084278523842781932F5F3F4F2330310506
:1044000069F7089580938B020C940F1F21E030E030
:1044100001C0220F8A95EAF7209580918B028223B2
:104420000C9402222091E402809582238093E4027E
:10443000982F977099F430E0482F082E000C550BF8
:104440002417350759F09091120292FD07C0859507
:10445000859585950E9406221092E4020895CF93D7
:10446000C0911202C2FB992790F9981799F080FB2E
:10447000C2F9C09312026091110284E090E00E94A0
:10448000392F6C2F82E290E00E94392F82E0CF9189
:104490000C941222CF91089521E030E001C0220F48
:1044A0008A95EAF780918B02822B0C9402228093EA
:1044B000E9020C940F1F1092E70286E0EEE8F2E0AA
:1044C000DF011D928A95E9F70C940F1F882321F0D4
:1044D0000E94DB1E0C94E21E0895882339F090910F
:1044E000E702892B8093E7020C94E21E08951F9344
:1044F000CF93DF93182F893319F0C0E0D0E002C0CA
:10450000C0E5D0E0812F0E945F2C209741F08FE919
:104510009FE00197F1F700C000002197F6CF812FAF
:10452000DF91CF911F910C94FF2B8091760208951B
:10453000089524E02093E9002FEF3091E800215006
:1045400035FD06C035ED3A95F1F700002111F5CFA4
:104550002091E80025FF0BC040E050E066E070E0ED
:104560000E94231E8091E8008E778093E8000895D2
:10457000CF93DF9321E02093E9002FEF3091E80003
:10458000215035FD06C035ED3A95F1F700002111B7
:10459000F5CF2091E80025FF14C0EC0140E050E089
:1045A00068E070E00E94231E8091E8008E7780937F
:1045B000E80088E0FE01A7E7B2E001900D928A953D
:1045C000E1F7DF91CF9108950F931F93CF93DF937E
:1045D00000D01F92CDB7DEB78C0180912B038111E3
:1045E0000AC09E012F5F3F4F4FEF6FEF0E94C3281D
:1045F0008A8180932B03F8018481813051F028F067
:10460000823061F440912B030AC080912B0340E07B
:1046100007C060912B0340E080E003C040E080E0F1
:1046200060E00E944A28F801848190E0019663E0EE
:1046300070E00E948F2F84830F900F900F90DF9176
:10464000CF911F910F9108958F929F92AF92BF9239
:10465000CF92DF92EF92FF920F931F93CF93DF934E
:104660008C01FC014481C42FD0E09E01DE010E9438
:10467000DA2F9B01AC010E94F02F6B017C01E0E27C
:10468000F0E0EC1BFD0BA5E5B0E09B01AC010E9446
:10469000F02F4B015C019F01DF010E94D22F9B0193
:1046A000AC010E94FB2F9B01AC012C0D3D1D4E1D4A
:1046B0005F1DC501B4010E94A32FC22FD22F2A3241
:1046C00028F4F3E02F9F900111240DC025E530E080
:1046D0002C1B3109C901880F991F280F391F37FF7B
:1046E00002C02F5F3F4F35952795C22FC095F12C03
:1046F00085E5E82EED1A80915C01F816C8F4F1FC0E
:1047000002C08E2D01C08D2F90915A012F2D30E0C7
:10471000290F311DA901440F551F240F351F2B50A0
:104720003D4F4C2F60912E030E94C328F394E3CF9A
:104730000E94FE27F8018481811102C091E003C02C
:10474000803219F49FEF9093570190915701890F90
:10475000F8018483DF91CF911F910F91FF90EF902B
:10476000DF90CF90BF90AF909F908F9008951F9350
:10477000CF93DF93EC018C81811109C081E08C83A0
:104780001092F40292E0909356018093550180912B
:104790005A0190915B01891770F4E82FF0E09F01B6
:1047A000220F331FE20FF31FEB50FD4F11821082D7
:1047B00012828F5FF0CF10E060915C011617C0F598
:1047C000E12FF0E070E0CF010E948F2F20915A017D
:1047D000820F2091F402022E000C330B90E0E217BE
:1047E000F307CCF020915601022E000C330B2E174C
:1047F0003F078CF09C01220F331F820F931F9C01F7
:104800002B503D4F40912F0360912E0380912D033B
:104810000E94C3280BC0FC01EE0FFF1F8E0F9F1FCD
:10482000FC01EB50FD4F1182108212821F5FC4CF3A
:104830000E94FE27809155012091F402280F2093B9
:10484000F40290915601980F9093560119165CF45A
:10485000022E000C330B40915C0150E04150510995
:104860002417350734F0819580935501813009F480
:104870001C82DF91CF911F9108957F928F929F921A
:10488000AF92BF92CF92DF92EF92FF920F931F935E
:10489000CF93DF93EC018A8180FF03C0BB24BA94DD
:1048A00002C0BB24B3948C8181110DC081E0B81289
:1048B00006C080915C0181508093F30202C0109287
:1048C000F30281E08C83A12C42E1842E90905C0164
:1048D000A91408F041C080915A01CA2CD12C86013C
:1048E000080F111DC801880F991F080F191F0B50C1
:1048F0001D4FF80111821082128234E0E32EF12C58
:10490000712C8091F302870D83312CF0682D0E9469
:104910006D2F892F02C087FD890D082E000C990B81
:10492000C816D90691F480912F038E9DA0018F9D0A
:10493000500D1124559547955595479598016091CF
:104940002E0380912D030E94C3287B0CF1E0EF1A07
:10495000F108B9F6A394BACF0E94FE278091F30222
:1049600091E0B9120EC0811107C080915C018150A5
:104970008093F3021C820FC081508093F302BC82AB
:104980000AC090E0019660915C0170E00E948F2F58
:104990008093F3028C83DF91CF911F910F91FF9051
:1049A000EF90DF90CF90BF90AF909F908F907F90CF
:1049B0000895FF920F931F93CF93DF93EC01F12C97
:1049C0000FEF10E060915C01F616F0F480915A014F
:1049D0002F2D30E0280F311DC901880F991F280F96
:1049E000391F2B503D4F70E0C8010E948F2F962F2A
:1049F0008C8140912F0360912E03F99E800D11242C
:104A00000E94C328F394DECF0E94FE279A818C81F6
:104A100090FF02C08F5F01C081508C83DF91CF91E6
:104A20001F910F91FF900895CF93DF93EC01ECE27B
:104A3000F3E0438162818C810E9459298C818F5FD0
:104A40008C83DF91CF910895CF93DF93EC01EC81BC
:104A5000F0E0E05AFC4F4491ECE2F3E062818181A6
:104A60000E9459298C818F5F8C83DF91CF910895AB
:104A700080933F03709341036093400380918102D0
:104A80008430F9F48093E9008FEF9091E800815031
:104A900095FD06C095ED9A95F1F700008111F5CFCF
:104AA0008091E80085FF0DC040E050E063E070E0D9
:104AB0008FE393E00E94231E8091E8008E7780931D
:104AC000E800089581E08093E00080E28093D800C0
:104AD0001092C9008FE19EE40197F1F700C0000039
:104AE00087E090EBDC0180934F0390935003A093F9
:104AF0005103B09352039CE088E10FB6F894A89557
:104B0000809360000FBE90936000FFCF78941F9257
:104B10000F920FB60F9211248F939F93AF93BF9371
:104B200080913B0390913C03A0913D03B0913E03E3
:104B30000196A11DB11D80933B0390933C03A0936C
:104B40003D03B0933E03BF91AF919F918F910F9022
:104B50000FBE0F901F9018959C014FB7F89480914D
:104B60003B0390913C03A0913D03B0913E034FBFA6
:104B7000821B930B08952FB7F89460913B037091BB
:104B80003C0380913D0390913E032FBF08952FB7C2
:104B9000F89480913B0390913C03A0913D03B09128
:104BA0003E032FBF08951F920F920FB60F9211244C
:104BB0008F939F93AF93BF9380913A03811113C05A
:104BC00080913B0390913C03A0913D03B0913E0343
:104BD0004196A11DB11D80933B0390933C03A0938C
:104BE0003D03B0933E03BF91AF919F918F910F9082
:104BF0000FBE0F901F9018959C012A5F3F4FFC013C
:104C00004281461301C01282019682179307B9F7B9
:104C100008959C01FC0132969FEF80E04191461778
:104C200089F09F3F19F4411101C0982F8F5F8630A2
:104C3000A9F79F3F39F0F901E90FF11D97FDFA95AA
:104C4000628308950895209138033091390328171D
:104C5000390771F09093390380933803E09136035C
:104C6000F0913703309721F00084F185E02D09940D
:104C7000089520913403309135032817390771F0D6
:104C80009093350380933403E0913603F09137031A
:104C9000309721F00680F781E02D099408950E9455
:104CA0000F14882351F0E0913603F09137033097C9
:104CB00021F00190F081E02D099480E008950F9398
:104CC0001F93CF93DF93C42FD22FFC0182818823BF
:104CD000C9F0409333030E94C72590933203809319
:104CE000310380E28C0F883008F057C0C77081E034
:104CF00001C0880FCA95EAF7DF91CF911F910F91FC
:104D00000C946D2280913303481330C0809131039D
:104D1000909132030E94AC25883C910538F510E251
:104D20001D0FCD17B9F080E28C0F883040F4C770AA
:104D300081E001C0880FCA95EAF70E946622183008
:104D400028F581E09D2F977001C0880F9A95EAF7AA
:104D50000E946D22802F0E9477221830F0F4D770C5
:104D600081E001C0880FDA95EAF70AC080E28C0F73
:104D7000883098F4C77081E001C0880FCA95EAF7BF
:104D8000DF91CF911F910F910C946622802FDF91BC
:104D9000CF911F910F910C947722DF91CF911F91AA
:104DA0000F910895CF93DF93C7E2D2E060E0CE0188
:104DB0000E94392F2196C11584E0D807B9F7DF91F9
:104DC000CF9108956F927F928F929F92AF92BF92F0
:104DD000CF92DF92EF92FF920F931F93CF93DF93C7
:104DE000C0E0D0E000E010E03E0187E2680E711CF8
:104DF0006301C00ED11EE12CF12C4E01800E911EDC
:104E0000F401EE0DFF1DE05AFB4FA590B4906B2D01
:104E1000C6010E94392F6A2DC60101960E94392FC2
:104E200082E0E80EF11C82E0C80ED11C80E1E81699
:104E3000F10431F7005F1F4F00381105C9F6C05863
:104E4000DF4FC11582E0D80769F6DF91CF911F913E
:104E50000F91FF90EF90DF90CF90BF90AF909F9019
:104E60008F907F906F9008950F931F93CF93DF9350
:104E7000C42FD0E0CC0FDD1F20E1629FC00DD11DFB
:104E8000112430E8839FC00DD11D1124CE018796D7
:104E90000E94252F082F10E0102F0027CE018896A2
:104EA0000E94252F9801282BC901DF91CF911F91D6
:104EB0000F910895462F843038F4783028F4683004
:104EC00018F4672F0C94342780E090E00895FC01DB
:104ED000680F791F8FEF91E3E617F70771F02191C3
:104EE000822728E030E087FF03C0880F892701C0B0
:104EF000880F21503109B9F7EFCF0895CF93C82F0C
:104F0000811102C06FEF01C062E283E290E00E9473
:104F1000392FC11102C06FEF01C068E084E290E058
:104F20000E94392FC11102C06FEF01C062E285E219
:104F300090E0CF910C94392F80E00E947E2760E0B2
:104F400086E290E00E94392F0E94E2260E94D2263B
:104F500081E00C947E2783E290E00E94252F82322C
:104F600081F484E290E00E94252F883051F485E29C
:104F700090E00E94252F91E0823209F090E0892F85
:104F800001C080E08170089590912C0390FF04C0CF
:104F90009695981740F003C0811105C090E09617D0
:104FA00010F40C94F52B61E00C94AC2B882311F0D9
:104FB000FA0101C0FB010994E0EFF2E01182828165
:104FC00084608283089560912C03669570E04BE0C5
:104FD00050E08AE491E00E940F30892B19F481E0BF
:104FE0008093F1020E94BE149093EB028093EA0238
:104FF0008091F20284608093F20208953091590109
:1050000080912C0380FF16C0E091580163E0E69F79
:10501000F0011124EB50FD4F529A8BB18B7F9BB165
:1050200094602FB7F894AF0163E0369F400D511D97
:10503000112414C080915A0190915B01891720F7C7
:10504000E82FF0E0AF01440F551FE40FF51FEB50C0
:10505000FD4F1182108212828F5FF0CFE417F507A7
:1050600089F0319168E09BB9000000C037FF8BB92F
:10507000330F000000C000C000C08BB900C06A95AB
:1050800091F7ECCF2FBF8FE594E00197F1F700C0C7
:105090000000089590912C0390FF16C090915A0142
:1050A00020915B01921770F4E92FF0E0DF01AA0F65
:1050B000BB1FEA0FFB1FEB50FD4F818360834283D0
:1050C0009F5FF0CF0C94FE27089580912C03282F2A
:1050D000269530E02115310519F48170826005C0F4
:1050E0002432310524F08170866480932C03089566
:1050F000CF92DF92EF92FF926B017C010E946528B4
:10510000B701A60188E090E0FF90EF90DF90CF908C
:105110000C944B2F80913003882319F08150809399
:10512000300360912C0370912D0380912E03909198
:105130002F030C94782880913003833018F48F5F0C
:105140008093300360912C0370912D0380912E0386
:1051500090912F030C947828ECE2F3E083E08083B5
:1051600011828FEF828383831482A0EFB2E01296C4
:105170008C911297836012968C93608171818281E9
:1051800093810C947828AF92BF92CF92DF92EF92E6
:10519000FF920F931F93CF93DF93E82EF62EE90132
:1051A000E42FF0E0611106C0E05AF94FE4914E2F70
:1051B0002E2F71C0062F10E0E05AF94F4491F42FC2
:1051C000C42ED12C26E0829FC00111242FEF30E0A5
:1051D000B9010E947B2F5BEA5603C001579F900DD7
:1051E00011248E0D911D8E0D911D582F550F580FA6
:1051F000D901A01BB10BAC9DC001AD9D900DBC9D14
:10520000900D1124E92FF59ED0011124AB2FBB275F
:105210007901EA1AFB0AEC9CD001ED9CB00DFC9CD4
:10522000B00D11245901A51AB108A09E7001A19ECC
:10523000F00CB09EF00C1124EF2CFF242E193F0926
:105240002C9D80012D9D100D3C9D100D1124212FB2
:105250006230710591F048F461157105E1F061303B
:105260007105B9F4242F4B2F16C06430710569F015
:1052700040F06630710579F00CC0242F492FE12FE2
:105280000AC0492FEF2F2B2F06C0292FE42F412FC3
:1052900002C0292FEB2F49832883EA83DF91CF9126
:1052A0001F910F91FF90EF90DF90CF90BF90AF9044
:1052B0000895CF93DF9300D01F92CDB7DEB79091C2
:1052C0002C0390FF0AC09E012F5F3F4F0E94C3280E
:1052D0004B8169818A810E944A280F900F900F901C
:1052E000DF91CF910895AF92BF92CF92DF92EF926C
:1052F000FF920F931F93CF93DF9300D01F92CDB7F0
:10530000DEB7182FF62E042FE22E90912C0390FF7B
:105310007EC0E92FE695AE2FB0E0AB51BE4F8C9129
:105320008093F0029E7F923061F49E012F5F3F4F89
:10533000812F0E94C3284B8169818A810E944A285B
:1053400043C0823019F400912F033EC0863019F417
:1053500010912D0339C08930D9F38931A9F5E9516C
:105360008E2F8170D82EE695F0E0E05AF84FA59088
:10537000B490C12CBB2460915C01C61618F52C2D8D
:1053800030E0A29EC001A39E900DB29E900D11240C
:1053900070E00E947B2F812FD11002C0860F01C0C8
:1053A000861B90915A01290F311DA901440F551FE9
:1053B000240F351F2B503D4F402F6F2D0E94C328C7
:1053C000C394D9CF0E94FE2780912D03181308C0E3
:1053D00080912E03F81204C080912F03081729F042
:1053E0008091F20282608093F20210932D03F0927A
:1053F0002E0300932F03EE2051F060912C03709147
:105400002D0380912E0390912F030E9478280F90F6
:105410000F900F90DF91CF911F910F91FF90EF9020
:10542000DF90CF90BF90AF900895ECE2F3E043811E
:1054300028E0421B08F440E021E0628181810C9465
:105440007329ECE2F3E0438128E0420F08F44FEFC8
:1054500021E0628181810C947329ECE2F3E06281A6
:1054600028E0621B08F460E021E0438181810C9414
:105470007329ECE2F3E0628128E0620F08F46FEF39
:1054800021E0438181810C947329ECE2F3E0818176
:1054900021E04381628188500C947329ECE2F3E0AF
:1054A000818121E043816281885F0C9473290E948D
:1054B000C72520914B03211104C020914C032223C6
:1054C00021F0909348038093470320914D032111CD
:1054D00004C020914E03222321F090934603809331
:1054E0004503E0913603F0913703309749F082E0AD
:1054F000809349030480F581E02D89E493E00994C9
:105500000895803F39F490914C0397FF35C0109275
:105510004C0359C0813F29F490914C031916BCF3F8
:105520002BC090914B03823F29F497FF25C0109226
:105530004B0349C0833F19F41916CCF31DC0909159
:105540004D03893F29F41916BCF410924D033BC05A
:105550008A3F19F497FF10C0F8CF8B3F39F4909130
:105560004E0397FF09C010924E032DC08C3F21F4CB
:1055700090914E031916BCF39CE0980F953080F47F
:1055800021E030E0A90102C0440F551F9A95E2F7CF
:10559000CA01809590914A03892380934A0313C0DE
:1055A0008D3F21F4809144038E7F0BC08E3F21F408
:1055B000809144038D7F05C08F3F29F4809144037F
:1055C0008B7F8093440380914B03811106C08091AF
:1055D0004C03811102C01092430380914D0381114D
:1055E00006C080914E03811102C0109242030895BB
:1055F0008091440380FD16C081FD16C082FD18C055
:1056000080914203882391F0883290F428E0829FB1
:10561000C001112468E270E00E948F2F862F672B53
:1056200029F007C082E0089584E0089581E008959C
:1056300088E008958091440380FD14C081FD14C06A
:1056400082FD16C080914303882381F0843180F469
:1056500022E3829FC001112464E170E00E948F2F39
:10566000862F08958CE0089589E1089585E00895D6
:1056700082E30895803F21F40E941A2B819504C093
:10568000813F29F40E941A2B80934C030895823F96
:1056900021F40E941A2B819504C0833F29F40E94B3
:1056A0001A2B80934B030895893F19F40E94F82A1E
:1056B00005C08A3F31F40E94F82A819580934D03FA
:1056C00008958B3F21F40E94F82A819504C08C3FF5
:1056D00029F40E94F82A80934E0308959CE0980FC5
:1056E000953078F421E030E0A90102C0440F551F45
:1056F0009A95E2F7CA0190914A03892B80934A0355
:1057000008958D3F21F48091440381600BC08E3F4A
:1057100021F480914403826005C08F3F29F4809179
:1057200044038460809344030895ECE2F3E08081B5
:105730008E7F80830E94DC27E0EFF2E0828181602F
:1057400082832FEF80E792E0215080409040E1F784
:1057500000C000000C94FE2790912C0390FF3BC0EA
:105760009170811102C0926006C0843210F096647C
:1057700002C0880F982B90932C038091F2028160D5
:105780008093F202662351F060912C0370912D03F7
:1057900080912E0390912F030E94782860912C0312
:1057A000669570E04BE050E08AE491E00E940F3093
:1057B000892B19F00E94DC2702C00E94E32781E0B8
:1057C0008093ED0220E040912F0360912E038091A1
:1057D0002D030C947329089580912C038695815094
:1057E00009F483E261E00C94AC2B80912C03869544
:1057F0008F5F843208F081E061E00C94AC2B882349
:1058000009F45CC0823869F40E944F2681FF56C0BB
:1058100069E38CE892E00E9409260E94E21E69E397
:105820000EC0833891F40E944F2680FF47C063E585
:105830008CE892E00E9409260E94E21E63E58CE853
:1058400092E00E94FC250C94E21E843869F40E94C8
:105850004F2682FF33C067E48CE892E00E9409265D
:105860000E94E21E67E4EBCF9CEF980F913A10F490
:10587000682FE5CF90E2980F983050F4877091E050
:1058800001C0990F8A95EAF7892F0E94DB1EDBCFB2
:105890009BE5980F933020F480E090E00C9439263B
:1058A00098E5980F973120F480E090E00C9423263F
:1058B000803F20F00E94812A0C94572A0895CF93AC
:1058C000882309F49EC0C82F8238B1F40E944F2665
:1058D00081FD97C069E38CE892E00E9409260E944E
:1058E000E21E2FEF81EE94E0215080409040E1F7DE
:1058F00000C0000069E317C08338E1F40E944F261E
:1059000080FD7FC063E58CE892E00E9409260E943A
:10591000E21E2FEF81EE94E0215080409040E1F7AD
:1059200000C0000063E58CE892E00E94FC25CF9166
:105930000C94E21E8438B1F40E944F2682FD61C0AF
:1059400067E48CE892E00E9409260E94E21E2FEF95
:1059500081EE94E0215080409040E1F700C00000CB
:1059600067E4E1CF8CEF8C0F813A80F4EEE8F2E04F
:1059700084E992E02191C217E1F18E179F07D1F7D8
:105980006C2F8CE892E00E940926D1CF80E28C0F28
:10599000883068F4C77081E090E001C0880FCA9534
:1059A000EAF79091E702892B8093E702C0CFEBE5FD
:1059B000EC0FE33040F4F0E0ED55FE4F808190E0D5
:1059C000CF910C943926E8E5EC0FE73150F4F0E084
:1059D000EE0FFF1FEA55FE4F80819181CF910C940D
:1059E0002326C03F70F08C2F0E943A2BCF910C944D
:1059F000572A6C2F8CE892E00E94FC250E94E21E40
:105A0000BFCFCF9108958EE14B9B02C08150E1F74B
:105A10004B9BFECF08955B9880E28A95F1F75B9AE5
:105A20000895FC012AE02A95F1F728E090E080E053
:105A300031E040E14A95F1F7880F4B9B02C081604D
:105A4000932700C0000040E14A95F1F7215089F703
:105A500020E12A95F1F729B100C0000030E13A9524
:105A6000F1F723FB222720F992272081920F9083C0
:105A70000895EF92FF920F931F93CF93DF931F929E
:105A8000CDB7DEB719828C017C01E60EF11C0E1534
:105A90001F0551F00E94032DCE0101960E94112D89
:105AA000F80181938F01F3CF81E09981911180E01A
:105AB0000F90DF91CF911F910F91FF90EF9008957C
:105AC000539A5B9A089553985B9AEB9AE9E6F0E053
:105AD00080818F7380830895615091E001C0990F98
