:100000000C94B3030C94FA030C94FA030C94FA03C3
:100010000C9429300C94FA030C94FA030C94FA0310
:100020000C94FA030C94FA030C945F210C949B201B
:100030000C94D3250C94FA030C94FA030C94FA0351
:100040000C94FA030C94FA030C94FA030C94FA033C
:100050000C94FA030C9486250C94FA030C94FA037E
:100060000C94FA030C94FA030C94FA030C94FA031C
:100070000C94FA030C94FA030C94FA030C94FA030C
:100080000C94FA030C94FA030C94FA030C94FA03FC
:100090000C94FA030C94FA030C94FA030C94FA03EC
:1000A0000C94FA030C94FA030C94FA03DD08E008AC
:1000B000FE080B0912093209350969098B092E0A54
:1000C0002E0A960998099C09C209E509E809EB0975
:1000D0000E0AA80EA80EDB0EDB0E4B0F690F751073
:1000E0007510740FE80FF90FF90FE819E819FB19EB
:1000F000FB19F119FB19FB19FB19E819E819F61995
:10010000FB19FB19F619AD1ED41E7D20D41E7D20CF
:10011000201F431F7D203820482000047F3F1F649C
:100120003214643214783C1E1E140A0505010902BB
:10013000A10185020901A10005091901290815007D
:1001400025019508750181020501093009311581E4
:10015000257F95027508810609381581257F95014F
:1001600075088106050C0A38021581257F950175F1
:10017000088106C0C005010980A101850319012A73
:10018000B700150126B700950175108100C0050C58
:100190000901A101850419012AA002150126A00266
:1001A000950175108100C00660FF0961A101096217
:1001B000150026FF009520750881020963150026A9
:1001C000FF00952075089102C005010906A10105EF
:1001D0000719E029E71500250195087501810295A9
:1001E00001750881010507190029FF150026FF0088
:1001F0009506750881000508190129059505750101
:100200009102950175039101C009025B0003010091
:10021000A0FA0904000001030101000921110100F5
:10022000012240000705810308000A0904010002B9
:1002300003000000092111010001222200070582AC
:100240000320000107050303200001090402000147
:1002500003000000092111010001227B0007058431
:100260000320000A120100020000000801BB120076
:100270000100010200011C036500720067006F00AD
:1002800074006F006E00690063005F00660032005A
:10029000340000001603680061006E006100630016
:1002A000680069002D00610070000000040309046B
:1002B0002223252628292A2C2D2F30323335363873
:1002C0003A3B3D3E4042434547494A4C4E505153CC
:1002D0005557595A5C5E6062646668696B6D6F71F0
:1002E000737577797B7D7F81838587898A8C8E90F2
:1002F000929496989A9C9E9FA1A3A5A7A8AAACAEFB
:10030000AFB1B3B4B6B8B9BBBCBEBFC1C2C3C5C63A
:10031000C7C9CACBCCCDCED0D1D2D2D3D4D5D6D7E3
:10032000D7D8D9D9DADADBDBDBDCDCDCDCDCDDDD21
:10033000DDDDDCDCDCDCDCDBDBDBDADAD9D9D8D711
:10034000D7D6D5D4D3D2D2D1D0CECDCCCBCAC9C7B3
:10035000C6C5C3C2C1BFBEBCBBB9B8B6B4B3B1AFEA
:10036000AEACAAA8A7A5A3A19F9E9C9A989694928A
:10037000908E8C8A89878583817F7D7B7977757361
:10038000716F6D6B6968666462605E5C5A5957553F
:100390005351504E4C4A4947454342403E3D3B3AFB
:1003A0003836353332302F2D2C2A29282625232282
:1003B000290014001A0008001500170007000900A2
:1003C0002B0004001600070009000A0008000000C6
:1003D000E1001D001B000600190005004C00000094
:1003E000E2000400050050004F002C00E000000077
:1003F0000A001C0018000C00120013002F000C0053
:100400000B000B000D000E000F0033003400000045
:10041000E3001100100036003700380038000000FB
:100420002A002800510052000D000E002800000094
:10043000290014001A000800150017000700090021
:100440002B0004001600070009000A000800000045
:10045000E1001D001B000600190005004C00000013
:10046000E3000400050050004F002C00E0000000F5
:100470000A001C0018000C00120013002F000C00D2
:100480000B000B000D000E000F00330034000000C5
:10049000E30011001000360037003800380000007B
:1004A0002A002800510052000D000E002800000014
:1004B000290014001A0008001500170007000900A1
:1004C0002B0004001600070009000A0008000000C5
:1004D000E1001D001B000600190005004C00000093
:1004E000E3000400050050004F002C00E000000075
:1004F0000A001C0018000C00120013002F000C0052
:100500000B000B000D000E000F0033003400000044
:10051000E3001100100036003700380038000000FA
:100520002A002800510052000D000E002800000093
:10053000290014001A000800150017000700090020
:100540002B0004001600070009000A000800000044
:10055000E1001D001B000600190005004C00000012
:10056000E3000400050050004F002C00E0000000F4
:100570000A001C0018000C00120013002F000C00D1
:100580000B000B000D000E000F00330034000000C4
:10059000E30011001000360037003800380000007A
:1005A0002A002800510052000D000E002800000013
:1005B0000001010101010101010102020202020226
:1005C00002020203030303030303030404040404F9
:1005D00004040505050505060606060607070707C0
:1005E0000708080808090909090A0A0A0B0B0B0C75
:1005F0000C0C0D0D0D0E0E0E0F0F0F101011111112
:100600001212131314141515161617171818191992
:100610001A1A1B1B1C1D1D1E1E1F202021222223F7
:100620002424252626272829292A2B2C2D2D2E2F38
:1006300030313232333435363738393A3B3C3D3E4F
:100640003F404142434445464748494A4C4D4E4F3E
:1006500050515354555658595A5B5D5E5F61626400
:10066000656668696B6C6D6F7072737577787A7B8D
:100670007D7E8082838587888A8C8E8F91939596E4
:10068000989A9C9EA0A2A3A5A7A9ABADAFB1B3B504
:10069000B7BABCBEC0C2C4C6C9CBCDCFD1D4D6D8E0
:1006A000DBDDDFE2E4E7E9EBEEF0F3F5F8FAFDFF7E
:1006B000FFAA7F554000000000000000000000007D
:1006C000000000000000000000000000000000002A
:1006D0000000000000000000007E0F00D4FFFFFFBC
:1006E000C70000007800000000000000002A2B284E
:1006F00000000000000000000000000000000000FA
:1007000029000000002C1E34202122243426272515
:100710002E362D3738271E1F20212223242526334D
:1007200033362E37381F0405060708090A0B0C0D4F
:100730000E0F101112131415161718191A1B1C1D61
:100740002F3130232D350405060708090A0B0C0D3F
:100750000E0F101112131415161718191A1B1C1D41
:100760002F3130354C0011241FBECFEFDAE0DEBF51
:10077000CDBF04B603FE27C0809181039091820310
:10078000A0918303B09184038730904BA740B04B76
:10079000D1F410928103109282031092830310927D
:1007A000840314BE84B7877F84BF0FB6F894A895DE
:1007B00080916000886180936000109260000FBE9D
:1007C000E0E0F8E3099512E0A0E0B1E0EEE5FBE639
:1007D00002C005900D92A231B107D9F723E0A2E142
:1007E000B2E001C01D92A138B207E1F70E94FC03FC
:1007F0000C94AD350C940000CF93DF93CDB7DEB7EA
:10080000AE970FB6F894DEBF0FBECDBF84B7877F1B
:1008100084BF0FB6F894A89580916000886180939A
:100820006000109260000FBE90E080E80FB6F89470
:1008300080936100909361000FBE85B7806885BF8B
:1008400085B7806885BF8AE891E190931302809311
:1008500012020E94DF200E94FE208091E20084604C
:100860008093E20078948091EB028823A1F01091AC
:10087000E9001F709091EC00892F817090FD80E855
:10088000182B1092E9008091E80083FD0E94C51D9D
:100890001F701093E90082E084BD93E095BD9AEF4C
:1008A00097BD80936E001092140210921502109260
:1008B0001602109217020E948F28811102C00E9416
:1008C00080280E94DB13809300018091000188231F
:1008D00021F01092580189E003C089E0809358010B
:1008E000809359010E94DB1381110E94E32F8091B4
:1008F000000180910001882311F090E001C094E094
:100900009093230284E0891B8093220200E611E089
:1009100074E6E72E71E0F72ED8018D918D018F3F9F
:1009200011F00E947314E016F106B1F708E611E029
:10093000F80181918F018F3F11F00E947314F1E053
:1009400000371F07A9F788E0EEE3F2E0DF01182F78
:100950001D921A95E9F7EAE1F2E0DF011D928A950E
:10096000E9F70E944B18811102C00E94561882E0DC
:1009700090E00E94A831809335020E943A1890932B
:100980001902809318020E942D16EFE3FCE93197BB
:10099000F1F700C000000E942D1680913E0280FFFA
:1009A00008C06FEF7FEF80E090E00E94DA310E9494
:1009B000622583E090E00E94A8310E944C1C0E94B6
:1009C000DB13811102C00E94E62F80912402811165
:1009D00038C00E944B18811104C00E9456180E9412
:1009E000902988E090E00E94B031609338037093C2
:1009F000390380933A0390933B038091FE02836016
:100A00008093FE026E7F71F40E94902988E090E04E
:100A10000E94B031609338037093390380933A0396
:100A200090933B030E9449290E94C028809138037B
:100A300080FF04C060E086950E94902C81E0809346
:100A4000240294E3892E92E0992E42E851E024E8B2
:100A500031E062E3662E62E0762E61E070E086149B
:100A6000970409F44EC0F901A1919F018A2F829544
:100A70008F7090E0FC01F1A0AF70EA2E8B0101C0F5
:100A8000000FAA95EAF7F02FF095FF22DC0191966E
:100A9000FC9291979296AC91A02BFC01A2A3DA0153
:100AA000FD90AD01EF2DE295EF70F0E0B1A0BF2D0C
:100AB000BF70FB2E6B0101C0CC0CBA95EAF7DC2CA1
:100AC000D094DB20D1A2D2A0CD28C2A2DC01909686
:100AD0008C9190E002C095958795EA94E2F7817039
:100AE000E0A1F0E002C0F595E795FA94E2F7E0FFA7
:100AF00002C092E001C090E0892BF30181933F0195
:100B0000AECF80910001882311F090E001C092E007
:100B10009093310282E0891B8093250281E091E06D
:100B200090936903809368038091EB02853009F00C
:100B300068C0FF24F39400E112E18091EB0285305C
:100B400009F04AC08091EB02843009F433C00E945E
:100B5000C02880912702811109C0F092270280915C
:100B600038038170809326020E94792C10926C03C6
:100B700028E130E040E40FB6F894A8952093600097
:100B80000FBE4093600083B7817F846083BF83B7CB
:100B9000816083BF7894889583B78E7F83BF0FB6BB
:100BA000F894A8958091600088618093600010920D
:100BB00060000FBE8091EA02882309F4BECF0E9434
:100BC0002D16EEE3F2E08191811172C486E492E089
:100BD0008E179F07C1F7B1CF0E94501C0E944F266D
:100BE0001092270280912602882349F080913803D1
:100BF00081608093380360E086950E94902C0E946B
:100C0000C7280E942D1681110E94BB25AEE3B2E0D9
:100C1000BCA7ABA7E6E3F2E000E010E0C02EDD9059
:100C200081918D2549F1E12CFF24F394982F9F2188
:100C3000F1F00E94DB13882399F0E9A2CAA2DF2019
:100C400081E009F480E08BA30E94C7258160782FA2
:100C50009DA38CA349A15AA16BA18DA10E94102D27
:100C6000F801EA5CFD4F8081F826F0821AC0E39417
:100C7000FF0C28E0E212DACF0F5F1F4F083011059A
:100C800069F68FEF8EA38FA318A60E94C7258160F7
:100C9000782F9AA789A74EA15FA168A58AA50E946F
:100CA000102D8091FD02882309F4B4C08091FC02CC
:100CB000E0913803E695E81BE093F802823059F49E
:100CC000F0E0E85DFE4FE4910E2F10E084E2E82EA4
:100CD00085E2F82E50C0863059F4F0E0EB5DFE4F0F
:100CE000E4910E2F10E0B4E1EB2EB5E2FB2E43C0F1
:100CF000893061F4E695F0E0EE5DFE4FE4910E2F51
:100D000010E0A9EDEA2EA4E2FA2E35C08F3061F48E
:100D1000E695F0E0E15EFE4FE4910E2F10E0FDE37A
:100D2000EF2EF4E2FF2E27C0853159F4F0E0E45EA7
:100D3000FE4FE4910E2F10E0E7EBEE2EE3E2FE2EE5
:100D40001AC0883159F0833281F4EAE1F1E005916B
:100D5000149174EEE72E72E2F72E0DC008E210E057
:100D600064E2E62E63E2F62E06C000ED17E058E9D5
:100D7000E52E52E2F52E8091F902882361F010925F
:100D8000F9020E948A149093F7028093F60210925F
:100D9000FB021092FA020E948A14E091F602F0918E
:100DA000F7029C012E1B3F0B2F3F3F4798F52091E8
:100DB0002A022223B1F010922A02209128023091B7
:100DC0002902821B930B8F3F9F4758F4205D3A48BE
:100DD00030932902209328028091FE02886080933C
:100DE000FE02C090FA02D090FB020E0F1F1F10935C
:100DF000F7020093F60286EF92E0F70109958091E1
:100E0000FA029091FB02892B29F4CD2819F081E098
:100E100080932A020FE212E090E8492E91E0592EC9
:100E200022E3622E22E0722E32E8832E31E0932EEE
:100E300044E8A42E41E0B42E7EA66DA6D12C212C30
:100E4000ADA5BEA58D91BEA7ADA7E82FEE0FEE0F05
:100E5000D5012D915D01A22FA295AF70B0E09096C3
:100E60008C9190E02F7002C0959587952A95E2F7B6
:100E70009C0121703327D4018D914D01A82FA2959B
:100E8000AF70B0E090964C9150E08F7002C05595D5
:100E900047958A95E2F7CA018170992740FF02C001
:100EA00082E090E0822B932B8E2BF30181933F0104
:100EB000D201ED902D0130903102320C8F70E82F6D
:100EC000F0E0E059FE4F9081F8018081890F808326
:100ED000F12C082E000C990B8E159F056CF0E32D5C
:100EE000F0E0E55DFD4F80818F5F808360E0832DC2
:100EF0000E949E2E21E001C020E0D8018C91082E96
:100F0000000C990B442755274E195F0948175907BC
:100F100064F0E32DF0E0E55DFD4F8081815080833A
:100F200061E0832D0E949E2E21E0F8018081082E31
:100F3000000C990BB7010E941232D8018D938D01DC
:100F4000D22A2394B2E02B127BCFD1100E94381802
:100F500086E0EBE7F3E08E010F5F1F4FD8010190B1
:100F60000D928A95E1F7C0907D03D0907E03E090CA
:100F70007F03F090800310927D0310927E03109205
:100F80007F0310928003C11003C0DD2009F451C01B
:100F90008091790390917A030E94AC259C019091F5
:100FA0007503992309F4A3C22333310508F441C022
:100FB0009F3F19F09F5F90937503CC2061F00E94D2
:100FC000FE2B1C1414F491E001C09FEF899F802D2B
:100FD000112480937D03DD2061F00E94FE2B1D14FF
:100FE00014F491E001C09FEF899F802D112480931C
:100FF0007E0330917D033323E1F020917E03222391
:10100000C1F045EB3403C0011124992319F09093EA
:101010007D0303C081E080937D0335EB2303C00192
:101020001124992319F090937E0303C081E08093EB
:101030007E03E11003C0FF2009F451C080917703C3
:10104000909178030E94AC259C01909174039923A0
:1010500009F452C22536310508F441C09F3F19F00A
:101060009F5F90937403EE2061F00E94DC2B1E14AE
:1010700014F491E001C09FEF899F802D112480938B
:101080007F03FF2061F00E94DC2B1F1414F491E019
:1010900001C09FEF899F802D1124809380033091A0
:1010A0007F033323E1F0209180032223C1F045EB3D
:1010B0003403C0011124992319F090937F0303C0D6
:1010C00081E080937F0335EB2303C0011124992332
:1010D00019F09093800303C081E080938003809196
:1010E0007D0381110BC080917E03811107C0809127
:1010F0007F03811103C08091800381110E943B2BEB
:10110000CB82DC82ED82FE8286E0F801ABE7B3E0C1
:1011100001900D928A95E1F70E944F26909134023A
:10112000891721F00E944F26809334028091EB02B0
:10113000843009F0F9CC83E08093E9008091E800E5
:1011400082FFF2CC8091E80085FF21C00E94362208
:1011500081111BC080E2E82EF12C680109C080914A
:10116000F100D6018D936D01B1E0EB1AF10869F041
:101170008091E80085FDF3CF8091E8008B77809324
:10118000E8000E943622882399F391E001C090E0A4
:101190008091E8008B778093E800992309F4C4CC10
:1011A000E9818E2F90E0FC013197E331F10508F0E1
:1011B00055C1EA5AFF4F0C9448321A8289E0A9C0FF
:1011C0008A81823009F48AC1833051F0813009F07C
:1011D00045C10E94BB259B838C837D836E8340C168
:1011E000FE013396CE010B96ABA5BCA52D91BCA7F5
:1011F000ABA721938E179F07B9F732C18A8182303E
:1012000009F02CC16B817C818D819E810E944E32C0
:1012100086E290E024C04C816B818A810E94342751
:101220009D8363C1ED80FE80FE24EF24FE248C812B
:10123000CB809A81B0E1CB9E60011124E0E89E9FB3
:10124000C00CD11C1124C80ED11CC80ED11C6F2D8E
:10125000C60187960E94BC316E2DC60188960E94F9
:10126000BC31FEC00E94E226FBC08A818138B1F009
:1012700050F4803809F0F4C020E04B8160913A03CB
:101280008091390323C08238E9F0833809F0E8C03F
:1012900020E040913B036C818B8118C060E08B8122
:1012A0000E94902C8B81811103C00E94792CD8C0A0
:1012B0008091380381608093380360E086950E94B6
:1012C000902CCEC08B8180933C03CAC00E94572AC9
:1012D000C7C08A81813899F030F4803809F0C0C0E5
:1012E00080913B0316C0823891F0833809F0B8C072
:1012F000809139038B8380913A038C83B1C08091B4
:10130000380380FF02C0869504C080E002C080914F
:101310003C038B83A5C060913803709139038091A1
:101320003A0390913B030E945C299AC080E151C02E
:1013300081E08A8389EDEDCFEA80FB80FE24EF24F3
:10134000FE24AC80B12C6801C701895D9D4F9601D8
:10135000201B310B2A153B0508F082C0F9EDEF1672
:10136000F1E0FF0630F40E94A831D60114968C9368
:1013700002C0F6011482FFEFEF1AFF0A2FEFC21A24
:10138000D20AE2CFEA80FB80FE24EF24FE24AC8068
:10139000B12C6801C701895D9D4F9601201B310B5F
:1013A0002A153B0508F05CC039EDE31631E0F30681
:1013B00028F4D60114966C910E94BC31BFEFEB1A51
:1013C000FB0AEFEFCE1ADE0AE5CF0E94D22648C014
:1013D00084E08A8345C0EA80FB80FE24EF24FE245B
:1013E000AC80B12C6801C70187969601201B310B98
:1013F0002A153B05A8F5E114F2E0FF0630F40E943F
:10140000A831D60114968C9302C0F6011482FFEF26
:10141000EF1AFF0A2FEFC21AD20AE5CFEA80FB804B
:10142000FE24EF24FE24AC80B12C6801C70187960E
:101430009601201B310B2A153B0590F4E11432E094
:10144000F30628F4D60114966C910E94BC31BFEFCC
:10145000EB1AFB0AEFEFCE1ADE0AE8CF8FEF898393
:101460008091EB02843009F05FCB8091E9008F70AE
:101470002091EC00922F917020FD90E8F92EF82A2F
:1014800082E08093E9008091E80080FF0CC040E09A
:1014900050E060E270E0C8010E9469228091E8009B
:1014A0008E778093E8008F2D8F708093E9003CCB7E
:1014B00009BD19BD09B400FEFDCF8091D8008F7D14
:1014C0008093D8008091E00082608093E00080915A
:1014D000E00081FDFCCF0E94501C2FCB86E290E003
:1014E0000E94A8311B821C821D828E83B9CF2D32AF
:1014F000314008F05FCD9DCD2D32314008F0B0CDA8
:10150000EECD9F92AF92BF92CF92DF92EF92FF9279
:101510000F931F93CF93DF93CDB7DEB72D970FB601
:10152000F894DEBF0FBECDBFFC0180819181238185
:101530003481232B31F09F3F31F491E08F3F19F438
:1015400003C091E001C090E090FDD2C67F0185E02C
:10155000DE01199601900D928A95E1F7F70122813B
:1015600089859A85222349F00E949719182F682FA0
:1015700089859A850E94CC1B03C00E94A01B182F4E
:1015800069857A85812F0E945A278C01F701828113
:10159000882309F446C0C80182519F45409708F04E
:1015A000C3C58FEF93E00E94A831811143C04EEE76
:1015B000D42ED00E07E212E0DD2069F00115F4E030
:1015C0001F07C1F1C8010E94A831811101C0DA943E
:1015D0000F5F1F4FF1CF19821A821B821C82BB241E
:1015E000B39468012FEFC21AD20AC8010E94A83131
:1015F00089831A828823F1F09FEF980F933058F473
:101600008A83B9820E5F1F4FC6010E94A8318B8367
:10161000882381F06801CE0101960E94B82D8601D1
:10162000E0CF0031FFE51F07B9F481E00E94FB1B0A
:101630000E94BA1D8091DA02877009F459C6F70139
:101640008281882309F454C68091190282FD50C614
:1016500082E00E94071C4CC601312FE5120711F4ED
:1016600082E0E4CF0E94C7256C01F70182818823C4
:1016700009F473C080915F0182FF07C04DE452E01E
:10168000B60180E090E00E94892709318CE51807B7
:10169000C9F178F40731ECE51E0751F10831FCE59A
:1016A0001F0709F04BC080915D0190915E01059785
:1016B00024C00B312CE5120781F040F00C319CE581
:1016C0001907E1F580915F018E7F0DC080915F0168
:1016D000982F909590FB80F906C080915F01816002
:1016E00080935F012BC080935F010E94672726C013
:1016F00080915D0190915E01059690935E018093CB
:101700005D011CC080915E018F9380915D018F937C
:1017100086E891E09F938F931F9288E08F93FE015C
:1017200031965F01FF93EF930E94B532C5010E948D
:10173000B82D0FB6F894DEBF0FBECDBFC8019056CE
:101740008115E0E29E0720F0905E8115904158F5EA
:101750001092620310926103B9C0013E110521F499
:1017600080915F018F7E06C0053E110531F48091A6
:101770005F018F7D80935F0116C0C801905681156F
:1017800020E2920720F0905E8115904160F48091F4
:101790005F0182FF9BC04DE452E0B60180E090E023
:1017A0000E94892793C080915F0180FF8FC0F7015D
:1017B0002281C80104974A9708F064C0222309F4E3
:1017C0005BC08091DC0290913D03982B292F2D7FE7
:1017D00049F11092620310926103F80124E0F6953A
:1017E000E7952A95E1F7EE0FFF1FE15CFC4F9801AA
:1017F0002F70332781E090E002C0880F991F2A954F
:10180000E2F7809590952081318182239323918303
:101810008083C8010E94852E8091DC028D7F0E940A
:10182000C61826C026E0F701ADE4B2E001900D92A3
:101830002A95E1F710924F02109251021092500235
:101840009695917020915F0190FB21F920935F01A3
:101850008D7F0E94C6181093620300936103D0929B
:101860006003C0925F0380915F01846080935F0199
:1018700082E00E94071CDECEA701B601C8010E94CB
:101880008927D8CE222311F11092620310926103AE
:10189000033FFCE51F07D1F178F4083D8CE51807FC
:1018A00061F1093D9CE5190709F451C0073DECE5DC
:1018B0001E0709F057C01BC0053FFCE51F07B9F123
:1018C00080F1063F8CE51807E1F14CC0033FFCE5D1
:1018D0001F07E1F008F5083D8CE5180771F0093D98
:1018E0009CE51907A1F1073DECE51E07B1F506E2FD
:1018F00021EE41EE67ED7CE505C007E225EE45EE01
:1019000068ED7CE5C7010E945F2694CE06E221EED9
:1019100040EE63EF7CE5F6CF053FFCE51F0739F0AD
:1019200060F407E225EE44EE64EF7CE5EBCF06E2DF
:1019300021EE42EE65EF7CE5E5CF063F8CE518072A
:1019400061F407E225EE46EE66EF7CE5DBCF08E2C8
:1019500021E045EE69ED7CE5D5CFF7018281882352
:1019600009F446C1109265030330FDE51F0758F4E2
:101970000A3F2CE5120760F4C80182509C45449749
:1019800008F01FC105C001368DE5180709F019C11F
:101990000E943A18909319028093180200319CE536
:1019A000190709F4CAC008F041C00830FCE51F0758
:1019B00009F4A4C0F0F404308CE5180709F48CC0D5
:1019C00068F40230ECE51E0709F482C003301C45C0
:1019D00009F0E7C0809118028260E1C006302CE572
:1019E000120709F483C008F085C08091180288604E
:1019F000D6C00C309CE5190709F490C068F40A3091
:101A0000FCE51F0709F47EC008F084C00E94501C4A
:101A1000809118028068C3C00E308CE5180709F465
:101A200081C008F086C08091180294C00C3FECE59C
:101A30001E0709F47BC038F504312CE5120709F4C0
:101A40009AC058F402319CE5190709F47AC008F0ED
:101A50007EC0809118028F7BA2C00A3FFCE51F0761
:101A6000F1F108F03FC005311C4509F09AC08091A2
:101A7000180282FB222720F991E0922790FB82F93D
:101A800090FB83F98CC001159DE5190709F467C027
:101A900050F4809119020E3FFCE51F07C1F108F0D8
:101AA0005BC08D7F65C002308DE5180709F471C0F9
:101AB00008F46DC001361D4509F073C0809118020D
:101AC00084FB222720F991E0922790FB84F967C0DC
:101AD00080911802816063C08091180216C08091C5
:101AE000190216C080911902826042C080911802CA
:101AF000806155C080911802806251C080911802A7
:101B000080644DC0809118028860846048C0826003
:101B100081602EC0809118028E7F41C08091180292
:101B20008D7F3DC080911802877F39C08091190256
:101B300014C0809118028F7E32C0809118028F7D70
:101B40002EC00E94501C809118028F7728C080916F
:101B50001802877F8B7F23C08D7F8E7F09C0809185
:101B60001902982F909591708E7F892B90FB81F9A7
:101B70008093190216C00E94501C8091180287FBA6
:101B8000222720F991E0922790FB87F908C061E0B5
:101B900001C060E08EE090E00E94BC3102C0809302
:101BA0001802609118021091190284E090E00E94DE
:101BB000BC31612F82E290E00E94BC310E94501C37
:101BC00039CD06319CE5190709F040C080913D03ED
:101BD0008A7A91E009F490E090934602882311F00C
:101BE00065E301C069E282E892E00E9409260EC026
:101BF0000631ECE51E0769F480914602882309F45A
:101C0000A2C265E382E892E00E94FC250E94D718F8
:101C100011CD80913D0382720C3CFCE51F0709F455
:101C200047C308F0C5C2063C9CE5190709F42CC35C
:101C300008F09AC2033CFCE51F0709F41BC308F037
:101C400084C2023C8CE5180709F4EAC2F7018281DC
:101C5000882389F10A35FDE51F0741F150F401158C
:101C60008CE51807A9F00E3D1C4529F50E94561871
:101C7000E1CC0B35EDE51E07D9F00C351D45D9F447
:101C80008091190282FB882780F991E0892711C091
:101C90000E94501C2FEF84E39CE021508040904034
:101CA000E1F700C000000E946225C4CC81E001C0C1
:101CB00080E00E94241CF701828100811181882329
:101CC00049F0C8010E949719D82E682FC8010E94B8
:101CD000CC1B04C0C8010E94A01BD82EB8018D2DBA
:101CE0000E945A270E949314D82E192F982EF7017C
:101CF0000281A580A2949FE0A9228091DA028770D8
:101D0000B9F00023A9F0812F807F803421F080E298
:101D10008D0D883068F08091190282FD09C082E043
:101D20000E94071C8091DA028770CC24C394811131
:101D3000C12CB12EB2948FE0B8228B2D90E08C3064
:101D4000910508F0D2C1FC01E759FF4F0C944832CD
:101D5000812F807F1F70882311F01295107F002340
:101D6000B9F0112309F4AFC180E28D0D883010F075
:101D7000911006C080913D03182B10933D0305C0C0
:101D800080913E03182B10933E030E94D7189BC1ED
:101D90008D2D0E94811C112309F4A7C180E28D0DB5
:101DA000883080F1992071F1109580913E031823BD
:101DB00010933E032AC0812F807F1F70803211F064
:101DC0001295107F8D2D992021F0F1E09F16C1F121
:101DD00046C08091190282FF1BC0002369F01123C5
:101DE00039F080913D03182B10933D030E94D718C2
:101DF00080E00E94E22E79C180E00E94811C1123C4
:101E000009F473C1812F0E94D0180E94D7186DC1A8
:101E1000002369F08091DC02A11002C0812B17C061
:101E200021E0812BA21213C00E94C6185EC1AA2015
:101E300021F081E0A81609F458C10E94C01827C0FB
:101E4000002341F095E09A1508F44FC1812F0E94BC
:101E5000771C4BC1E4E0EA1508F447C118C0002321
:101E600049F0AA2099F3F701858180FF2CC18F707A
:101E70008583ECCFAA2059F0893309F033C1FFEFF5
:101E800027EE83E0F15020408040E1F729C1812F07
:101E90000E94701C2AC1812F86958695837019F047
:101EA000813061F022C1002321F08D2D912F93709C
:101EB00002C080E090E00E9439261DC1002321F07D
:101EC0008D2D912F937002C080E090E00E94232618
:101ED00012C18D2D002319F00E941E2C02C00E94F9
:101EE000652B0E943B2B07C1812F8370A9F501113F
:101EF00000C14D2D429546954770440F440F8D2DDE
:101F00008F7090E09C01042E01C0220F0A94EAF722
:101F1000D4FE08C08FE090E001C0880F4A95EAF730
:101F2000809501C080E0169516951370123069F007
:101F300088F49091DD02113019F0822B892302C0C0
:101F4000922B892B0E944C1CD4C0822B9091DD02D5
:101F50008927F8CF822BF6CF002319F0812F8170CB
:101F600001C08695882309F4C4C04D2D429546953D
:101F70004770440F440F8D2D8F7090E09C01042E0C
:101F800001C0220F0A94EAF7D4FE08C08FE090E067
:101F900001C0880F4A95EAF7809501C080E0169548
:101FA00016951370123059F078F49091F5021130B3
:101FB00019F0822B892309C0922B892B06C0822B12
:101FC0009091F502892701C0822B0E94F71B91C0D6
:101FD0001F70002339F0812F0E94411C8D2D0E941B
:101FE000771C87C08D2D0E94701C812F0E94FB1BC7
:101FF00080C08D2D92EF991679F1991538F0E0EFA8
:102000009E1659F0F1EF9F1611F159C023EF921669
:1020100051F194EF9916B9F052C0002379F0E4E041
:10202000EA1508F462C01F7181E090E001C0880FDA
:102030001A95EAF79091F50289271FC0F5E0FA1585
:1020400008F453C0F0CF8091190282FF19C0002319
:1020500029F0812F8F7126C00023D9F3812F8F7132
:102060000E94FB1B42C0002339F01F7181E001C0B8
:10207000880F1A95EAF701C080E00E94F71B35C06F
:10208000002399F01F71812F0E94411C8091190239
:1020900082FD07C028E0129FC00111248360809355
:1020A000DA02812F0E94411C20C081E00E94071C9F
:1020B00081E08A15D0F482E00E94071C16C000233C
:1020C00021F0AA2031F28D2D94CEAA2039F2893345
:1020D00049F49FEFE7EEF3E09150E040F040E1F784
:1020E00000C000008D2D0E94811C88EF8B0D843074
:1020F00010F40E944F26CC2009F4FAC08091DA0235
:1021000080FDF6C0F70112828595859585950E9420
:10211000411CC7010E94810A8091DA02859585954C
:1021200085950E94FB1BE4C000318FE5180711F470
:1021300081E006C001319FE5190709F093CA82E0EA
:102140000E94411C75CA69E25DCD043C9CE51907FB
:1021500009F495C0053CECE51E0709F077CD49E28E
:102160005BE262E37BE2A8C0093CFCE51F0709F4DF
:1021700095C078F4073C9CE5190709F48AC0083C2F
:10218000ECE51E0709F062CD4DE15BE261E17BE227
:1021900093C00A3CFCE51F0709F485C00B3C2CE505
:1021A000120709F053CD4EE659E26FE779E284C099
:1021B000013D8CE5180709F48BC0A0F40E3CECE55A
:1021C0001E0709F47FC008F47AC00F3C2CE5120703
:1021D00009F47BC0003D8CE5180709F037CD6EE0AF
:1021E00089E07EC0043D9CE5190709F477C068F4D6
:1021F000023DFCE51F0709F46EC0033D2CE5120704
:1022000009F024CD61E088E170C0053D8CE5180738
:1022100009F469C00D359DE5190709F40BCA16CDFF
:102220008091380380FF20C08E7F809338036091B7
:1022300038037091390380913A0390913B030E94D7
:102240005C290E94C0288091FE0281608093FE027A
:10225000EFEFF0E722E0E150F0402040E1F700C06E
:1022600000000E94E228E6C981608093380361E0A3
:1022700086953BC040ED5CE269ED7CE21DC049ED16
:102280005CE260ED7CE218C042E35BE269E27BE283
:1022900013C041E15BE26DE17BE20EC049EF5AE21F
:1022A00065E07BE209C045E05BE269EF7AE204C0E9
:1022B0004FE759E26EE679E20E94BA28BBC961E0B5
:1022C00081E013C065E082E00BC068E086E008C0F2
:1022D00064E18FE005C067E185E102C062E289E167
:1022E0000E94A828A7C961E083E20E94902CA2C99D
:1022F0002D960FB6F894DEBF0FBECDBFDF91CF9104
:102300001F910F91FF90EF90DF90CF90BF90AF9013
:102310009F90089580E008959091180292FF0DC05B
:10232000282F2871283019F4877F846006C0282F51
:102330002471243011F48B7F886093FF0DC0282F07
:102340002871283119F4877E846106C0282F2471F2
:10235000243111F48B7E88612091190220FF0DC079
:10236000382F3871383019F4877F816006C0382FD4
:102370003171313011F48E7F886021FF0DC0282F1C
:102380002871283119F4877E816106C0282F2171B8
:10239000213111F48E7E886194FD877E0895AF927D
:1023A000BF92CF92DF92EF92FF920F931F93CF9342
:1023B000DF937C015B016A01809181028A3018F011
:1023C00001E010E002C00AE010E0C1E0D0E0F894C3
:1023D000B501C701F60109957894811115C02196C0
:1023E0000C171D0794F0CC9F9001CD9F300D300D40
:1023F000112480E090E045E34A95F1F70000019652
:1024000082179307C1F7E3CF81E0DF91CF911F914E
:102410000F91FF90EF90DF90CF90BF90AF90089515
:10242000CF93DF93CDB7DEB728970FB6F894DEBF12
:102430000FBECDBF85E0E8E3F3E0DE011196019029
:102440000D928A95E1F78091FC029091FD02A09196
:10245000FE028E839F83A887288540917D0250913C
:102460007E0260917F02709180023FB7F894809164
:102470006D0390916E03A0916F03B09170033FBF05
:10248000841B950BA60BB70B84369105A105B105EE
:1024900010F4222329F18091420190914301875940
:1024A0009D4F4091410150E04930510510F048E006
:1024B00050E0BE016F5F7F4F0E94AC3285E090E03C
:1024C0000E94F030892B11F080E00DC00E94BB25E6
:1024D00060937D0270937E0280937F0290938002CE
:1024E0001092FE0281E028960FB6F894DEBF0FBE70
:1024F000CDBFDF91CF9108957F928F929F92AF923F
:10250000BF92CF92DF92EF92FF920F931F93CF93E0
:10251000DF931F92CDB7DEB7762E4A0159016801CD
:10252000082F880F110BC8010E94F030892B09F089
:102530007EC08AE0809FF001819FF00D1124E35F4F
:10254000FE4F458150E04115510511F041E050E04A
:102550008AE0809FF001819FF00D1124E35FFE4F20
:102560006681778167597D4FCE0101960E94AC321A
:10257000F40140815181628173812FB7F894809179
:102580006D0390916E03A0916F03B09170032FBF04
:10259000841B950BA60BB70B84369105A105B105DD
:1025A00040F4B701C6010E944B289981891709F4AC
:1025B00040C0072D770C110BC8010E94F030892B09
:1025C00009F5E114F10401F18AE0809FF001819F97
:1025D000F00D1124E35FFE4F458150E0E416F5064F
:1025E00008F4A7018AE0809FF001819FF00D11247B
:1025F000E35FFE4F6681778167597D4FC5010E9479
:10260000AC3202C010E001C011E0B701C6010E9467
:102610004B2891E02981281390E0192381F00E9432
:10262000BB25F401608371838283938308C010E02B
:1026300001C011E0A701B601C5010E94AC32812F93
:102640000F90DF91CF911F910F91FF90EF90DF904E
:10265000CF90BF90AF909F908F907F9008959F9262
:10266000AF92BF92CF92DF92EF92FF920F931F93A0
:10267000CF93DF9300D0CDB7DEB782E0E82EF12C08
:102680000FE612E09E012F5F3F4F41E652E063E00C
:1026900082E00E947C12982E8823D9F1AE014F5F10
:1026A0005F4F6A0180E0B12C009125020B0DF6010D
:1026B00011916F01202F30E0A901455D5D4F7A0136
:1026C000FA019081191BA12E1A145CF4AA94F70147
:1026D00080818F5F808360E0802F0E949E2E81E04A
:1026E000F3CF912F17FD90E0191B112359F01F5FB5
:1026F000F70180818150808361E0802F0E949E2EAF
:1027000081E0F3CFB394F2E0BF12CECF81110E94EB
:102710003818892D0F900F90DF91CF911F910F9155
:10272000FF90EF90DF90CF90BF90AF909F90089573
:10273000CF92DF92EF92FF920F931F93CF93DF938D
:1027400000D000D0CDB7DEB76B0184E0E82EF12CCD
:102750000AE612E09E012F5F3F4F4DE552E061E037
:1027600080E00E947C12882361F049815A816B814C
:102770007C814093590250935A0260935B0270939C
:102780005C024091590250915A0260915B02709133
:102790005C02F60140835183628373830F900F9034
:1027A0000F900F90DF91CF911F910F91FF90EF90BD
:1027B000DF90CF90089580915802811118C08091C8
:1027C000D80080618093D8008AE18A95F1F700C033
:1027D0008091D90080FD02C082E001C081E0809339
:1027E0005802823021F40E94DF201092EB0281E037
:1027F00090915802913009F080E008950F931F9353
:102800000E94DB13882321F01F910F910C94BB25AC
:102810000E94BB250091140210911502209116020E
:1028200030911702600F711F821F931F1F910F912C
:102830000895CF93DF9300D000D0CDB7DEB740919D
:1028400065025091660260916702709168022FB72D
:10285000F89480916D0390916E03A0916F03B091F5
:1028600070032FBF841B950BA60BB70B8436910505
:10287000A105B10580F10E94FE13DC01CB01029697
:10288000A11DB11D89839A83AB83BC8380913801DC
:102890009091390187599D4F4091370150E0453063
:1028A000510510F044E050E0BE016F5F7F4F0E9481
:1028B000AC3284E090E00E94F030892B11F080E08F
:1028C0000BC00E94BB2560936502709366028093E3
:1028D00067029093680281E00F900F900F900F9025
:1028E000DF91CF910895F894E82FE295EF70F0E032
:1028F00031A1282F2F7081E090E001C0880F2A9528
:10290000EAF7982F9095932391A392A1892B82A304
:10291000789408950E94DB1381110C94C7250E94BE
:10292000FE13CB010895CF93DF938238910569F1AF
:10293000B0F48133910509F46FC048F489329105F0
:1029400009F465C08A32910509F46BC08AC08533E9
:10295000910509F457C089339105B9F082C0833ECF
:10296000910571F138F4803E9105B1F0823E9105F8
:1029700011F177C0863E9105B9F1873E9105C9F105
:10298000843E910509F06DC024C02091180220FDFD
:1029900053C021FD51C065C08091180280FD46C022
:1029A0008091190280FF48C08091180284FD50C1B7
:1029B00083EE90E04FC18091180282FF3AC0F4CFBD
:1029C0008091180282FD35C08091190280FD34C0CB
:1029D000EBCF8091190281FF35C08091180284FDF0
:1029E00037C187EE90E036C18091180283FF27C07F
:1029F000F4CF8091180283FD22C08091190281FDDD
:102A000021C0EBCF8091180285FD1FC021C08091AD
:102A1000180285FD1DC019C08091180286FD1BC0DB
:102A20001DC08091180286FD19C015C089E390E091
:102A300011C182EE90E00EC180EE90E00BC186EEF7
:102A400090E008C184EE90E005C189E290E002C107
:102A500085E390E0FFC08AE290E0FCC081E390E073
:102A6000F9C0811531E5930708F069C0811540E58B
:102A70009407F0F09C0174E0369527957A95E1F77C
:102A8000922F9370482F437021E030E002C0220F54
:102A9000331F4A95E2F73C68392B982F9F70969523
:102AA000969540E2949FC0011124822B932BD2C0B3
:102AB000883E910568F5803E910508F0CBC0883AC4
:102AC0009105B8F4853A910548F0855AE82FF0E071
:102AD000E557FE4F808190E09064BCC08130910545
:102AE00009F4B3C008F4B4C08430910508F4B0C050
:102AF000B1C08F3B910508F0ABC0885AE82FF0E0D9
:102B0000EE0FFF1FE257FE4F808191819464A2C0B7
:102B1000811520E2920758F4811531E0930708F0FF
:102B200099C0803F910508F493C0906593C08115CA
:102B300040E4940708F48CC09F70906A8BC08115A4
:102B400025E5920708F042C0811534E5930728F087
:102B5000982F8827846F906A7DC0811543E594077C
:102B6000B0F09C012370332741E050E002C0440FD5
:102B7000551F2A95E2F7282F2695269580E2289F53
:102B800090011124CA01822B932B9A6863C081158E
:102B900022E5920728F4982F8827816F906A5AC0FF
:102BA0009C012370332741E050E002C0440F551FC1
:102BB0002A95E2F7282F2695269580E2289F9001F6
:102BC0001124CA01822B932B9C6844C0EC0181150F
:102BD00039E59307A8F48115984528F09C2F88279C
:102BE000806F906A37C0C11586E5D80788F58C2FAD
:102BF0000E948C118F7190E0982F882790622AC0D4
:102C000081152AE5920790F48C2F8F700E948C1109
:102C100094E0D695C7959A95E1F7CF70D0E0DC2F78
:102C2000CC27D0699E01282BC90114C0905681156C
:102C3000904270F48D2F8F710E948C11282F2F716C
:102C4000CE0199279062922B05C081E090E002C0EE
:102C500080E090E0DF91CF9108957F928F929F92D4
:102C6000AF92BF92CF92DF92EF92FF920F931F939A
:102C7000CF93DF93CDB7DEB72C970FB6F894DEBFB6
:102C80000FBECDBFAE014F5F5F4F7A0188E0DA0122
:102C90001D928A95E9F700E611E06A0184E6A82E04
:102CA00081E0B82E88248394912CF80180818F3F95
:102CB00009F441C0F894E82FE295EF70F0E021A10B
:102CC0008F70A40102C0440F551F8A95E2F7CA0114
:102CD000922F982B91A392A18095892382A3789417
:102CE00000C0E8E6F1E0712C31E021912F3F89F03E
:102CF000A22FA295AF70B0E090968C9190E02F70CB
:102D000002C0959587952A95E2F780FD02C0832F32
:102D100001C080E0782A330F51E0E037F50729F74A
:102D2000D8018C918F3F11F00E947314B0EABA95CC
:102D3000F1F7F60170820F5F1F4FFFEFCF1ADF0A26
:102D4000A016B10609F0B1CF48E050E0B7018AE122
:102D500092E00E949F328C01892B41F088E0F701BC
:102D6000AAE1B2E001900D928A95E1F7F09023027A
:102D70000115110549F081E080934A020E94C725A0
:102D8000909349028093480280914A028823B9F0C7
:102D900080914802909149020E94AC25059778F0F5
:102DA000AAE1B2E0EF2DF0E0E25CFD4F8EE192E0AF
:102DB0002D9121938A179B07D9F710924A0201158A
:102DC000110509F03EC10E94DB13E0912302882324
:102DD00009F49FC019861A861B861C860E2F10E0E8
:102DE000025C1D4F809181028A3058F448E953E11A
:102DF000BE01675F7F4FC8010E94CF118823F1F1A8
:102E00000AC080914B0290914C020E94AC25843FF5
:102E1000914060F744C04FE253E1BE01675F7F4FCE
:102E2000C8010E94CF11882349F149E154E1BE0154
:102E3000675F7F4FC8010E94CF118823F9F040E1FE
:102E400052E1BE01675F7F4FC8010E94CF11882306
:102E5000A9F0109281028091220290E044E050E0BB
:102E6000BE01675F7F4F825C9D4F0E949F3221E0D1
:102E700020935702892B01F500E02CC0809181023C
:102E80008F3F19F08F5F80938102809181028A3099
:102E900010F30E94C72590934C0280934B028091BF
:102EA0005702882349F3FE01399684E0DF011D9221
:102EB0008A95E9F710925702E0912202F0E0E25C75
:102EC000FD4F89859A85AB85BC8580839183A283DC
:102ED000B38301E080915F0182FFB5C00E94C725E6
:102EE00020915F0330916003AC01421B530B209192
:102EF0005D0130915E014217530708F4A4C04DE410
:102F000052E0BC0180916103909162030E94892785
:102F10009AC0F0E0E25CFD4FF89484E0AAE6B2E0EB
:102F200001900D928A95E1F764E070E08AE692E004
:102F30000E944B28809369027894F894E0913102C2
:102F4000F0E0E55DFD4F808191819A8789879093BC
:102F5000700280936F0262E070E0CE0109960E94D9
:102F60004B2880936E027894F894C0907102D090B0
:102F70007202E0907302F09074028091530290917B
:102F80005402A0915502B0915602C816D906EA061D
:102F9000FB06D1F0C0925302D0925402E092550247
:102FA000F09256020E94DB1381110EC00E94BB25D5
:102FB000C61AD70AE80AF90AC0921402D09215027A
:102FC000E0921602F09217027894F89480917C02B5
:102FD0008823A9F180FF10C08091750280FF0AC08C
:102FE0009091380391609093380360E086950E9439
:102FF000902C02C00E94792C80917C0281FF09C034
:1030000020E04091780260917702809176020E94E0
:10301000572A80917C0282FF09C080917B0288231D
:1030200019F00E94C72802C00E94C02880917C022B
:1030300083FF03C081E08093F90210927C027894B0
:1030400002C001E010E0802F2C960FB6F894DEBF8E
:103050000FBECDBFDF91CF911F910F91FF90EF90E9
:10306000DF90CF90BF90AF909F908F907F9008950A
:103070000C94BB25CF9384E090E00E94A831C82F28
:1030800082E290E00E94A8312C2F30E0A901582B59
:10309000CA01CF91089580E090E00E94B631893E48
:1030A0009E4F11F40C948F2880E0089569EE7EEF16
:1030B00080E090E00E94DA3160E082E090E00E94DF
:1030C000BC3160E083E090E00E94BC311092DD02F0
:1030D00060E084E090E00E94BC3160E082E290E039
:1030E0000E94BC3160E085E090E00E94BC3160E06D
:1030F00086E090E00E94BC316FEF87E090E00E9494
:10310000BC3140E050E0BA0188E090E00E94CE314E
:1031100060E08DE090E00E94BC3140E050E0BA01F8
:1031200088E190E00E94CE3160E087E190E00E946B
:10313000BC3140E050E0BA018CE190E00E94CE3119
:1031400060E070E080E290E00E94DA3140E050E020
:10315000BA0188E190E00E94CE3180E00E946228AE
:103160000E94802840E050E0BA018FE090E00E9489
:10317000CE3140E050E0BA0183E190E00C94CE31D2
:103180008091DC0281111092DC0208959091190265
:1031900092FD05C09091DC0298138093DC020895A3
:1031A000809590913D03892380933D0308959091EC
:1031B0003D0380913E03892B2091DB02982F922BB7
:1031C000909382028091DC02882389F0892B80937E
:1031D0008202E4E8F2E097E080E0915029F021914A
:1031E0002223D9F38F5FF9CF81110E94C018E0919B
:1031F0006803F0916903309731F00280F381E02D8C
:1032000082E892E00994089580E090E00E943926D7
:1032100080E090E00E94232610923E031092DB0291
:103220000E94D718EBE7F3E086E0DF011D928A9554
:10323000E9F71092750310927403109276030C94C0
:103240003B2B8091D9029091A802891719F08F5FCA
:103250008770FBCF08950F931F93CF93DF938091D7
:10326000A70282958F7009F05DC08091A402882327
:1032700009F458C08091D9021091A8026091A2026D
:103280007091A302C091A502D091A60291E06F3F78
:1032900009F090E0292F06E0811709F443C0209738
:1032A00021F07F3F21F030E003C031E001C0322F38
:1032B00090E030FD34C0089FF001099FF00D11240B
:1032C000DF01A755BD4F11963C911197371327C0C9
:1032D0003C91361324C012963C91129731111FC0B5
:1032E00013964D915C9114974C1B5D0B483C510516
:1032F000B0F48091A7028F7080618093A702E2559D
:10330000FD4F80818F708061808382EA92E00E940D
:10331000810ADF91CF911F910F910C942119019691
:103320008770BACFDF91CF911F910F910895CF92FF
:10333000DF92FF920F931F93CF93DF936C01009165
:10334000F5028091DD02082BC7E0D0E010E0C80153
:103350000C2E02C0959587950A94E2F780FD04C073
:103360002197A8F7F12C09C0FC2EB6018C2F0E94E2
:103370005A270E949314019799F38F2DDF91CF91D3
:103380001F910F91FF90DF90CF900895CF93DF931F
:10339000EC010E949719BE010E945A270E949314C3
:1033A000DF91CF910895FC01808191810E94C6191F
:1033B000292F2F70E92FE295EF704E2F50E0FA0180
:1033C0003297EE30F105B8F4EB58FF4F0C944832C9
:1033D000803F99F018F4883E70F40FC0843F59F490
:1033E0000CC0883E50F0813F31F407C0822F869593
:1033F00086958695089580E0089581E008959F92CE
:10340000AF92BF92CF92DF92EF92FF920F931F93F2
:10341000CF93DF93CDB7DEB761970FB6F894DEBFD9
:103420000FBECDBF8C0185E0F801DE011D96019035
:103430000D928A95E1F7F801E2809091A2026091E5
:10344000A3024091A5025091A6024115510531F009
:103450006F3F31F481E09F3F19F403C081E001C068
:1034600080E0F82FF1709F2E80FD1AC1F8013081A5
:103470002181C380D48082EAA82E82E0B82EF09009
:10348000A402F601E41BF50BFF2009F4C6C08091ED
:10349000A702E83CF10508F091C0482F407F09F0F1
:1034A00050C0621311C093130FC0FE2CE1100CC06A
:1034B0008F7080618093A702C5010E94810A80916C
:1034C000A702F801858329C1CD2831F02F3F31F4BF
:1034D00081E03F3F19F403C081E001C080E080FD3E
:1034E00003C081E08E2502C080E090E0F82FF170EB
:1034F000FF2E80FF1CC08091D9024091A80256E0A7
:10350000841709F4E8C090E0589FF001599FF00D2E
:103510001124E755FD4F6181261306C060816313B6
:1035200003C06281E61203C001968770E9CFFE2CCA
:10353000EE2009F4F2C08091A70281608093A70277
:1035400049C0621306C0931304C0E11002C0F80121
:1035500086C0C8010E94D319882351F1EE2041F1A1
:103560002091A702822F82958F7090E0029774F0CD
:103570008091A2029091A30298878F831986DB869F
:10358000CA862C87CE0107960E94810A86E0F80140
:10359000A2EAB2E001900D928A95E1F70E942B1900
:1035A0000AC06217C9F0C8010E94D31981111EC058
:1035B000C8010E94810AFF24F394AFC0482F407FC6
:1035C00081F782EA92E00E94810A86E0F501119279
:1035D0008A95E9F7F12CA1C09313E5CFE110E3CF71
:1035E000F8018583C8010E94810A54C0EE2001F3CE
:1035F0002091A702822F82958F7090E0029734F27B
:103600008091A2029091A3029A8389831B82DD821A
:10361000CC822E83CE010196B7CFE83CF105D0F5E0
:10362000FE2CEE2029F2621327C0931325C02091AF
:10363000A70220FD18C0822F82958F70482F50E07E
:103640004115510581F0F80125834F30510541F0B6
:103650008F5F982F9295907F822F8F70892B858313
:10366000C8010E94810A86E0F801A2EAB2E0019056
:103670000D928A95E1F751C0C8010E94D3198111BA
:1036800085CF8091A70281608093A702C8010E9424
:10369000810A43C086E0F50111928A95E9F73DC0A1
:1036A000EE2009F485CFC8010E94D319F82E882393
:1036B00009F47ECF86E0F801A2EAB2E001900D9213
:1036C0008A95E1F78091A2029091A3020E94C61907
:1036D0000E942B1922C03D872E878D859E850E94D2
:1036E000C619292F22952F70223028F49F7039F0A7
:1036F000811105C00BC0243028F49F7049F4805E0E
:10370000883020F0C8010E94810A9F2CF92C05C046
:10371000F8019581907F99F7F9CF8F2D61960FB6BB
:10372000F894DEBF0FBECDBFDF91CF911F910F91F7
:10373000FF90EF90DF90CF90BF90AF909F90089553
:1037400028E0929F800D1124682F669566956695F6
:10375000982F977083E0689FB001112440E050E0FB
:1037600080E0FB01E40FF51FE657FD4F208130E0BC
:10377000092E02C0369527950A94E2F72170332767
:10378000042E01C0220F0A94EAF7822B4F5F5F4F8D
:103790004330510531F7089528E0929F800D1124A0
:1037A000E82FE695E695E695877051E001C0550F44
:1037B0008A95EAF783E0E89FF0011124E657FD4F70
:1037C00020E030E070E04081CB01022E02C09695EF
:1037D00087950A94E2F78170819584278523842751
:1037E00081932F5F3F4F2330310569F70895809310
:1037F000F5020C94041921E030E001C0220F8A95F3
:10380000EAF720958091F50282230C94F71B209112
:10381000DA02809582238093DA02982F977099F4C8
:1038200030E0482F082E000C550B2417350759F0AF
:103830009091190292FD07C08595859585950E9406
:10384000FB1B1092DA020895CF93C0911902C2FBBC
:10385000992790F9981799F080FBC2F9C093190243
:103860006091180284E090E00E94BC316C2F82E2EB
:1038700090E00E94BC3182E0CF910C94071CCF9164
:10388000089521E030E001C0220F8A95EAF7809187
:10389000F502822B0C94F71B8093DD020C94041923
:1038A00010923D0386E0E4E8F2E0DF011D928A9584
:1038B000E9F70C940419882341F0809590913E0318
:1038C000892380933E030C94D7180895882339F0F8
:1038D00090913E03892B80933E030C94D718089552
:1038E000882321F00E94D0180C94D71808958823BB
:1038F00039F090913D03892B80933D030C94D718A8
:103900000895882309F45CC0823869F40E944F2628
:1039100081FF56C069E382E892E00E9409260E9476
:10392000D71869E30EC0833891F40E944F2680FFB8
:1039300047C063E582E892E00E9409260E94D718FA
:1039400063E582E892E00E94FC250C94D718843845
:1039500069F40E944F2682FF33C067E482E892E058
:103960000E9409260E94D71867E4EBCF9CEF980FBE
:10397000913A10F4682FE5CF90E2980F983050F408
:10398000877091E001C0990F8A95EAF7892F0E940C
:10399000D018DBCF9BE5980F933020F480E090E0C7
:1039A0000C94392698E5980F973120F480E090E048
:1039B0000C942326803F20F00E94652B0C943B2B17
:1039C00008951F93CF93DF93182F893319F0C0E028
:1039D000D0E002C0C0E5D0E0812F0E94E22E209707
:1039E00041F08FE99FE00197F1F700C000002197B7
:1039F000F6CF812FDF91CF911F910C94811C809184
:103A0000ED0287FF11C08091E80082FD05C0809122
:103A1000EB028111F8CF11C08091E8008B770BC0C9
:103A20008091EB02882349F08091E80080FFF8CF75
:103A30008091E8008E778093E8000895982F973062
:103A400068F59093E900981739F07091EC00209197
:103A5000ED005091F00003C0242F762F50E021FD9F
:103A600002C09F5FECCF3091EB003E7F3093EB00C4
:103A70003091ED003D7F3093ED003091EB003160EF
:103A80003093EB007093EC002093ED005093F00026
:103A90002091EE0027FDE5CF80E008958F708093A0
:103AA000E90081E008952091F3023091F402261795
:103AB000370748F06115710539F42091E8002E7739
:103AC0002093E80001C0B901FC0120E061157105F7
:103AD00079F18091EB028823F1F18530F1F1809149
:103AE000E80083FD3CC08091E80082FD2EC08091FB
:103AF000E80080FFEBCF2091F3008091F20090E08E
:103B0000922B6115710551F08830910538F421919F
:103B10002093F100615071090196F3CF21E00897DD
:103B200009F020E08091E8008E778093E800CECF06
:103B30002111CFCF0AC08091EB02882361F085303C
:103B400061F08091E80083FD0AC08091E80082FF67
:103B5000F2CF80E0089582E0089583E0089581E047
:103B600008950895BC0184E00C943825BC0183E0DD
:103B70000C9438258091F502982F9670963011F4A8
:103B8000886001C0877F0C94F71B1F93CF93DF934E
:103B9000CDB7DEB7AA970FB6F894DEBF0FBECDBF84
:103BA000EDEEF2E085EF92E02091F10021938E1787
:103BB0009F07D1F78091EE02833009F463C030F49F
:103BC000813071F0823009F49DC0B4C08A3009F4AC
:103BD00089C08B3009F46EC0893009F0ABC020C0B9
:103BE0008091ED02813A09F0A5C08091E800877FBD
:103BF0008093E8008091F1029091F202892B21F4E8
:103C000068E081EE92E003C060E080E090E070E068
:103C10000E94531D8091E8008B778093E8008AC052
:103C20008091ED02813209F085C08091F10290917E
:103C3000F202009719F0029709F07CC08091E80029
:103C4000877F8093E8008091E80082FD05C0809125
:103C5000EB028111F8CF6EC02091F3008091F20049
:103C600090E0922B029731F48091F100813011F0B5
:103C7000863021F48091F1008093E0028091E80089
:103C80008B7754C08091ED02813A09F053C0809146
:103C9000F1029091F202892B09F04CC08091E8006A
:103CA000877F8093E8008091E80080FFFCCF8091BF
:103CB000490137C08091ED028132E1F58091F10236
:103CC0009091F202892BB1F58091E800877F809373
:103CD000E8000E94FF1C8091EF02809349010E943E
:103CE000501C28C08091ED02813221F58091E800BE
:103CF000877F8093E8000E94FF1C8091F0028093F0
:103D0000DF0218C08091ED02813AA1F48091E800B1
:103D1000877F8093E8008091E80080FFFCCF80914E
:103D2000DF028093F1008091E8008E778093E800B5
:103D30000E94FF1C8091E80083FFDFC18091ED02AB
:103D40009091EE02492F50E04A30510508F0D5C15C
:103D5000FA01ED57FF4F0C944832803821F0823839
:103D600009F0CBC108C08091E9029091EA02992341
:103D700089F082600FC08091F1028F70873008F067
:103D8000BCC18093E9008091EB0085FB882780F916
:103D90001092E9009091E800977F9093E80080935B
:103DA000F1001092F10070C1282F2D7F09F0A5C1FC
:103DB000882319F0823061F0A0C18091EF02813038
:103DC00009F09BC1933009F080E08093EA022EC095
:103DD0008091EF0281112AC08091F1028F702FEF44
:103DE000280F263008F089C18093E9002091EB006C
:103DF00020FF1CC0933021F48091EB00806214C03E
:103E00009091EB0090619093EB0021E030E0A901EC
:103E100002C0440F551F8A95E2F74093EA001092C2
:103E2000EA008091EB0088608093EB001092E9003B
:103E30008091E800877F8093E8000E94FF1C5DC1AD
:103E400081115BC11091EF021F778091E3008078B0
:103E5000812B8093E3008091E800877F8093E800C6
:103E60000E94FF1C8091E80080FFFCCF8091E3005E
:103E700080688093E300111102C082E001C083E0FA
:103E80008093EB023AC18058823008F036C120910D
:103E9000EF023091F0022C3D53E0350779F583E0D5
:103EA0008A838AE289834FB7F894DE01139620E073
:103EB0003EE051E2E32FF0E050935700E49120FF01
:103EC00003C0E295EF703F5FEF708E2F90E0EA3015
:103ED00010F0C79601C0C0968D939D932F5F24313B
:103EE00049F74FBF8091E800877F8093E8006AE23E
:103EF00070E0CE0101960E94531DB4C08091F10282
:103F00009091F202432F552743305105A9F068F4F0
:103F10004130510509F400C14230510509F0EDC0AE
:103F20008BE590E0E9E0F2E04BC04132510529F128
:103F30004232510589F1E1C0C901992781309105CB
:103F4000A1F058F0029709F0D8C0E6E7F2E0E4915A
:103F50008E2F90E0E6E7F2E030C0ECEAF2E0E49188
:103F60008E2F90E0ECEAF2E028C0E4E9F2E0E49180
:103F70008E2F90E0E4E9F2E020C08330910508F054
:103F8000BCC0880F991FFC01E953FE4F0190F081DE
:103F9000E02D89E090E014C08330910508F0ADC0B9
:103FA000FC01EE0FFF1FEF53FE4F0190F081E02D5B
:103FB000DC01A254BE4F8C9190E0009709F49DC0A3
:103FC0002091E800277F2093E8002091F3023091B0
:103FD000F4022817390708F4C90140E0009789F175
:103FE0002091EB02222309F43DC02530D9F1209124
:103FF000E80023FD37C02091E80022FD2FC020916A
:10400000E80020FFEBCF4091F3002091F20030E078
:10401000342B009759F02830310540F444914093F7
:10402000F100319601972F5F3F4FF3CF41E02830E9
:10403000310509F040E02091E8002E772093E80058
:10404000CDCF4111CDCF0AC08091EB02882351F032
:10405000853041F08091E80083FD04C08091E80044
:1040600082FFF2CF8091E8008B778093E80045C013
:10407000803809F042C08091E800877F8093E80093
:104080008091EC028093F1008091E8008E77D3CE8E
:10409000811133C08091EF029091F002992702972D
:1040A00064F58091E800877F8093E8001091EF022B
:1040B0001093EC020E94FF1C111106C08091E300D6
:1040C00087FD02C081E001C084E08093EB0242E002
:1040D00061EC81E00E941E1D42E261EC84E00E94DE
:1040E0001E1D42E261EC82E00E941E1D42E260EC75
:1040F00083E00E941E1D8091EB028091E80083FF07
:1041000010C08091E800877F8093E8008091EB00E9
:1041100080628093EB0005C082E190E0E4E6F2E08B
:104120004FCFAA960FB6F894DEBF0FBECDBFDF917A
:10413000CF911F9108951F920F920FB60F921124E5
:104140002F933F934F935F936F937F938F939F939F
:10415000AF93BF93CF93DF93EF93FF93C091E900A9
:10416000CF708091EC00D82FD17080FDD0E81092F4
:10417000E9008091F000877F8093F00078940E949E
:10418000C51D1092E9008091F00088608093F000D6
:10419000CD2BCF70C093E900FF91EF91DF91CF91CC
:1041A000BF91AF919F918F917F916F915F914F914F
:1041B0003F912F910F900FBE0F901F901895E8ED33
:1041C000F0E080818E7F80831092E2001092DA000E
:1041D0001092E100A0EEB0E08C9181608C93808120
:1041E0008F77808319BCA7EDB0E08C918E7F8C9384
:1041F00080818F7E80831092DE020895CF92DF92BD
:10420000EF92FF920F931F93CF93DF93C8EDD0E00F
:1042100088818F7E8883E7EDF0E0808181608083F4
:1042200084E082BF81E08093DE0288818E7F888374
:1042300002EE10E0F80110821092DA0081EEC82E32
:10424000D12CF601108288818F77888388818068DD
:10425000888388818F7D888319BC1092EB0210922D
:10426000EC021092EA021092E90290EEE92EF12C93
:10427000F70180818B7F808388818160888342E021
:1042800060E080E00E941E1DF60180818E7F8083A9
:10429000F801808181608083808188608083F7015C
:1042A00080818E7F8083888180618883DF91CF9138
:1042B0001F910F91FF90EF90DF90CF9008951F9284
:1042C0000F920FB60F9211242F933F934F935F934A
:1042D0006F937F938F939F93AF93BF93EF93FF93CE
:1042E0008091E10082FF09C08091E20082FF05C059
:1042F0008091E1008B7F8093E1008091DA0080FF64
:104300002AC08091D80080FF26C08091DA008E7F7D
:104310008093DA008091D90080FF18C080E189BDC8
:1043200082E189BD09B400FEFDCF81E08093EB02FC
:104330008091DE0281110FC00E94DF200E94FE20CA
:104340008091E20084608093E20005C019BC109265
:10435000EB021092DE028091E10080FF17C0809195
:10436000E20080FF13C08091E2008E7F8093E20024
:104370008091E20080618093E2008091D8008062A9
:104380008093D80019BC85E08093EB028091E10016
:1043900084FF30C08091E20084FF2CC080E189BDA1
:1043A00082E189BD09B400FEFDCF8091D8008F7DE8
:1043B0008093D8008091E1008F7E8093E10080910E
:1043C000E2008F7E8093E2008091E2008160809322
:1043D000E2008091EC02882311F084E007C0809114
:1043E000E30087FD02C081E001C083E08093EB021F
:1043F0008091EB028091E10083FF27C08091E20071
:1044000083FF23C08091E100877F8093E10082E0F9
:104410008093EB021092EC028091E1008E7F8093FA
:10442000E1008091E2008E7F8093E2008091E200C3
:1044300080618093E20042E060E080E00E941E1D07
:104440008091F00088608093F000FF91EF91BF9120
:10445000AF919F918F917F916F915F914F913F911C
:104460002F910F900FBE0F901F9018952091E40090
:104470003091E50095E64091EC00842F817040FF7B
:1044800023C08091E80080FD1DC08091EB0288234D
:1044900099F0853099F08091EB0085FD11C0409135
:1044A000E4005091E5002417350729F3915011F0ED
:1044B0009A01E1CF84E0089582E0089583E00895B1
:1044C00081E0089580E008954091E80042FFDDCF4B
:1044D0000895EF92FF920F931F93CF93DF937C0188
:1044E0008B010E943622811119C0E70101151105C7
:1044F000A1F08091E80085FD0AC08091E8008E77E8
:104500008093E8000E943622882381F307C08991B6
:104510008093F10001501109E9CF80E0DF91CF9144
:104520001F910F91FF90EF9008958091E002089500
:10453000089524E02093E9002FEF3091E800215006
:1045400035FD06C035ED3A95F1F700002111F5CFA4
:104550002091E80025FF0BC040E050E066E070E0ED
:104560000E9469228091E8008E778093E800089588
:10457000CF93DF9321E02093E9002FEF3091E80003
:10458000215035FD06C035ED3A95F1F700002111B7
:10459000F5CF2091E80025FF14C0EC0140E050E089
:1045A00068E070E00E9469228091E8008E77809335
:1045B000E80088E0FE01A1EEB2E001900D928A953C
:1045C000E1F7DF91CF9108950F931F93CF93DF937E
:1045D00000D01F92CDB7DEB78C01809137038111D7
:1045E0000AC09E012F5F3F4F4FEF6FEF0E94A72938
:1045F0008A8180933703F8018481813051F028F05B
:10460000823061F4409137030AC08091370340E063
:1046100007C06091370340E080E003C040E080E0E5
:1046200060E00E942E29F801848190E0019663E009
:1046300070E00E94123284830F900F900F90DF91F0
:10464000CF911F910F9108958F929F92AF92BF9239
:10465000CF92DF92EF92FF920F931F93CF93DF934E
:104660008C01FC014481C42FD0E09E01DE010E9438
:104670005D329B01AC010E9473326B017C01E0E270
:10468000F0E0EC1BFD0BA5E5B0E09B01AC010E9446
:1046900073324B015C019F01DF010E9455329B0187
:1046A000AC010E947E329B01AC012C0D3D1D4E1DC4
:1046B0005F1DC501B4010E942632C22FD22F2A32BB
:1046C00028F4F3E02F9F900111240DC025E530E080
:1046D0002C1B3109C901880F991F280F391F37FF7B
:1046E00002C02F5F3F4F35952795C22FC095F12C03
:1046F00085E5E82EED1A80915C01F816C8F4F1FC0E
:1047000002C08E2D01C08D2F90915A012F2D30E0C7
:10471000290F311DA901440F551F240F351F2F5F8D
:104720003C4F4C2F60913A030E94A729F394E3CFAA
:104730000E94E228F8018481811102C091E003C047
:10474000803219F49FEF9093570190915701890F90
:10475000F8018483DF91CF911F910F91FF90EF902B
:10476000DF90CF90BF90AF909F908F9008951F9350
:10477000CF93DF93EC018C81811109C081E08C83A0
:104780001092000392E0909356018093550180911E
:104790005A0190915B01891770F4E82FF0E09F01B6
:1047A000220F331FE20FF31FEF5FFC4F11821082C5
:1047B00012828F5FF0CF10E060915C011617C0F598
:1047C000E12FF0E070E0CF010E94123220915A01F7
:1047D000820F20910003022E000C330B90E0E217B1
:1047E000F307CCF020915601022E000C330B2E174C
:1047F0003F078CF09C01220F331F820F931F9C01F7
:104800002F5F3C4F40913B0360913A038091390305
:104810000E94A7290BC0FC01EE0FFF1F8E0F9F1FE8
:10482000FC01EF5FFC4F1182108212821F5FC4CF28
:104830000E94E2288091550120910003280F2093C7
:10484000000390915601980F9093560119165CF44D
:10485000022E000C330B40915C0150E04150510995
:104860002417350734F0819580935501813009F480
:104870001C82DF91CF911F9108957F928F929F921A
:10488000AF92BF92CF92DF92EF92FF920F931F935E
:10489000CF93DF93EC018A8180FF03C0BB24BA94DD
:1048A00002C0BB24B3948C8181110DC081E0B81289
:1048B00006C080915C0181508093FF0202C010927B
:1048C000FF0281E08C83A12C42E1842E90905C0158
:1048D000A91408F041C080915A01CA2CD12C86013C
:1048E000080F111DC801880F991F080F191F0F5FAE
:1048F0001C4FF80111821082128234E0E32EF12C59
:10490000712C8091FF02870D83312CF0682D0E945D
:10491000F031892F02C087FD890D082E000C990BFC
:10492000C816D90691F480913B038E9DA0018F9DFE
:10493000500D1124559547955595479598016091CF
:104940003A03809139030E94A7297B0CF1E0EF1A0A
:10495000F108B9F6A394BACF0E94E2288091FF0231
:1049600091E0B9120EC0811107C080915C018150A5
:104970008093FF021C820FC081508093FF02BC8293
:104980000AC090E0019660915C0170E00E941232D2
:104990008093FF028C83DF91CF911F910F91FF9045
:1049A000EF90DF90CF90BF90AF909F908F907F90CF
:1049B0000895FF920F931F93CF93DF93EC01F12C97
:1049C0000FEF10E060915C01F616F0F480915A014F
:1049D0002F2D30E0280F311DC901880F991F280F96
:1049E000391F2F5F3C4F70E0C8010E941232962F92
:1049F0008C8140913B0360913A03F99E800D112414
:104A00000E94A729F394DECF0E94E2289A818C812C
:104A100090FF02C08F5F01C081508C83DF91CF91E6
:104A20001F910F91FF900895CF93DF93EC01E8E37E
:104A3000F3E0438162818C810E943D2A8C818F5FEB
:104A40008C83DF91CF910895CF93DF93EC01EC81BC
:104A5000F0E0E055FD4F4491E8E3F3E062818181AD
:104A60000E943D2A8C818F5F8C83DF91CF910895C6
:104A70008093710370937303609372038091EB02D0
:104A80008430F9F48093E9008FEF9091E800815031
:104A900095FD06C095ED9A95F1F700008111F5CFCF
:104AA0008091E80085FF0DC040E050E063E070E0D9
:104AB00081E793E00E9469228091E8008E778093DD
:104AC000E800089581E08093E00080E28093D800C0
:104AD0001092C9008FE19EE40197F1F700C0000039
:104AE00087E090EBDC018093810390938203A09395
:104AF0008303B09384039CE088E10FB6F894A895F3
:104B0000809360000FBE90936000FFCF78941F9257
:104B10000F920FB60F9211248F939F93AF93BF9371
:104B200080916D0390916E03A0916F03B09170031B
:104B30000196A11DB11D80936D0390936E03A09308
:104B40006F03B0937003BF91AF919F918F910F90BE
:104B50000FBE0F901F9018959C014FB7F89480914D
:104B60006D0390916E03A0916F03B09170034FBFDE
:104B7000821B930B08952FB7F89460916D03709189
:104B80006E0380916F03909170032FBF08952FB72C
:104B9000F89480916D0390916E03A0916F03B09192
:104BA00070032FBF08951F920F920FB60F9211241A
:104BB0008F939F93AF93BF9380916C03811113C028
:104BC00080916D0390916E03A0916F03B09170037B
:104BD0004196A11DB11D80936D0390936E03A09328
:104BE0006F03B0937003BF91AF919F918F910F901E
:104BF0000FBE0F901F9018959C012A5F3F4FFC013C
:104C00004281461301C01282019682179307B9F7B9
:104C100008959C01FC0132969FEF80E04191461778
:104C200089F09F3F19F4411101C0982F8F5F8630A2
:104C3000A9F79F3F39F0F901E90FF11D97FDFA95AA
:104C400062830895089520916A0330916B032817B9
:104C5000390771F090936B0380936A03E0916803C6
:104C6000F0916903309721F00084F185E02D0994DB
:104C7000089520916603309167032817390771F072
:104C80009093670380936603E0916803F091690352
:104C9000309721F00680F781E02D099408950E9455
:104CA000DB13882351F0E0916803F091690330979A
:104CB00021F00190F081E02D099480E008950F9398
:104CC0001F93CF93DF93C42FD22FFC0182818823BF
:104CD000C9F0409365030E94C725909364038093B5
:104CE000630380E28C0F883008F057C0C77081E002
:104CF00001C0880FCA95EAF7DF91CF911F910F91FC
:104D00000C94771C80916503481330C08091630335
:104D1000909164030E94AC25883C910538F510E21F
:104D20001D0FCD17B9F080E28C0F883040F4C770AA
:104D300081E001C0880FCA95EAF70E94701C183004
:104D400028F581E09D2F977001C0880F9A95EAF7AA
:104D50000E94771C802F0E94E11C1830F0F4D7705D
:104D600081E001C0880FDA95EAF70AC080E28C0F73
:104D7000883098F4C77081E001C0880FCA95EAF7BF
:104D8000DF91CF911F910F910C94701C802FDF91B8
:104D9000CF911F910F910C94E11CDF91CF911F9146
:104DA0000F910895CF93DF93C7E2D2E060E0CE0188
:104DB0000E94BC312196C11584E0D807B9F7DF9174
:104DC000CF9108956F927F928F929F92AF92BF92F0
:104DD000CF92DF92EF92FF920F931F93CF93DF93C7
:104DE000C0E0D0E000E010E03E0187E2680E711CF8
:104DF0006301C00ED11EE12CF12C4E01800E911EDC
:104E0000F401EE0DFF1DE055FC4FA590B4906B2D05
:104E1000C6010E94BC316A2DC60101960E94BC31B8
:104E200082E0E80EF11C82E0C80ED11C80E1E81699
:104E3000F10431F7005F1F4F00381105C9F6C05863
:104E4000DF4FC11582E0D80769F6DF91CF911F913E
:104E50000F91FF90EF90DF90CF90BF90AF909F9019
:104E60008F907F906F9008950F931F93CF93DF9350
:104E7000C42FD0E0CC0FDD1F20E1629FC00DD11DFB
:104E8000112430E8839FC00DD11D1124CE018796D7
:104E90000E94A831082F10E0102F0027CE0188961D
:104EA0000E94A8319801282BC901DF91CF911F9151
:104EB0000F910895462F843038F4783028F4683004
:104EC00018F4672F0C94342780E090E008958091C7
:104ED0005F01877F80935F0190913E039D7F909358
:104EE0003E0384FF08C08F7E80935F0180913D0365
:104EF000826080933D0380915F0185FF08C08F7DB4
:104F000080935F0180913D03806280933D030C9408
:104F1000D718DF92EF92FF920F931F93CF93DF93F7
:104F2000EC018B0180915F0182FF8FC0E0906103F3
:104F3000F0906203EC16FD0619F0209709F085C089
:104F400080915F018B7F80935F0181FD11C0809113
:104F50005F0390916003A801481B590B81E02091E9
:104F60005D0130915E014217530718F480E001C0E3
:104F700081E08170D82E80915F01D0FA81F9809311
:104F80005F01E701DD27FE0184E0F695E7958A954C
:104F9000E1F797012F703327EE0FFF1FE15CFC4F05
:104FA00081E090E002C0880F991F2A95E2F7DD208A
:104FB00029F020813181822B932B06C0809590951A
:104FC00020813181822393239183808380913D03CB
:104FD00081FF08C080915F01806180935F0182E062
:104FE0000E94D01880913D0385FF08C080915F0129
:104FF000806280935F0180E20E94D018DD2029F05A
:1050000080913E03826080933E03C70190568115D4
:1050100020E2920720F0905E8115904108F47E0115
:10502000C7010E94852E80916103909162039C01CB
:105030003056211540E2340720F0305E2115304112
:1050400008F499270E946B2E18C09E013327CE01C9
:105050009056811540E2940720F0905E81159041B2
:1050600010F4C90101C0CE010E946B2E8091610332
:1050700090916203C817D90711F40E946727109313
:10508000600300935F03DF91CF911F910F91FF9019
:10509000EF90DF900895FC01680F791F8FEF91E387
:1050A000E617F70771F02191822728E030E087FFAB
:1050B00003C0880F892701C0880F21503109B9F733
:1050C000EFCF0895CF93C82F811102C06FEF01C0B9
:1050D00062E283E290E00E94BC31C11102C06FEF36
:1050E00001C068E084E290E00E94BC31C11102C0BE
:1050F0006FEF01C060E285E290E0CF910C94BC318B
:1051000080E00E94622860E086E290E00E94BC316C
:105110000E94E2260E94D22681E00C94622883E25B
:1051200090E00E94A831823281F484E290E00E94F3
:10513000A831883051F485E290E00E94A83191E0D6
:10514000803209F090E0892F01C080E081700895DD
:105150009091380390FF04C09695981740F003C0D3
:10516000811105C090E0961710F40C94D92C61E0E1
:105170000C94902C882311F0FA0101C0FB010994D2
:10518000ECEFF2E011828281846082830895609165
:105190003803669570E04BE050E08AE491E00E94AD
:1051A0009232892B19F481E08093FD020E948A14C7
:1051B0009093F7028093F6028091FE0284608093C0
:1051C000FE020895309159018091380380FF16C086
:1051D000E091580163E0E69FF0011124EF5FFC4F7E
:1051E000529A8BB18B7F9BB194602FB7F894AF012B
:1051F00063E0369F400D511D112414C080915A0167
:1052000090915B01891720F7E82FF0E0AF01440F80
:10521000551FE40FF51FEF5FFC4F118210821282C1
:105220008F5FF0CFE417F50789F0319168E09BB903
:10523000000000C037FF8BB9330F000000C000C072
:1052400000C08BB900C06A9591F7ECCF2FBF8FE5F6
:1052500094E00197F1F700C00000089590913803A1
:1052600090FF16C090915A0120915B01921770F443
:10527000E92FF0E0DF01AA0FBB1FEA0FFB1FEF5F72
:10528000FC4F8183608342839F5FF0CF0C94E228C0
:10529000089580913803282F269530E02115310597
:1052A00019F48170826005C02432310524F08170C8
:1052B0008664809338030895CF92DF92EF92FF9235
:1052C0006B017C010E944929B701A60188E090E0AA
:1052D000FF90EF90DF90CF900C94CE3180913C0303
:1052E000882319F0815080933C03609138037091BA
:1052F000390380913A0390913B030C945C2980918F
:105300003C03833018F48F5F80933C036091380333
:105310007091390380913A0390913B030C945C297E
:10532000E8E3F3E083E0808311828FEF828383835D
:105330001482ACEFB2E012968C91129783601296B1
:105340008C9360817181828193810C945C29AF92EE
:10535000BF92CF92DF92EF92FF920F931F93CF9362
:10536000DF93E82EF62EE901E42FF0E0611106C08C
:10537000E055FA4FE4914E2F2E2F71C0062F10E00A
:10538000E055FA4F4491F42FC42ED12C26E0829F91
:10539000C00111242FEF30E0B9010E94FE315BEA19
:1053A0005603C001579F900D11248E0D911D8E0D37
:1053B000911D582F550F580FD901A01BB10BAC9D53
:1053C000C001AD9D900DBC9D900D1124E92FF59E5F
:1053D000D0011124AB2FBB277901EA1AFB0AEC9C00
:1053E000D001ED9CB00DFC9CB00D11245901A51A03
:1053F000B108A09E7001A19EF00CB09EF00C11248B
:10540000EF2CFF242E193F092C9D80012D9D100D9E
:105410003C9D100D1124212F6230710591F048F44C
:1054200061157105E1F061307105B9F4242F4B2F3E
:1054300016C06430710569F040F06630710579F08E
:105440000CC0242F492FE12F0AC0492FEF2F2B2FFB
:1054500006C0292FE42F412F02C0292FEB2F4983AB
:105460002883EA83DF91CF911F910F91FF90EF90F6
:10547000DF90CF90BF90AF900895CF93DF9300D08F
:105480001F92CDB7DEB79091380390FF0AC09E01FE
:105490002F5F3F4F0E94A7294B8169818A810E941B
:1054A0002E290F900F900F90DF91CF910895AF921A
:1054B000BF92CF92DF92EF92FF920F931F93CF9301
:1054C000DF9300D01F92CDB7DEB7182FF62E042F32
:1054D000E22E9091380390FF7EC0E92FE695AE2F23
:1054E000B0E0A353BE4F8C918093FC029E7F92301C
:1054F00061F49E012F5F3F4F812F0E94A7294B81AE
:1055000069818A810E942E2943C0823019F400915A
:105510003B033EC0863019F41091390339C08930FD
:10552000D9F38931A9F5E9518E2F8170D82EE695EE
:10553000F0E0E055F94FA590B490C12CBB246091E8
:105540005C01C61618F52C2D30E0A29EC001A39E6A
:10555000900DB29E900D112470E00E94FE31812FBB
:10556000D11002C0860F01C0861B90915A01290FED
:10557000311DA901440F551F240F351F2F5F3C4FCC
:10558000402F6F2D0E94A729C394D9CF0E94E228F3
:1055900080913903181308C080913A03F81204C0AF
:1055A00080913B03081729F08091FE02826080936E
:1055B000FE0210933903F0923A0300933B03EE206E
:1055C00051F0609138037091390380913A039091C2
:1055D0003B030E945C290F900F900F90DF91CF91B9
:1055E0001F910F91FF90EF90DF90CF90BF90AF9001
:1055F0000895E8E3F3E0438128E0421B08F440E02B
:1056000021E0628181810C94572AE8E3F3E0438131
:1056100028E0420F08F44FEF21E0628181810C9471
:10562000572AE8E3F3E0628128E0621B08F460E0B7
:1056300021E0438181810C94572AE8E3F3E0628101
:1056400028E0620F08F46FEF21E0438181810C9420
:10565000572AE8E3F3E0818121E0438162818850A9
:105660000C94572AE8E3F3E0818121E043816281D1
:10567000885F0C94572A0E94C72520917D03211131
:1056800004C020917E03222321F090937A0380931B
:10569000790320917F03211104C0209180032223EC
:1056A00021F09093780380937703E0916803F09161
:1056B0006903309749F082E080937B030480F58191
:1056C000E02D8BE793E009940895803F39F49091A1
:1056D0007E0397FF35C010927E0359C0813F29F4A5
:1056E00090917E031916BCF32BC090917D03823FED
:1056F00029F497FF25C010927D0349C0833F19F418
:105700001916CCF31DC090917F03893F29F4191617
:10571000BCF410927F033BC08A3F19F497FF10C07E
:10572000F8CF8B3F39F49091800397FF09C0109216
:1057300080032DC08C3F21F4909180031916BCF397
:105740009CE0980F953080F421E030E0A90102C080
:10575000440F551F9A95E2F7CA01809590917C03FA
:10576000892380937C0313C08D3F21F480917603BD
:105770008E7F0BC08E3F21F4809176038D7F05C014
:105780008F3F29F4809176038B7F809376038091FD
:105790007D03811106C080917E03811102C01092A9
:1057A000750380917F03811106C080918003811170
:1057B00002C01092740308958091760380FD16C094
:1057C00081FD16C082FD18C080917403882391F07A
:1057D000883290F428E0829FC001112468E270E0D2
:1057E0000E941232862F672B29F007C082E00895AD
:1057F00084E0089581E0089588E00895809176031B
:1058000080FD14C081FD14C082FD16C08091750317
:10581000882381F0843180F422E3829FC001112427
:1058200064E170E00E941232862F08958CE00895A2
:1058300089E1089585E0089582E30895803F21F489
:105840000E94FE2B819504C0813F29F40E94FE2B0B
:1058500080937E030895823F21F40E94FE2B819560
:1058600004C0833F29F40E94FE2B80937D0308959A
:10587000893F19F40E94DC2B05C08A3F31F40E9455
:10588000DC2B819580937F0308958B3F21F40E9448
:10589000DC2B819504C08C3F29F40E94DC2B809383
:1058A000800308959CE0980F953078F421E030E073
:1058B000A90102C0440F551F9A95E2F7CA019091C1
:1058C0007C03892B80937C0308958D3F21F4809184
:1058D000760381600BC08E3F21F480917603826055
:1058E00005C08F3F29F4809176038460809376030E
:1058F0000895E8E3F3E080818E7F80830E94C028D2
:10590000ECEFF2E08281816082832FEF80E792E00A
:10591000215080409040E1F700C000000C94E22844
:105920009091380390FF3BC09170811102C092604A
:1059300006C0843210F0966402C0880F982B9093B2
:1059400038038091FE0281608093FE02662351F04D
:10595000609138037091390380913A0390913B0331
:105960000E945C2960913803669570E04BE050E03E
:105970008AE491E00E949232892B19F00E94C0289B
:1059800002C00E94C72881E08093F90220E0409184
:105990003B0360913A03809139030C94572A089590
:1059A000809138038695815009F483E261E00C947C
:1059B000902C8091380386958F5F843208F081E0C7
:1059C00061E00C94902C9C013A9521153F4130F5F3
:1059D000BC0166277270AC01442754709C012227D9
:1059E000387094FF0FC090FF02C080E101C080E0DA
:1059F000672B09F08062452B09F08064232B79F036
:105A000080680895892F8170672B09F08260452B8B
:105A100009F08460232B19F08860089580E00895D0
:105A20001F93CF93DF93CDB7DEB767970FB6F89488
:105A3000DEBF0FBECDBF4B8B5C8B6D8B7E8B8F8B98
:105A4000611110923E0386E09E01235F3F4FD90112
:105A5000E82F1D92EA95E9F795E0FE017396D901CA
:105A600001900D929A95E1F79C894E895F897B8917
:105A70007D879E876F87598B488BF901DE011796CA
:105A800001900D928A95E1F7CE0107960E94FF19C9
:105A900081113EC086E0FE013796DE01119601902D
:105AA0000D928A95E1F7FF81E8856A857B8561150E
:105AB000710531F0EF3F31F481E0FF3F19F403C08D
:105AC00081E001C080E080FD23C02091A80230E089
:105AD000C9010196877099274091D90250E0841737
